:020000040000FA
:0600000063EF6BF012003B
:0600080004EF50F01200AD
:060018000CEF50F0120095
:06A0000063EF6BF012009B
:02A00600120046
:06A008001CEF50F01200F5
:02A00E0012003E
:06A0180025EF50F01200DC
:02A01E0002003E
:10A020000FD70000600000001D000000C3D2000038
:08A030009C000000010000008B
:08A03800DACFE4FFE2CFDAFF0A
:10A04000E652E552E5CFDAFF1100D8CFE4FFE0CFCA
:10A05000E4FFE46EDACFE4FFE2CFDAFFE652E55246
:10A06000E5CFDAFFE550E5CFE0FFE5CFD8FF100000
:10A07000CDEC66F038EC67F06DEC65F0B8EC62F0B2
:10A08000E66A9DEC63F0E5521200B3EC68F000095B
:10A0900001E1FBD70F014869496938EF50F081B001
:10A0A0001FD0000179C014F07AC015F07BC016F003
:10A0B0007CC017F0792B000E7A237B237C23D88079
:10A0C000010E1454000E1554000E1654000E1754B1
:10A0D00006E2796B7A6B7B6B7C6B010E786F11D02B
:10A0E000000178050EE179517A117B117C1104E1B0
:10A0F000786B010E08D005D07907000E7A5B7B5B88
:10A100007C5B000E00D01200D9CFE6FFE1CFD9FF73
:10A11000020EE126030EE66ED0EC66F0E552F3CFB8
:10A12000DEFFF4CFDDFFDECF14F0DDCF15F0D890E9
:10A13000155004E6580E145C020E15581AE2DECFD4
:10A1400014F0DDCF15F0D890155004E68A0E145C9B
:10A15000020E15580AE2030EE66ED0EC66F0E552E8
:10A16000F3CFDEFFF4CFDDFFEAD7010EF36EF46A22
:10A1700003D0F36AF46A00D0020EE15C02E2E16A05
:10A18000E552E16EE552E7CFD9FF1200D9CFE6FFE5
:10A19000E1CFD9FF020EE126E66AD0EC66F0E55287
:10A1A000F3CFDEFFF4CFDDFFDECF14F0DDCF15F00F
:10A1B000D890155004E6580E145C020E155819E29A
:10A1C000DECF14F0DDCF15F0D890155004E68A0EDE
:10A1D000145C020E155809E2E66AD0EC66F0E5520E
:10A1E000F3CFDEFFF4CFDDFFEBD7010EF36EF46AA1
:10A1F00003D0F36AF46A00D0020EE15C02E2E16A85
:10A20000E552E16EE552E7CFD9FF1200D9CFE6FF64
:10A21000E1CFD9FF040EE126020EDE6EDD6A130ED9
:10A22000C26ED9CFE9FFDACFEAFFEE50ED1010E0B1
:10A23000C250E76E000EDFCF14F0010EDBCF15F039
:10A24000E7501416156A14C0DEFF15C0DDFFE9D70C
:10A25000C450166E16C017F0166AC35000011624BB
:10A26000146E000E1720156E020E14C0DBFF030ED5
:10A2700015C0DBFF020EDBCF14F0030EDBCF15F0B1
:10A2800014C0F3FF15C0F4FF040EE15C03E200D03C
:10A29000E16AE552E16EE552E7CFD9FF1200D9CF6E
:10A2A000E6FFE1CFD9FF020EE126010EE66ED0EC0B
:10A2B00066F0E552F3CFDEFFF4CFDDFFDECF14F022
:10A2C000DDCF15F0D890155004E6200E145C030E77
:10A2D00015581AE2DECF14F0DDCF15F0D8901550E6
:10A2E00004E6520E145C030E15580AE2010EE66EE7
:10A2F000D0EC66F0E552F3CFDEFFF4CFDDFFEAD716
:10A30000010EF36EF46A03D0F36AF46A00D0020E11
:10A31000E15C02E2E16AE552E16EE552E7CFD9FF86
:10A320001200D9CFE6FFE1CFD9FF020EE126E66E9B
:10A33000D0EC66F0E552F3CFDEFFF4CFDDFFDECFE9
:10A3400014F0DDCF15F0D890155004E6200E145C03
:10A35000030E15581AE2DECF14F0DDCF15F0D890B9
:10A36000155004E6520E145C030E15580AE2020E54
:10A37000E66ED0EC66F0E552F3CFDEFFF4CFDDFF02
:10A38000EAD7010EF36EF46A03D0F36AF46A00D0E0
:10A39000020EE15C02E2E16AE552E16EE552E7CFCE
:10A3A000D9FF12001200D9CFE6FFE1CFD9FF040E8A
:10A3B000E1261E0EE66EE66AB60EE66ED20EE66E7A
:10A3C0009FEC64F0E552E552E552E5521E0EE66E52
:10A3D000030EE66EAE0EE66ED20EE66E9FEC64F0F5
:10A3E000E552E552E552E5521E0EE66E060EE66EA9
:10A3F000A70EE66ED20EE66E9FEC64F0E552E552D3
:10A40000E552E55238EC67F04ADFF3CFDEFFF4CFD8
:10A41000DDFFD9CFE9FFDACFEAFF010EEE1801E147
:10A42000ED5011E1E66A9DEC63F0E5520001060E85
:10A43000621901E1635104E1030E626F636B03D0A3
:10A44000060E626F636B6DDF020EF3CFDBFF030E50
:10A45000F4CFDBFFD950020FE96EDACFEAFF010E2D
:10A46000EE1801E1ED5011E1E66A9DEC63F0E55272
:10A470000001030E621901E1635104E1060E626FEF
:10A48000636B03D0030E626F636B160EE66E62C0E1
:10A49000E6FFA50EE66ED20EE66E9FEC64F0E55286
:10A4A000E552E552E5524B0EE66E62C0E6FFA50EA0
:10A4B000E66ED20EE66E9FEC64F0E552E552E55290
:10A4C000E552EDDD000911E00001030E621901E122
:10A4D000635103E1010E766F01D0766B010EF36ECE
:10A4E000F46A040EE15C04E201D063D7E16AE5524C
:10A4F000E16EE552E7CFD9FF1200D9CFE6FFE1CFF9
:10A50000D9FF040EE1261E0EE66EE66A970EE66E91
:10A51000D20EE66E9FEC64F0E552E552E552E5524C
:10A52000320EE66E030EE66E930EE66ED20EE66E09
:10A530009FEC64F0E552E552E552E552320EE66ECC
:10A54000060EE66E8F0EE66ED20EE66E9FEC64F09F
:10A55000E552E552E552E55238EC67F0A0DEF3CF64
:10A56000DEFFF4CFDDFFD9CFE9FFDACFEAFF010E3E
:10A57000EE1801E1ED5011E1E66A9DEC63F0E55261
:10A580000001060E641901E1655104E1030E646FD8
:10A59000656B03D0060E646F656BC3DE020EF3CFEE
:10A5A000DBFF030EF4CFDBFFD950020FE96EDACFE9
:10A5B000EAFF010EEE1801E1ED5011E1E66A9DECB3
:10A5C00063F0E5520001030E641901E1655104E1F5
:10A5D000060E646F656B03D0030E646F656B2A0E05
:10A5E000E66E64C0E6FFA50EE66ED20EE66E9FEC48
:10A5F00064F0E552E552E552E552460EE66E64C05F
:10A60000E6FFA50EE66ED20EE66E9FEC64F0E55214
:10A61000E552E552E55243DD000911E00001030E69
:10A62000641901E1655103E1010E776F01D0776B89
:10A63000010EF36EF46A040EE15C04E201D063D70C
:10A64000E16AE552E16EE552E7CFD9FF1200D9CFBA
:10A65000E6FFE1CFD9FF040EE12638EC67F01FDEFC
:10A66000F3CFDEFFF4CFDDFFD9CFE9FFDACFEAFF8A
:10A67000010EEE1801E1ED501EE1E66A9DEC63F07B
:10A68000E55200016A2B000E6B2377510BE06B350E
:10A6900004E26A510C08000E6B5503E2010E6A6F6A
:10A6A0006B6B09D06B3504E26A511708000E6B55CD
:10A6B00002E26A6B6B6B35DE020EF3CFDBFF030E3B
:10A6C000F4CFDBFFD950020FE96EDACFEAFF010EBB
:10A6D000EE1801E1ED501DE1E66A9DEC63F0E552F4
:10A6E00000016A07000E6B5B77510DE0010E6BAF46
:10A6F00002D0D89003D06A5D000E6B5903E20C0EB5
:10A700006A6F6B6B06D0800E6B1503E0170E6A6FD5
:10A710006B6B040EE15C02E2E16AE552E16EE55228
:10A72000E7CFD9FF1200D9CFE6FFE1CFD9FF040E62
:10A73000E12638EC67F0B3DDF3CFDEFFF4CFDDFFC9
:10A74000D9CFE9FFDACFEAFF010EEE1801E1ED50B3
:10A7500011E1E66A9DEC63F0E55200016C2B000EFE
:10A760006D236D3504E26C513B08000E6D5502E21D
:10A770006C6B6D6BD6DD020EF3CFDBFF030EF4CFF7
:10A78000DBFFD950020FE96EDACFEAFF010EEE18B7
:10A7900001E1ED500EE1E66A9DEC63F0E552000147
:10A7A0006C07000E6D5B800E6D1503E03B0E6C6F49
:10A7B0006D6B040EE15C02E2E16AE552E16EE55286
:10A7C000E7CFD9FF1200D9CFE6FFE1CFD9FF040EC2
:10A7D000E12638EC67F063DDF3CFDEFFF4CFDDFF79
:10A7E000D9CFE9FFDACFEAFF010EEE1801E1ED5013
:10A7F00011E1E66A9DEC63F0E55200016E2B000E5C
:10A800006F236F3504E26E513B08000E6F5502E274
:10A810006E6B6F6B86DD020EF3CFDBFF030EF4CFA2
:10A82000DBFFD950020FE96EDACFEAFF010EEE1816
:10A8300001E1ED500EE1E66A9DEC63F0E5520001A6
:10A840006E07000E6F5B800E6F1503E03B0E6E6FA0
:10A850006F6B040EE15C02E2E16AE552E16EE552E3
:10A86000E7CFD9FF1200D9CFE6FFE1CFD9FF0E0E17
:10A87000E126190EE66EE66A810EE66ED20EE66EEF
:10A880009FEC64F0E552E552E552E5526EC0E6FFFA
:10A890006FC0E6FF6CC0E6FF6DC0E6FF6AC0E6FF72
:10A8A0006BC0E6FF720E146ED20E156E166A14C0DF
:10A8B000E6FF15C0E6FF16C0E6FFD9CFE6FFDACF08
:10A8C000E6FF62EC69F0176E0B0EE15E1750280E82
:10A8D000E66E040EE66ED9CFE6FFDACFE6FFD9ECDE
:10A8E00064F0E552E552E552E55238EC67F04EDC93
:10A8F0000C0EF3CFDBFF0D0EF4CFDBFFD9500C0FA6
:10A90000E96EDACFEAFF010EEE1801E1ED5021E128
:10A91000E66A9DEC63F0E5524F0E0001661901E115
:10A92000675113E03D0E661901E167510AE02B0EF5
:10A93000661901E1675101E00CD03D0E666F676B4F
:10A9400008D04F0E666F676B04D02B0E666F676B77
:10A9500000D084EC50F00A0EF3CFDBFF0B0EF4CFE7
:10A96000DBFFD9500A0FE96EDACFEAFF010EEE18CD
:10A9700001E1ED5021E1E66A9DEC63F0E5524F0EF6
:10A980000001661901E1675113E03D0E661901E10E
:10A9900067510AE02B0E661901E1675101E00CD006
:10A9A0004F0E666F676B08D02B0E666F676B04D017
:10A9B0003D0E666F676B00D066C0E6FF030EE66E65
:10A9C000A50EE66ED20EE66E9FEC64F0E552E552FF
:10A9D000E552E55266C0E6FF050EE66EA50EE66E90
:10A9E000D20EE66E9FEC64F0E552E552E552E55278
:10A9F0004F0E0001661901E167510FE03D0E661927
:10AA000001E1675108E02B0E661901E1675101E091
:10AA100006D01DDE04D087DE02D0D5DE00D04FEC9C
:10AA200050F0000907E0010EF36EF46A0E0EE15CCF
:10AA300004E201D01ED7E16AE552E16EE552E7CFAC
:10AA4000D9FF1200D9CFE6FFE1CFD9FF040EE126EE
:10AA500038EC67F024DCF3CFDEFFF4CFDDFFD9CF95
:10AA6000E9FFDACFEAFF010EEE1801E1ED5012E145
:10AA7000E66A9DEC63F0E5520001702B000E712335
:10AA8000713504E270510C08000E715503E2010E9D
:10AA9000706F716B46DC020EF3CFDBFF030EF4CF59
:10AAA000DBFFD950020FE96EDACFEAFF010EEE1894
:10AAB00001E1ED5014E1E66A9DEC63F0E55200011E
:10AAC0007007000E715B010E71AF02D0D89003D0F9
:10AAD000705D000E715903E20C0E706F716B040E05
:10AAE000E15C02E2E16AE552E16EE552E7CFD9FFAF
:10AAF0001200D9CFE6FFE1CFD9FF040EE12638ECF2
:10AB000067F04FEC51F0F3CFDEFFF4CFDDFFD9CF8C
:10AB1000E9FFDACFEAFF010EEE1801E1ED505FE147
:10AB2000E66A9DEC63F0E5520001722B000E732380
:10AB3000010E701901E171511EE0030E701901E15F
:10AB4000715119E0050E701901E1715114E0070E01
:10AB5000701901E171510FE0080E701901E1715196
:10AB60000AE00A0E701901E1715105E00C0E70192E
:10AB700001E171510BE1733504E272511F08000EBF
:10AB8000735503E2010E726F736B29D0040E7019B6
:10AB900001E171510FE0060E701901E171510AE0F7
:10ABA000090E701901E1715105E00B0E701901E1F8
:10ABB00071510BE1733504E272511E08000E73559A
:10ABC00003E2010E726F736B0AD0733504E27251A7
:10ABD0001C08000E735503E2010E726F736B91EC4B
:10ABE00051F0020EF3CFDBFF030EF4CFDBFFD950A1
:10ABF000020FE96EDACFEAFF010EEE1801E1ED5027
:10AC000065E1E66A9DEC63F0E55200017207000E13
:10AC1000735B010E701901E171511EE0030E701992
:10AC200001E1715119E0050E701901E1715114E053
:10AC3000070E701901E171510FE0080E701901E162
:10AC400071510AE00A0E701901E1715105E00C0E14
:10AC5000701901E171510DE1010E73AF02D0D8906E
:10AC600003D0725D000E735903E21F0E726F736B97
:10AC70002DD0040E701901E171510FE0060E70190C
:10AC800001E171510AE0090E701901E1715105E00D
:10AC90000B0E701901E171510DE1010E73AF02D07D
:10ACA000D89003D0725D000E735903E21E0E726FCE
:10ACB000736B0CD0010E73AF02D0D89003D0725DCD
:10ACC000000E735903E21C0E726F736B040EE15C8D
:10ACD00002E2E16AE552E16EE552E7CFD9FF1200E8
:10ACE000D9CFE6FFE1CFD9FF0E0EE126190EE66EB1
:10ACF000E66A640EE66ED20EE66E9FEC64F0E552F4
:10AD0000E552E552E55270C0E6FF71C0E6FF72C041
:10AD1000E6FF73C0E6FF5A0E146ED20E156E166A69
:10AD200014C0E6FF15C0E6FF16C0E6FFD9CFE6FF68
:10AD3000DACFE6FF62EC69F0176E090EE15E17509C
:10AD40002D0EE66E040EE66ED9CFE6FFDACFE6FFF3
:10AD5000D9EC64F0E552E552E552E55238EC67F083
:10AD6000C6EC50F00C0EF3CFDBFF0D0EF4CFDBFF83
:10AD7000D9500C0FE96EDACFEAFF010EEE1801E1AF
:10AD8000ED5018E1E66A9DEC63F0E552420E0001D9
:10AD9000681901E169510AE0300E681901E1695151
:10ADA00001E008D0420E686F696B04D0300E686F06
:10ADB000696B00D084EC50F00A0EF3CFDBFF0B0E72
:10ADC000F4CFDBFFD9500A0FE96EDACFEAFF010EAC
:10ADD000EE1801E1ED5018E1E66A9DEC63F0E552F2
:10ADE000420E0001681901E169510AE0300E68194C
:10ADF00001E1695101E008D0420E686F696B04D02F
:10AE0000300E686F696B00D068C0E6FF030EE66E17
:10AE1000A50EE66ED20EE66E9FEC64F0E552E552AA
:10AE2000E552E55268C0E6FF050EE66EA50EE66E39
:10AE3000D20EE66E9FEC64F0E552E552E552E55223
:10AE4000420E0001681901E1695108E0300E6819ED
:10AE500001E1695101E004D04CDE02D0F3DD00D005
:10AE60004FEC50F0000907E0010EF36EF46A0E0E8D
:10AE7000E15C04E201D03AD7E16AE552E16EE552C5
:10AE8000E7CFD9FF12000A0EE66EE66A4F0EE66EB5
:10AE9000D20EE66E9FEC64F0E552E552E552E552C3
:10AEA0001200D9CFE6FFE1CFD9FF020EE126E66A14
:10AEB0009DEC63F0E552060E0001601901E161515D
:10AEC00057E0050E601901E1615142E0040E60197E
:10AED00001E161512DE0030E601901E1615117E0BC
:10AEE000020E601901E1615101E052D0D3EC51F042
:10AEF000F3CF14F0F4CF15F0010E141801E1155042
:10AF000005E1E66A9DEC63F0E55257D041D07DEC57
:10AF100052F0F3CF14F0F4CF15F0010E141801E144
:10AF2000155005E1E66A9DEC63F0E55246D030D05D
:10AF30009ADCF3CF14F0F4CF15F0010E141801E1F0
:10AF4000155005E1E66A9DEC63F0E55236D020D05D
:10AF5000C7DEF3CF14F0F4CF15F0010E141801E1A1
:10AF6000155005E1E66A9DEC63F0E55226D010D05D
:10AF70008ADFF3CF14F0F4CF15F0010E141801E1BD
:10AF8000155005E1E66A9DEC63F0E55216D000D05D
:10AF900084EC50F0F3CFDEFFF4CFDDFFD9CFE9FF33
:10AFA000DACFEAFF010EEE1801E1ED5005E1E66AA5
:10AFB0009DEC63F0E55201D07ED7020EE15C02E227
:10AFC000E16AE552E16EE552E7CFD9FF1200D9CF31
:10AFD000E6FFE1CFD9FF060EE126060EE66E020E71
:10AFE000E66EB60EE66ED20EE66E9FEC64F0E552AB
:10AFF000E552E552E552060EE66E030EE66E3E0E93
:10B00000E66ED20EE66E9FEC64F0E552E552E55234
:10B01000E552060EE66E040EE66E350EE66ED20EB4
:10B02000E66E9FEC64F0E552E552E552E552060EFD
:10B03000E66E050EE66E2C0EE66ED20EE66E9FEC08
:10B0400064F0E552E552E552E552060EE66EE66E14
:10B05000260EE66ED20EE66E9FEC64F0E552E552E7
:10B06000E552E552E66A60C0E6FFA50EE66ED20E36
:10B07000E66E9FEC64F0E552E552E552E552640E4F
:10B08000E66E60C0E6FFA50EE66ED20EE66E9FECA1
:10B0900064F0E552E552E552E55238EC67F04FECCA
:10B0A00051F0F3CFDEFFF4CFDDFFD9CFE9FFDACFE8
:10B0B000EAFF010EEE1801E1ED5014E1E66A9DECA5
:10B0C00063F0E55200016007000E615B020E61AFA4
:10B0D00002D0D89003D0605D000E615903E2060EE5
:10B0E000606F616B91EC51F0020EF3CFDBFF030E4A
:10B0F000F4CFDBFFD950020FE96EDACFEAFF010E81
:10B10000EE1801E1ED5012E1E66A9DEC63F0E552C4
:10B110000001602B000E6123613504E260510608D6
:10B12000000E615503E2020E606F616B4FEC50F050
:10B13000000901E0B6DE84EC50F0040EF3CFDBFF33
:10B14000050EF4CFDBFFD950040FE96EDACFEAFF2A
:10B15000010EEE1801E1ED500DE10001756B020EDC
:10B16000606F616BE66A9DEC63F0E552060EE15C90
:10B1700004E201D032D7E16AE552E16EE552E7CF51
:10B18000D9FF120045EC50F00001745103E0D2ECFD
:10B1900051F02BD0755128E10A0EE66E030EE66ED3
:10B1A000140EE66ED20EE66E9FEC64F0E552E552A8
:10B1B000E552E552020EE66E050EE66EFE0EE66EF6
:10B1C000D10EE66E9FEC64F0E552E552E552E55291
:10B1D0004FEC50F0000907E00001010E756FE66AC0
:0EB1E0009DEC63F0E55201D0F2DECED71200F6
:02B1EE0033EC40
:10B1F0005EF0FB0EDBCFF3FFDB06F35000090AE045
:10B2000081EC5EF0FA0EECEC5EF0F3E1151CF1E17E
:10B21000010E01D0000E62EF5EF033EC5EF03B0EEB
:10B22000E12402E3E168E652E16E010EDB6A020E00
:10B23000DB6AF90EDBCFF6FFFA0EDBCFF7FFFB0E72
:10B24000DBCFF8FF0800F550DF6EDF5002E186EF3C
:10B250005DF0250EDF5C02E079EF5DF0030EDB6A46
:10B26000040EDB6A050EDB6A060EDB6A070EDB6A7C
:10B270009BEC5DF02D0EDF5C0CE02B0EDF5C09E03B
:10B28000200EDF5C06E0230EDF5C03E0300EDF5CA7
:10B290001AE1DF50300A14E0130A0FE0030A0AE053
:10B2A0000B0A05E0060AE4E1030EDB80E1D7030E9A
:10B2B000DB82DED7030EDB84DBD7030EDB86D8D739
:10B2C000030EDB88D5D72A0EDF5C1BE197EC5DF01F
:10B2D000E5EC5DF010E0030EDB8008680968130EF2
:10B2E000DBCF0DF0140EDBCF0EF0DEEC69F0040EB8
:10B2F00006C0DBFF03D0130ECEEC5DF09BEC5DF0DF
:10B300000BD0090EDB6A3CEC5EF003E0B0EC5EF0C3
:10B31000FAD7090ECEEC5DF0030EDBB0DB982E0EF3
:10B32000DF5C1BE19BEC5DF02A0EDF5C0BE197EC30
:10B330005DF0E5EC5DF003E1130E20EC5EF09BECBC
:10B340005DF00BD0090EDB6A3CEC5EF003E0B0EC84
:10B350005EF0FAD7090E20EC5EF0680EDF5C07E1C4
:10B360009BEC5DF0680EDF5C1DE1030E18D0740EDF
:10B37000DF5C17E07A0EDF5C14E0480EDF5C06E06D
:10B38000540EDF5C03E05A0EDF5C02E1020E07D0D0
:10B390006C0EDF5C03E06A0EDF5C04E1010E73EC0F
:10B3A0005EF0C9DBDF506E0A01E17FD31E0A01E1C6
:10B3B00092D1200A01E18FD13F0A01E149D11A0A55
:10B3C00001E146D10D0A01E143D1200A01E140D15A
:10B3D0003A0A01E13DD1200A01E13AD1260A01E110
:10B3E00035D10D0A01E132D11A0A01E1D9D0200A82
:10B3F0004AE0300A1FE0460A0EE0250A01E083D346
:10B40000D950F90FE96EFF0EDA20EA6E010EEE5EFA
:10B41000000EEE5AEE5A81EC5EF0250EE66E95DBDC
:10B4200003E1151C01E169D37DEC5EF001E26BD311
:10B43000DB2A69D3080EDB6A040EDB50010806E242
:10B44000040EDB0445EC5EF0DB508BDB080EDB50BA
:10B4500009E0030EDB50010B05E172DB01E04DD387
:10B46000080EDB6A64DBEFCFDFFFF5EC5EF003E193
:10B47000151C01E142D37DEC5EF001E3DB2A60DBC9
:10B4800001E141D33AD3070EDB5002080FE1C1ECD2
:10B490005EF0030E88EC5EF00E0EEECFDBFF0F0EBB
:10B4A000EECFDBFF100EEECFDBFF20D0F70EDBCFB1
:10B4B00017F0F80EDBCF18F0020E175E000E185AC8
:10B4C000F70E17C0DBFFF80E18C0DBFF17C0E9FF4F
:10B4D00018C0EAFF78EC5EF0166A0E0E14C0DBFFAF
:10B4E0000F0E15C0DBFF100E16C0DBFF0E0EDBCFFC
:10B4F000E6FF0F0EDBCFE6FF100EDBCFE6FFE2EC40
:10B500006AF0E552E552E552130E07C0DBFF140E58
:10B5100008C0DBFF060EDB5005E0130EBCEC5EF04E
:10B5200001E26ADBE0EC5EF002E2130E37DBA3EC33
:10B530005EF006E0040EBCEC5EF002E2050E2EDBCF
:10B54000030EDBB005D0FCDA01E0D7D2080EDB6ACF
:10B55000090EDB6A0E0EDBCFF6FF0F0EDBCFF7FF17
:10B56000100EDBCFF8FF0800F550DF6EDF5014E05F
:10B57000E6EC5EF011E2F5EC5EF003E1151C01E192
:10B58000BCD2BBDB01E3DB2A090EDB2AD9500E0F4C
:10B59000E96E000ECBDBE7D7D3DA01E1B4D2ADD24E
:10B5A000C6DA110EEECFDBFF120EEDCFDBFF110E70
:10B5B000DBCFE6FF120EDBCFE6FFD4EC6AF0E552FC
:10B5C000E552130EF3CFDBFF140EF4CFDBFF060EB4
:10B5D000DB5004E0130ED0DB01E20EDBE0EC5EF0AA
:10B5E00002E2130EDBDAAFDB05E0040EC5DB02E29C
:10B5F000050ED4DA030EDBB005D0A2DA01E07DD26D
:10B60000080EDB6A090EDB6A110EDBCFE9FF120EB2
:10B61000DBCFEAFFEFCFDFFFDF5014E0D7DB12E232
:10B62000E4DB03E1151C01E168D267DB01E3DB2AFF
:10B63000090EDB2A110EDB2ADBCFE9FF120EE8E34D
:10B64000DB2AE6D77DDA01E15ED257D2030EDB8E2C
:10B65000070EDB0410E195DB040E5ADB0A0EEECF79
:10B66000DBFF0B0EEECFDBFF0C0EEECFDBFF0D0E84
:10B67000EECFDBFF6CD0070EDB5003082CE1030E8E
:10B68000DBAE0DD0B2DA020E76DAEFCF14F0156A27
:10B69000166A176A14AE39D01568166835D0F70ED9
:10B6A000DBCF15F0F80EDBCF16F0020E155E000EA4
:10B6B000165AF70E15C0DBFFF80E16C0DBFF15C0DB
:10B6C000E9FF16C0EAFFEFCF14F00A0E14C0DBFF4B
:10B6D0000B0EDB6A38D0070EDB50020809E1030EBF
:10B6E000DBAE04D059DB16AE10D00ED055DB0DD03A
:10B6F000030EDBAE12D079DA020E3DDAF9DA166A01
:10B70000176A15AE02D016681768E2DA0C0E16C07A
:10B71000DBFF0D0E17C0DBFF1AD0F70EDBCF16F0E4
:10B72000F80EDBCF17F0020E165E000E175AF70E5A
:10B7300016C0DBFFF80E17C0DBFF16C0E9FF17C00D
:10B74000EAFFD6DAC5DA0C0EDB6A0D0EDB6A060EEE
:10B75000DB5005E1010EF36E050EF3CFDBFF150E96
:10B76000DB6A160EDB6AD950370F146E000EDA2032
:10B77000156E390E14C0DBFF3A0E15C0DBFF380E14
:10B78000DB6A080EDB6A0A0EAEDADF50780A12E0D6
:10B79000200A10E0280A0CE0200A0AE03F0A06E02E
:10B7A0000D0A02E0200A08E1020E05D0080E03D0BF
:10B7B000080EDF26100E97DA030EDBBE02D0DB92F6
:10B7C000DB94DB50800B24E08ADAD890030EEB5038
:10B7D000000A08E6000EEE5C000EEE58000EEE5871
:10B7E000000EEE5815E213DA0B680C680D680E684F
:10B7F0009CEC6AF00A0E02C0DBFF0B0E03C0DBFFFD
:10B800000C0E04C0DBFF0D0E05C0DBFF2D0E08D0B3
:10B81000030EDBA202D02B0E03D0DBA408D0200E37
:10B82000F36E170EF3CFDBFF150EDB2A02D0170ED7
:10B83000DB6A050EDB5003E1B7D901E189D0FE0ECA
:10B84000146ED60E156E000E166E070EDBCF17F0B7
:10B85000186A196A1A6A17C00BF018C00CF019C0E0
:10B860000DF01AC00EF0D3D907EC6BF0145002247F
:10B87000F36E15500320F46E16500420F86EF4CFCA
:10B88000F7FFF3CFF6FF0800090EF5CFDBFF580EE8
:10B89000DF5C0FE1610EF36E090E7BD90AE3200E27
:10B8A000146E090EDBCFE7FF1450E75E090EE7CFF9
:10B8B000DBFF070EDBCF14F0156A166A176A0FDA82
:10B8C00014C00BF015C00CF016C00DF017C00EF030
:10B8D000EECF06F0EECF07F0EECF08F0EFCF09F095
:10B8E00007EC6BF009C0EDFF08C0EDFF07C0EDFFEE
:10B8F00006C0EFFF390EDBCFE9FFDB063A0EDBCFE8
:10B90000EAFF01E2DB06090EDBCFEFFF150EDB2AB3
:10B910004BD995E1030EDBA61DD06F0EDF5C06E16F
:10B92000C1D918E3150EDB285BDA14D0780EDF5C82
:10B9300009E0580EDF5C06E0620EDF5C03E0420EB9
:10B94000DF5C08E1020EF36E160EF3CFDBFF02D0D0
:10B95000150EDB6A030EDB50100B0EE0040EDBCF7E
:10B9600014F0050EDB50D880145406E2060EDB50AE
:10B9700003E1040EDB5034DA95D90AE2050EDBCF81
:10B98000E7FF150EDB50E75E050EE7CFDBFF02D0C9
:10B99000050EDB6A040EDBCF14F0160E45D9D880F5
:10B9A000145414E2160EDBCFE6FF150EDBCFE6FFD4
:10B9B000040EDBCFE6FF050EDB50E552E75CE552F7
:10B9C000D880E754E552D880E7545FD9030EDB50A6
:10B9D000010B0BE1080EDB5008E0B2D801E08DD07E
:10B9E000080EDB50BED8080EDB6A170EDB5007E0EE
:10B9F00088D9170EF1D903E1151C01E17ED0160E8E
:10BA0000DB5016E07ED9300EE66E9FD802E1151CA1
:10BA100074E077D9DFCFE6FF5AEC6AF0E552E552E1
:10BA2000E552F4CF15F00001F31C02E1151C65E0AE
:10BA3000050EDBCF14F0160EDB50D880145409E24B
:10BA4000050EDBCFE7FF160EDB50E75E050EE7CFF6
:10BA5000DBFF300EE66E050ECBD94FE1390EDB2A47
:10BA6000DBCFE9FF3A0E01E3DB2ADBCFEAFF090E69
:10BA7000EFCFDBFFDB500EE044D9090EADD902E178
:10BA8000151C3BE0390EDB2ADBCFE9FF3A0EEDE374
:10BA9000DB2AEBD755D831E1160EDBCFE6FF080ED7
:10BAA000C3D8E552E7245DD82ED0070EDB50030A39
:10BAB0001CE0010A14E0030A07E07BD9DBCFEEFFAC
:10BAC000020EDBCFEDFF1FD0F5D8196A17AE02D0FA
:10BAD000186819682CD8BCD819C0EEFF14D0EAD861
:10BAE00017BE186824D8B4D80ED063D9DBCFEFFFC7
:10BAF0000AD07BD905E1151C03E1F368F46810D086
:10BB0000FCD801E3DB2A79D922EF59F0010EDBCF13
:10BB100014F0020EDBCF15F014C0F3FF15C0F4FFD4
:10BB20003B0EE15C02E2E16AE552E16ECBD029D93D
:10BB3000020E88EF5EF061D90800F550DF6E12004A
:10BB4000200EE66E080EF8EF5EF05AEC6AF0E55251
:10BB5000E552E552F3CF14F0F4CF15F00001F31CD9
:10BB60001200146E156AD950010F4DD91450EE26EB
:10BB70001550ED221200185E000E195AF70E18C06B
:10BB8000DBFFF80E19C0DBFF18C0E9FF19C0EAFFA0
:10BB90001200DBCFF4FFF350F45C1200DB50E76ED1
:10BBA000040EE7CFDBFF12000A0EDBCF14F00B0E02
:10BBB000DBCF15F00C0EDBCF16F00D0EDBCF17F040
:10BBC00014501510161017101200130EEECFDBFFD5
:10BBD000140EEDCFDBFF130EDBCF14F0140EDBCF12
:10BBE00015F00001800E15141200F70EDBCF18F0CF
:10BBF000F80EDBCF19F01200050EDB50E66ED950BF
:10BC0000130F01D9E552E750EE6EED6A12000A0EED
:10BC1000DBCF06F00B0EDBCF07F00C0EDBCF08F00E
:10BC20000D0EDBCF09F01200DBCFE6FF150EDBCFE8
:10BC3000E6FF050EDB50E552E724E552E72412004B
:10BC4000DB50CED8010EF36E060EF3CFDBFF1200F1
:10BC5000EE50EFCFEAFFE96E16C0EEFF17C0EEFF21
:10BC600018C0EEFF1200D9CFE6FFDACFE6FFE1CF32
:10BC7000D9FFE2CFDAFF1200DFCFE6FFE66A41EC40
:10BC80006BF0E552E552F3501200E76E080EE7CF75
:10BC9000DBFF1200EECF14F0EECF15F0EFCF16F071
:10BCA000176A1200050EDBCF14F0150EDB50D8809A
:10BCB00014541200010EDBCF16F0020EDBCF17F08A
:10BCC000186A1200E552E5CFDAFFE7CFD9FF12007C
:10BCD0000A0E14C0DBFF0B0E15C0DBFF1200D9509B
:10BCE0000A0F03EF5FF0F36E070EF3CFDBFF1200D6
:10BCF000EECF14F0EFCF15F01200010EDB2A020E8A
:10BD00001200FC0EDBCFE6FFFD0EDBCFE6FF1200DC
:10BD1000145E000E155AF70E14C0DBFFF80E15C0A6
:10BD2000DBFF14C0E9FF15C0EAFF1200DA20EA6E5B
:10BD3000EF2AEECFF6FF000EEF22EECFF7FFEF2255
:10BD4000EECFF8FF1200040EDBCFE6FF130EDB5040
:10BD5000E552E75C9ADFDB5004DF060EDB50120091
:10BD6000090EDB500A0DF350DF24D00FE76E090EE9
:10BD7000E7CFDBFF9BEF5DF0DB50F36E050EC9EF05
:10BD80005DF0F70EDBCF14F0F80EDBCF15F01200EC
:10BD9000DFCFE6FFA5EF5DF028DF030EECDE4AEF14
:10BDA0005EF0F7EC58F0E552E552E552E552000935
:10BDB0001200BDDEEE50EFCFEAFFE96E010E120079
:10BDC000130EDB50F36E040EC9EF5DF0040EDB5072
:10BDD000F36E090EC9EF5DF0DBCFE6FFA5EF5DF076
:10BDE000E76E050EE7CFDBFF12008BDFC8EF5EF0DA
:10BDF000DBCFE6FF86DFD1EF5EF0D950F90FE96EB9
:10BE0000FF0E96EF5EF0E96E000EDA20EA6E120089
:10BE1000D9CFE6FFE1CFD9FFE65295688D808D82BC
:10BE20008A8A8D948D9000000000000000000000C0
:10BE3000000000008D8000008D9000008350DF6EB8
:10BE40008D808D84E552E552E7CFD9FF1200D9CF1E
:10BE5000E6FFE1CFD9FF020EE126FD0EDBCFE9FFC1
:10BE6000FE0EDBCFEAFFEF50DE6EDD6AF90EDBCFB0
:10BE7000E9FFFA0EDBCFEAFFEF50E66EFD0EDBCFF7
:10BE8000E9FFFE0EDBCFEAFFE552E750EF6EF90E59
:10BE9000DBCFE9FFFA0EDBCFEAFFDFCFEFFFFB0ED0
:10BEA000DBCFE9FFFC0EDBCFEAFFEF50DE6EDD6A91
:10BEB000F70EDBCFE9FFF80EDBCFEAFFEF50E66EBF
:10BEC000FB0EDBCFE9FFFC0EDBCFEAFFE552E750CC
:10BED000EF6EF70EDBCFE9FFF80EDBCFEAFFDFCF27
:10BEE000EFFF020EE15C02E2E16AE552E16EE5522B
:10BEF000E7CFD9FF1200D9CFE6FFE1CFD9FFE65255
:10BF0000E00EE66E75EC63F0E55282DFDF6EFE0E4A
:10BF1000DB50DF1ADFCFE6FF89EC63F0E552EE0E6F
:10BF2000E66E75EC63F0E552E552E552E7CFD9FFD6
:10BF30001200D9CFE6FFE1CFD9FFFE0EDB50B00FE4
:10BF4000E66E75EC63F0E552020E146EFD0EDBCF6B
:10BF5000E7FF1450E726FD0EE7CFDBFFDB500F0BAA
:10BF6000E66E75EC63F0E552FD0EDB380F0B0F0B40
:10BF7000100FE66E75EC63F0E552E552E7CFD9FF9E
:10BF80001200D9CFE6FFE1CFD9FF040EE126DF6A28
:10BF9000FD0EDB40E840E8401F0BE76E020EE7CFE6
:10BFA000DBFFFD0EDB50070BE76E030EE7CFDBFF79
:10BFB000010EDB6A030EDB50070815E3FC0EDB50B5
:10BFC00012E0010EF36E030EDB5004E0D890F3365E
:10BFD000E806FCE1F350DF12010EDB2AFC0EDB0663
:10BFE000030EDB2AE7D7FE0EDBCFE6FF020EDBCF28
:10BFF000E6FF9FDFE552E552DFCFE6FF7CDFE5524B
:10C00000FB0EDBCF14F0000EE76E1418E8AE02D082
:10C01000143403D0E750D880145419E2FE0EDB50DC
:10C02000156E166AD890165004E6830E155C000E45
:10C0300016580DE2FE0EDB28E66E020EDBCFE6FFA1
:10C0400078DFE552E552DFCFE6FF55DFE552FB0E24
:10C05000DBCF14F0010EE76E1418E8AE02D01434F2
:10C0600003D0E750D880145411E2FE0EDB500008D4
:10C070000DE2FE0EDB04E66E020EDBCFE6FF59DFBB
:10C08000E552E552DFCFE6FF36DFE552010EDB5029
:10C09000146E040EE15C03E200D0E16AE552E16E49
:10C0A0001450E552E7CFD9FF1200D9CFE6FFE1CF18
:10C0B000D9FF020EE126010EDF6EFC0EDBCF14F07D
:10C0C000000EE76E1418E8AE02D0143403D0E75027
:10C0D000D880145407E2FD0EDB50000803E2FD0E89
:10C0E000DB06DF2AFC0EDBCF14F0010EE76E14181E
:10C0F000E8AE02D0143403D0E750D880145408E2DC
:10C10000FD0EDB50DF24156E3F0E155C01E2DF2AC9
:10C11000DF501EE0E66ADFCFE6FFFD0EDBCFE6FF75
:10C12000FE0EDBCFE6FF2DDFE552E552E552E5528C
:10C13000E76E010EE7CFDBFFDB50DF5EFD0EDBCFEE
:10C14000E7FF010EDB50E726FD0EE7CFDBFFE0D770
:10C15000020EE15C02E2E16AE552E16EE552E7CFF0
:10C16000D9FF1200D9CFE6FFE1CFD9FF160EE126A5
:10C17000FD0EDBCF14F0FB0EDB50D88014541DE213
:10C18000D950FB0FE66EFF0EDA20E66ED950FC0F99
:10C19000E66EFF0EDA20E66ED950FD0FE66EFF0E5A
:10C1A000DA20E66ED950FE0FE66EFF0EDA20E66E5C
:10C1B0004EDE146E080EE15E1450FB0EDBCFE6FF80
:10C1C000FD0EDB50E552E75C010FE76E060EE7CF90
:10C1D000DBFFFE0EDB50F36EFC0EDBCFF4FFF35003
:10C1E000F45C14E3FC0EDBCFE6FFFE0EDB50E55201
:10C1F000E75C010FE76E050EE7CFDBFF010EF36E84
:10C20000070EF3CFDBFF080EDB6A10D0FE0EDBCF8C
:10C21000E6FFFC0EDB50E552E75C010FE76E050E12
:10C22000E7CFDBFF070EDB68080EDB68050EDB508F
:10C23000F36E060EDBCFF4FFF350F45C01E2CCD0DA
:10C24000060EDB50640D0D0EF3CFDBFF0E0EF4CFA8
:10C25000DBFF050EDB50146E156A0D0EDBCF08F008
:10C260000E0EDBCF09F014C00DF015C00EF0B8ECC7
:10C2700069F00B0E08C0DBFF0C0E09C0DBFFFE0EE1
:10C28000DB50DF6EFD0EDB50E76E010EE7CFDBFF0C
:10C29000150EDB6AFC0EDB50146E156A14C008F034
:10C2A00015C009F0070EDBCF0DF0080EDBCF0EF046
:10C2B000DEEC69F0090E06C0DBFF0A0E07C0DBFFEB
:10C2C000DF50166E176A16C008F017C009F0070E87
:10C2D000DBCF0DF0080EDBCF0EF0DEEC69F006C010
:10C2E00014F007C015F0090EDBCF18F00A0EDBCFF3
:10C2F00019F019501518E8AE02D0153404D01450B6
:10C30000185C1550195867E3640E166E176A150EFF
:10C31000DB50E76E0B0EDBCF14F00C0EDBCF15F00D
:10C32000E7501426000E1522130E14C0DBFF140E66
:10C3300015C0DBFF14C008F015C009F016C00DF0E1
:10C3400017C00EF0B8EC69F0020E08C0DBFF130E48
:10C35000DBCF14F0140EDBCF15F0640E0D6E0E6AF9
:10C3600014C008F015C009F0B8EC69F004C014F06E
:10C3700005C015F0150E14C0DBFF020EDB5027E0E0
:10C38000FA0EDBCFE6FF020EDBCFE6FF010EDBCFBE
:10C39000E6FFDFCFE6FFF5DDE552E552E552E55277
:10C3A000E76E040EE7CFDBFF020EDBCFE7FF040EE4
:10C3B000DB50E75E020EE7CFDBFF010EDBCFE7FFCE
:10C3C000040EDB50E726010EE7CFDBFFD6D7070EC2
:10C3D000DB50DF2675D785D0050EDB50640D110EBE
:10C3E000F3CFDBFF120EF4CFDBFF060EDB50146E33
:10C3F000156A110EDBCF08F0120EDBCF09F014C066
:10C400000DF015C00EF0B8EC69F00F0E08C0DBFFA0
:10C41000100E09C0DBFFFE0EDB50DF6EFD0EDB50A1
:10C42000E76E010EE7CFDBFF150EDB6A010EDBCFF7
:10C4300014F0FB0EDB50D880145453E3640E166ED8
:10C44000176A150EDB50E76E0F0EDBCF14F0100EDF
:10C45000DBCF15F0E7501426000E1522130E14C082
:10C46000DBFF140E15C0DBFF14C008F015C009F087
:10C4700016C00DF017C00EF0B8EC69F0030E08C03E
:10C48000DBFF130EDBCF14F0140EDBCF15F0640EC0
:10C490000D6E0E6A14C008F015C009F0B8EC69F012
:10C4A00004C014F005C015F0150E14C0DBFF030E18
:10C4B000DBCFF3FFDB06F350000910E0FA0EDBCF11
:10C4C000E6FF010EDBCFE6FFDFCFE6FFEEDDE55254
:10C4D000E552E552070EDB50DF26E9D7010EDB2AD5
:10C4E000A5D7150EDB5032080CE2FA0EDBCFE6FFC3
:10C4F000010EDBCFE6FFDFCFE6FFD7DDE552E552E9
:10C50000E552160EE15C02E2E16AE552E16EE552A7
:06C51000E7CFD9FF120085
:0AC51600D9CFE6FFE1CFD9FF020EF6
:10C52000E126FD0EDBCF14F0DB06FE0EDBCF15F0AF
:10C5300001E2DB061450151011E0DE6ADD6ADECF81
:10C5400014F0DDCF15F0E30E145C0D0E155805E266
:10C55000DF2A010E01E3DB2AF2D7E3D7020EE15C0A
:10C5600002E2E16AE552E16EE552E7CFD9FF12003F
:10C57000D9CFE6FFE1CFD9FF060EE1268D92969244
:10C580008D9096908D8496948A9A939A8C92DE6A76
:10C59000DE6ADE6ADD6ADD52DD52D9CFE9FFDACF2D
:10C5A000EAFF640EEE5C000EEE58000EEE58000E30
:10C5B000EE580AE2D9CFE9FFDACFEAFFEE2A000E01
:10C5C000EE22EE22EE22E9D78C82DE6ADE6ADE6A95
:10C5D000DD6ADD52DD52D9CFE9FFDACFEAFF640E22
:10C5E000EE5C000EEE58000EEE58000EEE580AE219
:10C5F000D9CFE9FFDACFEAFFEE2A000EEE22EE22D3
:10C60000EE22E9D7AE0EE66E70D8E552DB0EE66E8E
:10C610006CD8E552230EE66E68D8E552D90EE66E68
:10C6200064D8E552220EE66E60D8E552A10EE66EA1
:10C630005CD8E552C80EE66E58D8E552DA0EE66EC2
:10C6400054D8E552120EE66E50D8E552A80EE66EAA
:10C650004CD8E5523F0EE66E48D8E552D50EE66E50
:10C6600044D8E552A00EE66E40D8E552810EE66E43
:10C670003CD8E552600EE66E38D8E552D30EE66E31
:10C6800034D8E552E66A31D8E552A60EE66E2DD8CA
:10C69000E552AD0EE66E29D8E5528B0EE66E25D832
:10C6A000E552AF0EE66E21D8E5520A0EE66EE66A56
:10C6B00032DFE552E552A40EE66E17D8E552400E81
:10C6C000E66E13D8E552020EE66E0FD8E552100E54
:10C6D000E66E0BD8E552060EE15C02E2E16AE55235
:10C6E000E16EE552E7CFD9FF1200D9CFE6FFE1CFE7
:10C6F000D9FF956AFE0EDB508C6E8D808D828A9AF2
:10C700008D948D928D828D849568E552E7CFD9FF07
:10C710001200D9CFE6FFE1CFD9FF956AFE0EDB50BC
:10C720008C6E8D808D828A8A8D948D928D828D847F
:10C730009568E552E7CFD9FF1200D9CFE6FFE1CFE8
:10C74000D9FF020EE126B00EDF6EB80EDF5C23E2E9
:10C75000DFCFE6FFCADFE552020EE66EC6DFE55226
:10C76000100EE66EC2DFE552010EDB6ADB50146E7E
:10C77000156AD890155004E6840E145C000E155806
:10C7800008E2FE0EDBCFE6FFC4DFE552010EDB2A36
:10C79000EDD7DF2ADAD7020EE15C03E200D0E16ACE
:10C7A000E552E16EE552E7CFD9FF1200D9CFE6FF9F
:10C7B000E1CFD9FF200E146EFE0EDBCFE7FF145041
:10C7C000E75EFE0EE7CFDBFFDBCFF6FFF76AF6BED4
:10C7D000F768050EF702F3CFF7FFF602F3CFF6FF87
:10C7E000F450F726320EF626CF0EF7220800F55049
:10C7F000E66E8FDFE552FE0EDBCFF6FFF76AF6BE80
:10C80000F768050EF702F3CFF7FFF602F3CFF6FF56
:10C81000F450F726320EF626CF0EF722010EF6263A
:10C82000000EF7220800F550E66E73DFE552FE0EAB
:10C83000DBCFF6FFF76AF6BEF768050EF702F3CF17
:10C84000F7FFF602F3CFF6FFF450F726320EF62686
:10C85000CF0EF722020EF626000EF7220800F55042
:10C86000E66E57DFE552FE0EDBCFF6FFF76AF6BE47
:10C87000F768050EF702F3CFF7FFF602F3CFF6FFE6
:10C88000F450F726320EF626CF0EF722030EF626C8
:10C89000000EF7220800F550E66E3BDFE552FE0E73
:10C8A000DBCFF6FFF76AF6BEF768050EF702F3CFA7
:10C8B000F7FFF602F3CFF6FFF450F726320EF62616
:10C8C000CF0EF722040EF626000EF7220800F550D0
:10C8D000E66E1FDFE552E66A1CDFE55200D0E55246
:10C8E000E7CFD9FF1200D9CFE6FFE1CFD9FFE6525B
:10C8F000FD0EDBCFE6FFF9DEE552020E146EFC0EF4
:10C90000DBCFE7FF1450E726FC0EE7CFDBFFDB5061
:10C910000F0BE66EEADEE552FC0EDB380F0B0F0B59
:10C92000100FE66EE2DEE552FE0EDBCFE6FF3EDFE5
:10C93000E55200D0E552E552E7CFD9FF1200D9CF3A
:10C94000E6FFE1CFD9FFFC0EDB50B00FE76EFC0E27
:10C95000E7CFDBFFFB0EDBCFE6FFFC0EDBCFE6FF16
:10C96000FD0EDBCFF6FFFE0EDBCFF7FF0800F55024
:10C97000E66EB9DFE552E552E552FD0EDB2ADBCF6C
:10C98000F6FFFE0E01E3DB2ADBCFF7FF0800F550D0
:10C990000CE0FD0EDBCFF6FFFE0EDBCFF7FF08004D
:10C9A000F550E66E03DFE552E8D7E552E7CFD9FF51
:10C9B0001200D9CFE6FFE1CFD9FFFC0EDB50B00F5C
:10C9C000E76EFC0EE7CFDBFFFB0EDBCFE6FFFC0ED6
:10C9D000DBCFE6FFFD0EDBCFE9FFFE0EDBCFEAFF8C
:10C9E000EF50E66E80DFE552E552E552FD0EDB2AA0
:10C9F000DBCFE9FFFE0E01E3DB2ADBCFEAFFEF50DE
:10CA00000BE0FD0EDBCFE9FFFE0EDBCFEAFFEF50C0
:10CA1000E66ECCDEE552EAD7E552E7CFD9FF120049
:10CA2000D9CFE6FFE1CFD9FF050EE126030EDB6A81
:10CA3000040EDB6A020E146EFA0EDBCFE7FF145011
:10CA4000E726FA0EE7CFDBFFF90EDB50B00FDF6E03
:10CA5000FB0EDB50B00FDF5C35E2DFCFE6FF45DEDB
:10CA6000E552FA0EDB500F0BE66E3FDEE552FA0E92
:10CA7000DB380F0B0F0B1009E66E37DEE552010EA7
:10CA8000DB6AFC0EDB50F36E010EDBCFF4FFF350DC
:10CA9000F45C16E2030EDB2A040E01E3DB2AFD0E32
:10CAA000DBCFF6FFDB2AFE0EDBCFF7FF01E3DB2A4D
:10CAB0000800F550E66E2DDEE552010EDB2AE1D7C7
:10CAC000DF2AC6D7050EE15C03E200D0E16AE55239
:0ACAD000E16EE552E7CFD9FF120036
:06CADA00D9CFE6FFE1CF19
:10CAE000D9FF030EE12659D8736A820E726E739CC9
:10CAF00094949396958C7288728A949EE66AD0D8A4
:10CB0000E552E76E020EE7CFDBFF0000D950020FBF
:10CB1000E96EDACFEAFFEF50070B020801E00000F0
:10CB2000140EE66EBDD8E552E76E020EE7CFDBFFCE
:10CB3000020EDB96DB88020EDB80DB92DB94020EBA
:10CB4000DBCFE6FF140EE66E3AD8E552E552010E51
:10CB5000E66EA6D8E552DE6EDD6A0000110EE66EC6
:10CB60009FD8E552DE6EDD6A0000E66A110EE66EC1
:10CB700026D8E552E5520000110EE66E91D8E55236
:10CB8000DE6EDD6A0000030EE15C02E2E16AE5525E
:10CB9000E16EE552E7CFD9FF1200550EA76EAA0E3F
:10CBA000A76E0E01FF91090ECC6F0A0ED36F170E00
:10CBB000FB6F550EA76EAA0EA76EFF811200D9CF8C
:10CBC000E6FFE1CFD9FFE652DF6AFE0EDB50140824
:10CBD00004E0FE0EDB50340806E1140EE66E60D869
:10CBE000E552E00BDF6E8B9EA49EFE0EDB50756E51
:10CBF000A4AEFED70000000000000000000000000E
:10CC00000000000000000000000000000000000024
:10CC10000000000000000000000000000000000014
:10CC20000000000000000000000000000000000004
:10CC300000000000000000000000000000000000F4
:10CC400000000000000000000000000000000000E4
:10CC500000000000000000000000000000000000D4
:10CC600000000000000000000000000000000000C4
:10CC700000000000A49EFE0EDB500A0805E1FD0E38
:10CC8000DB507F0B756E04D0FD0EDB50DF10756E30
:10CC9000A4AEFED78B8EE552E552E7CFD9FF120046
:10CCA000D9CFE6FFE1CFD9FF8B9EA49EFE0EDB50CD
:10CCB0008009756EA4AEFED70000000000000000E1
:10CCC0000000000000000000000000000000000064
:10CCD0000000000000000000000000000000000054
:10CCE0000000000000000000000000000000000044
:10CCF0000000000000000000000000000000000034
:10CD00000000000000000000000000000000000023
:10CD10000000000000000000000000000000000013
:10CD20000000000000000000000000000000000003
:10CD30000000000000000000A49E756AA4AEFED7AB
:0ECD40008B8E755000D0E552E7CFD9FF120060
:02CD4E00030ED2
:10CD5000B16EB392B390B396B288B28EB290B292E3
:10CD6000A494B38E12002F0E926E0F01E00E486F46
:10CD70001F0E496FC18EC19CC70EC1140809C16E38
:10CD8000F80EC1140209C16E498FC29CC29EC30E27
:10CD9000C2140809C26EC2801200D9DFB3EF66F078
:10CDA000D9CFE6FFE1CFD9FF020EE126FE0EDB5020
:10CDB0000F0BF36EF346F346C30EC214F310C26EAC
:10CDC000FE0EDB50EA6A980FE96E000EEA22EF5081
:10CDD0003F0BF36EF346F346030EB114F310B16E3E
:10CDE000B38EB382000000000000000000000000CD
:10CDF0000000000000000000000000000000000033
:10CE0000000000000000000000000000B392B280AB
:10CE10000000000000000000000000000000000012
:10CE20000000000000000000000000000000000002
:10CE30000000000000000000B2909E9CC2829EACE8
:10CE4000FED7C3CFDEFFC4CFDDFFDECF14F0DDCFD2
:10CE500015F014C0F3FF15C0F4FF00D0020EE15C22
:10CE600002E2E16AE552E16EE552E7CFD9FF120036
:10CE7000D9CFE6FFE1CFD9FF030EE126020EDB6A30
:10CE8000040EF36E020EDBCFF4FFF350F45C21E2EC
:10CE90002AD8EF6A30D80CE226D8EF501F0803E1F9
:10CEA00022D8EF6A13D01FD8EF2A25D8F5E30ED089
:10CEB0002CD80CE218D8EF50E10803E114D8EF6A3F
:10CEC00005D011D8EF062BD820D8F4E3020EDB2AC8
:10CED000D7D7030EE15C02E2E16AE552E16EE5526A
:10CEE000E7CFD9FF1200020EDB50EA6A980FE96E15
:10CEF000000EEA22120013D8DECF14F0DDCF15F0B9
:10CF0000200E145C030E15581200D9CFE9FFDACFBA
:10CF1000EAFF200ED880EE54030EED541200020EEC
:10CF2000DBCFE6FF3DDFE552F3CFDEFFF4CFDDFFE1
:02CF30001200ED
:0ECF3200000000000000004F00000007000794
:10CF400000147F147F14242A7F2A1223130864629A
:10CF500036495522500005030000001C2241000004
:10CF600041221C0014083E081408083E080800501E
:10CF70003000000808080808006060000020100861
:10CF800004023E5149453E00427F40004261514902
:10CF9000462141454B311814127F1027454545392C
:10CFA0003C4A494930017109050336494949360669
:10CFB0004949291E00363600000056360000081484
:10CFC00022410014141414140041221408020151C7
:10CFD0000906324979413E7E1111117E7F49494946
:10CFE000363E414141227F4141221C7F494949410E
:10CFF0007F090909013E4149497A7F0808087F00F5
:10D00000417F41002040413F017F081422417F4081
:10D010004040407F020C027F7F0408107F3E414168
:10D02000413E7F090909063E4151215E7F091929C8
:10D0300046464949493101017F01013F4040403F97
:10D040001F2040201F3F4038403F631408146307EF
:10D05000087008076151494543007F4141000204BF
:10D060000810200041417F000402010204404040BA
:10D070004040000102040020545454787F48444446
:10D08000383844444420384444487F385454541871
:10D09000087E0901020C5252523E7F0804047800B7
:10D0A000447D40002040443D007F10284400004162
:10D0B0007F40007C041804787C08040478384444D9
:10D0C00044387C14141408081414187C7C080404D4
:10D0D000084854545420043F4440203C4040207CA5
:10D0E0001C2040201C3C4030403C44281028440C6C
:10D0F0005050503C4464544C4400083641000000F9
:0DD100007F00000041360800020102040219
:02D10E0000011E
:10D110009CB122D09C838B809490550EA76EAA0E52
:10D12000A76E0E01FF910E0ED16F550EA76EAA0EBF
:10D13000A76EFF810F0EBA6ECF0EBA140009BA6E39
:10D14000BB6A0F01526B800ECB6E040ECA6EA496A2
:10D15000600E776E7F0E766E120000019C919C939C
:10D160008B809490120000019CA109D08B50010B80
:10D1700004E19450010B01E1010C9C91C8DF000116
:10D180009CA3C5DFA4A63AD0A496BA50300BE842BF
:10D19000E842E842E842030819E1400EBB5C10E1B6
:10D1A0008B909490BA6ACA6A0E01D16B0F01526BD0
:10D1B000CB68766A7768A49600019C819C93010CE9
:10D1C000BB2ACF0EBA140009BA6E000CBA0EE96E73
:10D1D0000F0EEA6EEF50300BE842E842E842E842B8
:10D1E000E82AE850030BF36EF46EF346F346F34679
:0ED1F000F346CF0EEF14F310EF6EF450000C68
:02D1FE00426C81
:10D2000061636B20627574746F6E20666F72206D3F
:10D21000656E7500436C6F636B206973206E6F746D
:10D22000207365742100416C61726D005365742038
:10D2300044617465005365742054696D6500313232
:10D24000482F32344820496E74657276616C004113
:10D250006C61726D204D656E7500253032642F252E
:10D26000303264005365742044617465204D656EEE
:10D270007500253032643A253032643A2530326404
:10D28000005365742054696D65204D656E750032DC
:10D2900034480031324800496E74657276616C2002
:10D2A0004D656E75002A00416E616C6F67004469C0
:10D2B000676974616C00446973706C6179204D6FAB
:03D2C000646500A2
:01D2C300006A
:0CD2C400D9CFE6FFDACFE6FFE1CFD9FFBB
:10D2D000E2CFDAFFE652E652E652E652D950F90FB3
:10D2E000146EFF0EDA20156E020E14C0DBFF030E63
:10D2F00015C0DBFF020EDBCFE6FF030EDBCFE6FF40
:10D30000F90EDBCFE6FFFA0EDBCFE6FFFB0EDBCF3D
:10D31000E6FFD950FC0FE66EFF0EDA20E66E0DEC4C
:10D3200059F0146E070EE15C02E2E16AE552E16E2B
:10D330001450F3CFDEFFF4CFDDFFFC0EDBCFE9FFAF
:10D34000FD0EDBCFEAFFEF6ADECF14F0DDCF15F084
:10D3500014C0F3FF15C0F4FF040EE15C02E2E16AC1
:10D36000E552E16EE552E5CFDAFFE7CFD9FF1200D3
:10D37000006A0EAEC1EF69F00D6C0E1EE86A0E2257
:10D38000001E09AEC9EF69F0086C091EE86A09229F
:10D39000001E2BEC6BF009BED9EF69F000AE000C5B
:10D3A000086C091EE86A0922046C051EE86A052259
:10D3B000000C00BED0EF69F00188FF0C09C013F02B
:10D3C00008C012F008500D02F4CF07F0F3CF06F0BA
:10D3D00009500E02F4CF09F0F3CF08F00D02F3501C
:10D3E0000726F4500822E86A092212500E02F35070
:10D3F0000726F4500822E86A09220EAE04EF6AF00C
:10D400001250085E1350095A13AE000C0D50085EFE
:06D410000E50095A000C49
:0AD416001E0EF66EA00EF76E000E5B
:10D42000F86E00010900F5508D6F0900F5508E6F00
:10D4300003E18D6701D03DD00900F550886F0900E8
:10D44000F550896F0900F5508A6F09000900F55001
:10D45000E96E0900F550EA6E090009000900F5506F
:10D460008B6F0900F5508C6F09000900F6CF8FF023
:10D47000F7CF90F0F8CF91F088C0F6FF89C0F7FFA2
:10D480008AC0F8FF00018B5302E18C5307E00900CA
:10D49000F550EE6E8B07F8E28C07F9D78FC0F6FFD8
:10D4A00090C0F7FF91C0F8FF00018D07000E8E5B62
:04D4B000BFD71200D0
:0CD4B400D9CFE6FFDACFE6FFE1CFD9FFC9
:10D4C000E2CFDAFFFB0EDBCF14F0FC0EDBCF15F062
:10D4D0000001800E15141AE1FB0EDBCFE9FFFC0EF4
:10D4E000DBCFEAFFEECFF3FFEDCFF4FFEE2A000E25
:10D4F000EF22F3CFE9FFF4CFEAFFFD0EDBCFEFFF22
:10D50000EF50156AF36E15C0F4FF10D0FB0EDB5020
:10D51000FE0806E1FD0EDBCFE6FF71EC6BF005D0F7
:10D52000FD0EDBCFE6FF03EC50F0E552E552E5CF10
:08D53000DAFFE7CFD9FF12007A
:08D5380006500B02F3CF02F0D4
:10D54000F4CF03F00C02F3500326000EF420046E17
:10D5500006500D02F3500426000EF420056E06500E
:10D560000E02F350052607500B02F3500326F45029
:10D570000422000E052207500C02F3500426F4503A
:10D58000052207500D02F350052608500B02F350F8
:10D590000426F450052208500C02F35005260950C9
:08D5A0000B02F35005261200F6
:08D5A800FE0EE3CFE9FFFF0EC8
:10D5B000E3CFEAFFF36AF46AEE5203E0F34AF42A97
:10D5C000FBD71200FF0EE3CFF8FFE552FF0EE3CFCB
:10D5D000F7FFE552FF0EE3CFF6FFE552E66AE66A93
:10D5E000E66A0900F55209E0FD0EE32A05E1FE0EA8
:10D5F000E32A02E1FF0EE32AF4D7FD0EE3CF07F0A2
:0ED60000FE0EE3CF08F0FF0EE3CF09F012009C
:02D60E00056AAB
:10D61000046A036A026A200EE76ED890063607365F
:10D620000836093602360336043605360B50025CDE
:10D630000C5003580D5004580E50055809E30B5078
:10D64000025E0C50035A0D50045A0E50055A062A19
:06D65000E72EE4D71200F2
:0AD65600056A046A100EE76ED89012
:10D6600008360936043605360D50045C0E50055850
:10D6700005E30D50045E0E50055A082AE72EF0D738
:02D68000120096
:0ED68200F36AF46AFF0EE124E96EFF0EE22067
:10D69000EA6EED6607D02F0EEF6404D03A0EEF600D
:06D6A00001D0F32A120084
:0AD6A600C00EF36E00EE00F00E0E51
:10D6B00001D81200EA6002D0EE6AFCD7F350E960AC
:06D6C0001200EE6AFCD727
:0AD6C6001DEE00F02DEE00F0F86AF2
:10D6D000019C0BEC6AF007EC50F0C2EC58F0FBD761
:02D6E000120036
:0ED6E200FF0EE350ADBA04D0B06AAC8EAD8A34
:0ED6F000949CADA2FED7AE6EF36EF46A1200EB
:02D6FE003031C9
:0FD7000032333435363738396162636465660019
:01D70F000217
:10D7100000030003002B00300000000000000001A7
:0CD72000000100000001010000000000FA
:01FFF800AA5E
:01FFF900F710
:01FFFA001FE7
:01FFFB00FF06
:01FFFC0063A1
:01FFFD00F80B
:01FFFE008181
:01FFFF00F110
:00000001FF
