:020000040000FA
:060000008CEF7FF01200FE
:0600080004EF50F01200AD
:060018000CEF50F0120095
:06A000008CEF7FF012005E
:02A00600120046
:06A008001CEF50F01200F5
:02A00E0012003E
:06A018007AEF50F0120087
:02A01E0002003E
:10A0200061FF0000600000002F000000C7F9000081
:08A03000A60000000100000081
:08A03800DACFE4FFE2CFDAFF0A
:10A04000E9CFE4FFEACFE4FFF6CFE4FFF7CFE4FF88
:10A05000F5CFE4FFF3CFE4FFF4CFE4FFFACFE4FF62
:10A0600000EE18F0140EE80403E3EECFE4FFFBD794
:10A0700000EE00F0180EE80403E3EECFE4FFFBD798
:10A08000E652F2A413D0480ED76EE30ED66E01014D
:10A09000042B000E0523053508E204513B08000E91
:10A0A000055503E2046B056B7DD8F294E55200EE92
:10A0B00017F0180EE80403E3E5CFEDFFFBD700EE41
:10A0C0002BF0140EE80403E3E5CFEDFFFBD7E5CF5B
:10A0D000FAFFE5CFF4FFE5CFF3FFE5CFF5FFE5CFDE
:10A0E000F7FFE5CFF6FFE5CFEAFFE5CFE9FFE5CFE4
:10A0F000DAFF1100D8CFE4FFE0CFE4FFE46EDACF5F
:10A10000E4FFE652E552E5CFDAFFE550E5CFE0FFA8
:10A11000E5CFD8FF100000EC7BF06BEC7BF0A0ECFF
:10A1200079F051EC6BF0E66A36EC6CF0E552120017
:10A1300010EC7DF00009FCE00F01486949698BEFE4
:10A1400050F081B01FD000018BC000F08CC001F036
:10A150008DC002F08EC003F08B2B000E8C238D235C
:10A160008E23D880010E0054000E0154000E0254BC
:10A17000000E035416E28B6B8C6B8D6B8E6B010E95
:10A180008A6F000C00018A050CE18B518C118D1136
:10A190008E1102E18A6B010C8B07000E8C5B8D5BCC
:10A1A0008E5B000C0101022B000E0323033508E235
:10A1B00002513B08000E035503E2026B036B01D80A
:10A1C00012000101002B000E012300017F5123E04A
:10A1D000010101350EE200510C08000E015509E2A3
:10A1E0000001800506E1806B010E0101006F016B2B
:10A1F0001200010101350EE200510C08000E01555C
:10A2000015E20001805112E1010E806F0101006F23
:10A21000016B0DD812000101013508E20051170849
:10A22000000E015503E2006B016B01D81200000122
:10A230007A2B000E7B23010E781901E179511EE083
:10A24000030E781901E1795119E0050E781901E141
:10A25000795114E0070E781901E179510FE0080EE9
:10A26000781901E179510AE00A0E781901E1795172
:10A2700005E00C0E78190EE179510CE17B3509E20D
:10A280007A511F08000E7B5530E2010E7A6F7B6B0E
:10A290002DD81200040E781901E179510FE0060E55
:10A2A000781901E179510AE0090E781901E1795133
:10A2B00005E00B0E78190EE179510CE17B3509E2CE
:10A2C0007A511E08000E7B5510E2010E7A6F7B6BEF
:10A2D0000DD812007B3509E27A511C08000E7B551F
:10A2E00004E2010E7A6F7B6B01D812000001782B1B
:10A2F000000E7923793508E278510C08000E795563
:10A3000003E2010E786F796B1200D9CFE6FFE1CF3F
:10A31000D9FF020EE126030EE66E03EC7BF0E55258
:10A32000F3CFDEFFF4CFDDFFDECF00F0DDCF01F0B5
:10A33000D890015004E6580E005C020E015819E254
:10A34000DECF00F0DDCF01F0D890015004E6620EC0
:10A35000005C020E01580AE2030EE66E03EC7BF08D
:10A36000E552F3CFDEFFF4CFDDFFEAD7010EF36E47
:10A3700001D0F36AF46A020EE15C02E2E16AE5529E
:10A38000E16EE552E7CFD9FF1200D9CFE6FFE1CF6A
:10A39000D9FF020EE126E66A03EC7BF0E552F3CF2B
:10A3A000DEFFF4CFDDFFDECF00F0DDCF01F0D8908F
:10A3B000015004E6580E005C020E015818E2DECF90
:10A3C00000F0DDCF01F0D890015004E6620E005C91
:10A3D000020E015809E2E66A03EC7BF0E552F3CF86
:10A3E000DEFFF4CFDDFFEBD7010EF36E01D0F36A91
:10A3F000F46A020EE15C02E2E16AE552E16EE552C6
:10A40000E7CFD9FF1200D9CFE6FFE1CFD9FF040E85
:10A41000E126020EDE6EDD6A130EC26ED9CFE9FFB1
:10A42000DACFEAFFEE50ED100EE0C250E76E000EFC
:10A43000DFCF00F0010EE7500016016A00C0DEFF1A
:10A4400001C0DDFFEBD7C450036E026AC350022483
:10A45000006E000E0320016E020E00C0DBFF030E33
:10A4600001C0DBFF020EDBCF00F0030EDBCF01F0FB
:10A4700000C0F3FF01C0F4FF040EE15C02E2E16AF8
:10A48000E552E16EE552E7CFD9FF1200D9CFE6FFE2
:10A49000E1CFD9FF020EE126010EE66E03EC7BF060
:10A4A000E552F3CFDEFFF4CFDDFFDECF00F0DDCFEE
:10A4B00001F0D890015004E6200E005C030E015814
:10A4C00019E2DECF00F0DDCF01F0D890015004E6B4
:10A4D000520E005C030E01580AE2010EE66E03EC18
:10A4E0007BF0E552F3CFDEFFF4CFDDFFEAD7010EBC
:10A4F000F36E01D0F36AF46A020EE15C02E2E16AF3
:10A50000E552E16EE552E7CFD9FF1200D9CFE6FF61
:10A51000E1CFD9FF020EE126E66E03EC7BF0E552B7
:10A52000F3CFDEFFF4CFDDFFDECF00F0DDCF01F0B3
:10A53000D890015004E6200E005C030E015819E289
:10A54000DECF00F0DDCF01F0D890015004E6520ECE
:10A55000005C030E01580AE2020EE66E03EC7BF08B
:10A56000E552F3CFDEFFF4CFDDFFEAD7010EF36E45
:10A5700001D0F36AF46A020EE15C02E2E16AE5529C
:10A58000E16EE552E7CFD9FF1200D9CFE6FFE1CF68
:10A59000D9FF040EE1260A0E006E016A02C120F006
:10A5A00003C121F0256E01C026F04CEC73F020C0F1
:10A5B000DEFF21C0DDFF02C100F003C101F00A0E81
:10A5C000256E266A02C120F003C121F04CEC73F025
:10A5D0001CC000F01DC001F0020E1CC0DBFF030E0A
:10A5E0001DC0DBFF000EDFCF20F0010EDBCF21F01E
:10A5F000050E201801E121502CE0040E201801E185
:10A60000215023E0030E201801E121501AE0020E30
:10A61000201801E1215011E0010E201801E1215024
:10A6200008E020501EE121501CE174C0E6FF200E1E
:10A6300013D074C0E6FF240E0FD074C0E6FF280EBE
:10A640000BD074C0E6FF2C0E07D074C0E6FF300EAE
:10A6500003D074C0E6FF340EE66E00EC6EF0E552F7
:10A66000E552020EDBCF20F0030EDBCF21F0090E06
:10A67000201801E1215050E0080E201801E121507E
:10A6800047E0070E201801E121503EE0060E201899
:10A6900001E1215035E0050E201801E121502CE0A8
:10A6A000040E201801E1215023E0030E201801E1DF
:10A6B00021501AE0020E201801E1215011E0010E94
:10A6C000201801E1215008E020502EE121502CE11A
:10A6D00075C0E6FF200E23D075C0E6FF240E1FD004
:10A6E00075C0E6FF280E1BD075C0E6FF2C0E17D0F4
:10A6F00075C0E6FF300E13D075C0E6FF340E0FD0E4
:10A7000075C0E6FF380E0BD075C0E6FF3C0E07D0D3
:10A7100075C0E6FF400E03D075C0E6FF440EE66E3E
:10A7200000EC6EF0E552E552040EE15C02E2E16AF3
:10A73000E552E16EE552E7CFD9FF1200D9CFE6FF2F
:10A74000E1CFD9FF040EE1260A0E006E016A04C1B2
:10A7500020F005C121F0256E01C026F04CEC73F00D
:10A7600020C0DEFF21C0DDFF04C100F005C101F003
:10A770000A0E256E266A04C120F005C121F04CECBA
:10A7800073F01CC000F01DC001F0020E1CC0DBFF06
:10A79000030E1DC0DBFF000EDFCF20F0010EDBCF6C
:10A7A00021F0050E201801E121502CE0040E2018A4
:10A7B00001E1215023E0030E201801E121501AE0AD
:10A7C000020E201801E1215011E0010E201801E1D4
:10A7D000215008E020501EE121501CE176C0E6FF28
:10A7E000200E13D076C0E6FF240E0FD076C0E6FF11
:10A7F000280E0BD076C0E6FF2C0E07D076C0E6FF01
:10A80000300E03D076C0E6FF340EE66E00EC6EF03C
:10A81000E552E552020EDBCF20F0030EDBCF21F034
:10A82000090E201801E1215050E0080E201801E126
:10A83000215047E0070E201801E121503EE0060EAE
:10A84000201801E1215035E0050E201801E12150CA
:10A850002CE0040E201801E1215023E0030E201803
:10A8600001E121501AE0020E201801E1215011E00F
:10A87000010E201801E1215008E020502EE1215066
:10A880002CE177C0E6FF200E23D077C0E6FF240E30
:10A890001FD077C0E6FF280E1BD077C0E6FF2C0E36
:10A8A00017D077C0E6FF300E13D077C0E6FF340E26
:10A8B0000FD077C0E6FF380E0BD077C0E6FF3C0E16
:10A8C00007D077C0E6FF400E03D077C0E6FF440E06
:10A8D000E66E00EC6EF0E552E552040EE15C02E239
:10A8E000E16AE552E16EE552E7CFD9FF12000C0EA6
:10A8F0000101001901E1015101E1B0D00B0E001975
:10A9000001E1015101E19ED00A0E001901E101515E
:10A9100001E18CD0090E001901E1015101E17AD069
:10A92000080E001901E1015169E0070E001901E16B
:10A93000015158E0060E001901E1015147E0050EF2
:10A94000001901E1015136E0040E001901E1015145
:10A9500025E0030E001901E1015114E0020E001977
:10A9600001E101510BE0010E001901E087D0015116
:10A9700001E084D072C0E6FF200E67D072C0E6FF0F
:10A98000200E6FD072C0E6FF200EE66E00EC6EF077
:10A99000E552E55273C0E6FF2C0E6BD072C0E6FFA5
:10A9A000200EE66E00EC6EF0E552E55273C0E6FF55
:10A9B000300E5FD072C0E6FF200EE66E00EC6EF047
:10A9C000E552E55273C0E6FF340E53D072C0E6FF85
:10A9D000200EE66E00EC6EF0E552E55273C0E6FF25
:10A9E000380E47D072C0E6FF200EE66E00EC6EF027
:10A9F000E552E55273C0E6FF3C0E3BD072C0E6FF65
:10AA0000200EE66E00EC6EF0E552E55273C0E6FFF4
:10AA1000400E2FD072C0E6FF200EE66E00EC6EF006
:10AA2000E552E55273C0E6FF440E23D072C0E6FF44
:10AA3000240EE66E00EC6EF0E552E55273C0E6FFC0
:10AA4000200E17D072C0E6FF240EE66E00EC6EF00A
:10AA5000E552E55273C0E6FF240E0BD072C0E6FF4C
:10AA6000240EE66E00EC6EF0E552E55273C0E6FF90
:10AA7000280EE66E00EC6EF0E552E55286DD5EDEF5
:10AA80000001805108E06E0EE66E070EE66EC40E01
:10AA9000E66EF90E07D06E0EE66E070EE66EC10E7C
:10AAA000E66EF90EE66E35EC6DF0E552E552E552D4
:10AAB000E55212000101005101E1015101E123D1F0
:10AAC000170E001901E1015101E111D1160E001913
:10AAD00001E1015101E1FFD0150E001901E1015121
:10AAE00001E1EDD0140E001901E1015101E1E3D0C3
:10AAF000130E001901E1015101E1D1D0120E00192C
:10AB000001E1015101E1BFD0110E001901E1015134
:10AB100001E1ADD0100E001901E1015101E19BD01E
:10AB20000F0E001901E1015101E189D00E0E00194B
:10AB300001E1015101E177D00D0E001901E1015150
:10AB40006EE00C0E001901E1015165E00B0E0019D9
:10AB500001E101515CE00A0E001901E1015153E0ED
:10AB6000090E001901E101514AE0080E001901E146
:10AB7000015141E0070E001901E1015138E0060ED4
:10AB8000001901E101512FE0050E001901E1015109
:10AB900026E0040E001901E101511DE0030E001929
:10ABA00001E1015114E0020E001901E101510BE035
:10ABB000010E001901E0B7D0015101E0B4D072C01C
:10ABC000E6FF200E7FD072C0E6FF200E87D072C055
:10ABD000E6FF200E8FD072C0E6FF200E27D072C095
:10ABE000E6FF200E2FD072C0E6FF200E37D072C0D5
:10ABF000E6FF200E3FD072C0E6FF200E47D072C0A5
:10AC0000E6FF200E4FD072C0E6FF240E7FD072C048
:10AC1000E6FF240E57D072C0E6FF240E5FD072C04C
:10AC2000E6FF240E67D072C0E6FF240EE66E00EC4D
:10AC30006EF0E552E55273C0E6FF300E6FD072C081
:10AC4000E6FF240EE66E00EC6EF0E552E55273C0AE
:10AC5000E6FF340E63D072C0E6FF240EE66E00EC11
:10AC60006EF0E552E55273C0E6FF380E57D072C061
:10AC7000E6FF240EE66E00EC6EF0E552E55273C07E
:10AC8000E6FF3C0E4BD072C0E6FF240EE66E00ECF1
:10AC90006EF0E552E55273C0E6FF400E3FD072C041
:10ACA000E6FF240EE66E00EC6EF0E552E55273C04E
:10ACB000E6FF440E33D072C0E6FF280E27D072C0E4
:10ACC000E6FF280EE66E00EC6EF0E552E55273C02A
:10ACD000E6FF240E23D072C0E6FF280EE66E00ECDD
:10ACE0006EF0E552E55273C0E6FF280E17D072C031
:10ACF000E6FF280EE66E00EC6EF0E552E55273C0FA
:10AD0000E6FF2C0E0BD072C0E6FF200EE66E00ECC4
:10AD10006EF0E552E55273C0E6FF200EE66E00ECE1
:10AD20006EF0E552E55231DC9EEF53F000017F51A9
:10AD300002E077EF54F05AEF55F0D9CFE6FFE1CFBC
:10AD4000D9FF0A0EE12678C0E6FF79C0E6FF7AC097
:10AD5000E6FF7BC0E6FFB70E006EF90E016E026AD9
:10AD600000C0E6FFE66E02C0E6FFD9CFE6FFDACF0D
:10AD7000E6FF5CEC7DF0036E090EE15E0350020E0F
:10AD8000E66E070EE66ED9CFE6FFDACFE6FF6EEC91
:10AD90006DF0E552E552E552E5520A0EE15C02E241
:10ADA000E16AE552E16EE552E7CFD9FF12001200E9
:10ADB00000017E512FE0BADF250EE66EB30EE66E7F
:10ADC0006F0EE66E0AEC6DF0E552E552E552250E87
:10ADD000E66EB40EE66E6F0EE66E0AEC6DF0E552AE
:10ADE000E552E552520EE66EB30EE66E6F0EE66E5B
:10ADF0000AEC6DF0E552E552E552520EE66EB40EE5
:10AE0000E66E6F0EE66E0AEC6DF0E552E552E55225
:10AE10009DEF56F0D7EF56F0D9CFE6FFE1CFD9FF3F
:10AE20000A0EE12604C1E6FF05C1E6FF02C1E6FF06
:10AE300003C1E6FF00C1E6FF01C1E6FFA80E006EF8
:10AE4000F90E016E026A00C0E6FFE66E02C0E6FF80
:10AE5000D9CFE6FFDACFE6FF5CEC7DF0036E0B0E98
:10AE6000E15E035000017F5124E03C0EE66E070EC8
:10AE7000E66ED9CFE6FFDACFE6FF6EEC6DF0E55275
:10AE8000E552E552E5520001805108E06E0EE66E93
:10AE9000070EE66EC40EE66EF90E07D06E0EE66E75
:10AEA000070EE66EC10EE66EF90EE66E35EC6DF03D
:10AEB0000AD0500EE66E070EE66ED9CFE6FFDACF67
:10AEC000E6FF6EEC6DF0E552E552E552E5520A0EF2
:10AED000E15C02E2E16AE552E16EE552E7CFD9FFBB
:10AEE0001200D9CFE6FFE1CFD9FF040EE1261E0EF6
:10AEF000E66EE66A9B0EE66EF90EE66E35EC6DF0D8
:10AF0000E552E552E552E5521E0EE66E030EE66E80
:10AF1000930EE66EF90EE66E35EC6DF0E552E552F5
:10AF2000E552E5521E0EE66E050EE66E8C0EE66EDE
:10AF3000F90EE66E35EC6DF0E552E552E552E5525C
:10AF40006BEC7BF046EC52F0F3CFDEFFF4CFDDFF8D
:10AF5000D9CFE9FFDACFEAFF010EEE1811E1ED508B
:10AF60000FE1E66A36EC6CF0E5520001050E62195D
:10AF700004E1635102E1030E01D0050E626F636BC1
:10AF800086EC52F0020EF3CFDBFF030EF4CFDBFFB3
:10AF9000D950020FE96EDACFEAFF010EEE1811E187
:10AFA000ED500FE1E66A36EC6CF0E5520001030E5D
:10AFB000621904E1635102E1050E01D0030E626FD4
:10AFC000636B160EE66E62C0E6FF8A0EE66EF90E41
:10AFD000E66E35EC6DF0E552E552E552E5524B0E6A
:10AFE000E66E62C0E6FF8A0EE66EF90EE66E35EC9E
:10AFF0006DF0E552E552E552E552A1EC50F0000942
:10B0000011E00001030E621905E1635103E1010E35
:10B010007E6F01D07E6B010EF36EF46A040EE15C6C
:10B0200009E206D000017C5101E161D7F5DE5FD76E
:10B03000E16AE552E16EE552E7CFD9FF1200000167
:10B040007F515FE080510AE001010C0E001901E020
:10B0500014D1015155E1006B016B12000B0E01017F
:10B06000001901E1015149E00A0E001901E1015105
:10B0700040E0090E001901E1015139E0080E001904
:10B0800001E1015132E0070E001901E101512BE00D
:10B09000060E001901E1015124E0050E001901E13D
:10B0A00001511DE0040E001901E1015116E0030EEB
:10B0B000001901E101510FE0020E001901E10151F7
:10B0C00008E0010E001901E1015101E012000D0E2E
:10B0D00011D00E0E0FD00F0E0DD0100E0BD0110E82
:10B0E00009D0120E07D0130E05D0140E03D0150E82
:10B0F00001D0160E006F016B1200170E006F016B6E
:10B100001200170E0101001901E1015101E1AFD058
:10B11000160E001901E1015101E1A2D0150E00192E
:10B1200001E1015101E198D0140E001901E1015132
:10B1300001E18ED0130E001901E1015101E184D02B
:10B14000120E001901E1015101E17AD0110E00192E
:10B1500001E1015171E0100E001901E1015168E0B7
:10B160000F0E001901E101515FE00E0E001901E11F
:10B17000015156E00D0E001901E101514DE00C0E98
:10B18000001901E1015145E00B0E001901E10151E7
:10B190003CE00A0E001901E1015137E0090E0019E7
:10B1A00001E1015132E0080E001901E101512DE0E9
:10B1B000070E001901E1015128E0060E001901E116
:10B1C000015123E0050E001901E101511EE0040EBA
:10B1D000001901E1015119E0030E001901E10151CB
:10B1E00014E0020E001901E101510FE0010E0019F7
:10B1F00001E101510AE0005101E1015101E01200B9
:10B200000001010E806F0C0E2ED00001010E806F28
:10B2100012000001806B12000001806B010E23D030
:10B220000001806B020E1FD00001806B030E1BD04B
:10B230000001806B040E17D00001806B050E13D047
:10B240000001806B060E0FD00001806B070E0BD043
:10B250000001806B080E07D00001806B090E03D03F
:10B260000001806B0A0E0101006F016B12000001EA
:10B27000806B0B0E0101006F016B1200D9CFE6FF4E
:10B28000E1CFD9FF040EE1261E0EE66EE66A7C0EC3
:10B29000E66EF90EE66E35EC6DF0E552E552E552DC
:10B2A000E552320EE66E030EE66E780EE66EF90E8D
:10B2B000E66E35EC6DF0E552E552E552E552320EA0
:10B2C000E66E050EE66E740EE66EF90EE66E35EC71
:10B2D0006DF0E552E552E552E5526BEC7BF046EC41
:10B2E00052F0F3CFDEFFF4CFDDFFD9CFE9FFDACFA5
:10B2F000EAFF010EEE1811E1ED500FE1E66A36ECBF
:10B300006CF0E5520001050E641904E1655102E19B
:10B31000030E01D0050E646F656B86EC52F0020ED1
:10B32000F3CFDBFF030EF4CFDBFFD950020FE96E42
:10B33000DACFEAFF010EEE1811E1ED500FE1E66AF7
:10B3400036EC6CF0E5520001030E641904E165511E
:10B3500002E1050E01D0030E646F656B2A0EE66EE6
:10B3600064C0E6FF8A0EE66EF90EE66E35EC6DF00F
:10B37000E552E552E552E552460EE66E64C0E6FF40
:10B380008A0EE66EF90EE66E35EC6DF0E552E5528A
:10B39000E552E552A1EC50F0000922E00001030E55
:10B3A00064190BE1655109E17F0507E07C5101E07B
:10B3B00046DE0001010E7F6F0CD0050E641909E115
:10B3C000655107E17F5105E07C5101E038DE000165
:10B3D0007F6B010EF36EF46A040EE15C09E206D0A5
:10B3E00000017C5101E150D717DD4ED7E16AE552EB
:10B3F000E16EE552E7CFD9FF1200D9CFE6FFE1CFEA
:10B40000D9FF040EE12600017F5101E195D01E0E07
:10B41000E66EE66A690EE66EF90EE66E35EC6DF0E4
:10B42000E552E552E552E552320EE66E030EE66E47
:10B43000C40EE66EF90EE66E35EC6DF0E552E5529F
:10B44000E552E552320EE66E050EE66EC10EE66E70
:10B45000F90EE66E35EC6DF0E552E552E552E55237
:10B460006BEC7BF046EC52F0F3CFDEFFF4CFDDFF68
:10B47000D9CFE9FFDACFEAFF010EEE1811E1ED5066
:10B480000FE1E66A36EC6CF0E5520001050E661934
:10B4900004E1675102E1030E01D0050E666F676B90
:10B4A00086EC52F0020EF3CFDBFF030EF4CFDBFF8E
:10B4B000D950020FE96EDACFEAFF010EEE1811E162
:10B4C000ED500FE1E66A36EC6CF0E5520001030E38
:10B4D000661904E1675102E1050E01D0030E666FA3
:10B4E000676B2A0EE66E66C0E6FF8A0EE66EF90E00
:10B4F000E66E35EC6DF0E552E552E552E552400E50
:10B50000E66E66C0E6FF8A0EE66EF90EE66E35EC74
:10B510006DF0E552E552E552E552A1EC50F000091C
:10B520004AE00001030E661905E1675103E1010ECF
:10B53000806F3AD0806B38D0E66A020EE66E570E06
:10B54000E66EF90EE66E35EC6DF0E552E552E55229
:10B55000E552E66A030EE66E4F0EE66EF90EE66EF3
:10B5600035EC6DF0E552E552E552E552E66A050E1E
:10B57000E66E410EE66EF90EE66E35EC6DF0E552C4
:10B58000E552E552E552E66A060EE66E360EE66EC6
:10B59000F90EE66E35EC6DF0E552E552E552E552F6
:10B5A000A1EC50F0000907E0010EF36EF46A040EFE
:10B5B000E15C09E206D000017C5101E124D72CDCDA
:10B5C00022D7E16AE552E16EE552E7CFD9FF1200DA
:10B5D000D9CFE6FFE1CFD9FF040EE1266BEC7BF07B
:10B5E00046EC52F0F3CFDEFFF4CFDDFFD9CFE9FF19
:10B5F000DACFEAFF010EEE181FE1ED501DE1E66A19
:10B6000036EC6CF0E55200016C2B000E6D237F517F
:10B610000AE06D3511E26C510C08000E6D550CE21C
:10B62000010E6C6F08D06D3507E26C511708000EE3
:10B630006D5502E26C6B6D6B86EC52F0020EF3CF2F
:10B64000DBFF030EF4CFDBFFD950020FE96EDACF38
:10B65000EAFF010EEE181DE1ED501BE1E66A36EC43
:10B660006CF0E55200016C07000E6D5B7F510BE042
:10B67000010E6DAF02D0D89003D06C5D000E6D59F5
:10B6800008E20C0E04D0800E6D1503E0170E6C6FEF
:10B690006D6B040EE15C02E2E16AE552E16EE55297
:10B6A000E7CFD9FF1200D9CFE6FFE1CFD9FF040ED3
:10B6B000E1266BEC7BF046EC52F0F3CFDEFFF4CFEB
:10B6C000DDFFD9CFE9FFDACFEAFF010EEE1813E173
:10B6D000ED5011E1E66A36EC6CF0E55200016E2B9C
:10B6E000000E6F236F3507E26E513B08000E6F5559
:10B6F00002E26E6B6F6B86EC52F0020EF3CFDBFF53
:10B70000030EF4CFDBFFD950020FE96EDACFEAFF68
:10B71000010EEE1810E1ED500EE1E66A36EC6CF029
:10B72000E55200016E07000E6F5B800E6F1503E09F
:10B730003B0E6E6F6F6B040EE15C02E2E16AE55254
:10B74000E16EE552E7CFD9FF1200D9CFE6FFE1CF96
:10B75000D9FF040EE1266BEC7BF046EC52F0F3CF00
:10B76000DEFFF4CFDDFFD9CFE9FFDACFEAFF010E2C
:10B77000EE1813E1ED5011E1E66A36EC6CF0E5529B
:10B780000001702B000E7123713507E270513B08E8
:10B79000000E715502E2706B716B86EC52F0020E76
:10B7A000F3CFDBFF030EF4CFDBFFD950020FE96EBE
:10B7B000DACFEAFF010EEE1810E1ED500EE1E66A75
:10B7C00036EC6CF0E55200017007000E715B800EE4
:10B7D000711503E03B0E706F716B040EE15C02E2C9
:10B7E000E16AE552E16EE552E7CFD9FF1200D9CF09
:10B7F000E6FFE1CFD9FF0E0EE126190EE66EE66AEE
:10B80000280EE66EF90EE66E35EC6DF0E552E55267
:10B81000E552E55270C0E6FF71C0E6FF6EC0E6FF7C
:10B820006FC0E6FF6CC0E6FF6DC0E6FFA80E006EBD
:10B83000F90E016E026A00C0E6FFE66E02C0E6FF86
:10B84000D9CFE6FFDACFE6FF5CEC7DF0036E0B0E9E
:10B85000E15E0350280EE66E040EE66ED9CFE6FFD9
:10B86000DACFE6FF6EEC6DF0E552E552E552E552B7
:10B870006BEC7BF0C5EC51F00C0EF3CFDBFF0D0E43
:10B88000F4CFDBFFD9500C0FE96EDACFEAFF010EDF
:10B89000EE181DE1ED501BE1E66A36EC6CF0E55266
:10B8A0004F0E0001681901E169510EE03D0E681963
:10B8B00001E1695107E02B0E681909E1695107E1BF
:10B8C0003D0E03D04F0E01D02B0E686F696B85ECD7
:10B8D00051F00A0EF3CFDBFF0B0EF4CFDBFFD95094
:10B8E0000A0FE96EDACFEAFF010EEE181DE1ED5006
:10B8F0001BE1E66A36EC6CF0E5524F0E0001681968
:10B9000001E169510EE03D0E681901E1695107E05E
:10B910002B0E681909E1695107E14F0E03D02B0E78
:10B9200001D03D0E686F696B68C0E6FF030EE66EDE
:10B930008A0EE66EF90EE66E35EC6DF0E552E552D4
:10B94000E552E55268C0E6FF050EE66E8A0EE66E29
:10B95000F90EE66E35EC6DF0E552E552E552E55232
:10B960004F0E0001681901E169510EE03D0E6819A2
:10B9700001E1695107E02B0E681907E1695105E102
:10B9800027DE03D090DE01D0E0DEA1EC50F000090C
:10B9900015E06CC000F16DC001F16EC002F16FC026
:10B9A00003F170C004F171C005F10001010E7C6F5C
:10B9B000F36EF46A0E0EE15C0AE207D000017C51DE
:10B9C00001E11BD70CEC57F018D7E16AE552E16EA4
:10B9D000E552E7CFD9FF1200D9CFE6FFE1CFD9FF7B
:10B9E000040EE1266BEC7BF046EC52F0F3CFDEFF69
:10B9F000F4CFDDFFD9CFE9FFDACFEAFF010EEE1871
:10BA000014E1ED5012E1E66A36EC6CF0E55200010B
:10BA1000782B000E7923793508E278510C08000E56
:10BA2000795503E2010E786F796B86EC52F0020EC5
:10BA3000F3CFDBFF030EF4CFDBFFD950020FE96E2B
:10BA4000DACFEAFF010EEE1816E1ED5014E1E66AD6
:10BA500036EC6CF0E55200017807000E795B010EC0
:10BA600079AF02D0D89003D0785D000E795903E207
:10BA70000C0E786F796B040EE15C02E2E16AE5522C
:10BA8000E16EE552E7CFD9FF1200D9CFE6FFE1CF53
:10BA9000D9FF040EE1266BEC7BF046EC52F0F3CFBD
:10BAA000DEFFF4CFDDFFD9CFE9FFDACFEAFF010EE9
:10BAB000EE185BE1ED5059E1E66A36EC6CF0E552C8
:10BAC00000017A2B000E7B23010E781901E17951D8
:10BAD0001EE0030E781901E1795119E0050E78197D
:10BAE00001E1795114E0070E781901E179510FE075
:10BAF000080E781901E179510AE00A0E781901E17E
:10BB0000795105E00C0E78190AE1795108E17B358D
:10BB10002CE27A511F08000E7B5527E223D0040E39
:10BB2000781901E179510FE0060E781901E1795198
:10BB30000AE0090E781901E1795105E00B0E781938
:10BB40000AE1795108E17B3510E27A511E08000EB6
:10BB50007B550BE207D07B3508E27A511C08000EBA
:10BB60007B5503E2010E7A6F7B6B86EC52F0020E7E
:10BB7000F3CFDBFF030EF4CFDBFFD950020FE96EEA
:10BB8000DACFEAFF010EEE1863E1ED5061E1E66AFB
:10BB900036EC6CF0E55200017A07000E7B5B010E7B
:10BBA000781901E179511EE0030E781901E179510C
:10BBB00019E0050E781901E1795114E0070E7819A2
:10BBC00001E179510FE0080E781901E179510AE09D
:10BBD0000A0E781901E1795105E00C0E78190DE192
:10BBE00079510BE1010E7BAF02D0D89003D07A5D82
:10BBF000000E7B592DE21F0E29D0040E781901E1A9
:10BC000079510FE0060E781901E179510AE0090E29
:10BC1000781901E1795105E00B0E78190DE17951A0
:10BC20000BE1010E7BAF02D0D89003D07A5D000EFD
:10BC30007B590EE21E0E0AD0010E7BAF02D0D890C7
:10BC400003D07A5D000E7B5903E21C0E7A6F7B6B8A
:10BC5000040EE15C02E2E16AE552E16EE552E7CFF3
:10BC6000D9FF1200D9CFE6FFE1CFD9FF0E0EE126B2
:10BC7000190EE66EE66A1A0EE66EF90EE66E35EC01
:10BC80006DF0E552E552E552E55278C0E6FF79C025
:10BC9000E6FF7AC0E6FF7BC0E6FFB70E006EF90E46
:10BCA000016E026A00C0E6FFE66E02C0E6FFD9CF71
:10BCB000E6FFDACFE6FF5CEC7DF0036E090EE15E95
:10BCC00003502D0EE66E040EE66ED9CFE6FFDACFF6
:10BCD000E6FF6EEC6DF0E552E552E552E5526BEC95
:10BCE0007BF0C5EC51F00C0EF3CFDBFF0D0EF4CF63
:10BCF000DBFFD9500C0FE96EDACFEAFF010EEE1828
:10BD000016E1ED5014E1E66A36EC6CF0E552420EB5
:10BD100000016A1901E16B5107E0300E6A1907E171
:10BD20006B5105E1420E01D0300E6A6F6B6B85ECF2
:10BD300051F00A0EF3CFDBFF0B0EF4CFDBFFD9502F
:10BD40000A0FE96EDACFEAFF010EEE1816E1ED50A8
:10BD500014E1E66A36EC6CF0E552420E00016A1915
:10BD600001E16B5107E0300E6A1907E16B5105E103
:10BD7000420E01D0300E6A6F6B6B6AC0E6FF030E95
:10BD8000E66E8A0EE66EF90EE66E35EC6DF0E55263
:10BD9000E552E552E5526AC0E6FF050EE66E8A0EF0
:10BDA000E66EF90EE66E35EC6DF0E552E552E552C1
:10BDB000E552420E00016A1901E16B5107E0300EB5
:10BDC0006A1905E16B5103E160DE01D005DEA1ECEB
:10BDD00050F0000907E0010EF36EF46A0E0EE15C0C
:10BDE0000AE207D000017C5101E142D70CEC57F088
:10BDF0003FD7E16AE552E16EE552E7CFD9FF120085
:10BE00000A0EE66EE66A0F0EE66EF90EE66E35EC89
:10BE10006DF0E552E552E552E5521200D9CFE6FF4A
:10BE2000E1CFD9FF020EE126E66A36EC6CF0E5526E
:10BE3000060E0001601901E1615153E0050E601921
:10BE400001E1615143E0040E601901E1615133E009
:10BE5000030E601901E1615122E0020E601901E157
:10BE6000615111E0010E601946E1615144E171EC4C
:10BE700057F0F3CF00F0F4CF01F0010EF3183BE1DF
:10BE8000015039E147D03EEC59F0F3CF00F0F4CF48
:10BE900001F0010EF3182FE101502DE13BD0FDEC34
:10BEA00059F0F3CF00F0F4CF01F0010EF31823E1C5
:10BEB000015021E12FD09BDCF3CF00F0F4CF01F053
:10BEC000010EF31818E1015016E124D0CBDEF3CFB8
:10BED00000F0F4CF01F0010EF3180DE101500BE179
:10BEE00019D08EDFF3CF00F0F4CF01F0010EF3187C
:10BEF00002E101500FE085EC51F0F3CFDEFFF4CF0B
:10BF0000DDFFD9CFE9FFDACFEAFF010EEE1890E1AD
:10BF1000ED508EE1E66A36EC6CF0E552020EE15C23
:10BF200002E2E16AE552E16EE552E7CFD9FF120085
:10BF3000D9CFE6FFE1CFD9FF060EE126060EE66E69
:10BF4000010EE66E9B0EE66EF90EE66E35EC6DF0B8
:10BF5000E552E552E552E552060EE66E020EE66E39
:10BF6000FE0EE66EF80EE66E35EC6DF0E552E5522B
:10BF7000E552E552060EE66E030EE66EF40EE66E30
:10BF8000F80EE66E35EC6DF0E552E552E552E552FD
:10BF9000060EE66E040EE66EEB0EE66EF80EE66E2C
:10BFA00035EC6DF0E552E552E552E552060EE66ECF
:10BFB000050EE66EE20EE66EF80EE66E35EC6DF0FE
:10BFC000E552E552E552E552060EE66EE66EDC0EEF
:10BFD000E66EF80EE66E35EC6DF0E552E552E55290
:10BFE000E552E66A60C0E6FF8A0EE66EF90EE66E7E
:10BFF00035EC6DF0E552E552E552E552640EE66E21
:10C0000060C0E6FF8A0EE66EF90EE66E35EC6DF066
:10C01000E552E552E552E5526BEC7BF046EC52F00E
:10C02000F3CFDEFFF4CFDDFFD9CFE9FFDACFEAFFB0
:10C03000010EEE1816E1ED5014E1E66A36EC6CF0F4
:10C04000E55200016007000E615B010E61AF02D096
:10C05000D89003D0605D000E615903E2060E606F58
:10C06000616B86EC52F0020EF3CFDBFF030EF4CFD0
:10C07000DBFFD950020FE96EDACFEAFF010EEE18AE
:10C0800014E1ED5012E1E66A36EC6CF0E552000185
:10C09000602B000E6123613508E260510608000E36
:10C0A000615503E2010E606F616BA1EC50F0000975
:10C0B00001E0B4DE85EC51F0040EF3CFDBFF050E9A
:10C0C000F4CFDBFFD950040FE96EDACFEAFF010E9F
:10C0D000EE180FE1ED500DE100017D6B010E606F78
:10C0E000616BE66A36EC6CF0E552060EE15C0AE242
:10C0F00007D000017C5101E121D70CEC57F01ED78D
:10C10000E16AE552E16EE552E7CFD9FF1200D9CFDF
:10C11000E6FFE1CFD9FF060EE126020EDB6A030E31
:10C12000DB6A040EDB6A050EDB6ADE6ADD6ADECFDF
:10C1300000F0DDCF01F0D890015004E63C0E005C29
:10C14000000E015801E36BD186C020F087C021F0BA
:10C1500035EC72F01FC002F020C003F021C004F0E3
:10C1600022C005F082C020F083C021F035EC72F0CF
:10C170001FC00AF020C00BF021C00CF022C00DF04F
:10C1800002C0E6FF03C0E6FF04C0E6FF05C0E6FF0D
:10C190001FC0E6FF20C0E6FF21C0E6FF22C0E6FF89
:10C1A000D950020FE96EDACFEAFFEECFE6FFEECF0D
:10C1B000E6FFEECFE6FFEFCFE6FF09EC7FF0E552BA
:10C1C000E552E552E552E552E7CF0DF0E552E7CFF3
:10C1D0000CF0E552E7CF0BF0E552E7CF0AF0E5525D
:10C1E000E7CF05F0E552E7CF04F0E552E7CF03F0E3
:10C1F000E552E7CF02F01EC00EF01FC00FF020C0C6
:10C2000010F021C011F01EC024F01FC025F020C086
:10C2100026F021C027F00AC01FF00BC020F00CC090
:10C2200021F00DC022F0DFEC72F01FC006F020C03C
:10C2300007F021C008F022C009F01FC024F020C080
:10C2400025F021C026F022C027F002C01FF003C055
:10C2500020F004C021F005C022F049EC72F09FEC00
:10C2600073F020C000F021C001F0DECFE9FFDDCF88
:10C27000EAFFD890E936EA36060EE926010EEA22F0
:10C2800020C0EEFF01C0EDFF88C020F089C021F082
:10C2900035EC72F01FC002F020C003F021C004F0A2
:10C2A00022C005F082C020F083C021F035EC72F08E
:10C2B0001FC00AF020C00BF021C00CF022C00DF00E
:10C2C00002C0E6FF03C0E6FF04C0E6FF05C0E6FFCC
:10C2D0001FC0E6FF20C0E6FF21C0E6FF22C0E6FF48
:10C2E000D950020FE96EDACFEAFFEECFE6FFEECFCC
:10C2F000E6FFEECFE6FFEFCFE6FFE1EC7EF0E552A2
:10C30000E552E552E552E552E7CF0DF0E552E7CFB1
:10C310000CF0E552E7CF0BF0E552E7CF0AF0E5521B
:10C32000E7CF05F0E552E7CF04F0E552E7CF03F0A1
:10C33000E552E7CF02F01EC00EF01FC00FF020C084
:10C3400010F021C011F01EC024F01FC025F020C045
:10C3500026F021C027F00AC01FF00BC020F00CC04F
:10C3600021F00DC022F0DFEC72F01FC006F020C0FB
:10C3700007F021C008F022C009F01FC024F020C03F
:10C3800025F021C026F022C027F002C01FF003C014
:10C3900020F004C021F005C022F049EC72F09FECBF
:10C3A00073F021C001F0DECFE9FFDDCFEAFFD890C6
:10C3B000E936EA367E0EE926010EEA2220C0EEFFBB
:10C3C00001C0EDFFF40E006EFD0E016ED40E026E84
:10C3D0003D0E036ED950020FE96EDACFEAFFEECFC1
:10C3E0001FF0EECF20F0EECF21F0EFCF22F000C013
:10C3F00024F001C025F002C026F003C027F049EC6C
:10C4000072F022C0EDFF21C0EDFF20C0EDFF1FC084
:10C41000EFFFDF2A010E01E28AD6DB2A88D6060E5C
:10C42000E15C02E2E16AE552E16EE552E7CFD9FF55
:10C430001200020EE66E7EC1E6FF06C100F007C1E3
:10C4400001F00A0E005E000E015A0050E66E7EC139
:10C45000E6FF06C1E6FF5CEC70F0026E050EE15EE1
:10C460000250010EE66E88C100F089C101F0050E90
:10C47000005E000E015A0050E66E10C102F011C1BC
:10C4800003F0050E025E000E035A0250E66E88C1EC
:10C49000E6FF10C1E6FF5CEC70F0046E050EE15E95
:10C4A0000450010EE66E92C100F093C101F0050E3A
:10C4B000005E000E015A0050E66E1AC102F01BC168
:10C4C00003F0050E025E000E035A0250E66E92C1A2
:10C4D000E6FF1AC1E6FF5CEC70F0046E050EE15E4B
:10C4E0000450020EE66E9CC100F09DC101F00A0EE0
:10C4F000005E000E015A0050E66E24C1E6FF9CC1AA
:10C50000E6FF24C1E6FF5CEC70F0026E050EE15E12
:10C510000250010EE66EA6C100F0A7C101F0050EA3
:10C52000005E000E015A0050E66E050E01012E2538
:10C53000E66EA6C1E6FF2EC1E6FF5CEC70F0026E6F
:10C54000050EE15E0250010EE66EB0C100F0B1C111
:10C5500001F0050E005E000E015A0050E66E050E59
:10C5600001013825E66EB0C1E6FF38C1E6FF5CEC9C
:10C5700070F0026E050EE15E0250020EE66EBAC168
:10C58000E6FF0A0E01014225E66EBAC1E6FF42C18E
:10C59000E6FF5CEC70F0006E050EE15E0050010EEF
:10C5A000E66E050E0101C425E66E050E4C25E66E0D
:10C5B000C4C1E6FF4CC1E6FF5CEC70F0006E050EF6
:10C5C000E15E0050010EE66E050E0101CE25E66E1D
:10C5D000050E5625E66ECEC1E6FF56C1E6FF5CECC1
:10C5E00070F0006E050EE15E0050020EE66E0A0E5F
:10C5F0000101D825E66E60C1E6FFD8C1E6FF60C143
:10C60000E6FF5CEC70F0006E050EE15E0050010E7E
:10C61000E66E050E0101E225E66E6AC100F06BC10F
:10C6200001F0050E005E000E015A0050E66EE2C1F8
:10C63000E6FF6AC1E6FF5CEC70F0026E050EE15E9B
:10C640000250010EE66E050E0101EC25E66E74C186
:10C6500000F075C101F0050E005E000E015A005099
:10C66000E66EECC1E6FF74C1E6FF5CEC70F0026EB2
:10C67000050EE15E02501200D9CFE6FFE1CFD9FFEF
:10C68000020EE126FD0EDBCFE9FFFE0EDBCFEAFF57
:10C69000D890E936EA36060EE926010EEA220001B4
:10C6A0008651EE5C006E8751EE58016E00C0DEFFD1
:10C6B000DD6E000EDFCF20F0010EDBCF21F035EC78
:10C6C00072F01FC004F020C005F021C006F022C0A7
:10C6D00007F01FC0E6FF20C0E6FF21C0E6FF22C032
:10C6E000E6FFAEEC7EF0E552E552E552E5521EC0A3
:10C6F00000F01FC001F020C002F021C003F0246A46
:10C70000256A880E266E410E276E1EC01FF001C0DE
:10C7100020F002C021F003C022F0D7EC73F0010A30
:10C720003EE1000EDFCF20F0010EDBCF21F035EC33
:10C7300072F01FC004F020C005F021C006F022C036
:10C7400007F01FC0E6FF20C0E6FF21C0E6FF22C0C1
:10C75000E6FFAEEC7EF0E552E552E552E5521EC032
:10C7600000F01FC001F020C002F021C003F0246AD5
:10C77000256A880E266E410E276E1EC01FF001C06E
:10C7800020F002C021F003C022F0D7EC73F0010AC0
:10C7900001E07AD0DF2A010EC4E3DB2AC2D7000E03
:10C7A000DFCF20F0010EDBCF21F035EC72F01FC09F
:10C7B00004F020C005F021C006F022C007F01FC021
:10C7C000E6FF20C0E6FF21C0E6FF22C0E6FFAEEC98
:10C7D0007EF0E552E552E552E5521EC000F01FC062
:10C7E00001F020C002F021C003F0246A256A880EFF
:10C7F000266E410E276E1EC01FF001C020F002C041
:10C8000021F003C022F0CEEC73F0010A45E1000EE6
:10C81000DFCF20F0010EDBCF21F035EC72F01FC02E
:10C8200004F020C005F021C006F022C007F01FC0B0
:10C83000E6FF20C0E6FF21C0E6FF22C0E6FFAEEC27
:10C840007EF0E552E552E552E5521EC000F01FC0F1
:10C8500001F020C002F021C003F0246A256A880E8E
:10C86000266E410E276E1EC01FF001C020F002C0D0
:10C8700021F003C022F0CEEC73F0010A05E1DF06DF
:10C88000010EC5E2DB06C3D7DECF00F0DDCF01F03D
:10C8900000C0F3FF01C0F4FF020EE15C02E2E16AB6
:10C8A000E552E16EE552E7CFD9FF1200D9CFE6FF9E
:10C8B000E1CFD9FF040EE126DE6ADD6ABADDDECF04
:10C8C000E6FFDDCFE6FFD8DEE552E552020EF3CFFC
:10C8D000DBFF030EF4CFDBFFE66ADECFE9FFDDCF3F
:10C8E000EAFFD890E936EA367E0EE926010EEA2202
:10C8F000EF50E66EDECFE9FFDDCFEAFFD890E936F4
:10C90000EA36060EE926010EEA22EECF02F0EFCF5C
:10C9100003F0020EDB50025C006E030EDB50035886
:10C92000016E0050E66E88C0E6FF86C0E6FF5CEC54
:10C9300070F0046E050EE15E0450640EE66EE66A69
:10C9400025EC6BF0E552E552E66A36EC6CF0E55208
:10C9500070DDDF2A010E01E3DB2ADECF00F0DDCF40
:10C9600001F00134ACE200500E08000E0154A7E2C1
:10C97000DE6ADD6AA4D798EC50F0050ED56ED08E35
:10C98000F184E00EF26ED58E000181050BE1845139
:10C990008511FAE187EC60F089DF010E0001846FF8
:10C9A000856BF2D77C5113E07D5103E1D8EC56F052
:10C9B00002D098EC5FF0A1EC50F00009E5E0E66AE7
:10C9C00036EC6CF0E5520001010E7D6FDDD77D5134
:10C9D00028E10A0EE66E030EE66ECA0EE66EF80E4B
:10C9E000E66E35EC6DF0E552E552E552E552020E89
:10C9F000E66E050EE66EB40EE66EF80EE66E35ECEB
:10CA00006DF0E552E552E552E552A1EC50F0000917
:10CA1000BBE00001010E7D6FE66A36EC6CF0E5527A
:08CA2000B3D798EC5FF0B0D72A
:08CA280050EC6AF0FB0EDBCFBD
:10CA3000F3FFDB06F35000090AE09EEC6AF0FA0E01
:10CA400009EC6BF0F3E1011CF1E1010E01D0000EE5
:10CA50007FEF6AF050EC6AF03B0EE12402E3E168FC
:10CA6000E652E16E010EDB6A020EDB6AF90EDBCFE5
:10CA7000F6FFFA0EDBCFF7FFFB0EDBCFF8FF080067
:10CA8000F550DF6EDF5002E1A3EF69F0250EDF5CA9
:10CA900002E096EF69F0030EDB6A040EDB6A050E16
:10CAA000DB6A060EDB6A070EDB6AB8EC69F02D0E56
:10CAB000DF5C0CE02B0EDF5C09E0200EDF5C06E0A3
:10CAC000230EDF5C03E0300EDF5C1AE1DF50300A3A
:10CAD00014E0130A0FE0030A0AE00B0A05E0060A55
:10CAE000E4E1030EDB80E1D7030EDB82DED7030E29
:10CAF000DB84DBD7030EDB86D8D7030EDB88D5D7E4
:10CB00002A0EDF5C1BE1B4EC69F002EC6AF010E085
:10CB1000030EDB8020682168130EDBCF25F0140E96
:10CB2000DBCF26F072EC73F0040E1EC0DBFF03D0E7
:10CB3000130EEBEC69F0B8EC69F00BD0090EDB6A70
:10CB400059EC6AF003E0CDEC6AF0FAD7090EEBEC91
:10CB500069F0030EDBB0DB982E0EDF5C1BE1B8EC56
:10CB600069F02A0EDF5C0BE1B4EC69F002EC6AF0CC
:10CB700003E1130E3DEC6AF0B8EC69F00BD0090E3E
:10CB8000DB6A59EC6AF003E0CDEC6AF0FAD7090EE3
:10CB90003DEC6AF0680EDF5C07E1B8EC69F0680E06
:10CBA000DF5C1DE1030E18D0740EDF5C17E07A0E17
:10CBB000DF5C14E0480EDF5C06E0540EDF5C03E04F
:10CBC0005A0EDF5C02E1020E07D06C0EDF5C03E060
:10CBD0006A0EDF5C04E1010E90EC6AF0C9DBDF5005
:10CBE0006E0A01E17FD31E0A01E192D1200A01E120
:10CBF0008FD13F0A01E149D11A0A01E146D10D0A5C
:10CC000001E143D1200A01E140D13A0A01E13DD1DD
:10CC1000200A01E13AD1260A01E135D10D0A01E1EC
:10CC200032D11A0A01E1D9D0200A4AE0300A1FE0C5
:10CC3000460A0EE0250A01E083D3D950F90FE96EC8
:10CC4000FF0EDA20EA6E010EEE5E000EEE5AEE5A8C
:10CC50009EEC6AF0250EE66E95DB03E1011C01E116
:10CC600069D39AEC6AF001E26BD3DB2A69D3080E30
:10CC7000DB6A040EDB50010806E2040EDB0462EC02
:10CC80006AF0DB508BDB080EDB5009E0030EDB5053
:10CC9000010B05E172DB01E04DD3080EDB6A64DBBA
:10CCA000EFCFDFFF12EC6BF003E1011C01E142D397
:10CCB0009AEC6AF001E3DB2A60DB01E141D33AD36D
:10CCC000070EDB5002080FE1DEEC6AF0030EA5EC64
:10CCD0006AF00E0EEECFDBFF0F0EEECFDBFF100E75
:10CCE000EECFDBFF20D0F70EDBCF03F0F80EDBCF6B
:10CCF00004F0020E035E000E045AF70E03C0DBFFC1
:10CD0000F80E04C0DBFF03C0E9FF04C0EAFF95ECA6
:10CD10006AF0026A0E0E00C0DBFF0F0E01C0DBFFDF
:10CD2000100E02C0DBFF0E0EDBCFE6FF0F0EDBCFD7
:10CD3000E6FF100EDBCFE6FF89EC7EF0E552E55210
:10CD4000E552130E1FC0DBFF140E20C0DBFF060EE2
:10CD5000DB5005E0130ED9EC6AF001E26ADBFDEC72
:10CD60006AF002E2130E37DBC0EC6AF006E0040E54
:10CD7000D9EC6AF002E2050E2EDB030EDBB005D023
:10CD8000FCDA01E0D7D2080EDB6A090EDB6A0E0E70
:10CD9000DBCFF6FF0F0EDBCFF7FF100EDBCFF8FF78
:10CDA0000800F550DF6EDF5014E003EC6BF011E289
:10CDB00012EC6BF003E1011C01E1BCD2BBDB01E32F
:10CDC000DB2A090EDB2AD9500E0FE96E000ECBDBF1
:10CDD000E7D7D3DA01E1B4D2ADD2C6DA110EEECF85
:10CDE000DBFF120EEDCFDBFF110EDBCFE6FF120EE5
:10CDF000DBCFE6FF7BEC7EF0E552E552130EF3CF7E
:10CE0000DBFF140EF4CFDBFF060EDB5004E0130E45
:10CE1000D0DB01E20EDBFDEC6AF002E2130EDBDA9E
:10CE2000AFDB05E0040EC5DB02E2050ED4DA030E2B
:10CE3000DBB005D0A2DA01E07DD2080EDB6A090E74
:10CE4000DB6A110EDBCFE9FF120EDBCFEAFFEFCF7B
:10CE5000DFFFDF5014E0D7DB12E2E4DB03E1011C6B
:10CE600001E168D267DB01E3DB2A090EDB2A110E40
:10CE7000DB2ADBCFE9FF120EE8E3DB2AE6D77DDA17
:10CE800001E15ED257D2030EDB8E070EDB0410E108
:10CE900095DB040E5ADB0A0EEECFDBFF0B0EEECF56
:10CEA000DBFF0C0EEECFDBFF0D0EEECFDBFF6CD009
:10CEB000070EDB5003082CE1030EDBAE0DD0B2DA17
:10CEC000020E76DAEFCF00F0016A026A036A00AE62
:10CED00039D00168026835D0F70EDBCF01F0F80ECB
:10CEE000DBCF02F0020E015E000E025AF70E01C007
:10CEF000DBFFF80E02C0DBFF01C0E9FF02C0EAFF62
:10CF0000EFCF00F00A0E00C0DBFF0B0EDB6A38D05B
:10CF1000070EDB50020809E1030EDBAE04D059DB3B
:10CF200002AE10D00ED055DB0DD0030EDBAE12D00A
:10CF300079DA020E3DDAF9DA026A036A01AE02D04A
:10CF400002680368E2DA0C0E02C0DBFF0D0E03C0BC
:10CF5000DBFF1AD0F70EDBCF02F0F80EDBCF03F0C9
:10CF6000020E025E000E035AF70E02C0DBFFF80E3F
:10CF700003C0DBFF02C0E9FF03C0EAFFD6DAC5DA6F
:10CF80000C0EDB6A0D0EDB6A060EDB5005E1010EAE
:10CF9000F36E050EF3CFDBFF150EDB6A160EDB6AB0
:10CFA000D950370F006E000EDA20016E390E00C026
:10CFB000DBFF3A0E01C0DBFF380EDB6A080EDB6ACE
:10CFC0000A0EAEDADF50780A12E0200A10E0280AD2
:10CFD0000CE0200A0AE03F0A06E00D0A02E0200AFF
:10CFE00008E1020E05D0080E03D0080EDF26100E51
:10CFF00097DA030EDBBE02D0DB92DB94DB50800BB2
:10D0000024E08ADAD890030EEB50000A08E6000EFE
:10D01000EE5C000EEE58000EEE58000EEE5815E2D3
:10D0200013DA236824682568266843EC7EF00A0E2C
:10D030001AC0DBFF0B0E1BC0DBFF0C0E1CC0DBFF9E
:10D040000D0E1DC0DBFF2D0E08D0030EDBA202D09B
:10D050002B0E03D0DBA408D0200EF36E170EF3CFF7
:10D06000DBFF150EDB2A02D0170EDB6A050EDB5044
:10D0700003E1B7D901E189D0500E006EFF0E016EB9
:10D08000000E026E070EDBCF03F0046A056A066A23
:10D0900003C023F004C024F005C025F006C026F02C
:10D0A000D3D930EC7FF000501A24F36E01501B20CE
:10D0B000F46E02501C20F86EF4CFF7FFF3CFF6FFAA
:10D0C0000800090EF5CFDBFF580EDF5C0FE1610EA3
:10D0D000F36E090E7BD90AE3200E006E090EDBCF3A
:10D0E000E7FF0050E75E090EE7CFDBFF070EDBCF5F
:10D0F00000F0016A026A036A0FDA00C023F001C07F
:10D1000024F002C025F003C026F0EECF1EF0EECFD3
:10D110001FF0EECF20F0EFCF21F030EC7FF021C0F8
:10D12000EDFF20C0EDFF1FC0EDFF1EC0EFFF390E69
:10D13000DBCFE9FFDB063A0EDBCFEAFF01E2DB06DD
:10D14000090EDBCFEFFF150EDB2A4BD995E1030E5D
:10D15000DBA61DD06F0EDF5C06E1C1D918E3150E0A
:10D16000DB285BDA14D0780EDF5C09E0580EDF5C58
:10D1700006E0620EDF5C03E0420EDF5C08E1020EB7
:10D18000F36E160EF3CFDBFF02D0150EDB6A030E33
:10D19000DB50100B0EE0040EDBCF00F0050EDB5071
:10D1A000D880005406E2060EDB5003E1040EDB508B
:10D1B00034DA95D90AE2050EDBCFE7FF150EDB5016
:10D1C000E75E050EE7CFDBFF02D0050EDB6A040E3B
:10D1D000DBCF00F0160E45D9D880005414E2160EAD
:10D1E000DBCFE6FF150EDBCFE6FF040EDBCFE6FF5D
:10D1F000050EDB50E552E75CE552D880E754E55276
:10D20000D880E7545FD9030EDB50010B0BE1080E09
:10D21000DB5008E0B2D801E08DD0080EDB50BED85C
:10D22000080EDB6A170EDB5007E088D9170EF1D91C
:10D2300003E1011C01E17ED0160EDB5016E07ED921
:10D24000300EE66E9FD802E1011C74E077D9DFCF83
:10D25000E6FF01EC7EF0E552E552E552F4CF01F035
:10D260000001F31C02E1011C65E0050EDBCF00F0BC
:10D27000160EDB50D880005409E2050EDBCFE7FF25
:10D28000160EDB50E75E050EE7CFDBFF300EE66ED5
:10D29000050ECBD94FE1390EDB2ADBCFE9FF3A0E81
:10D2A00001E3DB2ADBCFEAFF090EEFCFDBFFDB5028
:10D2B0000EE044D9090EADD902E1011C3BE0390E64
:10D2C000DB2ADBCFE9FF3A0EEDE3DB2AEBD755D8BB
:10D2D00031E1160EDBCFE6FF080EC3D8E552E72496
:10D2E0005DD82ED0070EDB50030A1CE0010A14E0C3
:10D2F000030A07E07BD9DBCFEEFF020EDBCFEDFFA9
:10D300001FD0F5D8056A03AE02D0046805682CD892
:10D31000BCD805C0EEFF14D0EAD803BE046824D8F8
:10D32000B4D80ED063D9DBCFEFFF0AD07BD905E1AB
:10D33000011C03E1F368F46810D0FCD801E3DB2A98
:10D3400079D93FEF65F0010EDBCF00F0020EDBCFA5
:10D3500001F000C0F3FF01C0F4FF3B0EE15C02E20C
:10D36000E16AE552E16ECBD029D9020EA5EF6AF051
:10D3700061D90800F550DF6E1200200EE66E080E2F
:10D3800015EF6BF001EC7EF0E552E552E552F3CF7C
:10D3900000F0F4CF01F00001F31C1200006E016AEE
:10D3A000D950010F4DD90050EE260150ED22120048
:10D3B000045E000E055AF70E04C0DBFFF80E05C030
:10D3C000DBFF04C0E9FF05C0EAFF1200DBCFF4FF7A
:10D3D000F350F45C1200DB50E76E040EE7CFDBFF86
:10D3E00012000A0EDBCF00F00B0EDBCF01F00C0EAB
:10D3F000DBCF02F00D0EDBCF03F000500110021066
:10D4000003101200130EEECFDBFF140EEDCFDBFF87
:10D41000130EDBCF00F0140EDBCF01F00001800E05
:10D4200001141200F70EDBCF04F0F80EDBCF05F08D
:10D430001200050EDB50E66ED950130F01D9E552EC
:10D44000E750EE6EED6A12000A0EDBCF1EF00B0EF7
:10D45000DBCF1FF00C0EDBCF20F00D0EDBCF21F069
:10D460001200DBCFE6FF150EDBCFE6FF050EDB502B
:10D47000E552E724E552E7241200DB50CED8010E36
:10D48000F36E060EF3CFDBFF1200EE50EFCFEAFF94
:10D49000E96E02C0EEFF03C0EEFF04C0EEFF120013
:10D4A000D9CFE6FFDACFE6FFE1CFD9FFE2CFDAFF4F
:10D4B0001200DFCFE6FFE66A6AEC7FF0E552E55244
:10D4C000F3501200E76E080EE7CFDBFF1200EECF3D
:10D4D00000F0EECF01F0EFCF02F0036A1200050E6C
:10D4E000DBCF00F0150EDB50D88000541200010E87
:10D4F000DBCF02F0020EDBCF03F0046A1200E5522C
:10D50000E5CFDAFFE7CFD9FF12000A0E00C0DBFF3C
:10D510000B0E01C0DBFF1200D9500A0F20EF6BF099
:10D52000F36E070EF3CFDBFF1200EECF00F0EFCF6C
:10D5300001F01200010EDB2A020E1200FC0EDBCFFE
:10D54000E6FFFD0EDBCFE6FF1200005E000E015A83
:10D55000F70E00C0DBFFF80E01C0DBFF00C0E9FFE3
:10D5600001C0EAFF1200DA20EA6EEF2AEECFF6FFE2
:10D57000000EEF22EECFF7FFEF22EECFF8FF120002
:10D58000040EDBCFE6FF130EDB50E552E75C9ADFBB
:10D59000DB5004DF060EDB501200090EDB500A0DD3
:10D5A000F350DF24D00FE76E090EE7CFDBFFB8EFB3
:10D5B00069F0DB50F36E050EE6EF69F0F70EDBCF96
:10D5C00000F0F80EDBCF01F01200DFCFE6FFC2EF74
:10D5D00069F028DF030EECDE67EF6AF014EC65F00B
:10D5E000E552E552E552E55200091200BDDEEE506B
:10D5F000EFCFEAFFE96E010E1200130EDB50F36E5F
:10D60000040EE6EF69F0040EDB50F36E090EE6EF50
:10D6100069F0DBCFE6FFC2EF69F0E76E050EE7CFFA
:10D62000DBFF12008BDFE5EF6AF0DBCFE6FF86DF82
:10D63000EEEF6AF0D950F90FE96EFF0EB3EF6AF022
:0AD64000E96E000EDA20EA6E120017
:06D64A00D9CFE6FFE1CF9D
:10D65000D9FF020EE126FD0EDBCF00F0DB06FE0E49
:10D66000DBCF01F001E2DB060050011010E0DE6AC2
:10D67000DD6ADECF00F0DDCF01F0E30E005C0D0EC1
:10D680000158E9E2DF2A010EF4E3DB2AF2D7020EA9
:10D69000E15C02E2E16AE552E16EE552E7CFD9FFD3
:10D6A0001200D9CFE6FFE1CFD9FF060EE1268D9219
:10D6B00096928D9096908D8496948A9A939A8C9255
:10D6C000DE6ADE6ADE6ADD6ADD52DD52D9CFE9FF4D
:10D6D000DACFEAFF640EEE5C000EEE58000EEE5854
:10D6E000000EEE580AE2D9CFE9FFDACFEAFFEE2AC0
:10D6F000000EEE22EE22EE22E9D78C82DE6ADE6A8E
:10D70000DE6ADD6ADD52DD52D9CFE9FFDACFEAFF0A
:10D71000640EEE5C000EEE58000EEE58000EEE5851
:10D720000AE2D9CFE9FFDACFEAFFEE2A000EEE22B5
:10D73000EE22EE22E9D7AE0EE66E70D8E552DB0E91
:10D74000E66E6CD8E552230EE66E68D8E552D90E27
:10D75000E66E64D8E552220EE66E60D8E552A10E60
:10D76000E66E5CD8E552C80EE66E58D8E552DA0E81
:10D77000E66E54D8E552120EE66E50D8E552A80E69
:10D78000E66E4CD8E5523F0EE66E48D8E552D50E0F
:10D79000E66E44D8E552A00EE66E40D8E552810E02
:10D7A000E66E3CD8E552600EE66E38D8E552D30EF0
:10D7B000E66E34D8E552E66A31D8E552A60EE66E3A
:10D7C0002DD8E552AD0EE66E29D8E5528B0EE66EE9
:10D7D00025D8E552AF0EE66E21D8E5520A0EE66E68
:10D7E000E66A33DFE552E552A40EE66E17D8E5523D
:10D7F000400EE66E13D8E552020EE66E0FD8E552E3
:10D80000100EE66E0BD8E552060EE15C02E2E16A0C
:10D81000E552E16EE552E7CFD9FF1200D9CFE6FF1E
:10D82000E1CFD9FF956AFE0EDB508C6E8D808D8224
:10D830008A9A8D948D928D828D849568E552E7CF7A
:10D84000D9FF1200D9CFE6FFE1CFD9FF956AFE0ECE
:10D85000DB508C6E8D808D828A8A8D948D928D8224
:10D860008D849568E552E7CFD9FF1200D9CFE6FF46
:10D87000E1CFD9FF020EE126B00EDF6EB80EDF5CFD
:10D8800023E2DFCFE6FFCADFE552020EE66EC6DF17
:10D89000E552100EE66EC2DFE552010EDB6ADB5088
:10D8A000006E016AD890015004E6840E005C000E00
:10D8B000015808E2FE0EDBCFE6FFC4DFE552010EA1
:10D8C000DB2AEDD7DF2ADAD7020EE15C02E2E16A59
:10D8D000E552E16EE552E7CFD9FF1200D9CFE6FF5E
:10D8E000E1CFD9FF200E006EFE0EDBCFE7FF005028
:10D8F000E75EFE0EE7CFDBFFDBCFF6FFF76AF6BE93
:10D90000F768050EF702F3CFF7FFF602F3CFF6FF45
:10D91000F450F726640EF626F10EF7220800F550B3
:10D92000E66E90DFE552FE0EDBCFF6FFF76AF6BE3D
:10D93000F768050EF702F3CFF7FFF602F3CFF6FF15
:10D94000F450F726640EF626F10EF722010EF626A5
:10D95000000EF7220800F550E66E74DFE552FE0E69
:10D96000DBCFF6FFF76AF6BEF768050EF702F3CFD6
:10D97000F7FFF602F3CFF6FFF450F726640EF62613
:10D98000F10EF722020EF626000EF7220800F550DF
:10D99000E66E58DFE552FE0EDBCFF6FFF76AF6BE05
:10D9A000F768050EF702F3CFF7FFF602F3CFF6FFA5
:10D9B000F450F726640EF626F10EF722030EF62633
:10D9C000000EF7220800F550E66E3CDFE552FE0E31
:10D9D000DBCFF6FFF76AF6BEF768050EF702F3CF66
:10D9E000F7FFF602F3CFF6FFF450F726640EF626A3
:10D9F000F10EF722040EF626000EF7220800F5506D
:10DA0000E66E20DFE552E66A1DDFE552E552E7CF1C
:10DA1000D9FF1200D9CFE6FFE1CFD9FFE652FD0EC4
:10DA2000DBCFE6FFFBDEE552020E006EFC0EDBCF25
:10DA3000E7FF0050E726FC0EE7CFDBFFDB500F0BC4
:10DA4000E66EECDEE552FC0EDB380F0B0F0B100F11
:10DA5000E66EE4DEE552FE0EDBCFE6FF3FDFE55289
:10DA6000E552E552E7CFD9FF1200D9CFE6FFE1CF6B
:10DA7000D9FFFC0EDB50B00FE76EFC0EE7CFDBFFEB
:10DA8000FB0EDBCFE6FFFC0EDBCFE6FFFD0EDBCFB0
:10DA9000F6FFFE0EDBCFF7FF0800F550E66EBADFAB
:10DAA000E552E552E552FD0EDB2ADBCFF6FFFE0E16
:10DAB00001E3DB2ADBCFF7FF0800F5500BE0FD0E9A
:10DAC000DBCFF6FFFE0EDBCFF7FF0800F550E66E6A
:10DAD00005DFE8D7E552E7CFD9FF1200D9CFE6FF3F
:10DAE000E1CFD9FFFC0EDB50B00FE76EFC0EE7CFA5
:10DAF000DBFFFB0EDBCFE6FFFC0EDBCFE6FFFD0E10
:10DB0000DBCFE9FFFE0EDBCFEAFFEF50E66E82DFF0
:10DB1000E552E552E552FD0EDB2ADBCFE9FFFE0EB2
:10DB200001E3DB2ADBCFEAFFEF500AE0FD0EDBCF9B
:10DB3000E9FFFE0EDBCFEAFFEF50E66ECFDEEAD75D
:10DB4000E552E7CFD9FF1200D9CFE6FFE1CFD9FFE9
:10DB5000050EE126030EDB6A040EDB6A020E006E80
:10DB6000FA0EDBCFE7FF0050E726FA0EE7CFDBFF28
:10DB7000F90EDB50B00FDF6EFB0EDB50B00FDF5C39
:10DB800035E2DFCFE6FF4ADEE552FA0EDB500F0B3F
:10DB9000E66E44DEE552FA0EDB380F0B0F0B100970
:10DBA000E66E3CDEE552010EDB6AFC0EDB50F36EE6
:10DBB000010EDBCFF4FFF350F45C16E2030EDB2A18
:10DBC000040E01E3DB2AFD0EDBCFF6FFDB2AFE0E9F
:10DBD000DBCFF7FF01E3DB2A0800F550E66E32DE0B
:10DBE000E552010EDB2AE1D7DF2AC6D7050EE15C3C
:10DBF00002E2E16AE552E16EE552E7CFD9FF120099
:10DC0000D9CFE6FFE1CFD9FF070EE126B00EF36EC4
:10DC1000060EF3CFDBFF020E006EFD0EDBCFE7FF3B
:10DC20000050E726FD0EE7CFDBFF200E006EFE0E54
:10DC3000DBCFE7FF0050E75EFE0EE7CFDBFF050E10
:10DC4000F36E040EF3CFDBFF050EDB6A040EDBCFB1
:10DC500000F0050EDBCF01F0013401E37AD0005073
:10DC60000108000E015475E2060EDBCFE7FF040E3B
:10DC7000DB50E726060EE7CFDBFFDBCFE6FFCEDD8E
:10DC8000E552FD0EDB500F0BE66EC8DDE552FD0ED2
:10DC9000DB380F0B0F0B100FE66EC0DDE552DE6AAE
:10DCA000DD6ADECF00F0DDCF01F0D890015004E650
:10DCB000050E005C000E01583BE2020EDB6A030E0B
:10DCC000DB6A020EDBCF00F0030EDBCF01F0D89051
:10DCD000015004E6030E005C000E015824E2FE0E23
:10DCE000DBCF00F0016A00BE0168050E0102F3CF30
:10DCF00001F00002F3CF00F0F45001266A0E002676
:10DD0000F00E0122DE500024F66EDD500120F76E89
:10DD10000800F550E66E96DDE552020EDB2A030E92
:10DD2000D0E3DB2ACED7DF2A010EBBE3DB2AB9D74B
:10DD3000B00EF36E060EF3CFDBFFFE0EDB2AE66AB3
:10DD400081DDE552040EDB06050E01E37FD7DB061D
:10DD50007DD7070EE15C02E2E16AE552E16EE55231
:06DD6000E7CFD9FF12001D
:0ADD6600D9CFE6FFE1CFD9FFE65266
:10DD700095688D808D828A8A8D948D900000000038
:10DD8000000000000000000000008D8000008D9069
:10DD900000008350DF6E8D808D84E552E552E7CF21
:10DDA000D9FF1200D9CFE6FFE1CFD9FF020EE1265D
:10DDB000FD0EDBCFE9FFFE0EDBCFEAFFEF50DE6E9C
:10DDC000DD6AF90EDBCFE9FFFA0EDBCFEAFFEF5099
:10DDD000E66EFD0EDBCFE9FFFE0EDBCFEAFFE5527C
:10DDE000E750EF6EF90EDBCFE9FFFA0EDBCFEAFF6B
:10DDF000DFCFEFFFFB0EDBCFE9FFFC0EDBCFEAFF4F
:10DE0000EF50DE6EDD6AF70EDBCFE9FFF80EDBCFF9
:10DE1000EAFFEF50E66EFB0EDBCFE9FFFC0EDBCF37
:10DE2000EAFFE552E750EF6EF70EDBCFE9FFF80EA1
:10DE3000DBCFEAFFDFCFEFFF020EE15C02E2E16A37
:10DE4000E552E16EE552E7CFD9FF1200D9CFE6FFE8
:10DE5000E1CFD9FFE652E00EE66E0EEC6CF0E55233
:10DE600082DFDF6EFE0EDB50DF1ADFCFE6FF22EC33
:10DE70006CF0E552EE0EE66E0EEC6CF0E552E552FB
:10DE8000E552E7CFD9FF1200D9CFE6FFE1CFD9FFA6
:10DE9000FE0EDB50B00FE66E0EEC6CF0E552020E9B
:10DEA000006EFD0EDBCFE7FF0050E726FD0EE7CF4B
:10DEB000DBFFDB500F0BE66E0EEC6CF0E552FD0E57
:10DEC000DB380F0B0F0B100FE66E0EEC6CF0E5520B
:10DED000E552E7CFD9FF1200D9CFE6FFE1CFD9FF56
:10DEE000040EE126DF6AFD0EDB40E840E8401F0B30
:10DEF000E76E020EE7CFDBFFFD0EDB50070BE76E90
:10DF0000030EE7CFDBFF010EDB6A030EDB500708D1
:10DF100015E3FC0EDB5012E0010EF36E030EDB5036
:10DF200004E0D890F336E806FCE1F350DF12010E6E
:10DF3000DB2AFC0EDB06030EDB2AE7D7FE0EDBCF67
:10DF4000E6FF020EDBCFE6FF9FDFE552E552DFCFB3
:10DF5000E6FF7CDFE552FB0EDBCF00F0000EE76E44
:10DF60000018E8AE02D0003403D0E750D880005447
:10DF700019E2FE0EDB50016E026AD890025004E6F0
:10DF8000830E015C000E02580DE2FE0EDB28E66EE9
:10DF9000020EDBCFE6FF78DFE552E552DFCFE6FF8A
:10DFA00055DFE552FB0EDBCF00F0010EE76E0018E7
:10DFB000E8AE02D0003403D0E750D880005411E21C
:10DFC000FE0EDB5000080DE2FE0EDB04E66E020ED4
:10DFD000DBCFE6FF59DFE552E552DFCFE6FF36DF64
:10DFE000E552010EDB50006E040EE15C02E2E16AD4
:10DFF000E552E16E0050E552E7CFD9FF1200D9CFCC
:10E00000E6FFE1CFD9FF020EE126010EDF6EFC0E26
:10E01000DBCF00F0000EE76E0018E8AE02D000344F
:10E0200003D0E750D880005407E2FD0EDB50000813
:10E0300003E2FD0EDB06DF2AFC0EDBCF00F0010E53
:10E04000E76E0018E8AE02D0003403D0E750D88065
:10E05000005408E2FD0EDB50DF24016E3F0E015C30
:10E0600001E2DF2ADF501EE0E66ADFCFE6FFFD0EA9
:10E07000DBCFE6FFFE0EDBCFE6FF2EDFE552E552FB
:10E08000E552E552E76E010EE7CFDBFFDB50DF5EC6
:10E09000FD0EDBCFE7FF010EDB50E726FD0EE7CFDD
:10E0A000DBFFE0D7020EE15C02E2E16AE552E16EDD
:10E0B000E552E7CFD9FF1200D9CFE6FFE1CFD9FF74
:10E0C000160EE126FD0EDBCF00F0FB0EDB50D880F4
:10E0D00000541DE2D950FB0FE66EFF0EDA20E66E0B
:10E0E000D950FC0FE66EFF0EDA20E66ED950FD0F18
:10E0F000E66EFF0EDA20E66ED950FE0FE66EFF0EDA
:10E10000DA20E66E4FDE006E080EE15E0050FB0E78
:10E11000DBCFE6FFFD0EDB50E552E75C010FE76E5B
:10E12000060EE7CFDBFFFE0EDB50F36EFC0EDBCFFF
:10E13000F4FFF350F45C14E3FC0EDBCFE6FFFE0EBD
:10E14000DB50E552E75C010FE76E050EE7CFDBFF22
:10E15000010EF36E070EF3CFDBFF080EDB6A10D063
:10E16000FE0EDBCFE6FFFC0EDB50E552E75C010F55
:10E17000E76E050EE7CFDBFF070EDB68080EDB68F6
:10E18000050EDB50F36E060EDBCFF4FFF350F45CAC
:10E1900001E2CAD0060EDB50640D0D0EF3CFDBFF9B
:10E1A0000E0EF4CFDBFF050EDB50006E016A0D0E84
:10E1B000DBCF20F00E0EDBCF21F000C025F001C038
:10E1C00026F04CEC73F00B0E20C0DBFF0C0E21C0D0
:10E1D000DBFFFE0EDB50DF6EFD0EDB50E76E010E47
:10E1E000E7CFDBFF150EDB6AFC0EDB50006E016A29
:10E1F000206E01C021F0070EDBCF25F0080EDBCF2B
:10E2000026F072EC73F0090E1EC0DBFF0A0E1FC071
:10E21000DBFFDF50026E036A206E03C021F0070EA1
:10E22000DBCF25F0080EDBCF26F072EC73F01EC0BA
:10E2300000F01FC001F0090EDBCF04F00A0EDBCFA7
:10E2400005F005501F18E8AE02D0013404D000508C
:10E25000045C0150055801E2ECD0640E026E036AC2
:10E26000150EDB50E76E0B0EDBCF00F00C0EDBCF94
:10E2700001F0E7500026000E0122130E00C0DBFF64
:10E28000140E01C0DBFF00C020F001C021F002C06D
:10E2900025F003C026F04CEC73F0020E20C0DBFF2B
:10E2A000130EDBCF00F0140EDBCF01F0640E256EF1
:10E2B000266A00C020F001C021F04CEC73F01CC0B5
:10E2C00000F01DC001F0150E1CC0DBFF020EDB507C
:10E2D00027E0FA0EDBCFE6FF020EDBCFE6FF010EF2
:10E2E000DBCFE6FFDFCFE6FFF7DDE552E552E55293
:10E2F000E552E76E040EE7CFDBFF020EDBCFE7FF50
:10E30000040EDB50E75E020EE7CFDBFF010EDBCF32
:10E31000E7FF040EDB50E726010EE7CFDBFFD6D781
:10E32000070EDB50DF2675D7050EDB50640D110E8E
:10E33000F3CFDBFF120EF4CFDBFF060EDB50006ED7
:10E34000016A110EDBCF20F0120EDBCF21F000C0EE
:10E3500025F001C026F04CEC73F00F0E20C0DBFF5F
:10E36000100E21C0DBFFFE0EDB50DF6EFD0EDB501A
:10E37000E76E010EE7CFDBFF150EDB6A010EDBCF88
:10E3800000F0FB0EDB50D880005453E3640E026EA5
:10E39000036A150EDB50E76E0F0EDBCF00F0100E98
:10E3A000DBCF01F0E7500026000E0122130E00C063
:10E3B000DBFF140E01C0DBFF00C020F001C021F024
:10E3C00002C025F003C026F04CEC73F0030E20C011
:10E3D000DBFF130EDBCF00F0140EDBCF01F0640E79
:10E3E000256E266A00C020F001C021F04CEC73F0CD
:10E3F0001CC000F01DC001F0150E1CC0DBFF030E99
:10E40000DBCFF3FFDB06F350000910E0FA0EDBCFA1
:10E41000E6FF010EDBCFE6FFDFCFE6FFF0DDE552E2
:10E42000E552E552070EDB50DF26E9D7010EDB2A65
:10E43000A5D7150EDB5032080CE2FA0EDBCFE6FF53
:10E44000010EDBCFE6FFDFCFE6FFD9DDE552E55277
:10E45000E552160EE15C02E2E16AE552E16EE55238
:06E46000E7CFD9FF120016
:0AE46600199E08D0199E21AE05D0C2
:10E47000206C211EE86A2122198E21C01BF020C0C9
:10E480001AF02B6A2A6A8E0E1C6E1D6A51EF74F008
:10E49000277E196A8DEC74F0A5EC74F019B635EF8F
:10E4A00074F019A20AD019AA03D019BE35EF74F07E
:10E4B00019A441EF74F03EEF74F019AA05D019AC1D
:10E4C00041EF74F03EEF74F019A00AD019A808D0FB
:10E4D00019BE04D019A402D04AEF74F04EEF74F0C4
:10E4E0002A6A1D6A2750225C296E10E31FC02BF098
:10E4F00020C01AF021C01BF022C028F024C01FF059
:10E5000025C020F026C021F0193A09D024C02BF0F4
:10E5100025C01AF026C01BF027C028F0296C199ED0
:10E5200019BC198E28C01CF019B07DEF74F01A0EBA
:10E5300029607DEF74F01C6A226A19A408D01F6C50
:10E54000201E211E221EE86A20222122222219AC2E
:10E5500008D02B6C1A1E1B1E1C1EE86A1A221B22D6
:10E560001C221E6A295207E02234213220321F3237
:10E570001E32292EF9D71F502B2620501A22215047
:10E580001B2222501C221EC02AF0199E1CAE0BD04A
:10E590002A6C2B1E1A1E1B1E1C1EE86A2B221A2216
:10E5A0001B221C22198E1CA006D0D8801B321A32C6
:10E5B0002B322A32282A28C01CF051EF74F0196A35
:10E5C0008DEC74F0A5EC74F019B635EF74F019A267
:10E5D00005D019B835EF74F03CEF74F019AA05D0E6
:10E5E00019B035EF74F03CEF74F019B002D019A8EF
:10E5F00002D048EF74F01D6A275022241C6EE86A8E
:10E600001D227E0E1C5EE86A1D5A2A6A2B6A1A6A4F
:10E610001B6A26502102F4CF1BF0F3CF1AF02550CD
:10E620002102F3502B26F4501A22000E1B222650F2
:10E630002002F3502B26F4501A22000E1B222450E5
:10E640002102F3502A26F4502B22000E1A221B22FC
:10E6500025502002F3502A26F4502B22000E1A22B5
:10E660001B2226501F02F3502A26F4502B22000EA4
:10E670001A221B2224502002F4502A26000E2B229C
:10E680001A221B2225501F02F4502A26000E2B228C
:10E690001A221B2251EF74F0186A26AE55EF73F060
:10E6A000256C261EE86A2622181E21AE5DEF73F047
:10E6B000206C211EE86A2122181E54EC7FF021BE36
:10E6C0006DEF73F018AE000C206C211EE86A212259
:10E6D0001C6C1D1EE86A1D22000C18BE64EF73F04E
:10E6E0001988FF0C21C02BF020C02AF020502502F1
:10E6F000F4CF1FF0F3CF1EF021502602F4CF21F00B
:10E70000F3CF20F02502F3501F26F4502022E86AB0
:10E7100021222A502602F3501F26F4502022E86AB4
:10E72000212226AE98EF73F02A50205E2B50215AFA
:10E730002BAE000C2550205E2650215A000C196A81
:10E740008DEC74F019B6A9EF73F019A20ED019B4BC
:10E7500005D07F0E216EFF0E206E1FD0800E216E21
:10E76000206A1BD0216A206A18D019B0FBD78F0EFF
:10E770002260EDD77E0E2264F5D78E0E225C05E076
:10E78000D89021322032222AF8D719A406D0206C42
:10E79000211EE86A212221AEE5D71200E0EC73F0D9
:10E7A00019B6000C19B0000C19B4000C010CE0EC07
:10E7B00073F019B6000C19B0000C19A4000C010C70
:10E7C000196A8DEC74F0A5EC74F019B6120019AE4C
:10E7D00008D019A004D019A802D0198012001990ED
:10E7E00012002750225C0BE12650215C08E12550E5
:10E7F000205C05E124501F5C02E119801200D8A0C2
:10E8000002D0198E10D0225027C022F0276E21503E
:10E8100026C021F0266E205025C020F0256E1F5006
:10E8200024C01FF0246E2750225C10E0FF0F09E087
:10E83000199019B403D019AE1984120019AE1994A5
:10E840001200272AD89026322532243224501F5E07
:10E850002550205A2650215A21BEEAD7D8901F367B
:10E8600020362136222EF8D7C8D77F0E226EFF0E13
:10E87000216E206E1F6E12007F0E19BEFF0E226EDB
:10E8800002D07F0E226E800E216E206A1F6AF3D79F
:10E8900019AE04D0800E226E216AF7D7226A216A4F
:10E8A000F4D71B501A102B102A10F8E01DBEF0D719
:10E8B0001BBE0CD01C501D10EBE0D8902A362B3616
:10E8C0001A361B361C06D8A01D06F2D71D50D4E1FF
:10E8D0001C28D2E02AAE11D07F0E2A1402E12BA010
:10E8E0000CD02B2AE86A1A221B2207E3D8801B329D
:10E8F0001A322B321C2A1C28BFE01C50C9E02BC046
:10E900001FF01AC020F01B34216E1C30226E213201
:10E91000229E19BE228E3BEF74F02136223602E38E
:10E920001984197E06E11980226A216A206A1F6A09
:10E930001200222803E0D88021321200D890213220
:10E9400002E119821200198612002636273602E3E8
:10E95000198C197E06E11988276A266A256A246AB5
:10E960001200272803E0D88026321200D8902632E1
:10E97000EAE1198A1200199E0CD0199E21AE09D025
:10E980001E6C1F1E201E211EE86A1F22202221222B
:10E99000198E21C01BF020C01AF01FC02BF01EC022
:10E9A0002AF09E0E1C6E1D6A51EF74F0196A8DECF0
:10E9B00074F0A5EC74F019B635EF74F019A205D017
:10E9C00019BA35EF74F03CEF74F019BA48EF74F0EF
:10E9D00019A005D019B835EF74F048EF74F019B8E4
:10E9E0003CEF74F01D6A7F0E22241C6EE86A1D2223
:10E9F00027501C5EE86A1D5A1A0E286E226A2A6A7F
:10EA00002B6A1A6A1B6A24501F5E2550205A265012
:10EA1000215A000E225A09E724501F262550202291
:10EA200026502122000E222201D02A8AD8901F3699
:10EA3000203621362236D8902A362B361A361B3607
:10EA4000282EE1D7215020101F10D8A42A8A51EF78
:10EA500074F0196A8DEC74F019B633EF75F019A2E1
:10EA60000FD019B407D07F0E216EFF0E206E1F6EDF
:10EA70001E6E25D0800E216E01D0216A000EF6D7C1
:10EA800019B0FBD71E6A9F0E2260EBD77E0E226460
:10EA9000F4D79E0E225C07E0D890213220321F323C
:10EAA0001E32222AF6D719A40AD01E6C1F1E201E61
:10EAB000211EE86A1F222022212221AEDED7120069
:10EAC000D9CFE6FFDACFE6FFE1CFD9FFE2CFDAFF19
:10EAD000220EE12402E3E168E652E16ED950130F01
:10EAE000E66E000EDA20E66EA8DACCEC7BF0006E63
:10EAF000060EE15C02E2E16AE552E16E0050E76E6B
:10EB00000E0EE7CFDBFFDB50840B0CE0210E000183
:10EB1000A46FA56B0F0EDB68100EDB68110EDB68AF
:10EB20007F0E6ED08ADA36DA020E1EC0DBFF030ECD
:10EB30001FC0DBFF040E20C0DBFF050E21C0DBFF82
:10EB400087DA246A100E256E490E266E460E14DAF8
:10EB5000D7EC73F0010A32E07BDA67DA0DDAD6EC33
:10EB600074F0BFD9060EDBCF1FF0070EDBCF20F00D
:10EB7000080EDBCF21F0090EDBCF22F029EC75F077
:10EB8000BDEC74F0AED964DA060EDBCF08F0070EE8
:10EB9000DBCF09F0080EDBCF0AF0090EDBCF0BF05C
:10EBA00044DA276E08C01FF009C020F00AC021F027
:10EBB0000BC022F048DA48EC72F0C4D9F90EDB50F1
:10EBC00012E00E0EDB040BE1FA0EDBCF00F0FB0EC1
:10EBD000DBCF01F0FC0EDBCF02F0FD0E52D167D986
:10EBE000266AF8D947D00E0EDB0419E10F0EDB6A56
:10EBF000100EDB6A800EF36E110EF3CFDBFF3F0EBB
:10EC0000F36E120EF3CFDBFF0F0EDBCF00F0100E12
:10EC1000DBCF01F0110EDBCF02F0120E32D1190E54
:10EC2000DB6A45D9800E266ED5D9006A016A026A70
:10EC30003F0E036ED950060FE96E000EDA20EA6E21
:10EC4000EECF1FF0EECF20F0EECF21F0EFCF22F08D
:10EC500000C024F001C025F002C026F003C027F058
:10EC600048EC72F022C0EDFF21C0EDFF20C0EDFFA7
:10EC70001FC0EFFFDF50010B0AE0190EDB5002E06E
:10EC8000000E01D0010EE76E190EE7CFDBFF8CD925
:10EC9000060EDBCF0CF0070EDBCF0DF0080EDBCF3E
:10ECA0000EF0090EDBCF0FF0246A256A490E266E9E
:10ECB000400E276E0CC01FF00DC020F00EC021F0DA
:10ECC0000FC022F0DFEC72F05CD9A6D995D948ECE0
:10ECD00072F077D9060EDBCF14F0070EDBCF15F0FC
:10ECE000080EDBCF16F0090EDBCF17F0220E246ED4
:10ECF000AA0E256E7D0E266E3A0E276E14C01FF0EA
:10ED000015C020F016C021F017C022F0DFEC72F021
:10ED10001FC010F020C011F021C012F022C013F06B
:10ED2000EDD848EC72F00A0E1FC0DBFF0B0E20C0BE
:10ED3000DBFF0C0E21C0DBFF0D0E22C0DBFFD95024
:10ED40000A0FE96E000EEAD825D91EC000F01FC0D8
:10ED500001F020C002F021C003F0246A256A800E71
:10ED6000266E390E276E1EC01FF04FD9D7EC73F0F8
:10ED7000010A13E1D9500A0FE96E000EDA20EA6E9B
:10ED8000020EEECFDBFF030EEECFDBFF040EEECF65
:10ED9000DBFF050EEECFDBFF68D0E1D80A0EDBCF3C
:10EDA00024F00B0EDBCF25F00C0EDBCF26F00D0E82
:10EDB000DBCF27F0DFEC72F01A0E1FC0DBFF1B0E5B
:10EDC00020C0DBFF1C0E21C0DBFF1D0E22C0DBFFBD
:10EDD0005B0E1F6E9C0E206E2E0E216E360E226E66
:10EDE00072D8CFD8220E246EB20E256E4F0E266E2C
:10EDF000B90E32D99ED83E0E246E870E256E080EAF
:10EE0000266E3C0E29D9DDD8A40E246EAA0E256EDE
:10EE10002A0E266EBE0E20D91E0E1FC0DBFF1F0E4F
:10EE200020C0DBFF200E21C0DBFF210E22C0DBFF54
:10EE30000A0EDBCF00F00B0EDBCF01F00C0EDBCFA8
:10EE400002F00D0EDBCF03F08AD81E0EDBCF24F0CC
:10EE50001F0EDBCF25F0200EDBCF26F0210EDBCFFF
:10EE600027F0F1D849EC72F06DD8190EDB5008E0AC
:10EE70009BD8246A256A800E266EBF0EF0D803D078
:10EE800042D8DBCF03F000C01EF001C01FF002C06B
:10EE900020F003C021F0220EE15C02E2E16AE552BB
:10EEA000E16EE552E5CFDAFFE7CFD9FF12007CD85B
:10EEB000830E246EF90E256EA20E266E3E0ECFD85E
:10EEC000246A256A12001A0EDBCF24F01B0EDBCF5A
:10EED00025F01C0EDBCF26F01D0EDBCF27F0DFEF79
:10EEE00072F0060E1FC0DBFF070E20C0DBFF080E0E
:10EEF00021C0DBFF090E22C0DBFF12008DD800C04D
:10EF00001FF005EF78F0020EDBCF00F0030EDBCF31
:10EF100001F0040EDBCF02F0050E1200DA20EA6EDB
:10EF2000EECFE6FFEECFE6FFEECFE6FFEFCFE6FF58
:10EF300012001FC004F020C005F021C006F022C05E
:10EF400007F01200020E1FC0DBFF030E20C0DBFF24
:10EF5000040E21C0DBFF050E22C0DBFF12000A0EEB
:10EF6000DBCF1FF00B0EDBCF20F00C0EDBCF21F040
:10EF70000D0EDBCF22F01200276E00C01FF005EF50
:10EF800078F01FC008F020C009F021C00AF022C0AC
:10EF90000BF01200AEEC7EF0E552E552E552E55280
:10EFA0001200276E49EF72F0020EDBCF04F0030E61
:10EFB000DBCF05F0040EDBCF06F0050EDBCF07F04C
:10EFC00012001FC000F020C001F021C002F022C0DA
:10EFD00003F012003F0EE5DF9FEC73F020C0DEFF70
:10EFE00021C0DDFF000EDFCF20F0010EDBCF21F0CE
:10EFF00035EC72F071EF77F004C01FF005C020F01F
:10F0000006C021F007C022F0120001C020F002C0AB
:10F0100021F003C022F012001FC024F020C025F010
:10F0200021C026F022C027F01200DB0E246E0F0E46
:10F03000256EC90E266E400E1200D950FA0FE96EE9
:10F04000FF0E8EEF77F0DFEC72F073DF7EEF77F07C
:10F050005ADFDBCF03F01200A4DF63EF77F0276EF7
:0AF06000CBDFDFEC72F0E1EF77F098
:06F06A00000F0F0F00FF74
:10F070000F0000FFFF00F00FFFF00F0F0FF0000F69
:10F080000F0F000000FF00000000FF000000F0FF75
:10F0900000000F0F0F0F0F00F00F0000000000F036
:10F0A0000FF00F0F0FF0000F0F0F00F0000000FF28
:10F0B00000000FF0000F0F0FFFF00000000F000F17
:10F0C0000F0FFFFFF00F00FF000000F0FF00000F28
:10F0D0000F0F00F0000000FF0F0F0F0FF0FF0F0FDA
:10F0E0000F0F000F0F0F00FF000000FFFFF0F0F008
:10F0F0000000F00F0F00000F00000000FF000000F4
:10F100000000F00F000F0F0F0FFF000F0F0F00FF99
:10F11000000000FF0FF0F0F00FF00F0F0FF0000FE6
:10F120000F0000000000F00F0FF0F0F0FFF00F0FE5
:10F130000FF00000000000000000000000000000D0
:10F1400000000000000000000000000000000000BF
:10F1500000000000000000000000000000000000AF
:10F1600000000000000000000000004F0000000749
:10F17000000700147F147F14242A7F2A1223130807
:10F18000646236495522500005030000001C2241EC
:10F19000000041221C0014083E081408083E08081C
:10F1A00000503000000808080808006060000020D7
:10F1B000100804023E5149453E00427F4000426132
:10F1C0005149462141454B311814127F10274545BE
:10F1D00045393C4A494930017109050336494949D5
:10F1E00036064949291E0036360000005636000012
:10F1F00008142241001414141414004122140802AB
:10F2000001510906324979413E7E1111117E7F4933
:10F210004949363E414141227F4141221C7F4949B3
:10F2200049417F090909013E4149497A7F08080897
:10F230007F00417F41002040413F017F081422416F
:10F240007F404040407F020C027F7F0408107F3ED9
:10F250004141413E7F090909063E4151215E7F0936
:10F26000192946464949493101017F01013F404082
:10F27000403F1F2040201F3F4038403F6314081488
:10F280006307087008076151494543007F41410009
:10F2900002040810200041417F00040201020440E2
:10F2A00040404040000102040020545454787F48FC
:10F2B0004444383844444420384444487F38545403
:10F2C0005418087E0901020C5252523E7F08040471
:10F2D0007800447D40002040443D007F10284400D9
:10F2E00000417F40007C041804787C0804047838CE
:10F2F000444444387C14141408081414187C7C0802
:10F300000404084854545420043F4440203C4040E6
:10F31000207C1C2040201C3C4030403C44281028CD
:10F32000440C5050503C4464544C44000836410056
:0FF3300000007F000000413608000201020402C5
:10F34000D9CFE6FFE1CFD9FF030EE12659D8736A82
:10F35000820E726E739C94949396958C7288728AC6
:10F36000949EE66AD0D8E552E76E020EE7CFDBFF47
:10F370000000D950020FE96EDACFEAFFEF50070B19
:10F38000020801E00000140EE66EBDD8E552E76EFB
:10F39000020EE7CFDBFF020EDB96DB88020EDB807E
:10F3A000DB92DB94020EDBCFE6FF140EE66E3AD85A
:10F3B000E552E552010EE66EA6D8E552DE6EDD6A34
:10F3C0000000110EE66E9FD8E552DE6EDD6A000089
:10F3D000E66A110EE66E26D8E552E5520000110EDF
:10F3E000E66E91D8E552DE6EDD6A0000030EE15C48
:10F3F00002E2E16AE552E16EE552E7CFD9FF120081
:10F40000550EA76EAA0EA76E0E01FF91090ECC6FC6
:10F410000A0ED36F170EFB6F550EA76EAA0EA76EBE
:10F42000FF811200D9CFE6FFE1CFD9FFE652DF6AB4
:10F43000FE0EDB50140804E0FE0EDB50340806E13B
:10F44000140EE66E60D8E552E00BDF6E8B9EA49E34
:10F45000FE0EDB50756EA4AEFED70000000000006B
:10F46000000000000000000000000000000000009C
:10F47000000000000000000000000000000000008C
:10F48000000000000000000000000000000000007C
:10F49000000000000000000000000000000000006C
:10F4A000000000000000000000000000000000005C
:10F4B000000000000000000000000000000000004C
:10F4C000000000000000000000000000000000003C
:10F4D00000000000000000000000A49EFE0EDB50B3
:10F4E0000A0805E1FD0EDB507F0B756E04D0FD0EA2
:10F4F000DB50DF10756EA4AEFED78B8EE552E55261
:10F50000E7CFD9FF1200D9CFE6FFE1CFD9FF8B9E1D
:10F51000A49EFE0EDB508009756EA4AEFED70000DF
:10F5200000000000000000000000000000000000DB
:10F5300000000000000000000000000000000000CB
:10F5400000000000000000000000000000000000BB
:10F5500000000000000000000000000000000000AB
:10F56000000000000000000000000000000000009B
:10F57000000000000000000000000000000000008B
:10F58000000000000000000000000000000000007B
:10F590000000000000000000000000000000A49E29
:10F5A000756AA4AEFED78B8E755000D0E552E7CFBA
:04F5B000D9FF12006D
:0CF5B400030EB16EB392B390B396B28810
:10F5C000B28EB290B292A494B38E12002F0E926EAD
:10F5D0000F01E00E486F1F0E496FC18EC19CC70E10
:10F5E000C1140809C16EF80EC1140209C16E498F19
:10F5F000C29CC29EC30EC2140809C26EC280120011
:10F60000D9DFE6EF7AF0D9CFE6FFE1CFD9FF020EDE
:10F61000E126FE0EDB500F0BF36EF346F346C30EEE
:10F62000C214F310C26EFE0EDB50EA6AA00FE96E40
:10F63000000EEA22EF503F0BF36EF346F346030E43
:10F64000B114F310B16EB38EB3820000000000005D
:10F6500000000000000000000000000000000000AA
:10F66000000000000000000000000000000000009A
:10F670000000B392B2800000000000000000000013
:10F68000000000000000000000000000000000007A
:10F690000000000000000000000000000000B29028
:10F6A0009E9CC2829EACFED7C3CFDEFFC4CFDDFFDF
:10F6B000DECF00F0DDCF01F000C0F3FF01C0F4FFAA
:10F6C00000D0020EE15C02E2E16AE552E16EE55231
:10F6D000E7CFD9FF1200D9CFE6FFE1CFD9FF030E64
:10F6E000E126020EDB6A040EF36E020EDBCFF4FF9E
:10F6F000F350F45C21E22AD8EF6A30D80CE226D825
:10F70000EF501F0803E122D8EF6A13D01FD8EF2A69
:10F7100025D8F5E30ED02CD80CE218D8EF50E1082C
:10F7200003E114D8EF6A05D011D8EF062BD820D802
:10F73000F4E3020EDB2AD7D7030EE15C02E2E16AB2
:10F74000E552E16EE552E7CFD9FF1200020EDB5021
:10F75000EA6AA00FE96E000EEA22120013D8DECF8B
:10F7600000F0DDCF01F0200E005C030E0158120006
:10F77000D9CFE9FFDACFEAFF200ED880EE54030E8E
:10F78000ED541200020EDBCFE6FF3DDFE552F3CF72
:08F79000DEFFF4CFDDFF1200E3
:08F79800D9CFE6FFDACFE6FF4E
:10F7A000E1CFD9FFE2CFDAFFE652006801687F0EB1
:10F7B000026E036AD950FA0FE96EFF0EDA20EA6E84
:10F7C000EE500016EE500116EE500216EE500316E3
:10F7D0006AD800C0EEFF01C0EEFF02C0EEFF03C01A
:10F7E000EEFFFD0EDB50800B02E0010E01D0000E9B
:10F7F000E66E59D8060EE926000EEA22E552E750D9
:10F80000EF6EFC0EDBCF00F0FD0EDBCF01F0D890E9
:10F8100000360136FC0E00C0DBFFFD0E01C0DBFF31
:10F82000DB50E66E40D8040EE926000EEA22E552CF
:10F83000E750EE6EED6AFD0EDB50006E016AFF0EC2
:10F84000001818E1015016E12ED8EECF00F0EECFEF
:10F8500001F0EECF02F0EFCF03F0005001100210E4
:10F86000031006E0210E0001A46FA56B800E0BD0E3
:10F87000040E09D0FD0EDB5008E115D8EE6AEE6AE1
:10F88000EE6AEE6A010EDF6E06D0020EDF6E0BD856
:10F89000EE52EE52EE8EDF50E552E552E5CFDAFF42
:10F8A000E7CFD9FF1200F80EDBCFE9FFF90EDBCF6F
:04F8B000EAFF120059
:0CF8B400426C61636B20627574746F6EAF
:10F8C00020666F72206D656E7500436C6F636B20F0
:10F8D0006973206E6F74207365742100416C6172CE
:10F8E0006D00536574204461746500536574205441
:10F8F000696D650053657420414D2F504D003132C4
:10F90000482F32344820496E74657276616C00412C
:10F910006C61726D204D656E750053657420446195
:10F920007465204D656E75005365742054696D656E
:10F93000204D656E7500746F2072657475726E2E41
:10F9400000507265737320627574746F6E2000745A
:10F950006F203132482100436C6F636B2069732044
:10F960006E6F74207365742000414D2F504D204DF3
:10F97000656E75003234480031324800496E746556
:10F980007276616C204D656E75002A00416E616C67
:10F990006F67004469676974616C00446973706CD7
:10F9A0006179204D6F646500253032643A2530322C
:10F9B000643A2530326400253032642F25303264B9
:07F9C00000504D00414D0015
:01F9C700003F
:08F9C8000001A6B122D0A683C4
:10F9D0008B809490550EA76EAA0EA76E0E01FF9114
:10F9E0000E0ED16F550EA76EAA0EA76EFF810F0ED9
:10F9F000BA6ECF0EBA140009BA6EBB6A0F01526B11
:10FA0000800ECB6E040ECA6EA496600E776E7F0ECB
:10FA1000766E12000001A691A6938B80949012003E
:10FA20000001A6A109D08B50010B04E19450010BF9
:10FA300001E1010CA691C8DF0001A6A3C5DFA4A6C1
:10FA40003AD0A496BA50300BE842E842E842E84285
:10FA5000030819E1400EBB5C10E18B909490BA6AE8
:10FA6000CA6A0E01D16B0F01526BCB68766A776858
:10FA7000A4960001A681A693010CBB2ACF0EBA144E
