:020000040000FA
:06000000BCEF78F01200D5
:0600080004EF50F01200AD
:060018000CEF50F0120095
:06A00000BCEF78F0120035
:02A00600120046
:06A008001CEF50F01200F5
:02A00E0012003E
:06A018006FEF50F0120092
:02A01E0002003E
:10A02000C1F10000600000002D000000CDE500003F
:08A03000B20000000100000075
:08A03800DACFE4FFE2CFDAFF0A
:10A04000E9CFE4FFEACFE4FFF6CFE4FFF7CFE4FF88
:10A05000F5CFE4FFF3CFE4FFF4CFE4FFFACFE4FF62
:10A0600000EE00F0140EE80403E3EECFE4FFFBD7AC
:10A0700000EE14F0070EE80403E3EECFE4FFFBD795
:10A08000E652F2A408D0480ED76EE30ED66E7FD803
:10A090000001836BF294E55200EE1AF0070EE8041B
:10A0A00003E3E5CFEDFFFBD700EE13F0140EE80459
:10A0B00003E3E5CFEDFFFBD7E5CFFAFFE5CFF4FFF4
:10A0C000E5CFF3FFE5CFF5FFE5CFF7FFE5CFF6FFEF
:10A0D000E5CFEAFFE5CFE9FFE5CFDAFF1100D8CF02
:10A0E000E4FFE0CFE4FFE46EDACFE4FFE652E552AE
:10A0F000E5CFDAFFE550E5CFE0FFE5CFD8FF100070
:10A1000047EC74F0B2EC74F0E7EC72F09AEC6AF0A1
:10A11000E66A7FEC6BF0E55212006FEC76F0000916
:10A12000FCE00F014869496980EF50F081B01FD011
:10A13000000189C014F08AC015F08BC016F08CC0E5
:10A1400017F0892B000E8A238B238C23D880010ED5
:10A150001454000E1554000E1654000E175416E237
:10A16000896B8A6B8B6B8C6B010E886F000C000106
:10A1700088050CE189518A118B118C1102E1886BE1
:10A18000010C8907000E8A5B8B5B8C5B000C000165
:10A19000A62B000EA723A73508E2A6513B08000E08
:10A1A000A75503E2A66BA76B01D812000001A42BF0
:10A1B000000EA523A53508E2A4513B08000EA555C5
:10A1C00003E2A46BA56B01D812000001A22B000EC4
:10A1D000A323D0EC5DF00001815123E00001A33501
:10A1E0000EE2A2510C08000EA35509E200018205FF
:10A1F00006E1826B010E0001A26FA36B1200000149
:10A20000A3350EE2A2510C08000EA35515E2000181
:10A21000825112E1010E826F0001A26FA36B0DD873
:10A2200012000001A33508E2A2511708000EA35541
:10A2300003E2A26BA36B01D8120000017C2B000E7D
:10A240007D23010E7A1901E17B511EE0030E7A197C
:10A2500001E17B5119E0050E7A1901E17B5114E00F
:10A26000070E7A1901E17B510FE0080E7A1901E11E
:10A270007B510AE00A0E7A1901E17B5105E00C0ED0
:10A280007A190EE17B510CE17D3509E27C511F0802
:10A29000000E7D5530E2010E7C6F7D6B2DD81200D3
:10A2A000040E7A1901E17B510FE0060E7A1901E1E3
:10A2B0007B510AE0090E7A1901E17B5105E00B0E92
:10A2C0007A190EE17B510CE17D3509E27C511E08C3
:10A2D000000E7D5510E2010E7C6F7D6B0DD81200D3
:10A2E0007D3509E27C511C08000E7D5504E2010E0B
:10A2F0007C6F7D6B01D8120000017A2B000E7B234E
:10A300007B3508E27A510C08000E7B5503E2010E02
:10A310007A6F7B6B1200D9CFE6FFE1CFD9FF020E37
:10A32000E126030EE66E4AEC74F0E552F3CFDEFF51
:10A33000F4CFDDFFDECF14F0DDCF15F0D89015504F
:10A3400004E6BC0E145C020E155819E2DECF14F0C0
:10A35000DDCF15F0D890155004E6EE0E145C020E19
:10A3600015580AE2030EE66E4AEC74F0E552F3CF9C
:10A37000DEFFF4CFDDFFEAD7010EF36E01D0F36A02
:10A38000F46A020EE15C02E2E16AE552E16EE55236
:10A39000E7CFD9FF1200D9CFE6FFE1CFD9FF020EF8
:10A3A000E126E66A4AEC74F0E552F3CFDEFFF4CF23
:10A3B000DDFFDECF14F0DDCF15F0D890155004E6A8
:10A3C000BC0E145C020E155818E2DECF14F0DDCF7F
:10A3D00015F0D890155004E6EE0E145C020E1558D8
:10A3E00009E2E66A4AEC74F0E552F3CFDEFFF4CFFF
:10A3F000DDFFEBD7010EF36E01D0F36AF46A020EB3
:10A40000E15C02E2E16AE552E16EE552E7CFD9FF95
:10A410001200D9CFE6FFE1CFD9FF040EE126020EEC
:10A42000DE6EDD6A130EC26ED9CFE9FFDACFEAFF26
:10A43000EE50ED100EE0C250E76E000EDFCF14F0CC
:10A44000010EE7501416156A14C0DEFF15C0DDFFBB
:10A45000EBD7C450176E166AC3501624146E000E44
:10A460001720156E020E14C0DBFF030E15C0DBFFB4
:10A47000020EDBCF14F0030EDBCF15F014C0F3FF98
:10A4800015C0F4FF040EE15C02E2E16AE552E16E00
:10A49000E552E7CFD9FF1200D9CFE6FFE1CFD9FFD0
:10A4A000020EE126010EE66E4AEC74F0E552F3CF9F
:10A4B000DEFFF4CFDDFFDECF14F0DDCF15F0D89056
:10A4C000155004E6200E145C030E155819E2DECF79
:10A4D00014F0DDCF15F0D890155004E6520E145C40
:10A4E000030E15580AE2010EE66E4AEC74F0E552CE
:10A4F000F3CFDEFFF4CFDDFFEAD7010EF36E01D01C
:10A50000F36AF46A020EE15C02E2E16AE552E16E8E
:10A51000E552E7CFD9FF1200D9CFE6FFE1CFD9FF4F
:10A52000020EE126E66E4AEC74F0E552F3CFDEFF50
:10A53000F4CFDDFFDECF14F0DDCF15F0D89015504D
:10A5400004E6200E145C030E155819E2DECF14F059
:10A55000DDCF15F0D890155004E6520E145C030EB2
:10A5600015580AE2020EE66E4AEC74F0E552F3CF9B
:10A57000DEFFF4CFDDFFEAD7010EF36E01D0F36A00
:10A58000F46A020EE15C02E2E16AE552E16EE55234
:10A59000E7CFD9FF1200D9CFE6FFE1CFD9FF040EF4
:10A5A000E126D950FD0FE96EFF0EDA20EA6EEE507B
:10A5B000ED1015E10A0E146E156AA2C008F0A3C0D2
:10A5C00009F00D6E15C00EF011EC77F008C0DEFF3B
:10A5D00009C0DDFFA2C014F0A3C015F034D0D950DB
:10A5E000FD0FE96EFF0EDA20EA6E010EEE1817E19C
:10A5F000ED5015E10A0E146E156AA4C008F0A5C04E
:10A6000009F00D6E15C00EF011EC77F008C0DEFFFA
:10A6100009C0DDFFA4C014F0A5C015F014D00A0EC7
:10A62000146E156AA6C008F0A7C009F00D6E15C01B
:10A630000EF011EC77F008C0DEFF09C0DDFFA6C008
:10A6400014F0A7C015F00A0E0D6E0E6A14C008F0C3
:10A6500015C009F011EC77F004C014F005C015F036
:10A66000020E04C0DBFF030E05C0DBFF000EDFCFD0
:10A6700008F0010EDBCF09F0050E081801E10950C2
:10A680006DE0040E081801E1095057E0030E0818A8
:10A6900001E1095041E0020E081801E109502BE0E8
:10A6A000010E081801E1095015E008506CE109504D
:10A6B0006AE1FD0EDBCFE9FFFE0EDBCFEAFFD890AB
:10A6C000E936EA36740EE926000EEA22EF50E66E0D
:10A6D000200E54D0FD0EDBCFE9FFFE0EDBCFEAFFEC
:10A6E000D890E936EA36740EE926000EEA22EF50D9
:10A6F000E66E240E43D0FD0EDBCFE9FFFE0EDBCF6E
:10A70000EAFFD890E936EA36740EE926000EEA220E
:10A71000EF50E66E280E32D0FD0EDBCFE9FFFE0EC5
:10A72000DBCFEAFFD890E936EA36740EE926000E50
:10A73000EA22EF50E66E2C0E21D0FD0EDBCFE9FFB2
:10A74000FE0EDBCFEAFFD890E936EA36740EE92632
:10A75000000EEA22EF50E66E300E10D0FD0EDBCF79
:10A76000E9FFFE0EDBCFEAFFD890E936EA36740E39
:10A77000E926000EEA22EF50E66E340EE66E49EC52
:10A780006DF0E552E552020EDBCF08F0030EDBCF91
:10A7900009F0090E081801E1095001E1EFD0080E97
:10A7A000081801E1095001E1D4D0070E081801E1B1
:10A7B000095001E1B9D0060E081801E1095001E184
:10A7C0009ED0050E081801E1095001E183D0040E66
:10A7D000081801E1095069E0030E081801E1095069
:10A7E0004FE0020E081801E1095035E0010E08188B
:10A7F00001E109501BE0085001E0D9D0095001E007
:10A80000D6D0FD0EDBCFE9FFFE0EDBCFEAFFD890FE
:10A81000E936EA36740EE926000EEA22010EE92630
:10A82000000EEA22EF50E66E200EBCD0FD0EDBCF0C
:10A83000E9FFFE0EDBCFEAFFD890E936EA36740E68
:10A84000E926000EEA22010EE926000EEA22EF5068
:10A85000E66E240EA7D0FD0EDBCFE9FFFE0EDBCFA8
:10A86000EAFFD890E936EA36740EE926000EEA22AD
:10A87000010EE926000EEA22EF50E66E280E92D075
:10A88000FD0EDBCFE9FFFE0EDBCFEAFFD890E93605
:10A89000EA36740EE926000EEA22010EE926000EC1
:10A8A000EA22EF50E66E2C0E7DD0FD0EDBCFE9FFE5
:10A8B000FE0EDBCFEAFFD890E936EA36740EE926C1
:10A8C000000EEA22010EE926000EEA22EF50E66EA3
:10A8D000300E68D0FD0EDBCFE9FFFE0EDBCFEAFFC6
:10A8E000D890E936EA36740EE926000EEA22010E07
:10A8F000E926000EEA22EF50E66E340E53D0FD0E2C
:10A90000DBCFE9FFFE0EDBCFEAFFD890E936EA366F
:10A91000740EE926000EEA22010EE926000EEA2254
:10A92000EF50E66E380E3ED0FD0EDBCFE9FFFE0E97
:10A93000DBCFEAFFD890E936EA36740EE926000E3E
:10A94000EA22010EE926000EEA22EF50E66E3C0EE6
:10A9500029D0FD0EDBCFE9FFFE0EDBCFEAFFD8905A
:10A96000E936EA36740EE926000EEA22010EE926DF
:10A97000000EEA22EF50E66E400E14D0FD0EDBCF43
:10A98000E9FFFE0EDBCFEAFFD890E936EA36740E17
:10A99000E926000EEA22010EE926000EEA22EF5017
:10A9A000E66E440EE66E49EC6DF0E552E552040E9B
:10A9B000E15C02E2E16AE552E16EE552E7CFD9FFE0
:10A9C0001200000EE66EE66AE6DDE552E552010E83
:10A9D000E66EE66AE0DDE552E552020EE66EE66AF4
:10A9E000DADDE552E552000181511FE082510FE0AE
:10A9F0006E0EE66E070EE66E920EE66EEB0EE66EDD
:10AA00007EEC6CF0E552E552E552E55212006E0E16
:10AA1000E66E070EE66E8F0EE66EEB0EE66E7EECD1
:10AA20006CF0E552E552E552E5521200D9CFE6FF4F
:10AA3000E1CFD9FF0A0EE1267AC0E6FF7BC0E6FF30
:10AA40007CC0E6FF7DC0E6FF850E146EEB0E156E32
:10AA5000166A14C0E6FFE66E16C0E6FFD9CFE6FF21
:10AA6000DACFE6FFBBEC76F0176E090EE15E175009
:10AA7000020EE66E070EE66ED9CFE6FFDACFE6FFEE
:10AA8000B7EC6CF0E552E552E552E5520A0EE15C96
:10AA900002E2E16AE552E16EE552E7CFD9FF12002A
:10AAA000D9CFE6FFE1CFD9FFE150FD0FE96EFF0EF0
:10AAB000DA20EA6E020EEE1801E1ED500BE0D950FB
:10AAC000FD0FE96EFF0EDA20EA6E060EEE1874E155
:10AAD000ED5072E1020EE66E490EF66EEC0EF76E68
:10AAE0000800F5500A0FE66E0D0EF66EEC0EF76ECE
:10AAF0000800F550E66E490EF66EEC0EF76E080093
:10AB0000F550E66E0D0EF66EEC0EF76E0800F55081
:10AB1000E66EA5EC6FF0146E050EE15E1450020EA9
:10AB2000E66E580EF66EEC0EF76E0800F550E66E07
:10AB30001C0EF66EEC0EF76E0800F550F60FE66E82
:10AB4000580EF66EEC0EF76E0800F550E66E1C0E11
:10AB5000F66EEC0EF76E0800F550E66EA5EC6FF0A1
:10AB6000146E050EE15E1450020EE66E670EF66E70
:10AB7000EC0EF76E0800F550F60FE66E2B0EF66E33
:10AB8000EC0EF76E0800F550E66E670EF66EEC0EF2
:10AB9000F76E0800F550E66E2B0EF66EEC0EF76EB3
:10ABA0000800F550E66EA5EC6FF0146E050EE15E40
:10ABB0001450020EE66E6DD0E66A490EF66EEC0E8B
:10ABC000F76E0800F5500A0FE66E0D0EF66EEC0EED
:10ABD000F76E0800F550E66E490EF66EEC0EF76E55
:10ABE0000800F550E66E0D0EF66EEC0EF76E0800DE
:10ABF000F550E66EA5EC6FF0146E050EE15E145094
:10AC0000E66A580EF66EEC0EF76E0800F550E66E2A
:10AC10001C0EF66EEC0EF76E0800F550F60FE66EA1
:10AC2000580EF66EEC0EF76E0800F550E66E1C0E30
:10AC3000F66EEC0EF76E0800F550E66EA5EC6FF0C0
:10AC4000146E050EE15E1450E66A670EF66EEC0EA9
:10AC5000F76E0800F550F60FE66E2B0EF66EEC0E52
:10AC6000F76E0800F550E66E670EF66EEC0EF76EA6
:10AC70000800F550E66E2B0EF66EEC0EF76E08002F
:10AC8000F550E66EA5EC6FF0146E050EE15E145003
:10AC9000E66A760EF66EEC0EF76E0800F550E66E7C
:10ACA0003A0EF66EEC0EF76E0800F5500A0FE66EDF
:10ACB000760EF66EEC0EF76E0800F550E66E3A0E64
:10ACC000F66EEC0EF76E0800F550E66EA5EC6FF030
:10ACD000146E050EE15E1450D950FD0FE96EFF0EA3
:10ACE000DA20EA6E020EEE1801E1ED500DE0D950C7
:10ACF000FD0FE96EFF0EDA20EA6E040EEE1801E099
:10AD000033D1ED5001E030D1010EE66E4E0EF66EFD
:10AD1000EC0EF76E0800F550050FE66E120EF66E9B
:10AD2000EC0EF76E0800F550FB0FE66E4E0EF66E59
:10AD3000EC0EF76E0800F550E66E120EF66EEC0E95
:10AD4000F76E0800F550E66EA5EC6FF0146E050E78
:10AD5000E15E1450010EE66E530EF66EEC0EF76EC9
:10AD60000800F550050FE66E170EF66EEC0EF76E46
:10AD70000800F550FB0FE66E530EF66EEC0EF76E04
:10AD80000800F550E66E170EF66EEC0EF76E080032
:10AD9000F550E66EA5EC6FF0146E050EE15E1450F2
:10ADA000010EE66E5D0EF66EEC0EF76E0800F550C5
:10ADB000FB0FE66E210EF66EEC0EF76E0800F550F6
:10ADC000FB0FE66E5D0EF66EEC0EF76E0800F550AA
:10ADD000E66E210EF66EEC0EF76E0800F550E66E8C
:10ADE000A5EC6FF0146E050EE15E1450010EE66ED8
:10ADF000620EF66EEC0EF76E0800F550FB0FE66E75
:10AE0000260EF66EEC0EF76E0800F550FB0FE66EA0
:10AE1000620EF66EEC0EF76E0800F550E66E260E2A
:10AE2000F66EEC0EF76E0800F550E66EA5EC6FF0CE
:10AE3000146E050EE15E1450010EE66E6C0EF66E99
:10AE4000EC0EF76E0800F550FB0FE66E300EF66E56
:10AE5000EC0EF76E0800F550050FE66E6C0EF66E00
:10AE6000EC0EF76E0800F550E66E300EF66EEC0E46
:10AE7000F76E0800F550E66EA5EC6FF0146E050E47
:10AE8000E15E1450010EE66E710EF66EEC0EF76E7A
:10AE90000800F550FB0FE66E350EF66EEC0EF76E01
:10AEA0000800F550050FE66E710EF66EEC0EF76EAB
:10AEB0000800F550E66E350EF66EEC0EF76E0800E3
:10AEC000F550E66EA5EC6FF0146E050EE15E1450C1
:10AED000010EE66E7B0EF66EEC0EF76E0800F55076
:10AEE000050FE66E3F0EF66EEC0EF76E0800F5509D
:10AEF000050FE66E7B0EF66EEC0EF76E0800F55051
:10AF0000E66E3F0EF66EEC0EF76E0800F550E66E3C
:10AF1000A5EC6FF0146E050EE15E1450010EE66EA6
:10AF2000800EF66EEC0EF76E0800F550050FE66E1B
:10AF3000440EF66EEC0EF76E0800F550050FE66E47
:10AF4000800EF66EEC0EF76E0800F550E66E440EBD
:10AF5000F66EEC0EF76E0800F550E66EA5EC6FF09D
:10AF6000146E050EE15E1450E552E7CFD9FF1200D2
:10AF70000001835101E097D0E66A7FEC6BF0E55267
:10AF80006CC0E6FF6DC0E6FF8BDDE552E552E66A78
:10AF9000D10E0001A625F66EEB0EA721F76E080074
:10AFA000F550E66E950EA625F66EEB0EA721F76E10
:10AFB0000800F550E66E86C0E6FF85C0E6FFA5EC0A
:10AFC0006FF0146E050EE15E1450010EE66ED10EA8
:10AFD0000001A425F66EEB0EA521F76E0800F550D2
:10AFE000E66E950EA425F66EEB0EA521F76E080011
:10AFF000F550E66E86C0E6FF85C0E6FFA5EC6FF073
:10B00000146E050EE15E1450020EE66EA4C014F03C
:10B01000A5C015F00C0E0D6E0E6AA4C008F0A5C0F8
:10B0200009F011EC77F008C014F009C015F0000128
:10B0300087510F010824F66E000E0920F76ED10E1D
:10B04000F626EB0EF7220800F550E66EA4C016F0C7
:10B05000A5C017F00C0E0D6E0E6AA4C008F0A5C0B6
:10B0600009F011EC77F008C016F009C017F00001E4
:10B0700087510F010824F66E000E0920F76E950E19
:10B08000F626EB0EF7220800F550E66E86C0E6FFC6
:10B0900085C0E6FFA5EC6FF0186E050EE15E185056
:10B0A0000001010E836F825108E06E0EE66E070EFE
:10B0B000E66E920EE66EEB0E07D06E0EE66E070E93
:10B0C000E66E8F0EE66EEB0EE66E7EEC6CF0E552F1
:10B0D000E552E552E5521200000180512EE071DC8C
:10B0E000250EE66EB30EE66E6F0EE66E53EC6CF058
:10B0F000E552E552E552250EE66EB40EE66E6F0E91
:10B10000E66E53EC6CF0E552E552E552520EE66EF7
:10B11000B30EE66E6F0EE66E53EC6CF0E552E55240
:10B12000E552520EE66EB40EE66E6F0EE66E53EC0E
:10B130006CF0E552E552E55201D01ADF16EF55F0FA
:10B14000D9CFE6FFE1CFD9FF0A0EE126A6C0E6FF80
:10B15000A7C0E6FFA4C0E6FFA5C0E6FFA2C0E6FFC9
:10B16000A3C0E6FF760E146EEB0E156E166A14C0C1
:10B17000E6FFE66E16C0E6FFD9CFE6FFDACFE6FFC0
:10B18000BBEC76F0176E0B0EE15E1750000181519B
:10B1900024E03C0EE66E070EE66ED9CFE6FFDACF6E
:10B1A000E6FFB7EC6CF0E552E552E552E5520001DE
:10B1B000825108E06E0EE66E070EE66E920EE66EA7
:10B1C000EB0E07D06E0EE66E070EE66E8F0EE66E85
:10B1D000EB0EE66E7EEC6CF00AD0500EE66E070EBB
:10B1E000E66ED9CFE6FFDACFE6FFB7EC6CF0E552BA
:10B1F000E552E552E5520A0EE15C02E2E16AE552EF
:10B20000E16EE552E7CFD9FF1200D9CFE6FFE1CFDB
:10B21000D9FF040EE1261E0EE66EE66A690EE66EA2
:10B22000EB0EE66E7EEC6CF0E552E552E552E5522F
:10B230001E0EE66E030EE66E610EE66EEB0EE66E19
:10B240007EEC6CF0E552E552E552E5521E0EE66EDC
:10B25000050EE66E5A0EE66EEB0EE66E7EEC6CF0B8
:10B26000E552E552E552E552B2EC74F04CEC52F086
:10B27000F3CFDEFFF4CFDDFFD9CFE9FFDACFEAFF6E
:10B28000010EEE1811E1ED500FE1E66A7FEC6BF074
:10B29000E5520001050E621904E1635102E1030E5B
:10B2A00001D0050E626F636B8CEC52F0020EF3CF8F
:10B2B000DBFF030EF4CFDBFFD950020FE96EDACFCC
:10B2C000EAFF010EEE1811E1ED500FE1E66A7FECA6
:10B2D0006BF0E5520001030E621904E1635102E1D3
:10B2E000050E01D0030E626F636B160EE66E62C030
:10B2F000E6FF580EE66EEB0EE66E7EEC6CF0E55265
:10B30000E552E552E5524B0EE66E62C0E6FF580E7E
:10B31000E66EEB0EE66E7EEC6CF0E552E552E55221
:10B32000E55296EC50F0000918E00001030E621996
:10B3300005E1635103E1010E806F09D0815103E102
:10B340007E0501E117D80001010E816F806BF36E5D
:10B35000F46A040EE15C09E206D000017E5101E1CD
:10B360005AD7EEDE58D7E16AE552E16EE552E7CFF3
:10B37000D9FF1200000181515FE082510AE0000113
:10B380000C0EA21901E014D1A35155E1A26BA36BDD
:10B3900012000B0E0001A21901E1A35149E00A0EAF
:10B3A000A21901E1A35140E0090EA21901E1A35144
:10B3B00039E0080EA21901E1A35132E0070EA219EB
:10B3C00001E1A3512BE0060EA21901E1A35124E0F3
:10B3D000050EA21901E1A3511DE0040EA21901E11D
:10B3E000A35116E0030EA21901E1A3510FE0020ED2
:10B3F000A21901E1A35108E0010EA21901E1A35134
:10B4000001E012000D0E11D00E0E0FD00F0E0DD058
:10B41000100E0BD0110E09D0120E07D0130E05D04E
:10B42000140E03D0150E01D0160EA26FA36B1200DE
:10B43000170EA26FA36B1200170E0001A21901E1F3
:10B44000A35101E1AFD0160EA21901E1A35101E110
:10B45000A2D0150EA21901E1A35101E198D0140E5A
:10B46000A21901E1A35101E18ED0130EA21901E14D
:10B47000A35101E184D0120EA21901E1A35101E10F
:10B480007AD0110EA21901E1A35171E0100EA21998
:10B4900001E1A35168E00F0EA21901E1A3515FE0A1
:10B4A0000E0EA21901E1A35156E00D0EA21901E101
:10B4B000A3514DE00C0EA21901E1A35145E00B0E82
:10B4C000A21901E1A3513CE00A0EA21901E1A35126
:10B4D00037E0090EA21901E1A35132E0080EA219CA
:10B4E00001E1A3512DE0070EA21901E1A35128E0CB
:10B4F000060EA21901E1A35123E0050EA21901E1F4
:10B50000A3511EE0040EA21901E1A35119E0030E9C
:10B51000A21901E1A35114E0020EA21901E1A35105
:10B520000FE0010EA21901E1A3510AE0A25101E1CD
:10B53000A35101E012000001010E826F0C0E2ED00B
:10B540000001010E826F12000001826B12000001E7
:10B55000826B010E23D00001826B020E1FD000010E
:10B56000826B030E1BD00001826B040E17D000010A
:10B57000826B050E13D00001826B060E0FD0000106
:10B58000826B070E0BD00001826B080E07D0000102
:10B59000826B090E03D00001826B0A0E0001A26FBC
:10B5A000A36B12000001826B0B0E0001A26FA36B54
:10B5B0001200D9CFE6FFE1CFD9FF040EE12600014A
:10B5C000800501E0A6D01E0EE66EE66A4A0EE66E23
:10B5D000EB0EE66E7EEC6CF0E552E552E552E5527C
:10B5E000320EE66E030EE66E460EE66EEB0EE66E6D
:10B5F0007EEC6CF0E552E552E552E552320EE66E15
:10B60000050EE66E420EE66EEB0EE66E7EEC6CF01C
:10B61000E552E552E552E552B2EC74F04CEC52F0D2
:10B62000F3CFDEFFF4CFDDFFD9CFE9FFDACFEAFFBA
:10B63000010EEE1811E1ED500FE1E66A7FEC6BF0C0
:10B64000E5520001050E641904E1655102E1030EA3
:10B6500001D0050E646F656B8CEC52F0020EF3CFD7
:10B66000DBFF030EF4CFDBFFD950020FE96EDACF18
:10B67000EAFF010EEE1811E1ED500FE1E66A7FECF2
:10B680006BF0E5520001030E641904E1655102E11B
:10B69000050E01D0030E646F656B2A0EE66E64C062
:10B6A000E6FF580EE66EEB0EE66E7EEC6CF0E552B1
:10B6B000E552E552E552460EE66E64C0E6FF580ECE
:10B6C000E66EEB0EE66E7EEC6CF0E552E552E5526E
:10B6D000E55296EC50F000095BE00001030E64199E
:10B6E0000BE1655109E1810507E07E5101E042DE91
:10B6F0000001010E816F45D0050E641942E16551CC
:10B7000040E181513EE07E5101E034DE0001816B79
:10B7100038D0E66A020EE66E320EE66EEB0EE66E8C
:10B720007EEC6CF0E552E552E552E552E66A030E16
:10B73000E66E250EE66EEB0EE66E7EEC6CF0E552E4
:10B74000E552E552E552E66A050EE66E170EE66E24
:10B75000EB0EE66E7EEC6CF0E552E552E552E552FA
:10B76000E66A060EE66E0C0EE66EEB0EE66E7EECFC
:10B770006CF0E552E552E552E55296EC50F00009C6
:10B7800007E0010EF36EF46A040EE15C09E206D0F4
:10B7900000017E5101E113D7D3DC11D7E16AE552F4
:10B7A000E16EE552E7CFD9FF1200D9CFE6FFE1CF36
:10B7B000D9FF040EE1260001815101E195D01E0E52
:10B7C000E66EE66A010EE66EEB0EE66E7EEC6CF05F
:10B7D000E552E552E552E552320EE66E030EE66E94
:10B7E000920EE66EEB0EE66E7EEC6CF0E552E552E4
:10B7F000E552E552320EE66E050EE66E8F0EE66EEF
:10B80000EB0EE66E7EEC6CF0E552E552E552E55249
:10B81000B2EC74F04CEC52F0F3CFDEFFF4CFDDFF6E
:10B82000D9CFE9FFDACFEAFF010EEE1811E1ED50B2
:10B830000FE1E66A7FEC6BF0E5520001050E661938
:10B8400004E1675102E1030E01D0050E666F676BDC
:10B850008CEC52F0020EF3CFDBFF030EF4CFDBFFD4
:10B86000D950020FE96EDACFEAFF010EEE1811E1AE
:10B87000ED500FE1E66A7FEC6BF0E5520001030E3C
:10B88000661904E1675102E1050E01D0030E666FEF
:10B89000676B2A0EE66E66C0E6FF580EE66EEB0E8C
:10B8A000E66E7EEC6CF0E552E552E552E552400E54
:10B8B000E66E66C0E6FF580EE66EEB0EE66E7EECB8
:10B8C0006CF0E552E552E552E55296EC50F0000975
:10B8D0004AE00001030E661905E1675103E1010E1C
:10B8E000826F3AD0826B38D0E66A020EE66EEF0EB7
:10B8F000E66EEA0EE66E7EEC6CF0E552E552E5523D
:10B90000E552E66A030EE66EE70EE66EEA0EE66EB6
:10B910007EEC6CF0E552E552E552E552E66A050E22
:10B92000E66E170EE66EEB0EE66E7EEC6CF0E55200
:10B93000E552E552E552E66A060EE66E0C0EE66E3C
:10B94000EB0EE66E7EEC6CF0E552E552E552E55208
:10B9500096EC50F0000907E0010EF36EF46A040E55
:10B96000E15C0AE207D000017E5101E124D7A0EC9E
:10B9700058F021D7E16AE552E16EE552E7CFD9FFF1
:10B980001200D9CFE6FFE1CFD9FF040EE126B2ECD9
:10B9900074F04CEC52F0F3CFDEFFF4CFDDFFD9CFE3
:10B9A000E9FFDACFEAFF010EEE181FE1ED501DE1CD
:10B9B000E66A7FEC6BF0E55200016E2B000E6F2300
:10B9C00081510AE06F3511E26E510C08000E6F557F
:10B9D0000CE2010E6E6F08D06F3507E26E5117084A
:10B9E000000E6F5502E26E6B6F6B8CEC52F0020E24
:10B9F000F3CFDBFF030EF4CFDBFFD950020FE96E6C
:10BA0000DACFEAFF010EEE181DE1ED501BE1E66A08
:10BA10007FEC6BF0E55200016E07000E6F5B815109
:10BA20000BE0010E6FAF02D0D89003D06E5D000E18
:10BA30006F5908E20C0E04D0800E6F1503E0170E4C
:10BA40006E6F6F6B040EE15C02E2E16AE552E16E3B
:10BA5000E552E7CFD9FF1200D9CFE6FFE1CFD9FFFA
:10BA6000040EE126B2EC74F04CEC52F0F3CFDEFFA2
:10BA7000F4CFDDFFD9CFE9FFDACFEAFF010EEE18F0
:10BA800013E1ED5011E1E66A7FEC6BF0E552000145
:10BA9000702B000E7123713507E270513B08000EC8
:10BAA000715502E2706B716B8CEC52F0020EF3CFA9
:10BAB000DBFF030EF4CFDBFFD950020FE96EDACFC4
:10BAC000EAFF010EEE1810E1ED500EE1E66A7FECA0
:10BAD0006BF0E55200017007000E715B800E71156E
:10BAE00003E03B0E706F716B040EE15C02E2E16AF1
:10BAF000E552E16EE552E7CFD9FF1200D9CFE6FF5C
:10BB0000E1CFD9FF040EE126B2EC74F04CEC52F018
:10BB1000F3CFDEFFF4CFDDFFD9CFE9FFDACFEAFFC5
:10BB2000010EEE1813E1ED5011E1E66A7FEC6BF0C7
:10BB3000E5520001722B000E7323733507E2725138
:10BB40003B08000E735502E2726B736B8CEC52F083
:10BB5000020EF3CFDBFF030EF4CFDBFFD950020F51
:10BB6000E96EDACFEAFF010EEE1810E1ED500EE1BA
:10BB7000E66A7FEC6BF0E55200017207000E735B22
:10BB8000800E731503E03B0E726F736B040EE15C65
:10BB900002E2E16AE552E16EE552E7CFD9FF120019
:10BBA0000B0E0001A21901E1A35101E198D0170E7B
:10BBB000A21901E1A35101E192D00A0EA21901E1FB
:10BBC000A35101E189D0160EA21901E1A35101E1AF
:10BBD00083D0090EA21901E1A35101E17AD0150E1B
:10BBE000A21901E1A35175E0080EA21901E1A351C8
:10BBF0006DE0140EA21901E1A35168E0070EA2192D
:10BC000001E1A35160E0130EA21901E1A3515BE031
:10BC1000060EA21901E1A35153E0120EA21901E18F
:10BC2000A3514EE0050EA21901E1A35146E0110E09
:10BC3000A21901E1A35141E0040EA21901E1A351AF
:10BC400039E0100EA21901E1A35134E0030EA2194C
:10BC500001E1A3512CE00F0EA21901E1A35127E04D
:10BC6000020EA21901E1A3511FE00E0EA21901E17B
:10BC7000A3511AE0010EA21901E1A35112E00D0E29
:10BC8000A21901E1A3510DE0A25101E1A35106E087
:10BC90000C0EA21901E1A35101E012000001876B13
:10BCA00012000001050E1DD000010A0E1AD000017D
:10BCB0000F0E17D00001140E14D00001190E11D070
:10BCC00000011E0E0ED00001230E0BD00001280E25
:10BCD00008D000012D0E05D00001320E02D0000167
:10BCE000370E876F1200010E00016E6F6F6B706B65
:10BCF000716B726B736B1200D9CFE6FFE1CFD9FF86
:10BD00000E0EE126190EE66EE66AD90EE66EEA0E12
:10BD1000E66E7EEC6CF0E552E552E552E55272C0FB
:10BD2000E6FF73C0E6FF70C0E6FF71C0E6FF6EC0BD
:10BD3000E6FF6FC0E6FF760E146EEB0E156E166A08
:10BD400014C0E6FFE66E16C0E6FFD9CFE6FFDACFF5
:10BD5000E6FFBBEC76F0176E0B0EE15E1750280E77
:10BD6000E66E040EE66ED9CFE6FFDACFE6FFB7EC5B
:10BD70006CF0E552E552E552E552B2EC74F0CBECD2
:10BD800051F00C0EF3CFDBFF0D0EF4CFDBFFD950DB
:10BD90000C0FE96EDACFEAFF010EEE181DE1ED504F
:10BDA0001BE1E66A7FEC6BF0E5524F0E000168196B
:10BDB00001E169510EE03D0E681901E1695107E0AA
:10BDC0002B0E681909E1695107E13D0E03D04F0EB2
:10BDD00001D02B0E686F696B8BEC51F00A0EF3CF1C
:10BDE000DBFF0B0EF4CFDBFFD9500A0FE96EDACF81
:10BDF000EAFF010EEE181DE1ED501BE1E66A7FEC53
:10BE00006BF0E5524F0E0001681901E169510EE037
:10BE10003D0E681901E1695107E02B0E681909E12F
:10BE2000695107E14F0E03D02B0E01D03D0E686F14
:10BE3000696B68C0E6FF030EE66E580EE66EEB0E09
:10BE4000E66E7EEC6CF0E552E552E552E55268C0D4
:10BE5000E6FF050EE66E580EE66EEB0EE66E7EEC25
:10BE60006CF0E552E552E552E5524F0E00016819BB
:10BE700001E169510EE03D0E681901E1695107E0E9
:10BE80002B0E681907E1695105E17BDD03D0E4DD84
:10BE900001D034DE96EC50F000091BE06EC0A2F039
:10BEA0006FC0A3F070C0A4F071C0A5F072C0A6F07E
:10BEB00073C0A7F018DF74DE0001010E7E6F2B0E39
:10BEC000686F696B010EF36EF46A0E0EE15C0AE2B4
:10BED00007D000017E5101E115D7A0EC58F012D730
:10BEE000E16AE552E16EE552E7CFD9FF1200D9CF02
:10BEF000E6FFE1CFD9FF040EE126B2EC74F04CEC82
:10BF000052F0F3CFDEFFF4CFDDFFD9CFE9FFDACF78
:10BF1000EAFF010EEE1814E1ED5012E1E66A7FEC43
:10BF20006BF0E55200017A2B000E7B237B3508E293
:10BF30007A510C08000E7B5503E2010E7A6F7B6B81
:10BF40008CEC52F0020EF3CFDBFF030EF4CFDBFFDD
:10BF5000D950020FE96EDACFEAFF010EEE1816E1B2
:10BF6000ED5014E1E66A7FEC6BF0E55200017A07D0
:10BF7000000E7B5B010E7BAF02D0D89003D07A5DC0
:10BF8000000E7B5903E20C0E7A6F7B6B0001020EF0
:10BF90007A190BE17B5109E17D3507E27C511C08E0
:10BFA000000E7D5502E21C0E1CD0040E7A1901E130
:10BFB0007B510FE0060E7A1901E17B510AE0090E70
:10BFC0007A1901E17B5105E00B0E7A190CE17B51E6
:10BFD0000AE17D3508E27C511E08000E7D5503E222
:10BFE0001E0E7C6F7D6B040EE15C02E2E16AE5529D
:10BFF000E16EE552E7CFD9FF1200D9CFE6FFE1CFDE
:10C00000D9FF040EE126B2EC74F04CEC52F0F3CF01
:10C01000DEFFF4CFDDFFD9CFE9FFDACFEAFF010E73
:10C02000EE185BE1ED5059E1E66A7FEC6BF0E5520A
:10C0300000017C2B000E7D23010E7A1901E17B515A
:10C040001EE0030E7A1901E17B5119E0050E7A1901
:10C0500001E17B5114E0070E7A1901E17B510FE0F9
:10C06000080E7A1901E17B510AE00A0E7A1901E102
:10C070007B5105E00C0E7A190AE17B5108E17D3510
:10C080002CE27C511F08000E7D5527E223D0040EC0
:10C090007A1901E17B510FE0060E7A1901E17B511B
:10C0A0000AE0090E7A1901E17B5105E00B0E7A19BD
:10C0B0000AE17B5108E17D3510E27C511E08000E3B
:10C0C0007D550BE207D07D3508E27C511C08000E3F
:10C0D0007D5503E2010E7C6F7D6B8CEC52F0020EFD
:10C0E000F3CFDBFF030EF4CFDBFFD950020FE96E75
:10C0F000DACFEAFF010EEE1863E1ED5061E1E66A86
:10C100007FEC6BF0E55200017C07000E7D5B010EB9
:10C110007A1901E17B511EE0030E7A1901E17B518E
:10C1200019E0050E7A1901E17B5114E0070E7A1926
:10C1300001E17B510FE0080E7A1901E17B510AE021
:10C140000A0E7A1901E17B5105E00C0E7A190DE116
:10C150007B510BE1010E7DAF02D0D89003D07C5D06
:10C16000000E7D592DE21F0E29D0040E7A1901E12F
:10C170007B510FE0060E7A1901E17B510AE0090EAE
:10C180007A1901E17B5105E00B0E7A190DE17B5123
:10C190000BE1010E7DAF02D0D89003D07C5D000E84
:10C1A0007D590EE21E0E0AD0010E7DAF02D0D8904E
:10C1B00003D07C5D000E7D5903E21C0E7C6F7D6B0D
:10C1C000040EE15C02E2E16AE552E16EE552E7CF7E
:10C1D000D9FF1200D9CFE6FFE1CFD9FF0E0EE1263D
:10C1E000190EE66EE66ACB0EE66EEA0EE66E7EECA1
:10C1F0006CF0E552E552E552E5527AC0E6FF7BC0AD
:10C20000E6FF7CC0E6FF7DC0E6FF850E146EEB0EF8
:10C21000156E166A14C0E6FFE66E16C0E6FFD9CFAB
:10C22000E6FFDACFE6FFBBEC76F0176E090EE15EB3
:10C2300017502D0EE66E040EE66ED9CFE6FFDACF6C
:10C24000E6FFB7EC6CF0E552E552E552E552B2EC90
:10C2500074F0CBEC51F00C0EF3CFDBFF0D0EF4CFEE
:10C26000DBFFD9500C0FE96EDACFEAFF010EEE18B2
:10C2700016E1ED5014E1E66A7FEC6BF0E552420EF8
:10C2800000016A1901E16B5107E0300E6A1907E1FC
:10C290006B5105E1420E01D0300E6A6F6B6B8BEC77
:10C2A00051F00A0EF3CFDBFF0B0EF4CFDBFFD950BA
:10C2B0000A0FE96EDACFEAFF010EEE1816E1ED5033
:10C2C00014E1E66A7FEC6BF0E552420E00016A1958
:10C2D00001E16B5107E0300E6A1907E16B5105E18E
:10C2E000420E01D0300E6A6F6B6B6AC0E6FF030E20
:10C2F000E66E580EE66EEB0EE66E7EEC6CF0E552E6
:10C30000E552E552E5526AC0E6FF050EE66E580EAC
:10C31000E66EEB0EE66E7EEC6CF0E552E552E55211
:10C32000E552420E00016A1901E16B5107E0300E3F
:10C330006A1905E16B5103E160DE01D0D8DD96ECAE
:10C3400050F0000907E0010EF36EF46A0E0EE15C96
:10C350000AE207D000017E5101E142D7A0EC58F07B
:10C360003FD7E16AE552E16EE552E7CFD9FF12000F
:10C370000A0EE66EE66AC00EE66EEA0EE66E7EEC29
:10C380006CF0E552E552E552E5521200D9CFE6FFD6
:10C39000E1CFD9FF040EE1260A0EE66EE66AAD0E85
:10C3A000E66EEA0EE66E7EEC6CF0E552E552E55282
:10C3B000E552230EE66E020EE66EA30EE66EEA0E60
:10C3C000E66E7EEC6CF0E552E552E552E552230E46
:10C3D000E66E040EE66E990EE66EEA0EE66E7EECF2
:10C3E0006CF0E552E552E552E552230EE66E060E7C
:10C3F000E66E8F0EE66EEA0EE66E7EEC6CF0E552AF
:10C40000E552E552E552B2EC74F04CEC52F0F3CF49
:10C41000DEFFF4CFDDFFD9CFE9FFDACFEAFF010E6F
:10C42000EE1817E1ED5015E1E66A7FEC6BF0E5528E
:10C43000020E00016C5F000E6D5B020E6DAF02D04C
:10C44000D89003D06C5D000E6D5903E2060E6C6F40
:10C450006D6B8CEC52F0020EF3CFDBFF030EF4CFCA
:10C46000DBFFD950020FE96EDACFEAFF010EEE18BA
:10C4700015E1ED5013E1E66A7FEC6BF0E552020E38
:10C4800000016C27000E6D236D3508E26C51060823
:10C49000000E6D5503E2020E6C6F6D6B1C0EE66EA6
:10C4A0006CC0E6FF580EE66EEB0EE66E7EEC6CF0AE
:10C4B000E552E552E552E5525A0EE66E6CC0E6FFD3
:10C4C000580EE66EEB0EE66E7EEC6CF0E552E55231
:10C4D000E552E55296EC50F0000907E0010EF36ECC
:10C4E000F46A040EE15C0AE207D000017E5101E12A
:10C4F00053D7A0EC58F050D7E16AE552E16EE5520F
:10C50000E7CFD9FF1200D9CFE6FFE1CFD9FF020E66
:10C51000E126E66A7FEC6BF0E552060E0001601939
:10C5200001E1615163E0050E601901E1615153E0E1
:10C53000040E601901E1615143E0030E601901E14D
:10C54000615132E0020E601901E1615121E0010EFA
:10C55000601901E1615110E0605152E1615150E117
:10C5600005EC59F0F3CF14F0F4CF15F0010EF318E9
:10C5700047E1155045E155D0D9EC5AF0F3CF14F00E
:10C58000F4CF15F0010EF3183BE1155039E149D015
:10C59000D5EC5BF0F3CF14F0F4CF15F0010EF318E7
:10C5A0002FE115502DE13DD07CEC5EF0F3CF14F07F
:10C5B000F4CF15F0010EF31823E1155021E131D02D
:10C5C00009DEF3CF14F0F4CF15F0010EF31818E1E3
:10C5D000155016E126D0CCDEF3CF14F0F4CF15F0D1
:10C5E000010EF3180DE115500BE11BD0CFDEF3CF98
:10C5F00014F0F4CF15F0010EF31802E1155011E01C
:10C600008BEC51F0F3CFDEFFF4CFDDFFD9CFE9FFA4
:10C61000DACFEAFF010EEE1801E07FD7ED5001E01E
:10C620007CD7E66A7FEC6BF0E552020EE15C02E239
:10C63000E16AE552E16EE552E7CFD9FF1200D9CFAA
:10C64000E6FFE1CFD9FF060EE126060EE66EE66AAA
:10C65000690EE66EEB0EE66E7EEC6CF0E552E5528E
:10C66000E552E552060EE66E010EE66E7E0EE66EB1
:10C67000EA0EE66E7EEC6CF0E552E552E552E552CC
:10C68000060EE66E020EE66E740EE66EEA0EE66EBC
:10C690007EEC6CF0E552E552E552E552060EE66E90
:10C6A000030EE66E6B0EE66EEA0EE66E7EEC6CF046
:10C6B000E552E552E552E552060EE66E040EE66ED0
:10C6C000620EE66EEA0EE66E7EEC6CF0E552E55226
:10C6D000E552E552060EE66E050EE66E5C0EE66E5F
:10C6E000EA0EE66E7EEC6CF0E552E552E552E5525C
:10C6F000060EE66EE66E4E0EE66EEA0EE66E7EEC18
:10C700006CF0E552E552E552E552E66A60C0E6FF9C
:10C71000580EE66EEB0EE66E7EEC6CF0E552E552DE
:10C72000E552E552640EE66E60C0E6FF580EE66E16
:10C73000EB0EE66E7EEC6CF0E552E552E552E5520A
:10C74000B2EC74F04CEC52F0F3CFDEFFF4CFDDFF2F
:10C75000D9CFE9FFDACFEAFF010EEE1810E1ED5074
:10C760000EE1E66A7FEC6BF0E55200016007000E17
:10C77000615B800E611503E0060E606F616B8CECEF
:10C7800052F0020EF3CFDBFF030EF4CFDBFFD950E4
:10C79000020FE96EDACFEAFF010EEE1813E1ED5059
:10C7A00011E1E66A7FEC6BF0E5520001602B000EB0
:10C7B0006123613507E260510608000E615502E20F
:10C7C000606B616B96EC50F0000901E09CDE8BEC35
:10C7D00051F0040EF3CFDBFF050EF4CFDBFFD95091
:10C7E000040FE96EDACFEAFF010EEE180EE1ED500C
:10C7F0000CE100017F6B606B616BE66A7FEC6BF0B4
:10C80000E552060EE15C0AE207D000017E5101E12B
:10C810001CD7A0EC58F019D7E16AE552E16EE55259
:10C82000E7CFD9FF12008DEC50F0050ED56ED08EFB
:10C83000F184E00EF26ED58E00017E5112E07F5140
:10C8400003E16CEC58F001D0FADE96EC50F00009F0
:10C85000F3E0E66A7FEC6BF0E5520001010E7F6FBA
:10C86000EBD77F5128E10A0EE66E030EE66E3C0E12
:10C87000E66EEA0EE66E7EEC6CF0E552E552E552AD
:10C88000E552020EE66E050EE66E260EE66EEA0E26
:10C89000E66E7EEC6CF0E552E552E552E55296EC20
:10C8A00050F00009C9E00001010E7F6FE66A7FECDD
:0AC8B0006BF0E552C1D7C3DEBFD71D
:06C8BA0099EC69F0FB0E91
:10C8C000DBCFF3FFDB06F35000090AE0E7EC69F089
:10C8D000FA0E52EC6AF0F3E1151CF1E1010E01D001
:10C8E000000EC8EF69F099EC69F03B0EE12402E319
:10C8F000E168E652E16E010EDB6A020EDB6AF90EB8
:10C90000DBCFF6FFFA0EDBCFF7FFFB0EDBCFF8FF36
:10C910000800F550DF6EDF5002E1ECEF68F0250E05
:10C92000DF5C02E0DFEF68F0030EDB6A040EDB6A17
:10C93000050EDB6A060EDB6A070EDB6A01EC69F0A6
:10C940002D0EDF5C0CE02B0EDF5C09E0200EDF5CBF
:10C9500006E0230EDF5C03E0300EDF5C1AE1DF50FF
:10C96000300A14E0130A0FE0030A0AE00B0A05E09C
:10C97000060AE4E1030EDB80E1D7030EDB82DED79B
:10C98000030EDB84DBD7030EDB86D8D7030EDB88F0
:10C99000D5D72A0EDF5C1BE1FDEC68F04BEC69F0AB
:10C9A00010E0030EDB8008680968130EDBCF0DF082
:10C9B000140EDBCF0EF037EC77F0040E06C0DBFF71
:10C9C00003D0130E34EC69F001EC69F00BD0090EC2
:10C9D000DB6AA2EC69F003E016EC6AF0FAD7090E04
:10C9E00034EC69F0030EDBB0DB982E0EDF5C1BE14C
:10C9F00001EC69F02A0EDF5C0BE1FDEC68F04BEC1A
:10CA000069F003E1130E86EC69F001EC69F00BD0DC
:10CA1000090EDB6AA2EC69F003E016EC6AF0FAD7C3
:10CA2000090E86EC69F0680EDF5C07E101EC69F045
:10CA3000680EDF5C1DE1030E18D0740EDF5C17E09A
:10CA40007A0EDF5C14E0480EDF5C06E0540EDF5C1B
:10CA500003E05A0EDF5C02E1020E07D06C0EDF5CD1
:10CA600003E06A0EDF5C04E1010ED9EC69F0C9DB7A
:10CA7000DF506E0A01E17FD31E0A01E192D1200A44
:10CA800001E18FD13F0A01E149D11A0A01E146D102
:10CA90000D0A01E143D1200A01E140D13A0A01E146
:10CAA0003DD1200A01E13AD1260A01E135D10D0A32
:10CAB00001E132D11A0A01E1D9D0200A4AE0300A54
:10CAC0001FE0460A0EE0250A01E083D3D950F90F92
:10CAD000E96EFF0EDA20EA6E010EEE5E000EEE5AEF
:10CAE000EE5AE7EC69F0250EE66E95DB03E1151CC6
:10CAF00001E169D3E3EC69F001E26BD3DB2A69D38E
:10CB0000080EDB6A040EDB50010806E2040EDB04AB
:10CB1000ABEC69F0DB508BDB080EDB5009E0030E59
:10CB2000DB50010B05E172DB01E04DD3080EDB6A3F
:10CB300064DBEFCFDFFF5BEC6AF003E1151C01E182
:10CB400042D3E3EC69F001E3DB2A60DB01E141D38E
:10CB50003AD3070EDB5002080FE127EC6AF0030E10
:10CB6000EEEC69F00E0EEECFDBFF0F0EEECFDBFF2B
:10CB7000100EEECFDBFF20D0F70EDBCF17F0F80E54
:10CB8000DBCF18F0020E175E000E185AF70E17C012
:10CB9000DBFFF80E18C0DBFF17C0E9FF18C0EAFF83
:10CBA000DEEC69F0166A0E0E14C0DBFF0F0E15C026
:10CBB000DBFF100E16C0DBFF0E0EDBCFE6FF0F0E05
:10CBC000DBCFE6FF100EDBCFE6FF3BEC78F0E55263
:10CBD000E552E552130E07C0DBFF140E08C0DBFF61
:10CBE000060EDB5005E0130E22EC6AF001E26ADB70
:10CBF00046EC6AF002E2130E37DB09EC6AF006E05D
:10CC0000040E22EC6AF002E2050E2EDB030EDBB00E
:10CC100005D0FCDA01E0D7D2080EDB6A090EDB6A28
:10CC20000E0EDBCFF6FF0F0EDBCFF7FF100EDBCFC4
:10CC3000F8FF0800F550DF6EDF5014E04CEC6AF0AE
:10CC400011E25BEC6AF003E1151C01E1BCD2BBDB35
:10CC500001E3DB2A090EDB2AD9500E0FE96E000E24
:10CC6000CBDBE7D7D3DA01E1B4D2ADD2C6DA110E0D
:10CC7000EECFDBFF120EEDCFDBFF110EDBCFE6FFB9
:10CC8000120EDBCFE6FF2DEC78F0E552E552130EE5
:10CC9000F3CFDBFF140EF4CFDBFF060EDB5004E016
:10CCA000130ED0DB01E20EDB46EC6AF002E2130E5B
:10CCB000DBDAAFDB05E0040EC5DB02E2050ED4DAF9
:10CCC000030EDBB005D0A2DA01E07DD2080EDB6AEC
:10CCD000090EDB6A110EDBCFE9FF120EDBCFEAFF94
:10CCE000EFCFDFFFDF5014E0D7DB12E2E4DB03E13C
:10CCF000151C01E168D267DB01E3DB2A090EDB2AA0
:10CD0000110EDB2ADBCFE9FF120EE8E3DB2AE6D7C0
:10CD10007DDA01E15ED257D2030EDB8E070EDB0413
:10CD200010E195DB040E5ADB0A0EEECFDBFF0B0E93
:10CD3000EECFDBFF0C0EEECFDBFF0D0EEECFDBFFF9
:10CD40006CD0070EDB5003082CE1030EDBAE0DD0D8
:10CD5000B2DA020E76DAEFCF14F0156A166A176AA5
:10CD600014AE39D01568166835D0F70EDBCF15F044
:10CD7000F80EDBCF16F0020E155E000E165AF70EF7
:10CD800015C0DBFFF80E16C0DBFF15C0E9FF16C0AB
:10CD9000EAFFEFCF14F00A0E14C0DBFF0B0EDB6AC4
:10CDA00038D0070EDB50020809E1030EDBAE04D0D9
:10CDB00059DB16AE10D00ED055DB0DD0030EDBAE16
:10CDC00012D079DA020E3DDAF9DA166A176A15AE70
:10CDD00002D016681768E2DA0C0E16C0DBFF0D0EE3
:10CDE00017C0DBFF1AD0F70EDBCF16F0F80EDBCF43
:10CDF00017F0020E165E000E175AF70E16C0DBFF74
:10CE0000F80E17C0DBFF16C0E9FF17C0EAFFD6DA3D
:10CE1000C5DA0C0EDB6A0D0EDB6A060EDB5005E18F
:10CE2000010EF36E050EF3CFDBFF150EDB6A160E57
:10CE3000DB6AD950370F146E000EDA20156E390EEA
:10CE400014C0DBFF3A0E15C0DBFF380EDB6A080E9C
:10CE5000DB6A0A0EAEDADF50780A12E0200A10E030
:10CE6000280A0CE0200A0AE03F0A06E00D0A02E068
:10CE7000200A08E1020E05D0080E03D0080EDF26B6
:10CE8000100E97DA030EDBBE02D0DB92DB94DB5090
:10CE9000800B24E08ADAD890030EEB50000A08E6F3
:10CEA000000EEE5C000EEE58000EEE58000EEE582E
:10CEB00015E213DA0B680C680D680E68F5EC77F074
:10CEC0000A0E02C0DBFF0B0E03C0DBFF0C0E04C01A
:10CED000DBFF0D0E05C0DBFF2D0E08D0030EDBA21D
:10CEE00002D02B0E03D0DBA408D0200EF36E170E59
:10CEF000F3CFDBFF150EDB2A02D0170EDB6A050E1F
:10CF0000DB5003E1B7D901E189D0B00E146EF10E08
:10CF1000156E000E166E070EDBCF17F0186A196A31
:10CF20001A6A17C00BF018C00CF019C00DF01AC027
:10CF30000EF0D3D960EC78F014500224F36E155043
:10CF40000320F46E16500420F86EF4CFF7FFF3CFF1
:10CF5000F6FF0800090EF5CFDBFF580EDF5C0FE18E
:10CF6000610EF36E090E7BD90AE3200E146E090ED2
:10CF7000DBCFE7FF1450E75E090EE7CFDBFF070EBC
:10CF8000DBCF14F0156A166A176A0FDA14C00BF0BB
:10CF900015C00CF016C00DF017C00EF0EECF06F065
:10CFA000EECF07F0EECF08F0EFCF09F060EC78F0AD
:10CFB00009C0EDFF08C0EDFF07C0EDFF06C0EFFFA1
:10CFC000390EDBCFE9FFDB063A0EDBCFEAFF01E2E9
:10CFD000DB06090EDBCFEFFF150EDB2A4BD995E1FF
:10CFE000030EDBA61DD06F0EDF5C06E1C1D918E38E
:10CFF000150EDB285BDA14D0780EDF5C09E0580EE2
:10D00000DF5C06E0620EDF5C03E0420EDF5C08E1FD
:10D01000020EF36E160EF3CFDBFF02D0150EDB6AA5
:10D02000030EDB50100B0EE0040EDBCF14F0050EE8
:10D03000DB50D880145406E2060EDB5003E1040EE8
:10D04000DB5034DA95D90AE2050EDBCFE7FF150E87
:10D05000DB50E75E050EE7CFDBFF02D0050EDB6A93
:10D06000040EDBCF14F0160E45D9D880145414E208
:10D07000160EDBCFE6FF150EDBCFE6FF040EDBCF8F
:10D08000E6FF050EDB50E552E75CE552D880E75439
:10D09000E552D880E7545FD9030EDB50010B0BE15A
:10D0A000080EDB5008E0B2D801E08DD0080EDB504E
:10D0B000BED8080EDB6A170EDB5007E088D9170EC2
:10D0C000F1D903E1151C01E17ED0160EDB5016E00C
:10D0D0007ED9300EE66E9FD802E1151C74E077D938
:10D0E000DFCFE6FFB3EC77F0E552E552E552F4CF3F
:10D0F00015F00001F31C02E1151C65E0050EDBCF05
:10D1000014F0160EDB50D880145409E2050EDBCF64
:10D11000E7FF160EDB50E75E050EE7CFDBFF300EB4
:10D12000E66E050ECBD94FE1390EDB2ADBCFE9FFE6
:10D130003A0E01E3DB2ADBCFEAFF090EEFCFDBFF7C
:10D14000DB500EE044D9090EADD902E1151C3BE0DD
:10D15000390EDB2ADBCFE9FF3A0EEDE3DB2AEBD712
:10D1600055D831E1160EDBCFE6FF080EC3D8E552E5
:10D17000E7245DD82ED0070EDB50030A1CE0010A1D
:10D1800014E0030A07E07BD9DBCFEEFF020EDBCF12
:10D19000EDFF1FD0F5D8196A17AE02D018681968CC
:10D1A0002CD8BCD819C0EEFF14D0EAD817BE186826
:10D1B00024D8B4D80ED063D9DBCFEFFF0AD07BD907
:10D1C00005E1151C03E1F368F46810D0FCD801E315
:10D1D000DB2A79D988EF64F0010EDBCF14F0020E60
:10D1E000DBCF15F014C0F3FF15C0F4FF3B0EE15C7C
:10D1F00002E2E16AE552E16ECBD029D9020EEEEFF0
:10D2000069F061D90800F550DF6E1200200EE66E5D
:10D21000080E5EEF6AF0B3EC77F0E552E552E552A6
:10D22000F3CF14F0F4CF15F00001F31C1200146ECC
:10D23000156AD950010F4DD91450EE261550ED2224
:10D240001200185E000E195AF70E18C0DBFFF80E18
:10D2500019C0DBFF18C0E9FF19C0EAFF1200DBCFDD
:10D26000F4FFF350F45C1200DB50E76E040EE7CFDE
:10D27000DBFF12000A0EDBCF14F00B0EDBCF15F034
:10D280000C0EDBCF16F00D0EDBCF17F0145015107F
:10D29000161017101200130EEECFDBFF140EEDCF99
:10D2A000DBFF130EDBCF14F0140EDBCF15F0000103
:10D2B000800E15141200F70EDBCF18F0F80EDBCF3E
:10D2C00019F01200050EDB50E66ED950130F01D98C
:10D2D000E552E750EE6EED6A12000A0EDBCF06F063
:10D2E0000B0EDBCF07F00C0EDBCF08F00D0EDBCF03
:10D2F00009F01200DBCFE6FF150EDBCFE6FF050ECF
:10D30000DB50E552E724E552E7241200DB50CED88B
:10D31000010EF36E060EF3CFDBFF1200EE50EFCFDF
:10D32000EAFFE96E16C0EEFF17C0EEFF18C0EEFF71
:10D330001200D9CFE6FFDACFE6FFE1CFD9FFE2CF87
:10D34000DAFF1200DFCFE6FFE66A9AEC78F0E552EA
:10D35000E552F3501200E76E080EE7CFDBFF120034
:10D36000EECF14F0EECF15F0EFCF16F0176A1200E3
:10D37000050EDBCF14F0150EDB50D88014541200CC
:10D38000010EDBCF16F0020EDBCF17F0186A120089
:10D39000E552E5CFDAFFE7CFD9FF12000A0E14C03D
:10D3A000DBFF0B0E15C0DBFF1200D9500A0F69EF2F
:10D3B0006AF0F36E070EF3CFDBFF1200EECF14F02E
:10D3C000EFCF15F01200010EDB2A020E1200FC0E48
:10D3D000DBCFE6FFFD0EDBCFE6FF1200145E000E92
:10D3E000155AF70E14C0DBFFF80E15C0DBFF14C092
:10D3F000E9FF15C0EAFF1200DA20EA6EEF2AEECF4D
:10D40000F6FF000EEF22EECFF7FFEF22EECFF8FF90
:10D410001200040EDBCFE6FF130EDB50E552E75C93
:10D420009ADFDB5004DF060EDB501200090EDB50E2
:10D430000A0DF350DF24D00FE76E090EE7CFDBFFB4
:10D4400001EF69F0DB50F36E050E2FEF69F0F70E78
:10D45000DBCF14F0F80EDBCF15F01200DFCFE6FFC4
:10D460000BEF69F028DF030EECDEB0EF69F05DEC46
:10D4700064F0E552E552E552E55200091200BDDEC6
:10D48000EE50EFCFEAFFE96E010E1200130EDB50F3
:10D49000F36E040E2FEF69F0040EDB50F36E090EED
:10D4A0002FEF69F0DBCFE6FF0BEF69F0E76E050EBB
:10D4B000E7CFDBFF12008BDF2EEF6AF0DBCFE6FF5A
:10D4C00086DF37EF6AF0D950F90FE96EFF0EFCEFF7
:0CD4D00069F0E96E000EDA20EA6E12002E
:04D4DC00D9CFE6FFBF
:10D4E000E1CFD9FF020EE126FD0EDBCF14F0DB0603
:10D4F000FE0EDBCF15F001E2DB061450151010E034
:10D50000DE6ADD6ADECF14F0DDCF15F0E30E145CC9
:10D510000D0E1558E9E2DF2A010EF4E3DB2AF2D7FB
:10D52000020EE15C02E2E16AE552E16EE552E7CF0C
:10D53000D9FF1200D9CFE6FFE1CFD9FF060EE126D1
:10D540008D9296928D9096908D8496948A9A939AC5
:10D550008C92DE6ADE6ADE6ADD6ADD52DD52D9CF88
:10D56000E9FFDACFEAFF640EEE5C000EEE58000E23
:10D57000EE58000EEE580AE2D9CFE9FFDACFEAFF03
:10D58000EE2A000EEE22EE22EE22E9D78C82DE6A2F
:10D59000DE6ADE6ADD6ADD52DD52D9CFE9FFDACF1D
:10D5A000EAFF640EEE5C000EEE58000EEE58000E20
:10D5B000EE580AE2D9CFE9FFDACFEAFFEE2A000EF1
:10D5C000EE22EE22EE22E9D7AE0EE66E70D8E552DC
:10D5D000DB0EE66E6CD8E552230EE66E68D8E55297
:10D5E000D90EE66E64D8E552220EE66E60D8E5529A
:10D5F000A10EE66E5CD8E552C80EE66E58D8E5522C
:10D60000DA0EE66E54D8E552120EE66E50D8E552A8
:10D61000A80EE66E4CD8E5523F0EE66E48D8E552AD
:10D62000D50EE66E44D8E552A00EE66E40D8E5521F
:10D63000810EE66E3CD8E552600EE66E38D8E552B3
:10D64000D30EE66E34D8E552E66A31D8E552A60E1E
:10D65000E66E2DD8E552AD0EE66E29D8E5528B0E5A
:10D66000E66E25D8E552AF0EE66E21D8E5520A0ED9
:10D67000E66EE66A33DFE552E552A40EE66E17D891
:10D68000E552400EE66E13D8E552020EE66E0FD854
:10D69000E552100EE66E0BD8E552060EE15C02E292
:10D6A000E16AE552E16EE552E7CFD9FF1200D9CF2A
:10D6B000E6FFE1CFD9FF956AFE0EDB508C6E8D80C0
:10D6C0008D828A9A8D948D928D828D849568E55293
:10D6D000E7CFD9FF1200D9CFE6FFE1CFD9FF956A96
:10D6E000FE0EDB508C6E8D808D828A8A8D948D9299
:10D6F0008D828D849568E552E7CFD9FF1200D9CF8E
:10D70000E6FFE1CFD9FF020EE126B00EDF6EB80EC4
:10D71000DF5C23E2DFCFE6FFCADFE552020EE66EF2
:10D72000C6DFE552100EE66EC2DFE552010EDB6A7F
:10D73000DB50146E156AD890155004E6840E145C04
:10D74000000E155808E2FE0EDBCFE6FFC4DFE552FF
:10D75000010EDB2AEDD7DF2ADAD7020EE15C02E206
:10D76000E16AE552E16EE552E7CFD9FF1200D9CF69
:10D77000E6FFE1CFD9FF200E146EFE0EDBCFE7FFF0
:10D780001450E75EFE0EE7CFDBFFDBCFF6FFF76A54
:10D79000F6BEF768050EF702F3CFF7FFF602F3CFF8
:10D7A000F6FFF450F726F20EF626E30EF7220800F5
:10D7B000F550E66E90DFE552FE0EDBCFF6FFF76A1E
:10D7C000F6BEF768050EF702F3CFF7FFF602F3CFC8
:10D7D000F6FFF450F726F20EF626E30EF722010EBE
:10D7E000F626000EF7220800F550E66E74DFE552CB
:10D7F000FE0EDBCFF6FFF76AF6BEF768050EF702FE
:10D80000F3CFF7FFF602F3CFF6FFF450F726F20E50
:10D81000F626E30EF722020EF626000EF722080087
:10D82000F550E66E58DFE552FE0EDBCFF6FFF76AE5
:10D83000F6BEF768050EF702F3CFF7FFF602F3CF57
:10D84000F6FFF450F726F20EF626E30EF722030E4B
:10D85000F626000EF7220800F550E66E3CDFE55292
:10D86000FE0EDBCFF6FFF76AF6BEF768050EF7028D
:10D87000F3CFF7FFF602F3CFF6FFF450F726F20EE0
:10D88000F626E30EF722040EF626000EF722080015
:10D89000F550E66E20DFE552E66A1DDFE552E552FF
:10D8A000E7CFD9FF1200D9CFE6FFE1CFD9FFE6528B
:10D8B000FD0EDBCFE6FFFBDEE552020E146EFC0E22
:10D8C000DBCFE7FF1450E726FC0EE7CFDBFFDB5092
:10D8D0000F0BE66EECDEE552FC0EDB380F0B0F0B88
:10D8E000100FE66EE4DEE552FE0EDBCFE6FF3FDF13
:10D8F000E552E552E552E7CFD9FF1200D9CFE6FF56
:10D90000E1CFD9FFFC0EDB50B00FE76EFC0EE7CF86
:10D91000DBFFFB0EDBCFE6FFFC0EDBCFE6FFFD0EF1
:10D92000DBCFF6FFFE0EDBCFF7FF0800F550E66E0B
:10D93000BADFE552E552E552FD0EDB2ADBCFF6FFFA
:10D94000FE0E01E3DB2ADBCFF7FF0800F5500BE00A
:10D95000FD0EDBCFF6FFFE0EDBCFF7FF0800F55024
:10D96000E66E05DFE8D7E552E7CFD9FF1200D9CF41
:10D97000E6FFE1CFD9FFFC0EDB50B00FE76EFC0EE7
:10D98000E7CFDBFFFB0EDBCFE6FFFC0EDBCFE6FFD6
:10D99000FD0EDBCFE9FFFE0EDBCFEAFFEF50E66EB8
:10D9A00082DFE552E552E552FD0EDB2ADBCFE9FFCF
:10D9B000FE0E01E3DB2ADBCFEAFFEF500AE0FD0EAB
:10D9C000DBCFE9FFFE0EDBCFEAFFEF50E66ECFDEE6
:10D9D000EAD7E552E7CFD9FF1200D9CFE6FFE1CF72
:10D9E000D9FF050EE126030EDB6A040EDB6A020E88
:10D9F000146EFA0EDBCFE7FF1450E726FA0EE7CFDE
:10DA0000DBFFF90EDB50B00FDF6EFB0EDB50B00F0B
:10DA1000DF5C35E2DFCFE6FF4ADEE552FA0EDB508F
:10DA20000F0BE66E44DEE552FA0EDB380F0B0F0BE0
:10DA30001009E66E3CDEE552010EDB6AFC0EDB509F
:10DA4000F36E010EDBCFF4FFF350F45C16E2030E2D
:10DA5000DB2A040E01E3DB2AFD0EDBCFF6FFDB2A17
:10DA6000FE0EDBCFF7FF01E3DB2A0800F550E66E80
:10DA700032DEE552010EDB2AE1D7DF2AC6D7050EDA
:10DA8000E15C02E2E16AE552E16EE552E7CFD9FFDF
:10DA90001200D9CFE6FFE1CFD9FF070EE126B00E85
:10DAA000F36E060EF3CFDBFF020E146EFD0EDBCF1E
:10DAB000E7FF1450E726FD0EE7CFDBFF200E146EC4
:10DAC000FE0EDBCFE7FF1450E75EFE0EE7CFDBFF75
:10DAD000050EF36E040EF3CFDBFF050EDB6A040EBA
:10DAE000DBCF14F0050EDBCF15F0153401E37AD04F
:10DAF00014500108000E155475E2060EDBCFE7FF47
:10DB0000040EDB50E726060EE7CFDBFFDBCFE6FF98
:10DB1000CEDDE552FD0EDB500F0BE66EC8DDE552A3
:10DB2000FD0EDB380F0B0F0B100FE66EC0DDE5525C
:10DB3000DE6ADD6ADECF14F0DDCF15F0D890155027
:10DB400004E6050E145C000E15583BE2020EDB6A7B
:10DB5000030EDB6A020EDBCF14F0030EDBCF15F0F1
:10DB6000D890155004E6030E145C000E155824E2FC
:10DB7000FE0EDBCF14F0156A14BE1568050E1502F3
:10DB8000F3CF15F01402F3CF14F0F4501526F80E6D
:10DB90001426E20E1522DE501424F66EDD501520F8
:10DBA000F76E0800F550E66E96DDE552020EDB2AB0
:10DBB000030ED0E3DB2ACED7DF2A010EBBE3DB2A3C
:10DBC000B9D7B00EF36E060EF3CFDBFFFE0EDB2AE5
:10DBD000E66A81DDE552040EDB06050E01E37FD720
:10DBE000DB067DD7070EE15C02E2E16AE552E16EF9
:08DBF000E552E7CFD9FF120056
:08DBF800D9CFE6FFE1CFD9FF10
:10DC0000E65295688D808D828A8A8D948D90000071
:10DC10000000000000000000000000008D800000F7
:10DC20008D9000008350DF6E8D808D84E552E5522B
:10DC3000E7CFD9FF1200D9CFE6FFE1CFD9FF020E1F
:10DC4000E126FD0EDBCFE9FFFE0EDBCFEAFFEF5052
:10DC5000DE6EDD6AF90EDBCFE9FFFA0EDBCFEAFFFD
:10DC6000EF50E66EFD0EDBCFE9FFFE0EDBCFEAFFE5
:10DC7000E552E750EF6EF90EDBCFE9FFFA0EDBCF8E
:10DC8000EAFFDFCFEFFFFB0EDBCFE9FFFC0EDBCFC0
:10DC9000EAFFEF50DE6EDD6AF70EDBCFE9FFF80E2C
:10DCA000DBCFEAFFEF50E66EFB0EDBCFE9FFFC0EA9
:10DCB000DBCFEAFFE552E750EF6EF70EDBCFE9FF6F
:10DCC000F80EDBCFEAFFDFCFEFFF020EE15C02E2EE
:10DCD000E16AE552E16EE552E7CFD9FF1200D9CFF4
:10DCE000E6FFE1CFD9FFE652E00EE66E57EC6BF0AF
:10DCF000E55282DFDF6EFE0EDB50DF1ADFCFE6FF7C
:10DD00006BEC6BF0E552EE0EE66E57EC6BF0E55205
:10DD1000E552E552E7CFD9FF1200D9CFE6FFE1CFB8
:10DD2000D9FFFE0EDB50B00FE66E57EC6BF0E552FC
:10DD3000020E146EFD0EDBCFE7FF1450E726FD0E3A
:10DD4000E7CFDBFFDB500F0BE66E57EC6BF0E552D5
:10DD5000FD0EDB380F0B0F0B100FE66E57EC6BF060
:10DD6000E552E552E7CFD9FF1200D9CFE6FFE1CF68
:10DD7000D9FF040EE126DF6AFD0EDB40E840E840F3
:10DD80001F0BE76E020EE7CFDBFFFD0EDB50070B2C
:10DD9000E76E030EE7CFDBFF010EDB6A030EDB50FD
:10DDA000070815E3FC0EDB5012E0010EF36E030EC4
:10DDB000DB5004E0D890F336E806FCE1F350DF12C4
:10DDC000010EDB2AFC0EDB06030EDB2AE7D7FE0E74
:10DDD000DBCFE6FF020EDBCFE6FF9FDFE552E55229
:10DDE000DFCFE6FF7CDFE552FB0EDBCF14F0000E49
:10DDF000E76E1418E8AE02D0143403D0E750D88090
:10DE0000145419E2FE0EDB50156E166AD8901650A7
:10DE100004E6830E155C000E16580DE2FE0EDB289C
:10DE2000E66E020EDBCFE6FF78DFE552E552DFCF8C
:10DE3000E6FF55DFE552FB0EDBCF14F0010EE76E77
:10DE40001418E8AE02D0143403D0E750D88014542C
:10DE500011E2FE0EDB5000080DE2FE0EDB04E66E62
:10DE6000020EDBCFE6FF59DFE552E552DFCFE6FFDA
:10DE700036DFE552010EDB50146E040EE15C02E267
:10DE8000E16AE552E16E1450E552E7CFD9FF120086
:10DE9000D9CFE6FFE1CFD9FF020EE126010EDF6EFA
:10DEA000FC0EDBCF14F0000EE76E1418E8AE02D0C3
:10DEB000143403D0E750D880145407E2FD0EDB5031
:10DEC000000803E2FD0EDB06DF2AFC0EDBCF14F0B8
:10DED000010EE76E1418E8AE02D0143403D0E750F8
:10DEE000D880145408E2FD0EDB50DF24156E3F0E7F
:10DEF000155C01E2DF2ADF501EE0E66ADFCFE6FFB5
:10DF0000FD0EDBCFE6FFFE0EDBCFE6FF2EDFE55298
:10DF1000E552E552E552E76E010EE7CFDBFFDB503D
:10DF2000DF5EFD0EDBCFE7FF010EDB50E726FD0EC7
:10DF3000E7CFDBFFE0D7020EE15C02E2E16AE552E7
:10DF4000E16EE552E7CFD9FF1200D9CFE6FFE1CF6E
:10DF5000D9FF160EE126FD0EDBCF14F0FB0EDB50D1
:10DF6000D88014541DE2D950FB0FE66EFF0EDA2064
:10DF7000E66ED950FC0FE66EFF0EDA20E66ED95041
:10DF8000FD0FE66EFF0EDA20E66ED950FE0FE66E4C
:10DF9000FF0EDA20E66E4FDE146E080EE15E1450BE
:10DFA000FB0EDBCFE6FFFD0EDB50E552E75C010F19
:10DFB000E76E060EE7CFDBFFFE0EDB50F36EFC0EC6
:10DFC000DBCFF4FFF350F45C14E3FC0EDBCFE6FF91
:10DFD000FE0EDB50E552E75C010FE76E050EE7CF62
:10DFE000DBFF010EF36E070EF3CFDBFF080EDB6ADB
:10DFF00010D0FE0EDBCFE6FFFC0EDB50E552E75CF7
:10E00000010FE76E050EE7CFDBFF070EDB68080E9A
:10E01000DB68050EDB50F36E060EDBCFF4FFF3502A
:10E02000F45C01E2CAD0060EDB50640D0D0EF3CF96
:10E03000DBFF0E0EF4CFDBFF050EDB50146E156A0E
:10E040000D0EDBCF08F00E0EDBCF09F014C00DF083
:10E0500015C00EF011EC77F00B0E08C0DBFF0C0EB4
:10E0600009C0DBFFFE0EDB50DF6EFD0EDB50E76EFE
:10E07000010EE7CFDBFF150EDB6AFC0EDB50146EE2
:10E08000156A086E15C009F0070EDBCF0DF0080EFB
:10E09000DBCF0EF037EC77F0090E06C0DBFF0A0E7F
:10E0A00007C0DBFFDF50166E176A086E17C009F055
:10E0B000070EDBCF0DF0080EDBCF0EF037EC77F05C
:10E0C00006C014F007C015F0090EDBCF18F00A0ED9
:10E0D000DBCF19F019500718E8AE02D0153404D080
:10E0E0001450185C1550195801E2ECD0640E166EED
:10E0F000176A150EDB50E76E0B0EDBCF14F00C0E1B
:10E10000DBCF15F0E7501426000E1522130E14C0B5
:10E11000DBFF140E15C0DBFF14C008F015C009F0BA
:10E1200016C00DF017C00EF011EC77F0020E08C00B
:10E13000DBFF130EDBCF14F0140EDBCF15F0640EF3
:10E140000D6E0E6A14C008F015C009F011EC77F0DE
:10E1500004C014F005C015F0150E04C0DBFF020E5C
:10E16000DB5027E0FA0EDBCFE6FF020EDBCFE6FF47
:10E17000010EDBCFE6FFDFCFE6FFF7DDE552E5522C
:10E18000E552E552E76E040EE7CFDBFF020EDBCF70
:10E19000E7FF040EDB50E75E020EE7CFDBFF010E68
:10E1A000DBCFE7FF040EDB50E726010EE7CFDBFFF6
:10E1B000D6D7070EDB50DF2675D7050EDB50640D72
:10E1C000110EF3CFDBFF120EF4CFDBFF060EDB5098
:10E1D000146E156A110EDBCF08F0120EDBCF09F0BA
:10E1E00014C00DF015C00EF011EC77F00F0E08C042
:10E1F000DBFF100E09C0DBFFFE0EDB50DF6EFD0EF5
:10E20000DB50E76E010EE7CFDBFF150EDB6A010E78
:10E21000DBCF14F0FB0EDB50D880145453E3640EB4
:10E22000166E176A150EDB50E76E0F0EDBCF14F07B
:10E23000100EDBCF15F0E7501426000E1522130E3A
:10E2400014C0DBFF140E15C0DBFF14C008F015C0AE
:10E2500009F016C00DF017C00EF011EC77F0030EA8
:10E2600008C0DBFF130EDBCF14F0140EDBCF15F06C
:10E27000640E0D6E0E6A14C008F015C009F011ECA2
:10E2800077F004C014F005C015F0150E04C0DBFFD4
:10E29000030EDBCFF3FFDB06F350000910E0FA0EAC
:10E2A000DBCFE6FF010EDBCFE6FFDFCFE6FFF0DDE1
:10E2B000E552E552E552070EDB50DF26E9D7010EA5
:10E2C000DB2AA5D7150EDB5032080CE2FA0EDBCFA5
:10E2D000E6FF010EDBCFE6FFDFCFE6FFD9DDE5523B
:10E2E000E552E552160EE15C02E2E16AE552E16EAA
:08E2F000E552E7CFD9FF12004F
:08E2F800000F0F0F00FF0F00E3
:10E3000000FFFF00F00FFFF00F0F0FF0000F0F0FD7
:10E31000000000FF00000000FF000000F0FF000010
:10E320000F0F0F0F0F00F00F0000000000F00FF0B4
:10E330000F0F0FF0000F0F0F00F0000000FF0000A4
:10E340000FF0000F0F0FFFF00000000F000F0F0F76
:10E35000FFFFF00F00FF000000F0FF00000F0F0FA5
:10E3600000F0000000FF0F0F0F0FF0FF0F0F0F0F57
:10E37000000F0F0F00FF000000FFFFF0F0F00000A3
:10E38000F00F0F00000F00000000FF000000000071
:10E39000F00F000F0F0F0FFF000F0F0F00FF000017
:10E3A00000FF0FF0F0F00FF00F0F0FF0000F0F0055
:10E3B00000000000F00F0FF0F0F0FFF00F0F0FF073
:10E3C000000000000000000000000000000000004D
:10E3D000000000000000000000000000000000003D
:10E3E000000000000000000000000000000000002D
:10E3F0000000000000000000004F000000070007C0
:10E4000000147F147F14242A7F2A122313086462C5
:10E4100036495522500005030000001C224100002F
:10E4200041221C0014083E081408083E0808005049
:10E43000300000080808080800606000002010088C
:10E4400004023E5149453E00427F4000426151492D
:10E45000462141454B311814127F10274545453957
:10E460003C4A494930017109050336494949360694
:10E470004949291E003636000000563600000814AF
:10E4800022410014141414140041221408020151F2
:10E490000906324979413E7E1111117E7F49494971
:10E4A000363E414141227F4141221C7F4949494139
:10E4B0007F090909013E4149497A7F0808087F0020
:10E4C000417F41002040413F017F081422417F40AD
:10E4D0004040407F020C027F7F0408107F3E414194
:10E4E000413E7F090909063E4151215E7F091929F4
:10E4F00046464949493101017F01013F4040403FC3
:10E500001F2040201F3F4038403F6314081463071A
:10E51000087008076151494543007F4141000204EA
:10E520000810200041417F000402010204404040E5
:10E530004040000102040020545454787F48444471
:10E54000383844444420384444487F38545454189C
:10E55000087E0901020C5252523E7F0804047800E2
:10E56000447D40002040443D007F1028440000418D
:10E570007F40007C041804787C0804047838444404
:10E5800044387C14141408081414187C7C080404FF
:10E59000084854545420043F4440203C4040207CD0
:10E5A0001C2040201C3C4030403C44281028440C97
:10E5B0005050503C4464544C440008364100000024
:0DE5C0007F00000041360800020102040245
:01E5CD00004D
:02E5CE00D9CFA3
:10E5D000E6FFE1CFD9FF030EE12659D8736A820E18
:10E5E000726E739C94949396958C7288728A949EA2
:10E5F000E66AD0D8E552E76E020EE7CFDBFF0000F7
:10E60000D950020FE96EDACFEAFFEF50070B02088C
:10E6100001E00000140EE66EBDD8E552E76E020E72
:10E62000E7CFDBFF020EDB96DB88020EDB80DB929E
:10E63000DB94020EDBCFE6FF140EE66E3AD8E5520D
:10E64000E552010EE66EA6D8E552DE6EDD6A0000E8
:10E65000110EE66E9FD8E552DE6EDD6A0000E66AB6
:10E66000110EE66E26D8E552E5520000110EE66E58
:10E6700091D8E552DE6EDD6A0000030EE15C02E235
:10E68000E16AE552E16EE552E7CFD9FF1200550E7F
:10E69000A76EAA0EA76E0E01FF91090ECC6F0A0E8F
:10E6A000D36F170EFB6F550EA76EAA0EA76EFF81D4
:10E6B0001200D9CFE6FFE1CFD9FFE652DF6AFE0EA6
:10E6C000DB50140804E0FE0EDB50340806E1140EA3
:10E6D000E66E60D8E552E00BDF6E8B9EA49EFE0EC8
:10E6E000DB50756EA4AEFED70000000000000000F5
:10E6F000000000000000000000000000000000001A
:10E700000000000000000000000000000000000009
:10E7100000000000000000000000000000000000F9
:10E7200000000000000000000000000000000000E9
:10E7300000000000000000000000000000000000D9
:10E7400000000000000000000000000000000000C9
:10E7500000000000000000000000000000000000B9
:10E760000000000000000000A49EFE0EDB500A081E
:10E7700005E1FD0EDB507F0B756E04D0FD0EDB5006
:10E78000DF10756EA4AEFED78B8EE552E552E7CF53
:10E79000D9FF1200D9CFE6FFE1CFD9FF8B9EA49E0F
:10E7A000FE0EDB508009756EA4AEFED7000000009F
:10E7B0000000000000000000000000000000000059
:10E7C0000000000000000000000000000000000049
:10E7D0000000000000000000000000000000000039
:10E7E0000000000000000000000000000000000029
:10E7F0000000000000000000000000000000000019
:10E800000000000000000000000000000000000008
:10E8100000000000000000000000000000000000F8
:10E82000000000000000000000000000A49E756AC7
:10E83000A4AEFED78B8E755000D0E552E7CFD9FF3E
:02E840001200C4
:0EE84200030EB16EB392B390B396B288B28E4D
:10E85000B290B292A494B38E12002F0E926E0F015A
:10E86000E00E486F1F0E496FC18EC19CC70EC114C8
:10E870000809C16EF80EC1140209C16E498FC29C0D
:10E88000C29EC30EC2140809C26EC2801200D9DF34
:10E890002DEF74F0D9CFE6FFE1CFD9FF020EE126CC
:10E8A000FE0EDB500F0BF36EF346F346C30EC2149D
:10E8B000F310C26EFE0EDB50EA6AAE0FE96E000E78
:10E8C000EA22EF503F0BF36EF346F346030EB1140A
:10E8D000F310B16EB38EB3820000000000000000A0
:10E8E0000000000000000000000000000000000028
:10E8F0000000000000000000000000000000000018
:10E90000B392B28000000000000000000000000090
:10E9100000000000000000000000000000000000F7
:10E92000000000000000000000000000B2909E9C6B
:10E93000C2829EACFED7C3CFDEFFC4CFDDFFDECFE9
:10E9400014F0DDCF15F014C0F3FF15C0F4FF00D0B4
:10E95000020EE15C02E2E16AE552E16EE552E7CFC8
:10E96000D9FF1200D9CFE6FFE1CFD9FF030EE12690
:10E97000020EDB6A040EF36E020EDBCFF4FFF350DF
:10E98000F45C21E22AD8EF6A30D80CE226D8EF50A6
:10E990001F0803E122D8EF6A13D01FD8EF2A25D829
:10E9A000F5E30ED02CD80CE218D8EF50E10803E1C3
:10E9B00014D8EF6A05D011D8EF062BD820D8F4E38D
:10E9C000020EDB2AD7D7030EE15C02E2E16AE552D0
:10E9D000E16EE552E7CFD9FF1200020EDB50EA6A82
:10E9E000AE0FE96E000EEA22120013D8DECF14F04B
:10E9F000DDCF15F0200E145C030E15581200D9CF90
:10EA0000E9FFDACFEAFF200ED880EE54030EED5472
:10EA10001200020EDBCFE6FF3DDFE552F3CFDEFF53
:06EA2000F4CFDDFF12003F
:0AEA2600426C61636B20627574742A
:10EA30006F6E20666F72206D656E7500436C6F633C
:10EA40006B206973206E6F74207365742100416EB2
:10EA5000616C6F672044657369676E00416C617219
:10EA60006D005365742044617465005365742054CF
:10EA7000696D650053657420414D2F504D00313252
:10EA8000482F32344820496E74657276616C0044B8
:10EA9000657369676E2076330044657369676E201D
:10EAA00076320044657369676E20763100416E618D
:10EAB0006C6F672044657369676E204D656E7500E5
:10EAC000416C61726D204D656E7500536574204414
:10EAD000617465204D656E75005365742054696DD1
:10EAE00065204D656E7500746F20313248210043FA
:10EAF0006C6F636B206973206E6F74207365742074
:10EB000000414D2F504D204D656E7500746F207281
:10EB1000657475726E2E0050726573732062757421
:10EB2000746F6E2000616E616C6F67206D6F64653D
:10EB30002100436C6F636B206973207365742074CC
:10EB40006F003234480031324800496E7465727685
:10EB5000616C204D656E75002A00416E616C6F67B7
:10EB6000004469676974616C00446973706C617911
:10EB7000204D6F646500253032643A253032643AA6
:10EB80002530326400253032642F25303264005045
:05EB90004D00414D00A5
:0BEB95004142444648494B4D4E4F5052
:10EBA000515252525352525251504F4E4D4B4A486D
:10EBB000464442413F3D3B39383634333231302FC1
:10EBC0002F2F2F2F2F2F30313233343637393B3D13
:10EBD0003F0D0D0D0D0E0F101112141517191B1DE1
:10EBE0001F2022242628292B2C2D2E2F3030303187
:10EBF0003030302F2E2D2C2B2928262422201F1D8B
:10EC00001B191716141211100F0E0D0D0D4144474C
:10EC10004A4E505356585A5C5E5F60606160605F58
:10EC20005E5C5A585653514E4A4744413D3A373339
:10EC3000312E2B2927252322212121212122232581
:10EC400027292B2E3033373A3DFF00000001030502
:10EC500007090C0E1115181B1F2225282C2F3134E3
:10EC600036383A3C3D3E3E3F3E3E3D3C3A383634F7
:10EC7000312F2C2825221F1B1815110F0C090705F1
:05EC800003010000008B
:0AEC86000001B2B122D0B2838B80EE
:10EC90009490550EA76EAA0EA76E0E01FF910E0E50
:10ECA000D16F550EA76EAA0EA76EFF810F0EBA6E1A
:10ECB000CF0EBA140009BA6EBB6A0F01526B800EF8
:10ECC000CB6E040ECA6EA496600E776E7F0E766EC3
:10ECD00012000001B291B2938B8094901200000157
:10ECE000B2A109D08B50010B04E19450010B01E15A
:10ECF000010CB291C8DF0001B2A3C5DFA4A63AD0CF
:10ED0000A496BA50300BE842E842E842E8420308D1
:10ED100019E1400EBB5C10E18B909490BA6ACA6A0C
:10ED20000E01D16B0F01526BCB68766A7768A4969F
:10ED30000001B281B293010CBB2ACF0EBA140009B4
:10ED4000BA6E000CBA0EE96E0F0EEA6EEF50300B81
:10ED5000E842E842E842E842E82AE850030BF36E52
:10ED6000F46EF346F346F346F346CF0EEF14F3107A
:06ED7000EF6EF450000CF0
:0AED7600D9CFE6FFDACFE6FFE1CFC8
:10ED8000D9FFE2CFDAFFE652E652E652E652D95018
:10ED9000F90F146EFF0EDA20156E020E14C0DBFFA1
:10EDA000030E15C0DBFF020EDBCFE6FF030EDBCF49
:10EDB000E6FFF90EDBCFE6FFFA0EDBCFE6FFFB0E38
:10EDC000DBCFE6FFD950FC0FE66EFF0EDA20E66ED1
:10EDD00073EC64F0146E070EE15C02E2E16AE55246
:10EDE000E16E1450F3CFDEFFF4CFDDFFFC0EDBCF7E
:10EDF000E9FFFD0EDBCFEAFFEF6ADECF14F0DDCFD7
:10EE000015F014C0F3FF15C0F4FF040EE15C02E23C
:10EE1000E16AE552E16EE552E5CFDAFFE7CFD9FFCF
:02EE20001200DE
:0EEE2200006A0EAE1AEF77F00D6C0E1EE86A55
:10EE30000E22001E09AE22EF77F0086C091EE86A68
:10EE40000922001E84EC78F009BE32EF77F000AEA4
:10EE5000000C086C091EE86A0922046C051EE86AA9
:10EE60000522000C00BE29EF77F00188FF0C09C0D5
:10EE700013F008C012F008500D02F4CF07F0F3CFE2
:10EE800006F009500E02F4CF09F0F3CF08F00D029E
:10EE9000F3500726F4500822E86A092212500E02A5
:10EEA000F3500726F4500822E86A09220EAE5DEFFF
:10EEB00077F01250085E1350095A13AE000C0D5033
:08EEC000085E0E50095A000C17
:08EEC8001E0EF66EA00EF76E9F
:10EED000000EF86E00010900F5509D6F0900F55015
:10EEE0009E6F03E19D6701D03DD00900F550986FFA
:10EEF0000900F550996F0900F5509A6F0900090053
:10EF0000F550E96E0900F550EA6E090009000900A4
:10EF1000F5509B6F0900F5509C6F09000900F6CF72
:10EF20009FF0F7CFA0F0F8CFA1F098C0F6FF99C0FE
:10EF3000F7FF9AC0F8FF00019B5302E19C5307E0E2
:10EF40000900F550EE6E9B07F8E29C07F9D79FC0C9
:10EF5000F6FFA0C0F7FFA1C0F8FF00019D07000E5B
:06EF60009E5BBFD712000A
:0AEF6600D9CFE6FFDACFE6FFE1CFD6
:10EF7000D9FFE2CFDAFFFB0EDBCF14F0FC0EDBCFC4
:10EF800015F00001800E15141AE1FB0EDBCFE9FF2E
:10EF9000FC0EDBCFEAFFEECFF3FFEDCFF4FFEE2A5E
:10EFA000000EEF22F3CFE9FFF4CFEAFFFD0EDBCF37
:10EFB000EFFFEF50156AF36E15C0F4FF10D0FB0E93
:10EFC000DB50FE0806E1FD0EDBCFE6FFCAEC78F071
:10EFD00005D0FD0EDBCFE6FF03EC50F0E552E55225
:0AEFE000E5CFDAFFE7CFD9FF1200FA
:06EFEA0006500B02F3CFFC
:10EFF00002F0F4CF03F00C02F3500326000EF420CD
:10F00000046E06500D02F3500426000EF420056E27
:10F0100006500E02F350052607500B02F35003264C
:10F02000F4500422000E052207500C02F35004266F
:10F03000F450052207500D02F350052608500B022C
:10F04000F3500426F450052208500C02F350052614
:0AF0500009500B02F35005261200D0
:06F05A00FE0EE3CFE9FF0A
:10F06000FF0EE3CFEAFFF36AF46AEE5203E0F34ADD
:10F07000F42AFBD71200FF0EE3CFF8FFE552FF0E94
:10F08000E3CFF7FFE552FF0EE3CFF6FFE552E66A66
:10F09000E66AE66A0900F55209E0FD0EE32A05E199
:10F0A000FE0EE32A02E1FF0EE32AF4D7FD0EE3CFC2
:10F0B00007F0FE0EE3CF08F0FF0EE3CF09F01200D9
:10F0C000056A046A036A026A200EE76ED890063663
:10F0D00007360836093602360336043605360B5035
:10F0E000025C0C5003580D5004580E50055809E3AB
:10F0F0000B50025E0C50035A0D50045A0E50055A24
:08F10000062AE72EE4D71200F5
:08F10800056A046A100EE76EAF
:10F11000D89008360936043605360D50045C0E507A
:10F12000055805E30D50045E0E50055A082AE72ED7
:04F13000F0D7120002
:0CF13400F36AF46AFF0EE124E96EFF0E9E
:10F14000E220EA6EED6607D02F0EEF6404D03A0E8F
:08F15000EF6001D0F32A120068
:08F15800C00EF36E00EE00F0A2
:10F160000E0E01D81200EA6002D0EE6AFCD7F3500E
:08F17000E9601200EE6AFCD711
:08F178001DEE00F02DEE00F089
:10F18000F86A019C64EC77F007EC50F013EC64F043
:04F19000FBD7120097
:0CF19400FF0EE350ADBA04D0B06AAC8EA0
:10F1A000AD8A949CADA2FED7AE6EF36EF46A1200E7
:10F1B00030313233343536373839616263646566ED
:01F1C000004E
:0FF1C10000000300030003002B003000020001D8
:10F1D000000000000000142D3F5A6E0100010000E5
:0EF1E000000101010012411F000000000000AC
:01FFF800AA5E
:01FFF900F710
:01FFFA001FE7
:01FFFB00FF06
:01FFFC0063A1
:01FFFD00F80B
:01FFFE008181
:01FFFF00F110
:00000001FF
