:020000040000FA
:060000007AEF5EF0120031
:0600080004EF50F01200AD
:060018000CEF50F0120095
:06A000007AEF5EF0120091
:02A00600120046
:06A008009FEF53F012006F
:02A00E0002004E
:07A010000000000000000049
:06A01800A8EF53F0120056
:02A01E0002003E
:10A020000EA000007500000009000000DDB900006E
:08A0300088000000010000009F
:08A03800D9CFE6FFE1CFD9FF0B
:10A04000E65295688D808D828A8A8D948D9000006D
:10A050000000000000000000000000008D800000F3
:10A060008D9000008350DF6E8D808D84E552E55227
:10A07000E7CFD9FF1200D9CFE6FFE1CFD9FF020E1B
:10A08000E126FD0EDBCFE9FFFE0EDBCFEAFFEF504E
:10A09000DE6EDD6AF90EDBCFE9FFFA0EDBCFEAFFF9
:10A0A000EF50E66EFD0EDBCFE9FFFE0EDBCFEAFFE1
:10A0B000E552E750EF6EF90EDBCFE9FFFA0EDBCF8A
:10A0C000EAFFDFCFEFFFFB0EDBCFE9FFFC0EDBCFBC
:10A0D000EAFFEF50DE6EDD6AF70EDBCFE9FFF80E28
:10A0E000DBCFEAFFEF50E66EFB0EDBCFE9FFFC0EA5
:10A0F000DBCFEAFFE552E750EF6EF70EDBCFE9FF6B
:10A10000F80EDBCFEAFFDFCFEFFF020EE15C02E2E9
:10A11000E16AE552E16EE552E7CFD9FF1200D9CFEF
:10A12000E6FFE1CFD9FFE652E00EE66EDDEC57F038
:10A13000E55282DFDF6EFE0EDB50DF1ADFCFE6FF77
:10A14000F1EC57F0E552EE0EE66EDDEC57F0E5521D
:10A15000E552E552E7CFD9FF1200D9CFE6FFE1CFB4
:10A16000D9FFFE0EDB50B00FE66EDDEC57F0E55286
:10A17000020E146EFD0EDBCFE7FF1450E726FD0E36
:10A18000E7CFDBFFDB500F0BE66EDDEC57F0E5525F
:10A19000FD0EDB380F0B0F0B100FE66EDDEC57F0EA
:10A1A000E552E552E7CFD9FF1200D9CFE6FFE1CF64
:10A1B000D9FF040EE126DF6AFD0EDB40E840E840EF
:10A1C0001F0BE76E020EE7CFDBFFFD0EDB50070B28
:10A1D000E76E030EE7CFDBFF010EDB6A030EDB50F9
:10A1E000070815E3FC0EDB5012E0010EF36E030EC0
:10A1F000DB5004E0D890F336E806FCE1F350DF12C0
:10A20000010EDB2AFC0EDB06030EDB2AE7D7FE0E6F
:10A21000DBCFE6FF020EDBCFE6FF9FDFE552E55224
:10A22000DFCFE6FF7CDFE552FB0EDBCF14F0000E44
:10A23000E76E1418E8AE02D0143403D0E750D8808B
:10A24000145419E2FE0EDB50156E166AD8901650A3
:10A2500004E6830E155C000E16580DE2FE0EDB2898
:10A26000E66E020EDBCFE6FF78DFE552E552DFCF88
:10A27000E6FF55DFE552FB0EDBCF14F0010EE76E73
:10A280001418E8AE02D0143403D0E750D880145428
:10A2900011E2FE0EDB5000080DE2FE0EDB04E66E5E
:10A2A000020EDBCFE6FF59DFE552E552DFCFE6FFD6
:10A2B00036DFE552010EDB50146E040EE15C03E262
:10A2C00000D0E16AE552E16E1450E552E7CFD9FFC4
:10A2D0001200D9CFE6FFE1CFD9FF020EE126010E31
:10A2E000DF6EFC0EDBCF14F0000EE76E1418E8AE44
:10A2F00002D0143403D0E750D880145407E2FD0E86
:10A30000DB50000803E2FD0EDB06DF2AFC0EDBCF8C
:10A3100014F0010EE76E1418E8AE02D0143403D026
:10A32000E750D880145408E2FD0EDB50DF24156E90
:10A330003F0E155C01E2DF2ADF501EE0E66ADFCF48
:10A34000E6FFFD0EDBCFE6FFFE0EDBCFE6FF2DDFE7
:10A35000E552E552E552E552E76E010EE7CFDBFF2D
:10A36000DB50DF5EFD0EDBCFE7FF010EDB50E726A3
:10A37000FD0EE7CFDBFFE0D7020EE15C02E2E16A0F
:10A38000E552E16EE552E7CFD9FF1200D9CFE6FFE3
:10A39000E1CFD9FF160EE126FD0EDBCF14F0FB0E48
:10A3A000DB50D88014541DE2D950FB0FE66EFF0E2F
:10A3B000DA20E66ED950FC0FE66EFF0EDA20E66E6C
:10A3C000D950FD0FE66EFF0EDA20E66ED950FE0F73
:10A3D000E66EFF0EDA20E66E4EDE146E080EE15ECB
:10A3E0001450FB0EDBCFE6FFFD0EDB50E552E75CC1
:10A3F000010FE76E060EE7CFDBFFFE0EDB50F36EBC
:10A40000FC0EDBCFF4FFF350F45C14E3FC0EDBCF67
:10A41000E6FFFE0EDB50E552E75C010FE76E050E2E
:10A42000E7CFDBFF010EF36E070EF3CFDBFF080E65
:10A43000DB6A10D0FE0EDBCFE6FFFC0EDB50E552F0
:10A44000E75C010FE76E050EE7CFDBFF070EDB6869
:10A45000080EDB68050EDB50F36E060EDBCFF4FF53
:10A46000F350F45C01E2CCD0060EDB50640D0D0E0F
:10A47000F3CFDBFF0E0EF4CFDBFF050EDB50146EC7
:10A48000156A0D0EDBCF08F00E0EDBCF09F014C0FD
:10A490000DF015C00EF067EC5DF00B0E08C0DBFF91
:10A4A0000C0E09C0DBFFFE0EDB50DF6EFD0EDB5035
:10A4B000E76E010EE7CFDBFF150EDB6AFC0EDB500B
:10A4C000146E156A14C008F015C009F0070EDBCF32
:10A4D0000DF0080EDBCF0EF08DEC5DF0090E06C01E
:10A4E000DBFF0A0E07C0DBFFDF50166E176A16C0CF
:10A4F00008F017C009F0070EDBCF0DF0080EDBCF18
:10A500000EF08DEC5DF006C014F007C015F0090EDA
:10A51000DBCF18F00A0EDBCF19F019501518E8AE92
:10A5200002D0153404D01450185C1550195867E344
:10A53000640E166E176A150EDB50E76E0B0EDBCF3E
:10A5400014F00C0EDBCF15F0E7501426000E152288
:10A55000130E14C0DBFF140E15C0DBFF14C008F08F
:10A5600015C009F016C00DF017C00EF067EC5DF0D5
:10A57000020E08C0DBFF130EDBCF14F0140EDBCF8E
:10A5800015F0640E0D6E0E6A14C008F015C009F0C7
:10A5900067EC5DF004C014F005C015F0150E14C092
:10A5A000DBFF020EDB5027E0FA0EDBCFE6FF020EE8
:10A5B000DBCFE6FF010EDBCFE6FFDFCFE6FFF5DD09
:10A5C000E552E552E552E552E76E040EE7CFDBFFB8
:10A5D000020EDBCFE7FF040EDB50E75E020EE7CF93
:10A5E000DBFF010EDBCFE7FF040EDB50E726010E99
:10A5F000E7CFDBFFD6D7070EDB50DF2675D785D038
:10A60000050EDB50640D110EF3CFDBFF120EF4CFFD
:10A61000DBFF060EDB50146E156A110EDBCF08F05F
:10A62000120EDBCF09F014C00DF015C00EF067EC70
:10A630005DF00F0E08C0DBFF100E09C0DBFFFE0E41
:10A64000DB50DF6EFD0EDB50E76E010EE7CFDBFF68
:10A65000150EDB6A010EDBCF14F0FB0EDB50D88049
:10A66000145453E3640E166E176A150EDB50E76E32
:10A670000F0EDBCF14F0100EDBCF15F0E7501426D1
:10A68000000E1522130E14C0DBFF140E15C0DBFFE5
:10A6900014C008F015C009F016C00DF017C00EF078
:10A6A00067EC5DF0030E08C0DBFF130EDBCF14F088
:10A6B000140EDBCF15F0640E0D6E0E6A14C008F098
:10A6C00015C009F067EC5DF004C014F005C015F08A
:10A6D000150E14C0DBFF030EDBCFF3FFDB06F350D8
:10A6E000000910E0FA0EDBCFE6FF010EDBCFE6FF3C
:10A6F000DFCFE6FFEEDDE552E552E552070EDB5017
:10A70000DF26E9D7010EDB2AA5D7150EDB5032086C
:10A710000CE2FA0EDBCFE6FF010EDBCFE6FFDFCF68
:10A72000E6FFD7DDE552E552E552160EE15C02E2A6
:0EA73000E16AE552E16EE552E7CFD9FF120073
:02A73E00DACF70
:10A74000E4FFE2CFDAFFE652E552E5CFDAFF11008F
:10A75000D8CFE4FFE0CFE4FFE46EDACFE4FFE2CF4E
:10A76000DAFFE652E552E5CFDAFFE550E5CFE0FF4C
:10A77000E5CFD8FF100035EC5BF0A0EC5BF0D5EC3A
:10A7800059F020EC57F0E66A05EC58F0E55212005B
:10A790001BEC5DF0000901E1FBD70F014869496935
:10A7A000BBEF53F081B01FD000017AC014F07BC022
:10A7B00015F07CC016F07DC017F07A2B000E7B23BD
:10A7C0007C237D23D880010E1454000E1554000EF6
:10A7D0001654000E175406E27A6B7B6B7C6B7D6B14
:10A7E000010E796F11D0000179050EE17A517B11CC
:10A7F0007C117D1104E1796B010E08D005D07A0738
:10A80000000E7B5B7C5B7D5B000E00D01200D9CF1D
:10A81000E6FFE1CFD9FF020EE126030EE66E38EC2B
:10A820005BF0E552F3CFDEFFF4CFDDFFDECF14F0B7
:10A83000DDCF15F0D890155004E6580E145C020ECA
:10A8400015581AE2DECF14F0DDCF15F0D890155070
:10A8500004E6BC0E145C020E15580AE2030EE66E06
:10A8600038EC5BF0E552F3CFDEFFF4CFDDFFEAD743
:10A87000010EF36EF46A03D0F36AF46A00D0020E9C
:10A88000E15C02E2E16AE552E16EE552E7CFD9FF11
:10A890001200D9CFE6FFE1CFD9FF020EE126E66A2A
:10A8A00038EC5BF0E552F3CFDEFFF4CFDDFFDECF17
:10A8B00014F0DDCF15F0D890155004E6580E145C56
:10A8C000020E155819E2DECF14F0DDCF15F0D89046
:10A8D000155004E6BC0E145C020E155809E2E66A37
:10A8E00038EC5BF0E552F3CFDEFFF4CFDDFFEBD7C2
:10A8F000010EF36EF46A03D0F36AF46A00D0020E1C
:10A90000E15C02E2E16AE552E16EE552E7CFD9FF90
:10A910001200D9CFE6FFE1CFD9FF040EE126020EE7
:10A92000DE6EDD6A130EC26ED9CFE9FFDACFEAFF21
:10A93000EE50ED1010E0C250E76E000EDFCF14F0C5
:10A94000010EDBCF15F0E7501416156A14C0DEFFB8
:10A9500015C0DDFFE9D7C450166E16C017F0166A91
:10A96000C35000011624146E000E1720156E020E3F
:10A9700014C0DBFF030E15C0DBFF020EDBCF14F0AB
:10A98000030EDBCF15F014C0F3FF15C0F4FF040E67
:10A99000E15C03E200D0E16AE552E16EE552E7CF07
:10A9A000D9FF1200D9CFE6FFE1CFD9FF020EE12691
:10A9B000010EE66E38EC5BF0E552F3CFDEFFF4CF2C
:10A9C000DDFFDECF14F0DDCF15F0D890155004E692
:10A9D000200E145C030E15581AE2DECF14F0DDCF02
:10A9E00015F0D890155004E6520E145C030E15585D
:10A9F0000AE2010EE66E38EC5BF0E552F3CFDEFFC3
:10AA0000F4CFDDFFEAD7010EF36EF46A03D0F36AE8
:10AA1000F46A00D0020EE15C02E2E16AE552E16E06
:10AA2000E552E7CFD9FF1200D9CFE6FFE1CFD9FF3A
:10AA3000020EE126E66E38EC5BF0E552F3CFDEFF66
:10AA4000F4CFDDFFDECF14F0DDCF15F0D890155038
:10AA500004E6200E145C030E15581AE2DECF14F043
:10AA6000DDCF15F0D890155004E6520E145C030E9D
:10AA700015580AE2020EE66E38EC5BF0E552F3CFB1
:10AA8000DEFFF4CFDDFFEAD7010EF36EF46A03D0E8
:10AA9000F36AF46A00D0020EE15C02E2E16AE55278
:10AAA000E16EE552E7CFD9FF120012000A0EE66E02
:10AAB000E66A9A0EE66EBC0EE66E07EC59F0E552B9
:10AAC000E552E552E55212000A0EE66EE66A8C0E79
:10AAD000E66EBC0EE66E07EC59F0E552E552E55223
:10AAE000E55212000A0EE66EE66A7E0EE66EBC0EB7
:10AAF000E66E07EC59F0E552E552E552E5521200D8
:10AB00000A0EE66EE66A700EE66EBC0EE66E07ECA6
:10AB100059F0E552E552E552E55212000A0EE66E92
:10AB2000E66A650EE66EBC0EE66E07EC59F0E5527D
:10AB3000E552E552E5521200D9CFE6FFE1CFD9FF49
:10AB4000020EE126E66A05EC58F0E552060E000119
:10AB5000751901E176511DE0050E751901E1765177
:10AB600016E0040E751901E176510FE0030E751918
:10AB700001E1765108E0020E751901E1765101E01C
:10AB80000AD094DF08D0A0DF06D0ACDF04D0B8DF55
:10AB900002D0C4DF00D03BDEF3CFDEFFF4CFDDFF19
:10ABA000D9CFE9FFDACFEAFF010EEE1801E1ED504F
:10ABB00008E1E66A05EC58F0E552020EE15C04E2B9
:10ABC00001D0C4D7E16AE552E16EE552E7CFD9FF83
:10ABD0001200D9CFE6FFE1CFD9FF060EE126060E1F
:10ABE000E66E020EE66E9A0EE66EBC0EE66E07ECA0
:10ABF00059F0E552E552E552E552060EE66E030EB7
:10AC0000E66E540EE66EBC0EE66E07EC59F0E552A9
:10AC1000E552E552E552060EE66E040EE66E4B0E68
:10AC2000E66EBC0EE66E07EC59F0E552E552E552D1
:10AC3000E552060EE66E050EE66E420EE66EBC0EA0
:10AC4000E66E07EC59F0E552E552E552E552060E84
:10AC5000E66EE66E3C0EE66EBC0EE66E07EC59F054
:10AC6000E552E552E552E552E66A75C0E6FF3A0E56
:10AC7000E66EBC0EE66E07EC59F0E552E552E55281
:10AC8000E552640EE66E75C0E6FF3A0EE66EBC0E47
:10AC9000E66E07EC59F0E552E552E552E552A0ECBC
:10ACA0005BF080DEF3CFDEFFF4CFDDFFD9CFE9FF2D
:10ACB000DACFEAFF010EEE1801E1ED5014E1E66A89
:10ACC00005EC58F0E55200017507000E765B020EA8
:10ACD00076AF02D0D89003D0755D000E765903E2AE
:10ACE000060E756F766BA0DE020EF3CFDBFF030E50
:10ACF000F4CFDBFFD950020FE96EDACFEAFF010E85
:10AD0000EE1801E1ED5012E1E66A05EC58F0E5526B
:10AD10000001752B000E7623763504E27551060886
:10AD2000000E765503E2020E756F766B3BDD00096F
:10AD300001E002DF6CDD040EF3CFDBFF050EF4CF84
:10AD4000DBFFD950040FE96EDACFEAFF010EEE18EF
:10AD500001E1ED500AE10001786BE66A05EC58F07C
:10AD6000E552060EE15C04E201D039D7E16AE55212
:10AD7000E16EE552E7CFD9FF12000ADD00017751FD
:10AD800002E093DE2ED078511CE10A0EE66E030E2F
:10AD9000E66E280EE66EBC0EE66E07EC59F0E55244
:10ADA000E552E552E552020EE66E050EE66E120E13
:10ADB000E66EBC0EE66E07EC59F0E552E552E55240
:10ADC000E552F0DC000909E00001785106E1010ECE
:10ADD000786FE66A05EC58F0E5520001780501E16C
:06ADE000F8DECCD71200E2
:0AADE600D9CFE6FFE1CFD9FF020E3E
:10ADF000E126FD0EDBCF14F0DB06FE0EDBCF15F0F7
:10AE000001E2DB061450151011E0DE6ADD6ADECFC8
:10AE100014F0DDCF15F0E30E145C0D0E155805E2AD
:10AE2000DF2A010E01E3DB2AF2D7E3D7020EE15C51
:10AE300002E2E16AE552E16EE552E7CFD9FF120086
:10AE4000D9CFE6FFE1CFD9FF060EE1268D9296928B
:10AE50008D9096908D8496948A9A939A8C92DE6ABD
:10AE6000DE6ADE6ADD6ADD52DD52D9CFE9FFDACF74
:10AE7000EAFF640EEE5C000EEE58000EEE58000E77
:10AE8000EE580AE2D9CFE9FFDACFEAFFEE2A000E48
:10AE9000EE22EE22EE22E9D78C82DE6ADE6ADE6ADC
:10AEA000DD6ADD52DD52D9CFE9FFDACFEAFF640E69
:10AEB000EE5C000EEE58000EEE58000EEE580AE260
:10AEC000D9CFE9FFDACFEAFFEE2A000EEE22EE221A
:10AED000EE22E9D7AE0EE66E70D8E552DB0EE66ED6
:10AEE0006CD8E552230EE66E68D8E552D90EE66EB0
:10AEF00064D8E552220EE66E60D8E552A10EE66EE9
:10AF00005CD8E552C80EE66E58D8E552DA0EE66E09
:10AF100054D8E552120EE66E50D8E552A80EE66EF1
:10AF20004CD8E5523F0EE66E48D8E552D50EE66E97
:10AF300044D8E552A00EE66E40D8E552810EE66E8A
:10AF40003CD8E552600EE66E38D8E552D30EE66E78
:10AF500034D8E552E66A31D8E552A60EE66E2DD811
:10AF6000E552AD0EE66E29D8E5528B0EE66E25D879
:10AF7000E552AF0EE66E21D8E5520A0EE66EE66A9D
:10AF800032DFE552E552A40EE66E17D8E552400EC8
:10AF9000E66E13D8E552020EE66E0FD8E552100E9B
:10AFA000E66E0BD8E552060EE15C02E2E16AE5527C
:10AFB000E16EE552E7CFD9FF1200D9CFE6FFE1CF2E
:10AFC000D9FF956AFE0EDB508C6E8D808D828A9A39
:10AFD0008D948D928D828D849568E552E7CFD9FF4F
:10AFE0001200D9CFE6FFE1CFD9FF956AFE0EDB5004
:10AFF0008C6E8D808D828A8A8D948D928D828D84C7
:10B000009568E552E7CFD9FF1200D9CFE6FFE1CF2F
:10B01000D9FF020EE126B00EDF6EB80EDF5C23E230
:10B02000DFCFE6FFCADFE552020EE66EC6DFE5526D
:10B03000100EE66EC2DFE552010EDB6ADB50146EC5
:10B04000156AD890155004E6840E145C000E15584D
:10B0500008E2FE0EDBCFE6FFC4DFE552010EDB2A7D
:10B06000EDD7DF2ADAD7020EE15C03E200D0E16A15
:10B07000E552E16EE552E7CFD9FF1200D9CFE6FFE6
:10B08000E1CFD9FF200E146EFE0EDBCFE7FF145088
:10B09000E75EFE0EE7CFDBFFDBCFF6FFF76AF6BE1B
:10B0A000F768050EF702F3CFF7FFF602F3CFF6FFCE
:10B0B000F450F726020EF626B80EF7220800F550D7
:10B0C000E66E8FDFE552FE0EDBCFF6FFF76AF6BEC7
:10B0D000F768050EF702F3CFF7FFF602F3CFF6FF9E
:10B0E000F450F726020EF626B80EF722010EF626C9
:10B0F000000EF7220800F550E66E73DFE552FE0EF3
:10B10000DBCFF6FFF76AF6BEF768050EF702F3CF5E
:10B11000F7FFF602F3CFF6FFF450F726020EF626FD
:10B12000B80EF722020EF626000EF7220800F550A0
:10B13000E66E57DFE552FE0EDBCFF6FFF76AF6BE8E
:10B14000F768050EF702F3CFF7FFF602F3CFF6FF2D
:10B15000F450F726020EF626B80EF722030EF62656
:10B16000000EF7220800F550E66E3BDFE552FE0EBA
:10B17000DBCFF6FFF76AF6BEF768050EF702F3CFEE
:10B18000F7FFF602F3CFF6FFF450F726020EF6268D
:10B19000B80EF722040EF626000EF7220800F5502E
:10B1A000E66E1FDFE552E66A1CDFE55200D0E5528D
:10B1B000E7CFD9FF1200D9CFE6FFE1CFD9FFE652A2
:10B1C000FD0EDBCFE6FFF9DEE552020E146EFC0E3B
:10B1D000DBCFE7FF1450E726FC0EE7CFDBFFDB50A9
:10B1E0000F0BE66EEADEE552FC0EDB380F0B0F0BA1
:10B1F000100FE66EE2DEE552FE0EDBCFE6FF3EDF2D
:10B20000E55200D0E552E552E7CFD9FF1200D9CF81
:10B21000E6FFE1CFD9FFFC0EDB50B00FE76EFC0E6E
:10B22000E7CFDBFFFB0EDBCFE6FFFC0EDBCFE6FF5D
:10B23000FD0EDBCFF6FFFE0EDBCFF7FF0800F5506B
:10B24000E66EB9DFE552E552E552FD0EDB2ADBCFB3
:10B25000F6FFFE0E01E3DB2ADBCFF7FF0800F55017
:10B260000CE0FD0EDBCFF6FFFE0EDBCFF7FF080094
:10B27000F550E66E03DFE552E8D7E552E7CFD9FF98
:10B280001200D9CFE6FFE1CFD9FFFC0EDB50B00FA3
:10B29000E76EFC0EE7CFDBFFFB0EDBCFE6FFFC0E1D
:10B2A000DBCFE6FFFD0EDBCFE9FFFE0EDBCFEAFFD3
:10B2B000EF50E66E80DFE552E552E552FD0EDB2AE7
:10B2C000DBCFE9FFFE0E01E3DB2ADBCFEAFFEF5025
:10B2D0000BE0FD0EDBCFE9FFFE0EDBCFEAFFEF5008
:10B2E000E66ECCDEE552EAD7E552E7CFD9FF120091
:10B2F000D9CFE6FFE1CFD9FF050EE126030EDB6AC9
:10B30000040EDB6A020E146EFA0EDBCFE7FF145058
:10B31000E726FA0EE7CFDBFFF90EDB50B00FDF6E4A
:10B32000FB0EDB50B00FDF5C35E2DFCFE6FF45DE22
:10B33000E552FA0EDB500F0BE66E3FDEE552FA0ED9
:10B34000DB380F0B0F0B1009E66E37DEE552010EEE
:10B35000DB6AFC0EDB50F36E010EDBCFF4FFF35023
:10B36000F45C16E2030EDB2A040E01E3DB2AFD0E79
:10B37000DBCFF6FFDB2AFE0EDBCFF7FF01E3DB2A94
:10B380000800F550E66E2DDEE552010EDB2AE1D70E
:10B39000DF2AC6D7050EE15C03E200D0E16AE55280
:0AB3A000E16EE552E7CFD9FF12007D
:06B3AA00D9CFE6FFE1CF60
:10B3B000D9FF030EE12659D8736A820E726E739C10
:10B3C00094949396958C7288728A949EE66AD0D8EB
:10B3D000E552E76E020EE7CFDBFF0000D950020F07
:10B3E000E96EDACFEAFFEF50070B020801E0000038
:10B3F000140EE66EBDD8E552E76E020EE7CFDBFF16
:10B40000020EDB96DB88020EDB80DB92DB94020E01
:10B41000DBCFE6FF140EE66E3AD8E552E552010E98
:10B42000E66EA6D8E552DE6EDD6A0000110EE66E0D
:10B430009FD8E552DE6EDD6A0000E66A110EE66E08
:10B4400026D8E552E5520000110EE66E91D8E5527D
:10B45000DE6EDD6A0000030EE15C02E2E16AE552A5
:10B46000E16EE552E7CFD9FF1200550EA76EAA0E86
:10B47000A76E0E01FF91090ECC6F0A0ED36F170E47
:10B48000FB6F550EA76EAA0EA76EFF811200D9CFD3
:10B49000E6FFE1CFD9FFE652DF6AFE0EDB5014086B
:10B4A00004E0FE0EDB50340806E1140EE66E60D8B0
:10B4B000E552E00BDF6E8B9EA49EFE0EDB50756E98
:10B4C000A4AEFED700000000000000000000000055
:10B4D000000000000000000000000000000000006C
:10B4E000000000000000000000000000000000005C
:10B4F000000000000000000000000000000000004C
:10B50000000000000000000000000000000000003B
:10B51000000000000000000000000000000000002B
:10B52000000000000000000000000000000000001B
:10B53000000000000000000000000000000000000B
:10B5400000000000A49EFE0EDB500A0805E1FD0E7F
:10B55000DB507F0B756E04D0FD0EDB50DF10756E77
:10B56000A4AEFED78B8EE552E552E7CFD9FF12008D
:10B57000D9CFE6FFE1CFD9FF8B9EA49EFE0EDB5014
:10B580008009756EA4AEFED7000000000000000028
:10B5900000000000000000000000000000000000AB
:10B5A000000000000000000000000000000000009B
:10B5B000000000000000000000000000000000008B
:10B5C000000000000000000000000000000000007B
:10B5D000000000000000000000000000000000006B
:10B5E000000000000000000000000000000000005B
:10B5F000000000000000000000000000000000004B
:10B600000000000000000000A49E756AA4AEFED7F2
:0EB610008B8E755000D0E552E7CFD9FF1200A7
:02B61E00030E19
:10B62000B16EB392B390B396B288B28EB290B2922A
:10B63000A494B38E12002F0E926E0F01E00E486F8D
:10B640001F0E496FC18EC19CC70EC1140809C16E7F
:10B65000F80EC1140209C16E498FC29CC29EC30E6E
:10B66000C2140809C26EC2801200D9DF1BEF5BF062
:10B67000D9CFE6FFE1CFD9FF020EE126FE0EDB5067
:10B680000F0BF36EF346F346C30EC214F310C26EF3
:10B69000FE0EDB50EA6A840FE96E000EEA22EF50DC
:10B6A0003F0BF36EF346F346030EB114F310B16E85
:10B6B000B38EB38200000000000000000000000014
:10B6C000000000000000000000000000000000007A
:10B6D000000000000000000000000000B392B280F3
:10B6E000000000000000000000000000000000005A
:10B6F000000000000000000000000000000000004A
:10B700000000000000000000B2909E9CC2829EAC2F
:10B71000FED7C3CFDEFFC4CFDDFFDECF14F0DDCF19
:10B7200015F014C0F3FF15C0F4FF00D0020EE15C69
:10B7300002E2E16AE552E16EE552E7CFD9FF12007D
:10B74000D9CFE6FFE1CFD9FF030EE126020EDB6A77
:10B75000040EF36E020EDBCFF4FFF350F45C21E233
:10B760002AD8EF6A30D80CE226D8EF501F0803E140
:10B7700022D8EF6A13D01FD8EF2A25D8F5E30ED0D0
:10B780002CD80CE218D8EF50E10803E114D8EF6A86
:10B7900005D011D8EF062BD820D8F4E3020EDB2A0F
:10B7A000D7D7030EE15C02E2E16AE552E16EE552B1
:10B7B000E7CFD9FF1200020EDB50EA6A840FE96E70
:10B7C000000EEA22120013D8DECF14F0DDCF15F000
:10B7D000200E145C030E15581200D9CFE9FFDACF02
:10B7E000EAFF200ED880EE54030EED541200020E34
:10B7F000DBCFE6FF3DDFE552F3CFDEFFF4CFDDFF29
:02B80000120034
:0EB80200000000000000004F000000070007DB
:10B8100000147F147F14242A7F2A122313086462E1
:10B8200036495522500005030000001C224100004B
:10B8300041221C0014083E081408083E0808005065
:10B8400030000008080808080060600000201008A8
:10B8500004023E5149453E00427F40004261514949
:10B86000462141454B311814127F10274545453973
:10B870003C4A4949300171090503364949493606B0
:10B880004949291E003636000000563600000814CB
:10B89000224100141414141400412214080201510E
:10B8A0000906324979413E7E1111117E7F4949498D
:10B8B000363E414141227F4141221C7F4949494155
:10B8C0007F090909013E4149497A7F0808087F003C
:10B8D000417F41002040413F017F081422417F40C9
:10B8E0004040407F020C027F7F0408107F3E4141B0
:10B8F000413E7F090909063E4151215E7F09192910
:10B9000046464949493101017F01013F4040403FDE
:10B910001F2040201F3F4038403F63140814630736
:10B92000087008076151494543007F414100020406
:10B930000810200041417F00040201020440404001
:10B940004040000102040020545454787F4844448D
:10B95000383844444420384444487F3854545418B8
:10B96000087E0901020C5252523E7F0804047800FE
:10B97000447D40002040443D007F102844000041A9
:10B980007F40007C041804787C0804047838444420
:10B9900044387C14141408081414187C7C0804041B
:10B9A000084854545420043F4440203C4040207CEC
:10B9B0001C2040201C3C4030403C44281028440CB3
:10B9C0005050503C4464544C440008364100000040
:0DB9D0007F00000041360800020102040261
:01B9DD000069
:02B9DE00000166
:10B9E00088B122D088838B809490550EA76EAA0EC2
:10B9F000A76E0E01FF910E0ED16F550EA76EAA0E07
:10BA0000A76EFF810F0EBA6ECF0EBA140009BA6E80
:10BA1000BB6A0F01526B800ECB6E040ECA6EA496E9
:10BA2000600E776E7F0E766E12000001889188930B
:10BA30008B8094901200000188A109D08B50010BDB
:10BA400004E19450010B01E1010C8891C8DF000171
:10BA500088A3C5DFA4A63AD0A496BA50300BE8421A
:10BA6000E842E842E842030819E1400EBB5C10E1FD
:10BA70008B909490BA6ACA6A0E01D16B0F01526B17
:10BA8000CB68766A7768A496000188818893010C58
:10BA9000BB2ACF0EBA140009BA6E000CBA0EE96EBA
:10BAA0000F0EEA6EEF50300BE842E842E842E842FF
:10BAB000E82AE850030BF36EF46EF346F346F346C0
:0EBAC000F346CF0EEF14F310EF6EF450000CAF
:02BACE00006A0C
:10BAD0000EAE70EF5DF00D6C0E1EE86A0E22001EB9
:10BAE00009AE78EF5DF0086C091EE86A0922001EB5
:10BAF00054EC5EF009BE88EF5DF000AE000C086CFF
:10BB0000091EE86A0922046C051EE86A0522000C79
:10BB100000BE7FEF5DF00188FF0C09C013F008C084
:10BB200012F008500D02F4CF07F0F3CF06F00950E1
:10BB30000E02F4CF09F0F3CF08F00D02F350072600
:10BB4000F4500822E86A092212500E02F350072628
:10BB5000F4500822E86A09220EAEB3EF5DF01250ED
:10BB6000085E1350095A13AE000C0D50085E0E50BB
:04BB7000095A000C62
:0CBB74001E0EF66EA00EF76E000EF86EAE
:10BB800000010900F550706F0900F550716F03E175
:10BB9000706701D03DD00900F5506B6F0900F5507A
:10BBA0006C6F0900F5506D6F09000900F550E96EE2
:10BBB0000900F550EA6E090009000900F5506E6FA2
:10BBC0000900F5506F6F09000900F6CF72F0F7CF4A
:10BBD00073F0F8CF74F06BC0F6FF6CC0F7FF6DC068
:10BBE000F8FF00016E5302E16F5307E00900F550C2
:10BBF000EE6E6E07F8E26F07F9D772C0F6FF73C0FA
:10BC0000F7FF74C0F8FF00017007000E715BBFD72B
:02BC1000120020
:0EBC1200426C61636B20627574746F6E206605
:10BC20006F72206D656E7500436C6F636B20697376
:10BC3000206E6F742073657421002A00416C61725C
:10BC40006D0053657420446174650053657420541D
:10BC5000696D65003132482F32344820496E746571
:10BC60007276616C00416C61726D204D656E75007D
:10BC70005365742044617465204D656E750053658D
:10BC8000742054696D65204D656E7500496E74654C
:10BC90007276616C204D656E7500446973706C61DD
:07BCA00079204D6F6465007F
:08BCA800056A046A100EE76E44
:10BCB000D89008360936043605360D50045C0E500F
:10BCC000055805E30D50045E0E50055A082AE72E6C
:04BCD000F0D7120097
:0CBCD400C00EF36E00EE00F00E0E01D862
:10BCE0001200EA6002D0EE6AFCD7F350E96012005D
:04BCF000EE6AFCD725
:0CBCF4001DEE00F02DEE00F0F86A019C3F
:10BD0000BAEC5DF003EC50F0BDEC56F0FBD712003E
:01FFF800AA5E
:01FFF900F710
:01FFFA001FE7
:01FFFB00FF06
:01FFFC0063A1
:01FFFD00F80B
:01FFFE008181
:01FFFF00F110
:00000001FF
