:020000040000FA
:06000000FFEF7CF012008E
:0600080004EF50F01200AD
:060018000CEF50F0120095
:06A00000FFEF7CF01200EE
:02A00600120046
:06A008001CEF50F01200F5
:02A00E0012003E
:06A0180079EF50F0120088
:02A01E0002003E
:10A0200047FA00006000000039000000E5ED000084
:08A03000C20000000100000065
:08A03800DACFE4FFE2CFDAFF0A
:10A04000E9CFE4FFEACFE4FFF6CFE4FFF7CFE4FF88
:10A05000F5CFE4FFF3CFE4FFF4CFE4FFFACFE4FF62
:10A0600000EE00F0140EE80403E3EECFE4FFFBD7AC
:10A0700000EE14F0070EE80403E3EECFE4FFFBD795
:10A08000E652F2A412D0480ED76EE30ED66EB2D9C5
:10A0900000018C5101E18F6B780506E182D8000147
:10A0A0007451751101E192D8F294E55200EE1AF064
:10A0B000070EE80403E3E5CFEDFFFBD700EE13F056
:10A0C000140EE80403E3E5CFEDFFFBD7E5CFFAFF7D
:10A0D000E5CFF4FFE5CFF3FFE5CFF5FFE5CFF7FFE1
:10A0E000E5CFF6FFE5CFEAFFE5CFE9FFE5CFDAFF01
:10A0F0001100D8CFE4FFE0CFE4FFE46EDACFE4FF55
:10A10000E652E552E5CFDAFFE550E5CFE0FFE5CFD7
:10A11000D8FF100053EC78F0BEEC78F0F3EC76F05A
:10A12000A6EC6EF0E66A8BEC6FF0E5521200B2EC32
:10A130007AF00009FCE00F01486949698AEF50F0A4
:10A1400081B01FD0000195C014F096C015F097C0E3
:10A1500016F098C017F0952B000E9623972398239E
:10A16000D880010E1454000E1554000E1654000E23
:10A17000175416E2956B966B976B986B010E946F64
:10A18000000C000194050CE195519611971198115E
:10A1900002E1946B010C9507000E965B975B985B50
:10A1A000000C0001795102E0A60E01D0A70EE66E68
:10A1B00063EC6FF0E5520001795102E0000E01D02E
:10A1C000010E796F7407000E755B12000001766B4B
:10A1D000776B786B050E726F736B140E746F756B03
:10A1E000E66A8BEC6FF0E552A60EE66E63EC6FF05C
:10A1F000E552120000018D0501E0EBD0010E0001D7
:10A20000A9AF02D0D89003D0A85D000EA9591FE3D2
:10A21000A93504E2A8510B08000EA95518E3000166
:10A220008E0515E10001A851A41901E0E2D0A95161
:10A23000A51901E0CDD0AA51A61901E0DAD0AB51A1
:10A24000A71901E0C5D00001010E786F12000001CE
:10A250008E050AE100010C0EA81906E1A95104E1DE
:10A26000A451A51101E1ABD000018E510CE1000118
:10A270000C0EA81908E1A95106E10C0EA41901E180
:10A28000A55101E19CD000018E510CE10001010EAD
:10A29000A81908E1A95106E10D0EA41901E1A55183
:10A2A00001E18DD000018E510CE10001020EA819D0
:10A2B00008E1A95106E10E0EA41901E1A55101E141
:10A2C0007ED000018E510BE10001030EA81907E1B9
:10A2D000A95105E10F0EA41901E1A55170E000019B
:10A2E0008E510BE10001040EA81907E1A95105E107
:10A2F000100EA41901E1A55162E000018E510BE19D
:10A300000001050EA81907E1A95105E1110EA419D4
:10A3100001E1A55154E000018E510BE10001060E50
:10A32000A81907E1A95105E1120EA41901E1A551EF
:10A3300046E000018E510BE10001070EA81907E16C
:10A34000A95105E1130EA41901E1A55138E000015E
:10A350008E510BE10001080EA81907E1A95105E192
:10A36000140EA41901E1A5512AE000018E510BE160
:10A370000001090EA81907E1A95105E1150EA4195C
:10A3800001E1A5511CE000018E510BE100010A0E14
:10A39000A81907E1A95105E1160EA41901E1A5517B
:10A3A0000EE000018E5125E100010B0EA81910E10D
:10A3B000A9511FE1170EA4190BE1A5511AE1AA51E9
:10A3C000A61906E1AB51A71914E10001010E786F3F
:10A3D00012000001A851A4190CE1A951A51909E125
:10A3E000AA51A61906E1AB51A71903E10001010E1C
:10A3F000786F12000001AC2B000EAD23AD3508E2E2
:10A40000AC513B08000EAD5503E2AC6BAD6B01D80F
:10A4100012000001AA2B000EAB230001770501E119
:10A42000E9DE0001AB3508E2AA513B08000EAB554E
:10A4300003E2AA6BAB6B01D812000001A82B000E3F
:10A44000A9233FEC5FF000018D512DE00001A935FB
:10A4500007E2A8510C08000EA95502E2010E0DD02A
:10A46000A9350EE2A8510B08000EA95509E200011A
:10A470008E0506E18E6B0C0E0001A86FA96B120011
:10A480000001A9350FE2A8510B08000EA95516E2EC
:10A4900000018E5113E1010E8E6F0C0E0001A86FAA
:10A4A000A96B0DD812000001A93508E2A8511708C0
:10A4B000000EA95503E2A86BA96B01D81200000198
:10A4C000882B000E8923010E861901E187511EE0B9
:10A4D000030E861901E1875119E0050E861901E185
:10A4E000875114E0070E861901E187510FE0080E2D
:10A4F000861901E187510AE00A0E861901E18751A8
:10A5000005E00C0E86190EE187510CE1893509E250
:10A5100088511F08000E895530E2010E886F896B43
:10A520002DD81200040E861901E187510FE0060EA6
:10A53000861901E187510AE0090E861901E1875168
:10A5400005E00B0E86190EE187510CE1893509E211
:10A5500088511E08000E895510E2010E886F896B24
:10A560000DD81200893509E288511C08000E895562
:10A5700004E2010E886F896B01D812000001862B5E
:10A58000000E8723873508E286510C08000E875598
:10A5900003E2010E866F876B1200D9CFE6FFE1CF91
:10A5A000D9FF020EE126030EE66E56EC78F0E55276
:10A5B000F3CFDEFFF4CFDDFFDECF14F0DDCF15F0FB
:10A5C000D890155004E6BC0E145C020E155819E222
:10A5D000DECF14F0DDCF15F0D890155004E6EE0E66
:10A5E000145C020E15580AE2030EE66E56EC78F083
:10A5F000E552F3CFDEFFF4CFDDFFEAD7010EF36EB5
:10A6000001D0F36AF46A020EE15C02E2E16AE5520B
:10A61000E16EE552E7CFD9FF1200D9CFE6FFE1CFD7
:10A62000D9FF020EE126E66A56EC78F0E552F3CF48
:10A63000DEFFF4CFDDFFDECF14F0DDCF15F0D890D4
:10A64000155004E6BC0E145C020E155818E2DECF5D
:10A6500014F0DDCF15F0D890155004E6EE0E145C22
:10A66000020E155809E2E66A56EC78F0E552F3CF8F
:10A67000DEFFF4CFDDFFEBD7010EF36E01D0F36AFE
:10A68000F46A020EE15C02E2E16AE552E16EE55233
:10A69000E7CFD9FF1200D9CFE6FFE1CFD9FF040EF3
:10A6A000E126020EDE6EDD6A130EC26ED9CFE9FF1F
:10A6B000DACFEAFFEE50ED100EE0C250E76E000E6A
:10A6C000DFCF14F0010EE7501416156A14C0DEFF38
:10A6D00015C0DDFFEBD7C450176E166AC3501624A1
:10A6E000146E000E1720156E020E14C0DBFF030E51
:10A6F00015C0DBFF020EDBCF14F0030EDBCF15F02D
:10A7000014C0F3FF15C0F4FF040EE15C02E2E16A3D
:10A71000E552E16EE552E7CFD9FF1200D9CFE6FF4F
:10A72000E1CFD9FF020EE126010EE66E56EC78F07D
:10A73000E552F3CFDEFFF4CFDDFFDECF14F0DDCF47
:10A7400015F0D890155004E6200E145C030E155831
:10A7500019E2DECF14F0DDCF15F0D890155004E6E5
:10A76000520E145C030E15580AE2010EE66E56EC0A
:10A7700078F0E552F3CFDEFFF4CFDDFFEAD7010E2C
:10A78000F36E01D0F36AF46A020EE15C02E2E16A60
:10A79000E552E16EE552E7CFD9FF1200D9CFE6FFCF
:10A7A000E1CFD9FF020EE126E66E56EC78F0E552D5
:10A7B000F3CFDEFFF4CFDDFFDECF14F0DDCF15F0F9
:10A7C000D890155004E6200E145C030E155819E2BB
:10A7D000DECF14F0DDCF15F0D890155004E6520E00
:10A7E000145C030E15580AE2020EE66E56EC78F081
:10A7F000E552F3CFDEFFF4CFDDFFEAD7010EF36EB3
:10A8000001D0F36AF46A020EE15C02E2E16AE55209
:10A81000E16EE552E7CFD9FF1200D9CFE6FFE1CFD5
:10A82000D9FF040EE126D950FD0FE96EFF0EDA20A4
:10A83000EA6EEE50ED1015E10A0E146E156AA8C00E
:10A8400008F0A9C009F00D6E15C00EF054EC7BF0B5
:10A8500008C0DEFF09C0DDFFA8C014F0A9C015F0D4
:10A8600034D0D950FD0FE96EFF0EDA20EA6E010EEA
:10A87000EE1817E1ED5015E10A0E146E156AAAC024
:10A8800008F0ABC009F00D6E15C00EF054EC7BF073
:10A8900008C0DEFF09C0DDFFAAC014F0ABC015F090
:10A8A00014D00A0E146E156AACC008F0ADC009F0E1
:10A8B0000D6E15C00EF054EC7BF008C0DEFF09C031
:10A8C000DDFFACC014F0ADC015F00A0E0D6E0E6ABF
:10A8D00014C008F015C009F054EC7BF004C014F06B
:10A8E00005C015F0020E04C0DBFF030E05C0DBFF40
:10A8F000000EDFCF08F0010EDBCF09F0050E0818BF
:10A9000001E109506DE0040E081801E1095057E01B
:10A91000030E081801E1095041E0020E081801E198
:10A9200009502BE0010E081801E1095015E008500C
:10A930006CE109506AE1FD0EDBCFE9FFFE0EDBCFD3
:10A94000EAFFD890E936EA36800EE926000EEA22C0
:10A95000EF50E66E200E54D0FD0EDBCFE9FFFE0E69
:10A96000DBCFEAFFD890E936EA36800EE926000E02
:10A97000EA22EF50E66E240E43D0FD0EDBCFE9FF56
:10A98000FE0EDBCFEAFFD890E936EA36800EE926E4
:10A99000000EEA22EF50E66E280E32D0FD0EDBCF1D
:10A9A000E9FFFE0EDBCFEAFFD890E936EA36800EEB
:10A9B000E926000EEA22EF50E66E2C0E21D0FD0EA5
:10A9C000DBCFE9FFFE0EDBCFEAFFD890E936EA36AF
:10A9D000800EE926000EEA22EF50E66E300E10D00F
:10A9E000FD0EDBCFE9FFFE0EDBCFEAFFD890E936A4
:10A9F000EA36800EE926000EEA22EF50E66E340EAB
:10AA0000E66E55EC71F0E552E552020EDBCF08F030
:10AA1000030EDBCF09F0090E081801E1095001E12E
:10AA2000EFD0080E081801E1095001E1D4D0070E5B
:10AA3000081801E1095001E1B9D0060E081801E13A
:10AA4000095001E19ED0050E081801E1095001E10D
:10AA500083D0040E081801E1095069E0030E0818BC
:10AA600001E109504FE0020E081801E1095035E0FC
:10AA7000010E081801E109501BE0085001E0D9D08F
:10AA8000095001E0D6D0FD0EDBCFE9FFFE0EDBCF93
:10AA9000EAFFD890E936EA36800EE926000EEA226F
:10AAA000010EE926000EEA22EF50E66E200EBCD021
:10AAB000FD0EDBCFE9FFFE0EDBCFEAFFD890E936D3
:10AAC000EA36800EE926000EEA22010EE926000E83
:10AAD000EA22EF50E66E240EA7D0FD0EDBCFE9FF91
:10AAE000FE0EDBCFEAFFD890E936EA36800EE92683
:10AAF000000EEA22010EE926000EEA22EF50E66E71
:10AB0000280E92D0FD0EDBCFE9FFFE0EDBCFEAFF71
:10AB1000D890E936EA36800EE926000EEA22010EC8
:10AB2000E926000EEA22EF50E66E2C0E7DD0FD0ED7
:10AB3000DBCFE9FFFE0EDBCFEAFFD890E936EA363D
:10AB4000800EE926000EEA22010EE926000EEA2216
:10AB5000EF50E66E300E68D0FD0EDBCFE9FFFE0E43
:10AB6000DBCFEAFFD890E936EA36800EE926000E00
:10AB7000EA22010EE926000EEA22EF50E66E340EBC
:10AB800053D0FD0EDBCFE9FFFE0EDBCFEAFFD890FE
:10AB9000E936EA36800EE926000EEA22010EE926A1
:10ABA000000EEA22EF50E66E380E3ED0FD0EDBCFEF
:10ABB000E9FFFE0EDBCFEAFFD890E936EA36800ED9
:10ABC000E926000EEA22010EE926000EEA22EF50E5
:10ABD000E66E3C0E29D0FD0EDBCFE9FFFE0EDBCF8B
:10ABE000EAFFD890E936EA36800EE926000EEA221E
:10ABF000010EE926000EEA22EF50E66E400E14D058
:10AC0000FD0EDBCFE9FFFE0EDBCFEAFFD890E93681
:10AC1000EA36800EE926000EEA22010EE926000E31
:10AC2000EA22EF50E66E440EE66E55EC71F0E55206
:10AC3000E552040EE15C02E2E16AE552E16EE552A2
:10AC4000E7CFD9FF1200000EE66EE66AE6DDE552B8
:10AC5000E552010EE66EE66AE0DDE552E552020ECF
:10AC6000E66EE66ADADDE552E55200018D511FE03D
:10AC70008E510FE06E0EE66E070EE66E180EE66E53
:10AC8000F40EE66E8AEC70F0E552E552E552E552BC
:10AC900012006E0EE66E070EE66E150EE66EF40EF0
:10ACA000E66E8AEC70F0E552E552E552E55212008C
:10ACB000D9CFE6FFE1CFD9FF0A0EE12686C0E6FF35
:10ACC00087C0E6FF88C0E6FF89C0E6FF0B0E146E62
:10ACD000F40E156E166A14C0E6FFE66E16C0E6FFA7
:10ACE000D9CFE6FFDACFE6FFFEEC7AF0176E090E59
:10ACF000E15E1750020EE66E070EE66ED9CFE6FF54
:10AD0000DACFE6FFC3EC70F0E552E552E552E552CA
:10AD10000A0EE15C02E2E16AE552E16EE552E7CF3C
:10AD2000D9FF1200D9CFE6FFE1CFD9FFE150FD0FE7
:10AD3000E96EFF0EDA20EA6E020EEE1801E1ED5028
:10AD40000BE0D950FD0FE96EFF0EDA20EA6E060E19
:10AD5000EE1874E1ED5072E1020EE66ECF0EF66E63
:10AD6000F40EF76E0800F5500A0FE66E930EF66EBD
:10AD7000F40EF76E0800F550E66ECF0EF66EF40E88
:10AD8000F76E0800F550E66E930EF66EF40EF76E51
:10AD90000800F550E66EB1EC73F0146E050EE15E3E
:10ADA0001450020EE66EDE0EF66EF40EF76E08001C
:10ADB000F550E66EA20EF66EF40EF76E0800F55032
:10ADC000F60FE66EDE0EF66EF40EF76E0800F55026
:10ADD000E66EA20EF66EF40EF76E0800F550E66E03
:10ADE000B1EC73F0146E050EE15E1450020EE66EC7
:10ADF000ED0EF66EF40EF76E0800F550F60FE66EE7
:10AE0000B10EF66EF40EF76E0800F550E66EED0E1C
:10AE1000F66EF40EF76E0800F550E66EB10EF66EA3
:10AE2000F40EF76E0800F550E66EB1EC73F0146E98
:10AE3000050EE15E1450020EE66E6DD0E66ACF0E8E
:10AE4000F66EF40EF76E0800F5500A0FE66E930EDC
:10AE5000F66EF40EF76E0800F550E66ECF0EF66E45
:10AE6000F40EF76E0800F550E66E930EF66EF40ED3
:10AE7000F76E0800F550E66EB1EC73F0146E050E37
:10AE8000E15E1450E66ADE0EF66EF40EF76E080010
:10AE9000F550E66EA20EF66EF40EF76E0800F55051
:10AEA000F60FE66EDE0EF66EF40EF76E0800F55045
:10AEB000E66EA20EF66EF40EF76E0800F550E66E22
:10AEC000B1EC73F0146E050EE15E1450E66AED0EFF
:10AED000F66EF40EF76E0800F550F60FE66EB10E42
:10AEE000F66EF40EF76E0800F550E66EED0EF66E97
:10AEF000F40EF76E0800F550E66EB10EF66EF40E25
:10AF0000F76E0800F550E66EB1EC73F0146E050EA6
:10AF1000E15E1450E66AFC0EF66EF40EF76E080061
:10AF2000F550E66EC00EF66EF40EF76E0800F550A2
:10AF30000A0FE66EFC0EF66EF40EF76E0800F55082
:10AF4000E66EC00EF66EF40EF76E0800F550E66E73
:10AF5000B1EC73F0146E050EE15E1450D950FD0F84
:10AF6000E96EFF0EDA20EA6E020EEE1801E1ED50F6
:10AF70000DE0D950FD0FE96EFF0EDA20EA6E040EE7
:10AF8000EE1801E02BD1ED5001E028D1E66AD40E95
:10AF9000F66EF40EF76E0800F550050FE66E980E8B
:10AFA000F66EF40EF76E0800F550FB0FE66ED40E49
:10AFB000F66EF40EF76E0800F550E66E980EF66E1B
:10AFC000F40EF76E0800F550E66EB1EC73F0146EF7
:10AFD000050EE15E1450E66AD90EF66EF40EF76EB9
:10AFE0000800F550050FE66E9D0EF66EF40EF76E36
:10AFF0000800F550FB0FE66ED90EF66EF40EF76EF4
:10B000000800F550E66E9D0EF66EF40EF76E080021
:10B01000F550E66EB1EC73F0146E050EE15E14505F
:10B02000E66AE30EF66EF40EF76E0800F550FB0FBD
:10B03000E66EA70EF66EF40EF76E0800F550FB0FE5
:10B04000E66EE30EF66EF40EF76E0800F550E66E4F
:10B05000A70EF66EF40EF76E0800F550E66EB1EC32
:10B0600073F0146E050EE15E1450E66AE80EF66E9B
:10B07000F40EF76E0800F550FB0FE66EAC0EF66EA0
:10B08000F40EF76E0800F550FB0FE66EE80EF66E54
:10B09000F40EF76E0800F550E66EAC0EF66EF40E88
:10B0A000F76E0800F550E66EB1EC73F0146E050E05
:10B0B000E15E1450E66AF20EF66EF40EF76E0800CA
:10B0C000F550FB0FE66EB60EF66EF40EF76E080046
:10B0D000F550050FE66EF20EF66EF40EF76E0800F0
:10B0E000F550E66EB60EF66EF40EF76E0800F550EB
:10B0F000E66EB1EC73F0146E050EE15E1450E66A74
:10B10000F70EF66EF40EF76E0800F550FB0FE66EC4
:10B11000BB0EF66EF40EF76E0800F550050FE66EE6
:10B12000F70EF66EF40EF76E0800F550E66EBB0EE5
:10B13000F66EF40EF76E0800F550E66EB1EC73F0A3
:10B14000146E050EE15E1450E66A010EF66EF50E01
:10B15000F76E0800F550050FE66EC50EF66EF40E9C
:10B16000F76E0800F550050FE66E010EF66EF50E4F
:10B17000F76E0800F550E66EC50EF66EF40EF76E2B
:10B180000800F550E66EB1EC73F0146E050EE15E4A
:10B190001450E66A060EF66EF50EF76E0800F550CE
:10B1A000050FE66ECA0EF66EF40EF76E0800F55047
:10B1B000050FE66E060EF66EF50EF76E0800F550FA
:10B1C000E66ECA0EF66EF40EF76E0800F550E66EE7
:10B1D000B1EC73F0146E050EE15E1450E552E7CF4A
:10B1E000D9FF120000018F5101E097D0E66A8BEC85
:10B1F0006FF0E5526CC0E6FF6DC0E6FF93DDE552EF
:10B20000E552E66A570E0001AC25F66EF40EAD214C
:10B21000F76E0800F550E66E1B0EAC25F66EF40EC8
:10B22000AD21F76E0800F550E66E92C0E6FF91C0C2
:10B23000E6FFB1EC73F0146E050EE15E1450010EE2
:10B24000E66E570E0001AA25F66EF40EAB21F76EDE
:10B250000800F550E66E1B0EAA25F66EF40EAB2123
:10B26000F76E0800F550E66E92C0E6FF91C0E6FF6B
:10B27000B1EC73F0146E050EE15E1450020EE66E32
:10B28000AAC014F0ABC015F00C0E0D6E0E6AAAC069
:10B2900008F0ABC009F054EC7BF008C014F009C012
:10B2A00015F0000193510F010824F66E000E0920DD
:10B2B000F76E570EF626F40EF7220800F550E66EEC
:10B2C000AAC016F0ABC017F00C0E0D6E0E6AAAC025
:10B2D00008F0ABC009F054EC7BF008C016F009C0D0
:10B2E00017F0000193510F010824F66E000E09209B
:10B2F000F76E1B0EF626F40EF7220800F550E66EE8
:10B3000092C0E6FF91C0E6FFB1EC73F0186E050E37
:10B31000E15E18500001010E8F6F8E5108E06E0E35
:10B32000E66E070EE66E180EE66EF40E07D06E0E91
:10B33000E66E070EE66E150EE66EF40EE66E8AEC0D
:10B3400070F0E552E552E552E5521200E66AB00EA1
:10B35000E66E3C0EE66E5FEC70F0E552E552E552AB
:10B36000050EE66EB00EE66E6F0EE66E5FEC70F0E8
:10B37000E552E552E5520A0EE66EB00EE66E3E0E5E
:10B38000E66E5FEC70F0E552E552E5521200A0EC7B
:10B3900050F0000905E00001780502E1E6EC50F00C
:10B3A0000001770501E1D2DF00018C512EE04BDC7A
:10B3B000250EE66EB30EE66E6F0EE66E5FEC70F075
:10B3C000E552E552E552250EE66EB40EE66E6F0EBE
:10B3D000E66E5FEC70F0E552E552E552520EE66E15
:10B3E000B30EE66E6F0EE66E5FEC70F0E552E5525E
:10B3F000E552520EE66EB40EE66E6F0EE66E5FEC30
:10B4000070F0E552E552E55201D0ECDE58EF56F00F
:10B41000D9CFE6FFE1CFD9FF0A0EE126ACC0E6FFA7
:10B42000ADC0E6FFAAC0E6FFABC0E6FFA8C0E6FFDE
:10B43000A9C0E6FFFC0E146EF30E156E166A14C05A
:10B44000E6FFE66E16C0E6FFD9CFE6FFDACFE6FFED
:10B45000FEEC7AF0176E0B0EE15E175000018D5175
:10B4600024E03C0EE66E070EE66ED9CFE6FFDACF9B
:10B47000E6FFC3EC70F0E552E552E552E5520001FB
:10B480008E5108E06E0EE66E070EE66E180EE66E42
:10B49000F40E07D06E0EE66E070EE66E150EE66E23
:10B4A000F40EE66E8AEC70F00AD0500EE66E070ECF
:10B4B000E66ED9CFE6FFDACFE6FFC3EC70F0E552D7
:10B4C000E552E552E5520A0EE15C02E2E16AE5521C
:10B4D000E16EE552E7CFD9FF1200D9CFE6FFE1CF09
:10B4E000D9FF040EE1261E0EE66EE66AEF0EE66E4A
:10B4F000F30EE66E8AEC70F0E552E552E552E55245
:10B500001E0EE66E030EE66EE70EE66EF30EE66EB8
:10B510008AEC70F0E552E552E552E5521E0EE66EF9
:10B52000050EE66EE00EE66EF30EE66E8AEC70F047
:10B53000E552E552E552E552BEEC78F08EEC53F060
:10B54000F3CFDEFFF4CFDDFFD9CFE9FFDACFEAFF9B
:10B55000010EEE1811E1ED500FE1E66A8BEC6FF091
:10B56000E5520001050E621904E1635102E1030E88
:10B5700001D0050E626F636BCEEC53F0020EF3CF79
:10B58000DBFF030EF4CFDBFFD950020FE96EDACFF9
:10B59000EAFF010EEE1811E1ED500FE1E66A8BECC7
:10B5A0006FF0E5520001030E621904E1635102E1FC
:10B5B000050E01D0030E626F636B160EE66E62C05D
:10B5C000E6FFDE0EE66EF30EE66E8AEC70F0E552F4
:10B5D000E552E552E5524B0EE66E62C0E6FFDE0E26
:10B5E000E66EF30EE66E8AEC70F0E552E552E55237
:10B5F000E552A0EC50F0000918E00001030E6219BA
:10B6000005E1635103E1010E8C6F09D08D5103E117
:10B610008A0501E130D90001010E8D6F8C6BF36E4C
:10B62000F46A040EE15C09E206D000018A5101E1EE
:10B630005AD7EEDE58D7E16AE552E16EE552E7CF20
:10B64000D9FF120000018E5109E000010C0EA8196B
:10B6500004E1A95155E1A86BA96B12000B0E000182
:10B66000A81901E1A95149E00A0EA81901E1A9515F
:10B6700040E0090EA81901E1A95139E0080EA81906
:10B6800001E1A95132E0070EA81901E1A9512BE00F
:10B69000060EA81901E1A95124E0050EA81901E13F
:10B6A000A9511DE0040EA81901E1A95116E0030EED
:10B6B000A81901E1A9510FE0020EA81901E1A95151
:10B6C00008E0010EA81901E1A95101E012000D0ED8
:10B6D00011D00E0E0FD00F0E0DD0100E0BD0110E7C
:10B6E00009D0120E07D0130E05D0140E03D0150E7C
:10B6F00001D0160EA86FA96B1200170EA86FA96BC8
:10B700001200170E0001A81901E1A95101E1ACD006
:10B71000160EA81901E1A95101E1A2D0150EA81930
:10B7200001E1A95101E198D0140EA81901E1A95134
:10B7300001E18ED0130EA81901E1A95101E184D0D5
:10B74000120EA81901E1A95101E17AD0110EA81930
:10B7500001E1A95171E0100EA81901E1A95168E0B9
:10B760000F0EA81901E1A9515FE00E0EA81901E121
:10B77000A95156E00D0EA81901E1A9514DE00C0E9A
:10B78000A81901E1A95145E00B0EA81901E1A95141
:10B790003CE00A0EA81901E1A95137E0090EA819E9
:10B7A00001E1A95132E0080EA81901E1A9512DE0EB
:10B7B000070EA81901E1A95128E0060EA81901E118
:10B7C000A95123E0050EA81901E1A9511EE0040EBC
:10B7D000A81901E1A95119E0030EA81901E1A95125
:10B7E00014E0020EA81901E1A9510FE0010EA819F9
:10B7F00001E1A9510AE0A85101E1A95101E01200BB
:10B800000001010E8E6F0C0E32D00001010E8E6F02
:10B81000120000018E6B120000018E6B010E27D00A
:10B8200000018E6B020E23D000018E6B030E1FD021
:10B8300000018E6B040E1BD000018E6B050E17D01D
:10B8400000018E6B060E13D000018E6B070E0FD019
:10B8500000018E6B080E0BD000018E6B090E07D015
:10B8600000018E6B0A0E03D000018E6B0B0E0001DF
:10B87000A86FA96B120000018D0502E122EF5BF0B9
:10B8800081EF5BF0D9CFE6FFE1CFD9FF040EE126CF
:10B8900000018C0501E0A6D01E0EE66EE66AD00E11
:10B8A000E66EF30EE66E8AEC70F0E552E552E55274
:10B8B000E552320EE66E030EE66ECC0EE66EF30E29
:10B8C000E66E8AEC70F0E552E552E552E552320E32
:10B8D000E66E050EE66EC80EE66EF30EE66E8AECB8
:10B8E00070F0E552E552E552E552BEEC78F08EEC90
:10B8F00053F0F3CFDEFFF4CFDDFFD9CFE9FFDACF8E
:10B90000EAFF010EEE1811E1ED500FE1E66A8BEC53
:10B910006FF0E5520001050E641904E1655102E182
:10B92000030E01D0050E646F656BCEEC53F0020E72
:10B93000F3CFDBFF030EF4CFDBFFD950020FE96E2C
:10B94000DACFEAFF010EEE1811E1ED500FE1E66AE1
:10B950008BEC6FF0E5520001030E641904E16551B0
:10B9600002E1050E01D0030E646F656B2A0EE66ED0
:10B9700064C0E6FFDE0EE66EF30EE66E8AEC70F053
:10B98000E552E552E552E552460EE66E64C0E6FF2A
:10B99000DE0EE66EF30EE66E8AEC70F0E552E552CE
:10B9A000E552E552A0EC50F000095BE00001030E07
:10B9B00064190BE1655109E18D0507E08A5101E049
:10B9C0005ADF0001010E8D6F45D0050E641942E16A
:10B9D000655140E18D513EE08A5101E04CDF0001AC
:10B9E0008D6B38D0E66A020EE66EB80EE66EF30E88
:10B9F000E66E8AEC70F0E552E552E552E552E66AF1
:10BA0000030EE66EAB0EE66EF30EE66E8AEC70F099
:10BA1000E552E552E552E552E66A050EE66E9D0EE8
:10BA2000E66EF30EE66E8AEC70F0E552E552E552F2
:10BA3000E552E66A060EE66E920EE66EF30EE66ECE
:10BA40008AEC70F0E552E552E552E552A0EC50F078
:10BA5000000907E0010EF36EF46A040EE15C09E2EE
:10BA600006D000018A5101E113D7D2DC11D7E16A77
:10BA7000E552E16EE552E7CFD9FF1200D9CFE6FFDC
:10BA8000E1CFD9FF040EE12600018D5101E195D0EF
:10BA90001E0EE66EE66A870EE66EF30EE66E8AEC22
:10BAA00070F0E552E552E552E552320EE66E030EB5
:10BAB000E66E180EE66EF40EE66E8AEC70F0E55255
:10BAC000E552E552E552320EE66E050EE66E150EB3
:10BAD000E66EF40EE66E8AEC70F0E552E552E55241
:10BAE000E552BEEC78F08EEC53F0F3CFDEFFF4CFEE
:10BAF000DDFFD9CFE9FFDACFEAFF010EEE1811E141
:10BB0000ED500FE1E66A8BEC6FF0E5520001050E97
:10BB1000661904E1675102E1030E01D0050E666F5C
:10BB2000676BCEEC53F0020EF3CFDBFF030EF4CFC6
:10BB3000DBFFD950020FE96EDACFEAFF010EEE18F3
:10BB400011E1ED500FE1E66A8BEC6FF0E552000178
:10BB5000030E661904E1675102E1050E01D0030EE0
:10BB6000666F676B2A0EE66E66C0E6FFDE0EE66E57
:10BB7000F30EE66E8AEC70F0E552E552E552E552BE
:10BB8000400EE66E66C0E6FFDE0EE66EF30EE66E73
:10BB90008AEC70F0E552E552E552E552A0EC50F027
:10BBA00000094AE00001030E661905E1675103E14F
:10BBB000010E8E6F3AD08E6B38D0E66A020EE66EBA
:10BBC000750EE66EF30EE66E8AEC70F0E552E55205
:10BBD000E552E552E66A030EE66E6D0EE66EF30E72
:10BBE000E66E8AEC70F0E552E552E552E552E66AFF
:10BBF000050EE66E9D0EE66EF30EE66E8AEC70F0B4
:10BC0000E552E552E552E552E66A060EE66E920E00
:10BC1000E66EF30EE66E8AEC70F0E552E552E55200
:10BC2000E552A0EC50F0000907E0010EF36EF46A53
:10BC3000040EE15C0AE207D000018A5101E124D739
:10BC400008EC5AF021D7E16AE552E16EE552E7CF00
:10BC5000D9FF1200D9CFE6FFE1CFD9FF040EE126CC
:10BC6000BEEC78F08EEC53F0F3CFDEFFF4CFDDFFC7
:10BC7000D9CFE9FFDACFEAFF010EEE1822E1ED504D
:10BC800020E1E66A8BEC6FF0E55200017A2B000EA2
:10BC90007B238D050DE1FE0EDB500AE17B3511E2C1
:10BCA0007A510C08000E7B550CE2010E7A6F08D019
:10BCB0007B3507E27A511708000E7B5502E27A6B5A
:10BCC0007B6BCEEC53F0020EF3CFDBFF030EF4CF11
:10BCD000DBFFD950020FE96EDACFEAFF010EEE1852
:10BCE00020E1ED501EE1E66A8BEC6FF0E5520001B9
:10BCF0007A07000E7B5B8D050EE1FE0EDB500BE13B
:10BD0000010E7BAF02D0D89003D07A5D000E7B5934
:10BD100008E20C0E04D0800E7B1503E0170E7A6F3C
:10BD20007B6B040EE15C02E2E16AE552E16EE552F2
:10BD3000E7CFD9FF1200D9CFE6FFE1CFD9FF040E3C
:10BD4000E126BEEC78F08EEC53F0F3CFDEFFF4CFBB
:10BD5000DDFFD9CFE9FFDACFEAFF010EEE1813E1DC
:10BD6000ED5011E1E66A8BEC6FF0E55200017C2B9F
:10BD7000000E7D237D3507E27C513B08000E7D558A
:10BD800002E27C6B7D6BCEEC53F0020EF3CFDBFF57
:10BD9000030EF4CFDBFFD950020FE96EDACFEAFFD2
:10BDA000010EEE1810E1ED500EE1E66A8BEC6FF03B
:10BDB000E55200017C07000E7D5B800E7D1503E0DF
:10BDC0003B0E7C6F7D6B040EE15C02E2E16AE552A2
:10BDD000E16EE552E7CFD9FF1200D9CFE6FFE1CF00
:10BDE000D9FF040EE126BEEC78F08EEC53F0F3CFD1
:10BDF000DEFFF4CFDDFFD9CFE9FFDACFEAFF010E96
:10BE0000EE1813E1ED5011E1E66A8BEC6FF0E552AC
:10BE100000017E2B000E7F237F3507E27E513B0819
:10BE2000000E7F5502E27E6B7F6BCEEC53F0020E6C
:10BE3000F3CFDBFF030EF4CFDBFFD950020FE96E27
:10BE4000DACFEAFF010EEE1810E1ED500EE1E66ADE
:10BE50008BEC6FF0E55200017E07000E7F5B800ED9
:10BE60007F1503E03B0E7E6F7F6B040EE15C02E208
:10BE7000E16AE552E16EE552E7CFD9FF12000B0E01
:10BE80000001A81901E1A95101E198D0170EA819E4
:10BE900001E1A95101E192D00A0EA81901E1A951CD
:10BEA00001E189D0160EA81901E1A95101E183D061
:10BEB000090EA81901E1A95101E17AD0150EA819BE
:10BEC00001E1A95175E0080EA81901E1A9516DE041
:10BED000140EA81901E1A95168E0070EA81901E1A3
:10BEE000A95160E0130EA81901E1A9515BE0060E0B
:10BEF000A81901E1A95153E0120EA81901E1A951B5
:10BF00004EE0050EA81901E1A95146E0110EA8194D
:10BF100001E1A95141E0040EA81901E1A95139E05C
:10BF2000100EA81901E1A95134E0030EA81901E18E
:10BF3000A9512CE00F0EA81901E1A95127E0020E2A
:10BF4000A81901E1A9511FE00E0EA81901E1A9519C
:10BF50001AE0010EA81901E1A95112E00D0EA8196D
:10BF600001E1A9510DE0A85101E1A95106E00C0E33
:10BF7000A81901E1A95101E012000001936B120020
:10BF80000001050E1DD000010A0E1AD000010F0E8F
:10BF900017D00001140E14D00001190E11D00001A9
:10BFA0001E0E0ED00001230E0BD00001280E08D06B
:10BFB00000012D0E05D00001320E02D00001370E17
:10BFC000936F1200010E00017A6F7B6B7C6B7D6BAF
:10BFD0007E6B7F6B1200D9CFE6FFE1CFD9FF0E0E4B
:10BFE000E126190EE66EE66A5F0EE66EF30EE66E69
:10BFF0008AEC70F0E552E552E552E5527EC0E6FF6C
:10C000007FC0E6FF7CC0E6FF7DC0E6FF7AC0E6FFAA
:10C010007BC0E6FFFC0E146EF30E156E166A14C09C
:10C02000E6FFE66E16C0E6FFD9CFE6FFDACFE6FF01
:10C03000FEEC7AF0176E0B0EE15E1750280EE66EDE
:10C04000040EE66ED9CFE6FFDACFE6FFC3EC70F060
:10C05000E552E552E552E552BEEC78F00DEC53F0B6
:10C060000C0EF3CFDBFF0D0EF4CFDBFFD9500C0F1E
:10C07000E96EDACFEAFF010EEE181DE1ED501BE18B
:10C08000E66A8BEC6FF0E5524F0E0001681901E192
:10C0900069510EE03D0E681901E1695107E02B0E70
:10C0A000681909E1695107E13D0E03D04F0E01D037
:10C0B0002B0E686F696BCDEC52F00A0EF3CFDBFFED
:10C0C0000B0EF4CFDBFFD9500A0FE96EDACFEAFF8F
:10C0D000010EEE181DE1ED501BE1E66A8BEC6FF0EE
:10C0E000E5524F0E0001681901E169510EE03D0E65
:10C0F000681901E1695107E02B0E681909E16951DE
:10C1000007E14F0E03D02B0E01D03D0E686F696B17
:10C1100068C0E6FF030EE66EDE0EE66EF30EE66E18
:10C120008AEC70F0E552E552E552E55268C0E6FF50
:10C13000050EE66EDE0EE66EF30EE66E8AEC70F02D
:10C14000E552E552E552E5524F0E0001681901E152
:10C15000695110E03D0E681901E1695109E02B0EAB
:10C16000681909E1695107E1E66A74DDE55203D017
:10C17000E2DD01D032DEA0EC50F000091BE07AC015
:10C18000A8F07BC0A9F07CC0AAF07DC0ABF07EC057
:10C19000ACF07FC0ADF016DF72DE0001010E8A6FD9
:10C1A0002B0E686F696B010EF36EF46A0E0EE15C84
:10C1B0000AE207D000018A5101E113D708EC5AF0D6
:10C1C00010D7E16AE552E16EE552E7CFD9FF1200E0
:10C1D000D9CFE6FFE1CFD9FF040EE126BEEC78F01F
:10C1E0008EEC53F0F3CFDEFFF4CFDDFFD9CFE9FFC4
:10C1F000DACFEAFF010EEE1814E1ED5012E1E66A23
:10C200008BEC6FF0E5520001862B000E87238735FB
:10C2100008E286510C08000E875503E2010E866F76
:10C22000876BCEEC53F0020EF3CFDBFF030EF4CF9F
:10C23000DBFFD950020FE96EDACFEAFF010EEE18EC
:10C2400016E1ED5014E1E66A8BEC6FF0E552000167
:10C250008607000E875B010E87AF02D0D89003D00F
:10C26000865D000E875903E20C0E866F876B000116
:10C27000020E86190BE1875109E1893507E28851E1
:10C280001C08000E895502E21C0E1CD0040E8619F3
:10C2900001E187510FE0060E861901E187510AE09E
:10C2A000090E861901E1875105E00B0E86190CE194
:10C2B00087510AE1893508E288511E08000E895528
:10C2C00003E21E0E886F896B040EE15C02E2E16AF4
:10C2D000E552E16EE552E7CFD9FF1200D9CFE6FF74
:10C2E000E1CFD9FF040EE126BEEC78F08EEC53F0DE
:10C2F000F3CFDEFFF4CFDDFFD9CFE9FFDACFEAFFDE
:10C30000010EEE185BE1ED5059E1E66A8BEC6FF03F
:10C31000E5520001882B000E8923010E861901E1E8
:10C3200087511EE0030E861901E1875119E0050EC1
:10C33000861901E1875114E0070E861901E1875142
:10C340000FE0080E861901E187510AE00A0E8619EE
:10C3500001E1875105E00C0E86190AE1875108E1D9
:10C3600089352CE288511F08000E895527E223D019
:10C37000040E861901E187510FE0060E861901E1CE
:10C3800087510AE0090E861901E1875105E00B0E7D
:10C3900086190AE1875108E1893510E288511E08A3
:10C3A000000E89550BE207D0893508E288511C0838
:10C3B000000E895503E2010E886F896BCEEC53F0B5
:10C3C000020EF3CFDBFF030EF4CFDBFFD950020FD9
:10C3D000E96EDACFEAFF010EEE1863E1ED5061E19C
:10C3E000E66A8BEC6FF0E55200018807000E895B6E
:10C3F000010E861901E187511EE0030E861901E145
:10C40000875119E0050E861901E1875114E0070EE6
:10C41000861901E187510FE0080E861901E1875165
:10C420000AE00A0E861901E1875105E00C0E861913
:10C430000DE187510BE1010E89AF02D0D89003D0F6
:10C44000885D000E89592DE21F0E29D0040E861931
:10C4500001E187510FE0060E861901E187510AE0DC
:10C46000090E861901E1875105E00B0E86190DE1D1
:10C4700087510BE1010E89AF02D0D89003D0885DBF
:10C48000000E89590EE21E0E0AD0010E89AF02D0AD
:10C49000D89003D0885D000E895903E21C0E886F86
:10C4A000896B040EE15C02E2E16AE552E16EE5525D
:10C4B000E7CFD9FF1200D9CFE6FFE1CFD9FF0E0EAB
:10C4C000E126190EE66EE66A510EE66EF30EE66E92
:10C4D0008AEC70F0E552E552E552E55286C0E6FF7F
:10C4E00087C0E6FF88C0E6FF89C0E6FF0B0E146E2A
:10C4F000F40E156E166A14C0E6FFE66E16C0E6FF6F
:10C50000D9CFE6FFDACFE6FFFEEC7AF0176E090E20
:10C51000E15E17502D0EE66E040EE66ED9CFE6FFF3
:10C52000DACFE6FFC3EC70F0E552E552E552E55292
:10C53000BEEC78F00DEC53F00C0EF3CFDBFF0D0EDC
:10C54000F4CFDBFFD9500C0FE96EDACFEAFF010E12
:10C55000EE1816E1ED5014E1E66A8BEC6FF0E5524F
:10C56000420E00016A1901E16B5107E0300E6A19B1
:10C5700007E16B5105E1420E01D0300E6A6F6B6B23
:10C58000CDEC52F00A0EF3CFDBFF0B0EF4CFDBFF46
:10C59000D9500A0FE96EDACFEAFF010EEE1816E164
:10C5A000ED5014E1E66A8BEC6FF0E552420E0001AB
:10C5B0006A1901E16B5107E0300E6A1907E16B510E
:10C5C00005E1420E01D0300E6A6F6B6B6AC0E6FF68
:10C5D000030EE66EDE0EE66EF30EE66E8AEC70F08B
:10C5E000E552E552E552E5526AC0E6FF050EE66EF9
:10C5F000DE0EE66EF30EE66E8AEC70F0E552E55262
:10C60000E552E552420E00016A1901E16B5107E063
:10C61000300E6A1905E16B5103E160DE01D0D8DD0F
:10C62000A0EC50F0000907E0010EF36EF46A0E0E64
:10C63000E15C0AE207D000018A5101E142D708EC2F
:10C640005AF03FD7E16AE552E16EE552E7CFD9FFF4
:10C650001200D9CFE6FFE1CFD9FF0E0EE1260A0E78
:10C66000E66EE66A410EE66EF30EE66E8AEC70F058
:10C67000E552E552E552E5527CC0E6FF7DC0E6FF9B
:10C680007AC0E6FF7BC0E6FF370E146EF30E156E20
:10C69000166A14C0E6FFE66E16C0E6FFD9CFE6FFC5
:10C6A000DACFE6FFFEEC7AF0176E090EE15E175066
:10C6B000280EE66E040EE66ED9CFE6FFDACFE6FF6F
:10C6C000C3EC70F0E552E552E552E552BEEC78F06D
:10C6D0000DEC53F00C0EF3CFDBFF0D0EF4CFDBFFB0
:10C6E000D9500C0FE96EDACFEAFF010EEE1816E111
:10C6F000ED5014E1E66A8BEC6FF0E5523D0E00015F
:10C70000701901E1715107E02B0E701907E17151A9
:10C7100005E13D0E01D02B0E706F716BCDEC52F028
:10C720000A0EF3CFDBFF0B0EF4CFDBFFD9500A0F5D
:10C73000E96EDACFEAFF010EEE1816E1ED5014E1D2
:10C74000E66A8BEC6FF0E5523D0E0001701901E1D5
:10C75000715107E02B0E701907E1715105E13D0E93
:10C7600001D02B0E706F716B70C0E6FF030EE66E8A
:10C77000DE0EE66EF30EE66E8AEC70F0E552E552E0
:10C78000E552E55270C0E6FF050EE66EDE0EE66E7F
:10C79000F30EE66E8AEC70F0E552E552E552E55292
:10C7A0003D0E0001701901E171510BE02B0E701963
:10C7B0000AE1715108E1010EE66E2AEC5EF0E552E5
:10C7C00002D09BEC5EF0A0EC50F0000919E07AC0BA
:10C7D000A4F07BC0A5F07CC0A6F07DC0A7F000014E
:10C7E000010E766FE2EC5FF02B0E0001706F716B43
:10C7F000E66A8BEC6FF0E5520E0EE15C0AE207D0C0
:10C8000000018A5101E12BD708EC5AF028D7E16AE0
:10C81000E552E16EE552E7CFD9FF1200D9CFE6FF2E
:10C82000E1CFD9FF040EE1260001760501E095D0A5
:10C83000190EE66EE66A2A0EE66EF30EE66E8AECD6
:10C8400070F0E552E552E552E552370EE66E030E02
:10C85000E66E270EE66EF30EE66E8AEC70F0E55299
:10C86000E552E552E552370EE66E050EE66E230EF2
:10C87000E66EF30EE66E8AEC70F0E552E552E55294
:10C88000E552BEEC78F08EEC53F0F3CFDEFFF4CF40
:10C89000DDFFD9CFE9FFDACFEAFF010EEE1811E193
:10C8A000ED500FE1E66A8BEC6FF0E5520001050EEA
:10C8B000721904E1735102E1030E01D0050E726F8B
:10C8C000736BCEEC53F0020EF3CFDBFF030EF4CF0D
:10C8D000DBFFD950020FE96EDACFEAFF010EEE1846
:10C8E00011E1ED500FE1E66A8BEC6FF0E5520001CB
:10C8F000030E721904E1735102E1050E01D0030E1B
:10C90000726F736B2F0EE66E72C0E6FFDE0EE66E80
:10C91000F30EE66E8AEC70F0E552E552E552E55210
:10C92000490EE66E72C0E6FFDE0EE66EF30EE66EB0
:10C930008AEC70F0E552E552E552E552A0EC50F079
:10C9400000094BE00001030E721905E1735103E188
:10C95000010E776F3AD0776B38D0E66A020EE66E3A
:10C960000E0EE66EF30EE66E8AEC70F0E552E552BE
:10C97000E552E552E66A030EE66E000EE66EF30E31
:10C98000E66E8AEC70F0E552E552E552E552E66A51
:10C99000050EE66E9D0EE66EF30EE66E8AEC70F006
:10C9A000E552E552E552E552E66A060EE66E920E53
:10C9B000E66EF30EE66E8AEC70F0E552E552E55253
:10C9C000E552A0EC50F0000908E0E66A8BEC6FF04D
:10C9D000E552040EE15C0AE207D000018A5101E150
:10C9E00023D708EC5AF020D7E16AE552E16EE55210
:10C9F000E7CFD9FF1200D9CFE6FFE1CFD9FF060E6E
:10CA0000E1261E0EE66EE66AF50EE66EF20EE66EA4
:10CA10008AEC70F0E552E552E552E552140EE66EEE
:10CA2000020EE66EE60EE66EF20EE66E8AEC70F030
:10CA3000E552E552E552E552140EE66E040EE66E3E
:10CA4000D80EE66EF20EE66E8AEC70F0E552E55214
:10CA5000E552E552BEEC78F08EEC53F0F3CFDEFFFA
:10CA6000F4CFDDFFD9CFE9FFDACFEAFF010EEE18F0
:10CA700017E1ED5015E1E66A8BEC6FF0E552020E1E
:10CA800000016E5F000E6F5B020E6FAF02D0D89098
:10CA900003D06E5D000E6F5903E2040E6E6F6F6B74
:10CAA000CEEC53F0020EF3CFDBFF030EF4CFDBFF2F
:10CAB000D950020FE96EDACFEAFF010EEE1815E148
:10CAC000ED5013E1E66A8BEC6FF0E552020E0001C7
:10CAD0006E27000E6F236F3508E26E510408000EBA
:10CAE0006F5503E2020E6E6F6F6B0C0EE66E6EC03A
:10CAF000E6FFDE0EE66EF30EE66E8AEC70F0E552AF
:10CB0000E552E552E552690EE66E6EC0E6FFDE0EB6
:10CB1000E66EF30EE66E8AEC70F0E552E552E552F1
:10CB2000E552A0EC50F0000912E0E66A8BEC6FF0E1
:10CB3000E5520001020E6E1904E16F5102E189DD38
:10CB400006D0040E6E1903E16F5101E167DECDECF2
:10CB500052F0040EF3CFDBFF050EF4CFDBFFD9500C
:10CB6000040FE96EDACFEAFF010EEE1809E1ED508D
:10CB700007E1010EF36EF46A060EE15C0AE207D0EB
:10CB800000018A5101E13DD708EC5AF03AD7E16A39
:10CB9000E552E16EE552E7CFD9FF1200D9CFE6FFAB
:10CBA000E1CFD9FF040EE1260A0EE66EE66AC50E55
:10CBB000E66EF20EE66E8AEC70F0E552E552E55252
:10CBC000E552230EE66E020EE66EBB0EE66EF20E28
:10CBD000E66E8AEC70F0E552E552E552E552230E1E
:10CBE000E66E040EE66EB10EE66EF20EE66E8AECAE
:10CBF00070F0E552E552E552E552230EE66E060E60
:10CC0000E66EA70EE66EF20EE66E8AEC70F0E55266
:10CC1000E552E552E552BEEC78F08EEC53F0F3CFDE
:10CC2000DEFFF4CFDDFFD9CFE9FFDACFEAFF010E57
:10CC3000EE1817E1ED5015E1E66A8BEC6FF0E55266
:10CC4000020E00016C5F000E6D5B020E6DAF02D034
:10CC5000D89003D06C5D000E6D5903E2060E6C6F28
:10CC60006D6BCEEC53F0020EF3CFDBFF030EF4CF6F
:10CC7000DBFFD950020FE96EDACFEAFF010EEE18A2
:10CC800015E1ED5013E1E66A8BEC6FF0E552020E10
:10CC900000016C27000E6D236D3508E26C5106080B
:10CCA000000E6D5503E2020E6C6F6D6B1C0EE66E8E
:10CCB0006CC0E6FFDE0EE66EF30EE66E8AEC70F0F8
:10CCC000E552E552E552E5525A0EE66E6CC0E6FFBB
:10CCD000DE0EE66EF30EE66E8AEC70F0E552E5527B
:10CCE000E552E552A0EC50F0000907E0010EF36EAA
:10CCF000F46A040EE15C0AE207D000018A5101E106
:10CD000053D708EC5AF050D7E16AE552E16EE5528C
:10CD1000E7CFD9FF1200D9CFE6FFE1CFD9FF020E4E
:10CD2000E126E66A8BEC6FF0E552060E0001601911
:10CD300001E1615164E0050E601901E1615154E0C7
:10CD4000040E601901E1615143E0030E601901E135
:10CD5000615132E0020E601901E1615121E0010EE2
:10CD6000601901E1615110E0605153E1615151E1FD
:10CD70006DEC5AF0F3CF14F0F4CF15F0010EF31868
:10CD800048E1155046E156D042EC5CF0F3CF14F088
:10CD9000F4CF15F0010EF3183CE115503AE14AD0FA
:10CDA0003EEC5DF0F3CF14F0F4CF15F0010EF31864
:10CDB00030E115502EE13ED0EBEC5FF0F3CF14F0F4
:10CDC000F4CF15F0010EF31824E1155022E132D012
:10CDD0005BEC62F0F3CF14F0F4CF15F0010EF31812
:10CDE00018E1155016E126D006DEF3CF14F0F4CF8B
:10CDF00015F0010EF3180DE115500BE11BD0CEDE3E
:10CE0000F3CF14F0F4CF15F0010EF31802E1155032
:10CE100011E0CDEC52F0F3CFDEFFF4CFDDFFD9CF40
:10CE2000E9FFDACFEAFF010EEE1801E07ED7ED5000
:10CE300001E07BD7E66A8BEC6FF0E552020EE15C15
:10CE400002E2E16AE552E16EE552E7CFD9FF120056
:10CE5000D9CFE6FFE1CFD9FF060EE126060EE66E3A
:10CE6000E66AEF0EE66EF30EE66E8AEC70F0E552BF
:10CE7000E552E552E552060EE66E010EE66E960E9E
:10CE8000E66EF20EE66E8AEC70F0E552E552E5527F
:10CE9000E552060EE66E020EE66E8C0EE66EF20EA1
:10CEA000E66E8AEC70F0E552E552E552E552060E68
:10CEB000E66E030EE66E830EE66EF20EE66E8AEC0A
:10CEC00070F0E552E552E552E552060EE66E040EAC
:10CED000E66E7A0EE66EF20EE66E8AEC70F0E552C1
:10CEE000E552E552E552060EE66E050EE66E740E4C
:10CEF000E66EF20EE66E8AEC70F0E552E552E5520F
:10CF0000E552060EE66EE66E660EE66EF20EE66E12
:10CF10008AEC70F0E552E552E552E552E66A60C0EF
:10CF2000E6FFDE0EE66EF30EE66E8AEC70F0E5527A
:10CF3000E552E552E552640EE66E60C0E6FFDE0E95
:10CF4000E66EF30EE66E8AEC70F0E552E552E552BD
:10CF5000E552BEEC78F08EEC53F0F3CFDEFFF4CF69
:10CF6000DDFFD9CFE9FFDACFEAFF010EEE1810E1BD
:10CF7000ED500EE1E66A8BEC6FF0E55200016007C0
:10CF8000000E615B800E611503E0060E606F616B41
:10CF9000CEEC53F0020EF3CFDBFF030EF4CFDBFF3A
:10CFA000D950020FE96EDACFEAFF010EEE1813E155
:10CFB000ED5011E1E66A8BEC6FF0E5520001602B59
:10CFC000000E6123613507E260510608000E6155CD
:10CFD00002E2606B616BA0EC50F0000901E09BDEA7
:10CFE000CDEC52F0040EF3CFDBFF050EF4CFDBFFE8
:10CFF000D950040FE96EDACFEAFF010EEE180EE108
:10D00000ED500CE100018B6B606B616BE66A8BECA1
:10D010006FF0E552060EE15C0AE207D000018A518A
:10D0200001E11CD708EC5AF019D7E16AE552E16E2C
:10D03000E552E7CFD9FF120097EC50F0050ED56E00
:10D04000D08EF184E00EF26ED58E00018A5115E08B
:10D050008B5103E1C7EC59F001D0FADE00017851A1
:10D06000F4E1A0EC50F00009F0E0E66A8BEC6FF020
:10D07000E5520001010E8B6FE8D78B5128E10A0EB3
:10D08000E66E030EE66E540EE66EF20EE66E8AEC67
:10D0900070F0E552E552E552E552020EE66E050EDD
:10D0A000E66E3E0EE66EF20EE66E8AEC70F0E5522B
:10D0B000E552E552E552A0EC50F00009C6E000014F
:10D0C000010E8B6FE66A8BEC6FF0E552BED7C0DEC7
:02D0D000BCD7CB
:0ED0D200A5EC6DF0FB0EDBCFF3FFDB06F35099
:10D0E00000090AE0F3EC6DF0FA0E5EEC6EF0F3E18D
:10D0F000151CF1E1010E01D0000ED4EF6DF0A5EC8E
:10D100006DF03B0EE12402E3E168E652E16E010EB0
:10D11000DB6A020EDB6AF90EDBCFF6FFFA0EDBCF1D
:10D12000F7FFFB0EDBCFF8FF0800F550DF6EDF5096
:10D1300002E1F8EF6CF0250EDF5C02E0EBEF6CF043
:10D14000030EDB6A040EDB6A050EDB6A060EDB6A81
:10D15000070EDB6A0DEC6DF02D0EDF5C0CE02B0E84
:10D16000DF5C09E0200EDF5C06E0230EDF5C03E0FD
:10D17000300EDF5C1AE1DF50300A14E0130A0FE0D2
:10D18000030A0AE00B0A05E0060AE4E1030EDB806D
:10D19000E1D7030EDB82DED7030EDB84DBD7030E81
:10D1A000DB86D8D7030EDB88D5D72A0EDF5C1BE1E0
:10D1B00009EC6DF057EC6DF010E0030EDB800868B1
:10D1C0000968130EDBCF0DF0140EDBCF0EF07AECF6
:10D1D0007BF0040E06C0DBFF03D0130E40EC6DF0B5
:10D1E0000DEC6DF00BD0090EDB6AAEEC6DF003E0D8
:10D1F00022EC6EF0FAD7090E40EC6DF0030EDBB0B6
:10D20000DB982E0EDF5C1BE10DEC6DF02A0EDF5C6F
:10D210000BE109EC6DF057EC6DF003E1130E92ECAD
:10D220006DF00DEC6DF00BD0090EDB6AAEEC6DF01D
:10D2300003E022EC6EF0FAD7090E92EC6DF0680E66
:10D24000DF5C07E10DEC6DF0680EDF5C1DE1030EA5
:10D2500018D0740EDF5C17E07A0EDF5C14E0480E25
:10D26000DF5C06E0540EDF5C03E05A0EDF5C02E197
:10D27000020E07D06C0EDF5C03E06A0EDF5C04E197
:10D28000010EE5EC6DF0C9DBDF506E0A01E17FD3E2
:10D290001E0A01E192D1200A01E18FD13F0A01E18A
:10D2A00049D11A0A01E146D10D0A01E143D1200A10
:10D2B00001E140D13A0A01E13DD1200A01E13AD130
:10D2C000260A01E135D10D0A01E132D11A0A01E144
:10D2D000D9D0200A4AE0300A1FE0460A0EE0250AAB
:10D2E00001E083D3D950F90FE96EFF0EDA20EA6E20
:10D2F000010EEE5E000EEE5AEE5AF3EC6DF0250EC6
:10D30000E66E95DB03E1151C01E169D3EFEC6DF0EE
:10D3100001E26BD3DB2A69D3080EDB6A040EDB5013
:10D32000010806E2040EDB04B7EC6DF0DB508BDB8A
:10D33000080EDB5009E0030EDB50010B05E172DB48
:10D3400001E04DD3080EDB6A64DBEFCFDFFF67EC53
:10D350006EF003E1151C01E142D3EFEC6DF001E347
:10D36000DB2A60DB01E141D33AD3070EDB50020830
:10D370000FE133EC6EF0030EFAEC6DF00E0EEECF13
:10D38000DBFF0F0EEECFDBFF100EEECFDBFF20D06A
:10D39000F70EDBCF17F0F80EDBCF18F0020E175E9A
:10D3A000000E185AF70E17C0DBFFF80E18C0DBFF8F
:10D3B00017C0E9FF18C0EAFFEAEC6DF0166A0E0E1E
:10D3C00014C0DBFF0F0E15C0DBFF100E16C0DBFF15
:10D3D0000E0EDBCFE6FF0F0EDBCFE6FF100EDBCF2E
:10D3E000E6FF7EEC7CF0E552E552E552130E07C0F5
:10D3F000DBFF140E08C0DBFF060EDB5005E0130E4A
:10D400002EEC6EF001E26ADB52EC6EF002E2130EDB
:10D4100037DB15EC6EF006E0040E2EEC6EF002E247
:10D42000050E2EDB030EDBB005D0FCDA01E0D7D20F
:10D43000080EDB6A090EDB6A0E0EDBCFF6FF0F0E5D
:10D44000DBCFF7FF100EDBCFF8FF0800F550DF6EE3
:10D45000DF5014E058EC6EF011E267EC6EF003E17F
:10D46000151C01E1BCD2BBDB01E3DB2A090EDB2A80
:10D47000D9500E0FE96E000ECBDBE7D7D3DA01E10E
:10D48000B4D2ADD2C6DA110EEECFDBFF120EEDCF65
:10D49000DBFF110EDBCFE6FF120EDBCFE6FF70ECF9
:10D4A0007CF0E552E552130EF3CFDBFF140EF4CF00
:10D4B000DBFF060EDB5004E0130ED0DB01E20EDBD7
:10D4C00052EC6EF002E2130EDBDAAFDB05E0040E85
:10D4D000C5DB02E2050ED4DA030EDBB005D0A2DA1A
:10D4E00001E07DD2080EDB6A090EDB6A110EDBCF8C
:10D4F000E9FF120EDBCFEAFFEFCFDFFFDF5014E0D2
:10D50000D7DB12E2E4DB03E1151C01E168D267DB43
:10D5100001E3DB2A090EDB2A110EDB2ADBCFE9FF50
:10D52000120EE8E3DB2AE6D77DDA01E15ED257D2BC
:10D53000030EDB8E070EDB0410E195DB040E5ADBD5
:10D540000A0EEECFDBFF0B0EEECFDBFF0C0EEECFA5
:10D55000DBFF0D0EEECFDBFF6CD0070EDB500308B8
:10D560002CE1030EDBAE0DD0B2DA020E76DAEFCF8D
:10D5700014F0156A166A176A14AE39D01568166861
:10D5800035D0F70EDBCF15F0F80EDBCF16F0020E1C
:10D59000155E000E165AF70E15C0DBFFF80E16C00A
:10D5A000DBFF15C0E9FF16C0EAFFEFCF14F00A0E4B
:10D5B00014C0DBFF0B0EDB6A38D0070EDB5002080D
:10D5C00009E1030EDBAE04D059DB16AE10D00ED04D
:10D5D00055DB0DD0030EDBAE12D079DA020E3DDA48
:10D5E000F9DA166A176A15AE02D016681768E2DA19
:10D5F0000C0E16C0DBFF0D0E17C0DBFF1AD0F70EA6
:10D60000DBCF16F0F80EDBCF17F0020E165E000E21
:10D61000175AF70E16C0DBFFF80E17C0DBFF16C057
:10D62000E9FF17C0EAFFD6DAC5DA0C0EDB6A0D0E89
:10D63000DB6A060EDB5005E1010EF36E050EF3CF3B
:10D64000DBFF150EDB6A160EDB6AD950370F146E3E
:10D65000000EDA20156E390E14C0DBFF3A0E15C02D
:10D66000DBFF380EDB6A080EDB6A0A0EAEDADF502B
:10D67000780A12E0200A10E0280A0CE0200A0AE0EA
:10D680003F0A06E00D0A02E0200A08E1020E05D07A
:10D69000080E03D0080EDF26100E97DA030EDBBE4D
:10D6A00002D0DB92DB94DB50800B24E08ADAD89046
:10D6B000030EEB50000A08E6000EEE5C000EEE587A
:10D6C000000EEE58000EEE5815E213DA0B680C68E7
:10D6D0000D680E6838EC7CF00A0E02C0DBFF0B0E02
:10D6E00003C0DBFF0C0E04C0DBFF0D0E05C0DBFF2B
:10D6F0002D0E08D0030EDBA202D02B0E03D0DBA42C
:10D7000008D0200EF36E170EF3CFDBFF150EDB2AC9
:10D7100002D0170EDB6A050EDB5003E1B7D901E139
:10D7200089D0360E146EFA0E156E000E166E070EA8
:10D73000DBCF17F0186A196A1A6A17C00BF018C005
:10D740000CF019C00DF01AC00EF0D3D9A3EC7CF088
:10D7500014500224F36E15500320F46E165004206A
:10D76000F86EF4CFF7FFF3CFF6FF0800090EF5CF00
:10D77000DBFF580EDF5C0FE1610EF36E090E7BD903
:10D780000AE3200E146E090EDBCFE7FF1450E75EAC
:10D79000090EE7CFDBFF070EDBCF14F0156A166A20
:10D7A000176A0FDA14C00BF015C00CF016C00DF09C
:10D7B00017C00EF0EECF06F0EECF07F0EECF08F078
:10D7C000EFCF09F0A3EC7CF009C0EDFF08C0EDFF3E
:10D7D00007C0EDFF06C0EFFF390EDBCFE9FFDB0628
:10D7E0003A0EDBCFEAFF01E2DB06090EDBCFEFFFEB
:10D7F000150EDB2A4BD995E1030EDBA61DD06F0E6B
:10D80000DF5C06E1C1D918E3150EDB285BDA14D022
:10D81000780EDF5C09E0580EDF5C06E0620EDF5C2C
:10D8200003E0420EDF5C08E1020EF36E160EF3CF4A
:10D83000DBFF02D0150EDB6A030EDB50100B0EE08F
:10D84000040EDBCF14F0050EDB50D880145406E232
:10D85000060EDB5003E1040EDB5034DA95D90AE200
:10D86000050EDBCFE7FF150EDB50E75E050EE7CFB9
:10D87000DBFF02D0050EDB6A040EDBCF14F0160EC0
:10D8800045D9D880145414E2160EDBCFE6FF150EEE
:10D89000DBCFE6FF040EDBCFE6FF050EDB50E552E3
:10D8A000E75CE552D880E754E552D880E7545FD969
:10D8B000030EDB50010B0BE1080EDB5008E0B2D881
:10D8C00001E08DD0080EDB50BED8080EDB6A170EC3
:10D8D000DB5007E088D9170EF1D903E1151C01E1EF
:10D8E0007ED0160EDB5016E07ED9300EE66E9FD845
:10D8F00002E1151C74E077D9DFCFE6FFF6EC7BF090
:10D90000E552E552E552F4CF15F00001F31C02E1B7
:10D91000151C65E0050EDBCF14F0160EDB50D88029
:10D92000145409E2050EDBCFE7FF160EDB50E75E6D
:10D93000050EE7CFDBFF300EE66E050ECBD94FE1CB
:10D94000390EDB2ADBCFE9FF3A0E01E3DB2ADBCF1E
:10D95000EAFF090EEFCFDBFFDB500EE044D9090EE2
:10D96000ADD902E1151C3BE0390EDB2ADBCFE9FF24
:10D970003A0EEDE3DB2AEBD755D831E1160EDBCFBB
:10D98000E6FF080EC3D8E552E7245DD82ED0070E77
:10D99000DB50030A1CE0010A14E0030A07E07BD90C
:10D9A000DBCFEEFF020EDBCFEDFF1FD0F5D8196AFB
:10D9B00017AE02D0186819682CD8BCD819C0EEFF71
:10D9C00014D0EAD817BE186824D8B4D80ED063D9BA
:10D9D000DBCFEFFF0AD07BD905E1151C03E1F3682B
:10D9E000F46810D0FCD801E3DB2A79D994EF68F011
:10D9F000010EDBCF14F0020EDBCF15F014C0F3FFE5
:10DA000015C0F4FF3B0EE15C02E2E16AE552E16E13
:10DA1000CBD029D9020EFAEF6DF061D90800F5508C
:10DA2000DF6E1200200EE66E080E6AEF6EF0F6EC66
:10DA30007BF0E552E552E552F3CF14F0F4CF15F048
:10DA40000001F31C1200146E156AD950010F4DD954
:10DA50001450EE261550ED221200185E000E195AD1
:10DA6000F70E18C0DBFFF80E19C0DBFF18C0E9FF86
:10DA700019C0EAFF1200DBCFF4FFF350F45C120090
:10DA8000DB50E76E040EE7CFDBFF12000A0EDBCFA0
:10DA900014F00B0EDBCF15F00C0EDBCF16F00D0ED5
:10DAA000DBCF17F014501510161017101200130EBC
:10DAB000EECFDBFF140EEDCFDBFF130EDBCF14F048
:10DAC000140EDBCF15F00001800E15141200F70EB6
:10DAD000DBCF18F0F80EDBCF19F01200050EDB508B
:10DAE000E66ED950130F01D9E552E750EE6EED6A9C
:10DAF00012000A0EDBCF06F00B0EDBCF07F00C0E88
:10DB0000DBCF08F00D0EDBCF09F01200DBCFE6FF14
:10DB1000150EDBCFE6FF050EDB50E552E724E5529C
:10DB2000E7241200DB50CED8010EF36E060EF3CFC1
:10DB3000DBFF1200EE50EFCFEAFFE96E16C0EEFFFA
:10DB400017C0EEFF18C0EEFF1200D9CFE6FFDACF04
:10DB5000E6FFE1CFD9FFE2CFDAFF1200DFCFE6FF29
:10DB6000E66ADDEC7CF0E552E552F3501200E76E18
:10DB7000080EE7CFDBFF1200EECF14F0EECF15F06A
:10DB8000EFCF16F0176A1200050EDBCF14F0150E5A
:10DB9000DB50D88014541200010EDBCF16F0020EB9
:10DBA000DBCF17F0186A1200E552E5CFDAFFE7CFB6
:10DBB000D9FF12000A0E14C0DBFF0B0E15C0DBFFED
:10DBC0001200D9500A0F75EF6EF0F36E070EF3CF07
:10DBD000DBFF1200EECF14F0EFCF15F01200010EB4
:10DBE000DB2A020E1200FC0EDBCFE6FFFD0EDBCFC0
:10DBF000E6FF1200145E000E155AF70E14C0DBFF8C
:10DC0000F80E15C0DBFF14C0E9FF15C0EAFF1200D3
:10DC1000DA20EA6EEF2AEECFF6FF000EEF22EECF0B
:10DC2000F7FFEF22EECFF8FF1200040EDBCFE6FF86
:10DC3000130EDB50E552E75C9ADFDB5004DF060E83
:10DC4000DB501200090EDB500A0DF350DF24D00F19
:10DC5000E76E090EE7CFDBFF0DEF6DF0DB50F36EE3
:10DC6000050E3BEF6DF0F70EDBCF14F0F80EDBCFB7
:10DC700015F01200DFCFE6FF17EF6DF028DF030E7F
:10DC8000ECDEBCEF6DF069EC68F0E552E552E55270
:10DC9000E55200091200BDDEEE50EFCFEAFFE96E5B
:10DCA000010E1200130EDB50F36E040E3BEF6DF00D
:10DCB000040EDB50F36E090E3BEF6DF0DBCFE6FF99
:10DCC00017EF6DF0E76E050EE7CFDBFF12008BDF7D
:10DCD0003AEF6EF0DBCFE6FF86DF43EF6EF0D95010
:10DCE000F90FE96EFF0E08EF6EF0E96E000EDA2014
:04DCF000EA6E1200C6
:0CDCF400D9CFE6FFE1CFD9FF020EE126F8
:10DD0000FD0EDBCF14F0DB06FE0EDBCF15F001E2DB
:10DD1000DB061450151010E0DE6ADD6ADECF14F069
:10DD2000DDCF15F0E30E145C0D0E1558E9E2DF2A85
:10DD3000010EF4E3DB2AF2D7020EE15C02E2E16AB3
:10DD4000E552E16EE552E7CFD9FF1200D9CFE6FFE9
:10DD5000E1CFD9FF060EE1268D9296928D90969096
:10DD60008D8496948A9A939A8C92DE6ADE6ADE6A31
:10DD7000DD6ADD52DD52D9CFE9FFDACFEAFF640E6A
:10DD8000EE5C000EEE58000EEE58000EEE580AE261
:10DD9000D9CFE9FFDACFEAFFEE2A000EEE22EE221B
:10DDA000EE22E9D78C82DE6ADE6ADE6ADD6ADD5247
:10DDB000DD52D9CFE9FFDACFEAFF640EEE5C000E48
:10DDC000EE58000EEE58000EEE580AE2D9CFE9FFE9
:10DDD000DACFEAFFEE2A000EEE22EE22EE22E9D79B
:10DDE000AE0EE66E70D8E552DB0EE66E6CD8E552EC
:10DDF000230EE66E68D8E552D90EE66E64D8E55279
:10DE0000220EE66E60D8E552A10EE66E5CD8E552B1
:10DE1000C80EE66E58D8E552DA0EE66E54D8E552D2
:10DE2000120EE66E50D8E552A80EE66E4CD8E552BA
:10DE30003F0EE66E48D8E552D50EE66E44D8E55260
:10DE4000A00EE66E40D8E552810EE66E3CD8E55253
:10DE5000600EE66E38D8E552D30EE66E34D8E55241
:10DE6000E66A31D8E552A60EE66E2DD8E552AD0E23
:10DE7000E66E29D8E5528B0EE66E25D8E552AF0E38
:10DE8000E66E21D8E5520A0EE66EE66A33DFE55209
:10DE9000E552A40EE66E17D8E552400EE66E13D892
:10DEA000E552020EE66E0FD8E552100EE66E0BD864
:10DEB000E552060EE15C02E2E16AE552E16EE552EE
:10DEC000E7CFD9FF1200D9CFE6FFE1CFD9FF956A9E
:10DED000FE0EDB508C6E8D808D828A9A8D948D9291
:10DEE0008D828D849568E552E7CFD9FF1200D9CF96
:10DEF000E6FFE1CFD9FF956AFE0EDB508C6E8D8078
:10DF00008D828A8A8D948D928D828D849568E5525A
:10DF1000E7CFD9FF1200D9CFE6FFE1CFD9FF020E3C
:10DF2000E126B00EDF6EB80EDF5C23E2DFCFE6FF46
:10DF3000CADFE552020EE66EC6DFE552100EE66E4F
:10DF4000C2DFE552010EDB6ADB50146E156AD89011
:10DF5000155004E6840E145C000E155808E2FE0EFF
:10DF6000DBCFE6FFC4DFE552010EDB2AEDD7DF2A67
:10DF7000DAD7020EE15C02E2E16AE552E16EE552B7
:10DF8000E7CFD9FF1200D9CFE6FFE1CFD9FF200EAE
:10DF9000146EFE0EDBCFE7FF1450E75EFE0EE7CFF8
:10DFA000DBFFDBCFF6FFF76AF6BEF768050EF70278
:10DFB000F3CFF7FFF602F3CFF6FFF450F7260A0E81
:10DFC000F626EC0EF7220800F550E66E90DFE552DB
:10DFD000FE0EDBCFF6FFF76AF6BEF768050EF70216
:10DFE000F3CFF7FFF602F3CFF6FFF450F7260A0E51
:10DFF000F626EC0EF722010EF626000EF722080098
:10E00000F550E66E74DFE552FE0EDBCFF6FFF76AE1
:10E01000F6BEF768050EF702F3CFF7FFF602F3CF6F
:10E02000F6FFF450F7260A0EF626EC0EF722020E43
:10E03000F626000EF7220800F550E66E58DFE5528E
:10E04000FE0EDBCFF6FFF76AF6BEF768050EF702A5
:10E05000F3CFF7FFF602F3CFF6FFF450F7260A0EE0
:10E06000F626EC0EF722030EF626000EF722080025
:10E07000F550E66E3CDFE552FE0EDBCFF6FFF76AA9
:10E08000F6BEF768050EF702F3CFF7FFF602F3CFFF
:10E09000F6FFF450F7260A0EF626EC0EF722040ED1
:10E0A000F626000EF7220800F550E66E20DFE55256
:10E0B000E66A1DDFE552E552E7CFD9FF1200D9CF5E
:10E0C000E6FFE1CFD9FFE652FD0EDBCFE6FFFBDE38
:10E0D000E552020E146EFC0EDBCFE7FF1450E7266C
:10E0E000FC0EE7CFDBFFDB500F0BE66EECDEE552FC
:10E0F000FC0EDB380F0B0F0B100FE66EE4DEE55263
:10E10000FE0EDBCFE6FF3FDFE552E552E552E7CFFB
:10E11000D9FF1200D9CFE6FFE1CFD9FFFC0EDB50CB
:10E12000B00FE76EFC0EE7CFDBFFFB0EDBCFE6FFA9
:10E13000FC0EDBCFE6FFFD0EDBCFF6FFFE0EDBCFE6
:10E14000F7FF0800F550E66EBADFE552E552E552FA
:10E15000FD0EDB2ADBCFF6FFFE0E01E3DB2ADBCF71
:10E16000F7FF0800F5500BE0FD0EDBCFF6FFFE0ECB
:10E17000DBCFF7FF0800F550E66E05DFE8D7E55284
:10E18000E7CFD9FF1200D9CFE6FFE1CFD9FFFC0ED0
:10E19000DB50B00FE76EFC0EE7CFDBFFFB0EDBCFF3
:10E1A000E6FFFC0EDBCFE6FFFD0EDBCFE9FFFE0E48
:10E1B000DBCFEAFFEF50E66E82DFE552E552E55233
:10E1C000FD0EDB2ADBCFE9FFFE0E01E3DB2ADBCF0E
:10E1D000EAFFEF500AE0FD0EDBCFE9FFFE0EDBCFDA
:10E1E000EAFFEF50E66ECFDEEAD7E552E7CFD9FF80
:10E1F0001200D9CFE6FFE1CFD9FF050EE126030ECD
:10E20000DB6A040EDB6A020E146EFA0EDBCFE7FF48
:10E210001450E726FA0EE7CFDBFFF90EDB50B00F04
:10E22000DF6EFB0EDB50B00FDF5C35E2DFCFE6FFC9
:10E230004ADEE552FA0EDB500F0BE66E44DEE55285
:10E24000FA0EDB380F0B0F0B1009E66E3CDEE552C1
:10E25000010EDB6AFC0EDB50F36E010EDBCFF4FF28
:10E26000F350F45C16E2030EDB2A040E01E3DB2A12
:10E27000FD0EDBCFF6FFDB2AFE0EDBCFF7FF01E35F
:10E28000DB2A0800F550E66E32DEE552010EDB2A8D
:10E29000E1D7DF2AC6D7050EE15C02E2E16AE5526A
:10E2A000E16EE552E7CFD9FF1200D9CFE6FFE1CF0B
:10E2B000D9FF070EE126B00EF36E060EF3CFDBFF9B
:10E2C000020E146EFD0EDBCFE7FF1450E726FD0EA5
:10E2D000E7CFDBFF200E146EFE0EDBCFE7FF1450FE
:10E2E000E75EFE0EE7CFDBFF050EF36E040EF3CF05
:10E2F000DBFF050EDB6A040EDBCF14F0050EDBCF6F
:10E3000015F0153401E37AD014500108000E1554AD
:10E3100075E2060EDBCFE7FF040EDB50E726060EA4
:10E32000E7CFDBFFDBCFE6FFCEDDE552FD0EDB50B6
:10E330000F0BE66EC8DDE552FD0EDB380F0B0F0B41
:10E34000100FE66EC0DDE552DE6ADD6ADECF14F046
:10E35000DDCF15F0D890155004E6050E145C000EC4
:10E3600015583BE2020EDB6A030EDB6A020EDBCFBE
:10E3700014F0030EDBCF15F0D890155004E6030E11
:10E38000145C000E155824E2FE0EDBCF14F0156A63
:10E3900014BE1568050E1502F3CF15F01402F3CF65
:10E3A00014F0F4501526100E1426EB0E1522DE5034
:10E3B0001424F66EDD501520F76E0800F550E66E59
:10E3C00096DDE552020EDB2A030ED0E3DB2ACED720
:10E3D000DF2A010EBBE3DB2AB9D7B00EF36E060EBF
:10E3E000F3CFDBFFFE0EDB2AE66A81DDE552040E89
:10E3F000DB06050E01E37FD7DB067DD7070EE15C68
:10E4000002E2E16AE552E16EE552E7CFD9FF120080
:10E41000D9CFE6FFE1CFD9FFE65295688D808D8296
:10E420008A8A8D948D90000000000000000000009A
:10E43000000000008D8000008D9000008350DF6E92
:10E440008D808D84E552E552E7CFD9FF1200D9CFF8
:10E45000E6FFE1CFD9FF020EE126FD0EDBCFE9FF9B
:10E46000FE0EDBCFEAFFEF50DE6EDD6AF90EDBCF8A
:10E47000E9FFFA0EDBCFEAFFEF50E66EFD0EDBCFD1
:10E48000E9FFFE0EDBCFEAFFE552E750EF6EF90E33
:10E49000DBCFE9FFFA0EDBCFEAFFDFCFEFFFFB0EAA
:10E4A000DBCFE9FFFC0EDBCFEAFFEF50DE6EDD6A6B
:10E4B000F70EDBCFE9FFF80EDBCFEAFFEF50E66E99
:10E4C000FB0EDBCFE9FFFC0EDBCFEAFFE552E750A6
:10E4D000EF6EF70EDBCFE9FFF80EDBCFEAFFDFCF01
:10E4E000EFFF020EE15C02E2E16AE552E16EE55205
:10E4F000E7CFD9FF1200D9CFE6FFE1CFD9FFE6522F
:10E50000E00EE66E63EC6FF0E55282DFDF6EFE0E2A
:10E51000DB50DF1ADFCFE6FF77EC6FF0E552EE0E4F
:10E52000E66E63EC6FF0E552E552E552E7CFD9FFB6
:10E530001200D9CFE6FFE1CFD9FFFE0EDB50B00FBE
:10E54000E66E63EC6FF0E552020E146EFD0EDBCF4B
:10E55000E7FF1450E726FD0EE7CFDBFFDB500F0B84
:10E56000E66E63EC6FF0E552FD0EDB380F0B0F0B20
:10E57000100FE66E63EC6FF0E552E552E7CFD9FF7E
:10E580001200D9CFE6FFE1CFD9FF040EE126DF6A02
:10E59000FD0EDB40E840E8401F0BE76E020EE7CFC0
:10E5A000DBFFFD0EDB50070BE76E030EE7CFDBFF53
:10E5B000010EDB6A030EDB50070815E3FC0EDB508F
:10E5C00012E0010EF36E030EDB5004E0D890F33638
:10E5D000E806FCE1F350DF12010EDB2AFC0EDB063D
:10E5E000030EDB2AE7D7FE0EDBCFE6FF020EDBCF02
:10E5F000E6FF9FDFE552E552DFCFE6FF7CDFE55225
:10E60000FB0EDBCF14F0000EE76E1418E8AE02D05C
:10E61000143403D0E750D880145419E2FE0EDB50B6
:10E62000156E166AD890165004E6830E155C000E1F
:10E6300016580DE2FE0EDB28E66E020EDBCFE6FF7B
:10E6400078DFE552E552DFCFE6FF55DFE552FB0EFE
:10E65000DBCF14F0010EE76E1418E8AE02D01434CC
:10E6600003D0E750D880145411E2FE0EDB500008AE
:10E670000DE2FE0EDB04E66E020EDBCFE6FF59DF95
:10E68000E552E552DFCFE6FF36DFE552010EDB5003
:10E69000146E040EE15C02E2E16AE552E16E145090
:10E6A000E552E7CFD9FF1200D9CFE6FFE1CFD9FF7E
:10E6B000020EE126010EDF6EFC0EDBCF14F0000E21
:10E6C000E76E1418E8AE02D0143403D0E750D880B7
:10E6D000145407E2FD0EDB50000803E2FD0EDB06DA
:10E6E000DF2AFC0EDBCF14F0010EE76E1418E8AE43
:10E6F00002D0143403D0E750D880145408E2FD0E41
:10E70000DB50DF24156E3F0E155C01E2DF2ADF507F
:10E710001EE0E66ADFCFE6FFFD0EDBCFE6FFFE0E72
:10E72000DBCFE6FF2EDFE552E552E552E552E76E1C
:10E73000010EE7CFDBFFDB50DF5EFD0EDBCFE7FF37
:10E74000010EDB50E726FD0EE7CFDBFFE0D7020E20
:10E75000E15C02E2E16AE552E16EE552E7CFD9FF02
:10E760001200D9CFE6FFE1CFD9FF160EE126FD0E4C
:10E77000DBCF14F0FB0EDB50D88014541DE2D950CF
:10E78000FB0FE66EFF0EDA20E66ED950FC0FE66E48
:10E79000FF0EDA20E66ED950FD0FE66EFF0EDA208E
:10E7A000E66ED950FE0FE66EFF0EDA20E66E4FDE03
:10E7B000146E080EE15E1450FB0EDBCFE6FFFD0E7B
:10E7C000DB50E552E75C010FE76E060EE7CFDBFF9B
:10E7D000FE0EDB50F36EFC0EDBCFF4FFF350F45C67
:10E7E00014E3FC0EDBCFE6FFFE0EDB50E552E75CE8
:10E7F000010FE76E050EE7CFDBFF010EF36E070E8C
:10E80000F3CFDBFF080EDB6A10D0FE0EDBCFE6FF96
:10E81000FC0EDB50E552E75C010FE76E050EE7CF1B
:10E82000DBFF070EDB68080EDB68050EDB50F36EBE
:10E83000060EDBCFF4FFF350F45C01E2CAD0060E03
:10E84000DB50640D0D0EF3CFDBFF0E0EF4CFDBFFBC
:10E85000050EDB50146E156A0D0EDBCF08F00E0EA0
:10E86000DBCF09F014C00DF015C00EF054EC7BF0B6
:10E870000B0E08C0DBFF0C0E09C0DBFFFE0EDB50E9
:10E88000DF6EFD0EDB50E76E010EE7CFDBFF150EEE
:10E89000DB6AFC0EDB50146E156A086E15C009F0B9
:10E8A000070EDBCF0DF0080EDBCF0EF07AEC7BF01D
:10E8B000090E06C0DBFF0A0E07C0DBFFDF50166E35
:10E8C000176A086E17C009F0070EDBCF0DF0080EAF
:10E8D000DBCF0EF07AEC7BF006C014F007C015F029
:10E8E000090EDBCF18F00A0EDBCF19F0195007180C
:10E8F000E8AE02D0153404D01450185C15501958E5
:10E9000001E2ECD0640E166E176A150EDB50E76E4E
:10E910000B0EDBCF14F00C0EDBCF15F0E7501426F6
:10E92000000E1522130E14C0DBFF140E15C0DBFF02
:10E9300014C008F015C009F016C00DF017C00EF095
:10E9400054EC7BF0020E08C0DBFF130EDBCF14F09B
:10E95000140EDBCF15F0640E0D6E0E6A14C008F0B5
:10E9600015C009F054EC7BF004C014F005C015F09C
:10E97000150E04C0DBFF020EDB5027E0FA0EDBCFE2
:10E98000E6FF020EDBCFE6FF010EDBCFE6FFDFCFB7
:10E99000E6FFF7DDE552E552E552E552E76E040E7B
:10E9A000E7CFDBFF020EDBCFE7FF040EDB50E75EB5
:10E9B000020EE7CFDBFF010EDBCFE7FF040EDB50DB
:10E9C000E726010EE7CFDBFFD6D7070EDB50DF26A9
:10E9D00075D7050EDB50640D110EF3CFDBFF120E61
:10E9E000F4CFDBFF060EDB50146E156A110EDBCF81
:10E9F00008F0120EDBCF09F014C00DF015C00EF0B8
:10EA000054EC7BF00F0E08C0DBFF100E09C0DBFFDB
:10EA1000FE0EDB50DF6EFD0EDB50E76E010EE7CF22
:10EA2000DBFF150EDB6A010EDBCF14F0FB0EDB50B3
:10EA3000D880145453E3640E166E176A150EDB501B
:10EA4000E76E0F0EDBCF14F0100EDBCF15F0E750A2
:10EA50001426000E1522130E14C0DBFF140E15C071
:10EA6000DBFF14C008F015C009F016C00DF017C088
:10EA70000EF054EC7BF0030E08C0DBFF130EDBCF6F
:10EA800014F0140EDBCF15F0640E0D6E0E6A14C078
:10EA900008F015C009F054EC7BF004C014F005C078
:10EAA00015F0150E04C0DBFF030EDBCFF3FFDB0612
:10EAB000F350000910E0FA0EDBCFE6FF010EDBCFCA
:10EAC000E6FFDFCFE6FFF0DDE552E552E552070E47
:10EAD000DB50DF26E9D7010EDB2AA5D7150EDB5068
:10EAE00032080CE2FA0EDBCFE6FF010EDBCFE6FFC9
:10EAF000DFCFE6FFD9DDE552E552E552160EE15CC7
:10EB000002E2E16AE552E16EE552E7CFD9FF120079
:10EB1000000F0F0F00FF0F0000FFFF00F00FFFF0CE
:10EB20000F0F0FF0000F0F0F000000FF000000009C
:10EB3000FF000000F0FF00000F0F0F0F0F00F00F9D
:10EB40000000000000F00FF00F0F0FF0000F0F0F8C
:10EB500000F0000000FF00000FF0000F0F0FFFF0AB
:10EB60000000000F000F0F0FFFFFF00F00FF00006D
:10EB700000F0FF00000F0F0F00F0000000FF0F0F6C
:10EB80000F0FF0FF0F0F0F0F000F0F0F00FF000010
:10EB900000FFFFF0F0F00000F00F0F00000F00008A
:10EBA0000000FF0000000000F00F000F0F0F0FFF2C
:10EBB000000F0F0F00FF000000FF0FF0F0F00FF04C
:10EBC0000F0F0FF0000F0F0000000000F00F0FF00C
:10EBD000F0F0FFF00F0F0FF0000000000000000049
:10EBE0000000000000000000000000000000000025
:10EBF0000000000000000000000000000000000015
:10EC00000000000000000000000000000000000004
:10EC1000004F00000007000700147F147F14242A0F
:10EC20007F2A1223130864623649552250000503D7
:10EC30000000001C2241000041221C0014083E0874
:10EC40001408083E080800503000000808080808AA
:10EC5000006060000020100804023E5149453E005B
:10EC6000427F400042615149462141454B311814D1
:10EC7000127F1027454545393C4A49493001710901
:10EC800005033649494936064949291E00363600EA
:10EC90000000563600000814224100141414141405
:10ECA00000412214080201510906324979413E7E91
:10ECB0001111117E7F494949363E414141227F4130
:10ECC00041221C7F494949417F090909013E4149C7
:10ECD000497A7F0808087F00417F41002040413F7A
:10ECE000017F081422417F404040407F020C027F98
:10ECF0007F0408107F3E4141413E7F090909063EDD
:10ED00004151215E7F09192946464949493101018E
:10ED10007F01013F4040403F1F2040201F3F4038BF
:10ED2000403F6314081463070870080761514945A0
:10ED300043007F41410002040810200041417F0050
:10ED4000040201020440404040400001020400204F
:10ED5000545454787F484444383844444420384418
:10ED600044487F3854545418087E0901020C52520A
:10ED7000523E7F0804047800447D40002040443D1A
:10ED8000007F1028440000417F40007C0418047874
:10ED90007C0804047838444444387C14141408086B
:10EDA0001414187C7C080404084854545420043F6C
:10EDB0004440203C4040207C1C2040201C3C4030F3
:10EDC000403C44281028440C5050503C4464544C5F
:10EDD00044000836410000007F0000004136080072
:05EDE000020102040223
:01EDE500002D
:0AEDE600D9CFE6FFE1CFD9FF030EFD
:10EDF000E12659D8736A820E726E739C949493962E
:10EE0000958C7288728A949EE66AD0D8E552E76E35
:10EE1000020EE7CFDBFF0000D950020FE96EDACF18
:10EE2000EAFFEF50070B020801E00000140EE66E47
:10EE3000BDD8E552E76E020EE7CFDBFF020EDB9690
:10EE4000DB88020EDB80DB92DB94020EDBCFE6FF79
:10EE5000140EE66E3AD8E552E552010EE66EA6D8DB
:10EE6000E552DE6EDD6A0000110EE66E9FD8E552B7
:10EE7000DE6EDD6A0000E66A110EE66E26D8E55207
:10EE8000E5520000110EE66E91D8E552DE6EDD6AA5
:10EE90000000030EE15C02E2E16AE552E16EE55238
:10EEA000E7CFD9FF1200550EA76EAA0EA76E0E016E
:10EEB000FF91090ECC6F0A0ED36F170EFB6F550E24
:10EEC000A76EAA0EA76EFF811200D9CFE6FFE1CF91
:10EED000D9FFE652DF6AFE0EDB50140804E0FE0E96
:10EEE000DB50340806E1140EE66E60D8E552E00B04
:10EEF000DF6E8B9EA49EFE0EDB50756EA4AEFED719
:10EF00000000000000000000000000000000000001
:10EF100000000000000000000000000000000000F1
:10EF200000000000000000000000000000000000E1
:10EF300000000000000000000000000000000000D1
:10EF400000000000000000000000000000000000C1
:10EF500000000000000000000000000000000000B1
:10EF600000000000000000000000000000000000A1
:10EF70000000000000000000000000000000000091
:10EF8000A49EFE0EDB500A0805E1FD0EDB507F0B50
:10EF9000756E04D0FD0EDB50DF10756EA4AEFED78B
:10EFA0008B8EE552E552E7CFD9FF1200D9CFE6FFAD
:10EFB000E1CFD9FF8B9EA49EFE0EDB508009756EBB
:10EFC000A4AEFED70000000000000000000000001A
:10EFD0000000000000000000000000000000000031
:10EFE0000000000000000000000000000000000021
:10EFF0000000000000000000000000000000000011
:10F000000000000000000000000000000000000000
:10F0100000000000000000000000000000000000F0
:10F0200000000000000000000000000000000000E0
:10F0300000000000000000000000000000000000D0
:10F0400000000000A49E756AA4AEFED78B8E75509A
:0AF0500000D0E552E7CFD9FF12000F
:06F05A00030EB16EB3923B
:10F06000B390B396B288B28EB290B292A494B38E9B
:10F0700012002F0E926E0F01E00E486F1F0E496FA7
:10F08000C18EC19CC70EC1140809C16EF80EC1140F
:10F090000209C16E498FC29CC29EC30EC2140809E8
:10F0A000C26EC2801200D9DF39EF78F0D9CFE6FF07
:10F0B000E1CFD9FF020EE126FE0EDB500F0BF36EFF
:10F0C000F346F346C30EC214F310C26EFE0EDB50BD
:10F0D000EA6ABE0FE96E000EEA22EF503F0BF36EB4
:10F0E000F346F346030EB114F310B16EB38EB38240
:10F0F0000000000000000000000000000000000010
:10F1000000000000000000000000000000000000FF
:10F110000000000000000000B392B2800000000078
:10F1200000000000000000000000000000000000DF
:10F1300000000000000000000000000000000000CF
:10F1400000000000B2909E9CC2829EACFED7C3CF4E
:10F15000DEFFC4CFDDFFDECF14F0DDCF15F014C02D
:10F16000F3FF15C0F4FF00D0020EE15C02E2E16A99
:10F17000E552E16EE552E7CFD9FF1200D9CFE6FFA5
:10F18000E1CFD9FF030EE126020EDB6A040EF36E17
:10F19000020EDBCFF4FFF350F45C21E22AD8EF6AD1
:10F1A00030D80CE226D8EF501F0803E122D8EF6ACE
:10F1B00013D01FD8EF2A25D8F5E30ED02CD80CE2B7
:10F1C00018D8EF50E10803E114D8EF6A05D011D840
:10F1D000EF062BD820D8F4E3020EDB2AD7D7030E94
:10F1E000E15C02E2E16AE552E16EE552E7CFD9FF68
:10F1F0001200020EDB50EA6ABE0FE96E000EEA2230
:10F20000120013D8DECF14F0DDCF15F0200E145C01
:10F21000030E15581200D9CFE9FFDACFEAFF200E0E
:10F22000D880EE54030EED541200020EDBCFE6FF41
:0EF230003DDFE552F3CFDEFFF4CFDDFF12002D
:02F23E00426C20
:10F2400061636B20627574746F6E20666F72206DDF
:10F25000656E7500436C6F636B206973206E6F740D
:10F26000207365742100416E616C6F672044657383
:10F2700069676E00416C61726D0053657420446172
:10F280007465005365742054696D6500536574207E
:10F29000414D2F504D003132482F32344820496EB5
:10F2A00074657276616C0044657369676E207633AD
:10F2B0000044657369676E20763200446573696740
:10F2C0006E20763100416E616C6F67204465736912
:10F2D000676E204D656E7500546F67676C65204FD3
:10F2E0004E2F4F46460053657420416C61726D206D
:10F2F00054696D6500416C61726D204D656E7500DD
:10F300006265656E20736574207965742100416CB7
:10F3100061726D20436C6F636B20686173206E6F48
:10F320007420004F4646004F4E00546F67676C656F
:10F3300020416C61726D00253032643A25303264B0
:10F3400000416C61726D2054696D65204D656E756C
:10F35000005365742044617465204D656E750053DB
:10F3600065742054696D65204D656E7500746F205D
:10F370003132482100436C6F636B206973206E6FDC
:10F3800074207365742000414D2F504D204D656EE3
:10F390007500746F2072657475726E2E0050726500
:10F3A000737320627574746F6E2000616E616C6F90
:10F3B00067206D6F64652100436C6F636B20697318
:10F3C0002073657420746F00323448003132480075
:10F3D000496E74657276616C204D656E75002A0009
:10F3E000416E616C6F67004469676974616C0044C9
:10F3F0006973706C6179204D6F64650025303264EB
:10F400003A253032643A2530326400253032642F98
:0BF410002530326400504D00414D00DB
:05F41B00414244464897
:10F42000494B4D4E4F5051525252535252525150DD
:10F430004F4E4D4B4A48464442413F3D3B3938369A
:10F4400034333231302F2F2F2F2F2F2F30313233B3
:10F45000343637393B3D3F0D0D0D0D0E0F10111297
:10F46000141517191B1D1F2022242628292B2C2D8B
:10F470002E2F303030313030302F2E2D2C2B2928AC
:10F48000262422201F1D1B191716141211100F0EEF
:10F490000D0D0D4144474A4E505356585A5C5E5F1D
:10F4A00060606160605F5E5C5A585653514E4A47D7
:10F4B00044413D3A3733312E2B2927252322212160
:10F4C00021212122232527292B2E3033373A3DFFB6
:10F4D00000000001030507090C0E1115181B1F225F
:10F4E00025282C2F313436383A3C3D3E3E3F3E3EB7
:10F4F0003D3C3A383634312F2C2825221F1B181555
:0BF50000110F0C0907050301000000BB
:04F50C000001C2B187
:10F5100022D0C2838B809490550EA76EAA0EA76E40
:10F520000E01FF910E0ED16F550EA76EAA0EA76E9B
:10F53000FF810F0EBA6ECF0EBA140009BA6EBB6A05
:10F540000F01526B800ECB6E040ECA6EA496600E35
:10F55000776E7F0E766E12000001C291C2938B808F
:10F56000949012000001C2A109D08B50010B04E15C
:10F570009450010B01E1010CC291C8DF0001C2A34C
:10F58000C5DFA4A63AD0A496BA50300BE842E842B0
:10F59000E842E842030819E1400EBB5C10E18B90A1
:10F5A0009490BA6ACA6A0E01D16B0F01526BCB6894
:10F5B000766A7768A4960001C281C293010CBB2AC7
:10F5C000CF0EBA140009BA6E000CBA0EE96E0F0E17
:10F5D000EA6EEF50300BE842E842E842E842E82A9F
:10F5E000E850030BF36EF46EF346F346F346F3462E
:0CF5F000CF0EEF14F310EF6EF450000C7F
:04F5FC00D9CFE6FF7E
:10F60000DACFE6FFE1CFD9FFE2CFDAFFE652E652EA
:10F61000E652E652D950F90F146EFF0EDA20156E3D
:10F62000020E14C0DBFF030E15C0DBFF020EDBCFA2
:10F63000E6FF030EDBCFE6FFF90EDBCFE6FFFA0EA7
:10F64000DBCFE6FFFB0EDBCFE6FFD950FC0FE66E0B
:10F65000FF0EDA20E66E7FEC68F0146E070EE15CB8
:10F6600002E2E16AE552E16E1450F3CFDEFFF4CF1F
:10F67000DDFFFC0EDBCFE9FFFD0EDBCFEAFFEF6A1B
:10F68000DECF14F0DDCF15F014C0F3FF15C0F4FF8A
:10F69000040EE15C02E2E16AE552E16EE552E5CF7B
:08F6A000DAFFE7CFD9FF1200E9
:08F6A800006A0EAE5DEF7BF07D
:10F6B0000D6C0E1EE86A0E22001E09AE65EF7BF08F
:10F6C000086C091EE86A0922001EC7EC7CF009BE1E
:10F6D00075EF7BF000AE000C086C091EE86A092289
:10F6E000046C051EE86A0522000C00BE6CEF7BF07E
:10F6F0000188FF0C09C013F008C012F008500D0279
:10F70000F4CF07F0F3CF06F009500E02F4CF09F062
:10F71000F3CF08F00D02F3500726F4500822E86AF0
:10F72000092212500E02F3500726F4500822E86A0C
:10F7300009220EAEA0EF7BF01250085E1350095A5A
:0EF7400013AE000C0D50085E0E50095A000C5E
:02F74E001E0E8D
:10F75000F66EA00EF76E000EF86E00010900F5506F
:10F76000B36F0900F550B46F03E1B36701D03DD02A
:10F770000900F550AE6F0900F550AF6F0900F55064
:10F78000B06F09000900F550E96E0900F550EA6E06
:10F79000090009000900F550B16F0900F550B26F7A
:10F7A00009000900F6CFB5F0F7CFB6F0F8CFB7F003
:10F7B000AEC0F6FFAFC0F7FFB0C0F8FF0001B15315
:10F7C00002E1B25307E00900F550EE6EB107F8E22E
:10F7D000B207F9D7B5C0F6FFB6C0F7FFB7C0F8FF5C
:0CF7E0000001B307000EB45BBFD712009D
:04F7EC00D9CFE6FF8C
:10F7F000DACFE6FFE1CFD9FFE2CFDAFFFB0EDBCFB6
:10F8000014F0FC0EDBCF15F00001800E15141AE188
:10F81000FB0EDBCFE9FFFC0EDBCFEAFFEECFF3FF01
:10F82000EDCFF4FFEE2A000EEF22F3CFE9FFF4CF85
:10F83000EAFFFD0EDBCFEFFFEF50156AF36E15C048
:10F84000F4FF10D0FB0EDB50FE0806E1FD0EDBCF0F
:10F85000E6FF0DEC7DF005D0FD0EDBCFE6FF03ECFF
:10F8600050F0E552E552E5CFDAFFE7CFD9FF1200BD
:10F8700006500B02F3CF02F0F4CF03F00C02F3506A
:10F880000326000EF420046E06500D02F3500426E9
:10F89000000EF420056E06500E02F35005260750A8
:10F8A0000B02F3500326F4500422000E05220750E9
:10F8B0000C02F3500426F450052207500D02F350B9
:10F8C000052608500B02F3500426F4500522085078
:10F8D0000C02F350052609500B02F35005261200C6
:10F8E000FE0EE3CFE9FFFF0EE3CFEAFFF36AF46A0F
:10F8F000EE5203E0F34AF42AFBD71200FF0EE3CFE7
:10F90000F8FFE552FF0EE3CFF7FFE552FF0EE3CF1E
:10F91000F6FFE552E66AE66AE66A0900F55209E092
:10F92000FD0EE32A05E1FE0EE32A02E1FF0EE32AC3
:10F93000F4D7FD0EE3CF07F0FE0EE3CF08F0FF0E85
:06F94000E3CF09F0120004
:0AF94600056A046A036A026A200ED3
:10F95000E76ED89006360736083609360236033683
:10F96000043605360B50025C0C5003580D500458F9
:10F970000E50055809E30B50025E0C50035A0D500F
:0EF98000045A0E50055A062AE72EE4D712004C
:02F98E00056A08
:10F99000046A100EE76ED89008360936043605362C
:10F9A0000D50045C0E50055805E30D50045E0E50DA
:0AF9B000055A082AE72EF0D71200CE
:06F9BA00F36AF46AFF0E7F
:10F9C000E124E96EFF0EE220EA6EED6607D02F0E0D
:0EF9D000EF6404D03A0EEF6001D0F32A12006B
:02F9DE00C00E59
:10F9E000F36E00EE00F00E0E01D81200EA6002D0B5
:0EF9F000EE6AFCD7F350E9601200EE6AFCD715
:02F9FE001DEEFC
:10FA000000F02DEE00F0F86A019CA7EC7BF007EC0B
:0AFA100050F01CEC68F0FBD7120068
:06FA1A00FF0EE350ADBA3F
:10FA200004D0B06AAC8EAD8A949CADA2FED7AE6E07
:06FA3000F36EF46A1200FF
:0AFA360030313233343536373839B9
:07FA4000616263646566006A
:09FA470000000300030003002B82
:10FA5000003000020002002B000300140000000030
