:020000040000FA
:060000008EEF75F0120006
:0600080004EF50F01200AD
:060018000CEF50F0120095
:06A000008EEF75F0120066
:02A00600120046
:06A008001CEF50F01200F5
:02A00E0012003E
:06A018007AEF50F0120087
:02A01E0002003E
:10A0200065EB0000600000002600000029E600004B
:08A03000AB000000010000007C
:08A03800DACFE4FFE2CFDAFF0A
:10A04000E9CFE4FFEACFE4FFF6CFE4FFF7CFE4FF88
:10A05000F5CFE4FFF3CFE4FFF4CFE4FFFACFE4FF62
:10A0600000EE00F0140EE80403E3EECFE4FFFBD7AC
:10A0700000EE14F0070EE80403E3EECFE4FFFBD795
:10A08000E652F2A413D0480ED76EE30ED66E00014E
:10A090009F2B000EA023A03504E29F513B08000E29
:10A0A000A05503E29F6BA06B84D8F294E55200EEBA
:10A0B0001AF0070EE80403E3E5CFEDFFFBD700EE4F
:10A0C00013F0140EE80403E3E5CFEDFFFBD7E5CF73
:10A0D000FAFFE5CFF4FFE5CFF3FFE5CFF5FFE5CFDE
:10A0E000F7FFE5CFF6FFE5CFEAFFE5CFE9FFE5CFE4
:10A0F000DAFF1100D8CFE4FFE0CFE4FFE46EDACF5F
:10A10000E4FFE2CFDAFFE652E552E5CFDAFFE550B1
:10A11000E5CFE0FFE5CFD8FF1000BFEC71F02AECEF
:10A1200072F05FEC70F00AEC68F0E66AEFEC68F051
:10A13000E552120041EC73F0000901E1FBD70F0179
:10A14000486949698DEF50F081B01FD0000182C08D
:10A1500014F083C015F084C016F085C017F0822B70
:10A16000000E832384238523D880010E1454000E0F
:10A170001554000E1654000E175406E2826B836BC2
:10A18000846B856B010E816F11D0000181050EE19A
:10A19000825183118411851104E1816B010E08D075
:10A1A00005D08207000E835B845B855B000E00D0C8
:10A1B000120000019D2B000E9E239E3504E29D514E
:10A1C0003B08000E9E5503E29D6B9E6B01D812006A
:10A1D00000019B2B000E9C2300017F5123E0000116
:10A1E0009C3504E29B510C08000E9C5509E20001CD
:10A1F000800506E1806B010E00019B6F9C6B11D006
:10A2000000019C3504E29B510C08000E9C5509E2AC
:10A210000001805106E1010E806F00019B6F9C6B75
:10A220000ED80CD000019C3504E29B511808000E9A
:10A230009C5504E2010E9B6F9C6B01D8120000013B
:10A240007A2B000E7B23010E781901E179511EE073
:10A25000030E781901E1795119E0050E781901E131
:10A26000795114E0070E781901E179510FE0080ED9
:10A27000781901E179510AE00A0E781901E1795162
:10A2800005E00C0E781901E179510CE17B3504E20F
:10A290007A511F08000E7B5504E2010E7A6F7B6B2A
:10A2A0002DD82BD0040E781901E179510FE0060E5C
:10A2B000781901E179510AE0090E781901E1795123
:10A2C00005E00B0E781901E179510CE17B3504E2D0
:10A2D0007A511E08000E7B5504E2010E7A6F7B6BEB
:10A2E0000DD80BD07B3504E27A511C08000E7B554B
:10A2F00004E2010E7A6F7B6B01D812000001782B0B
:10A30000000E7923793504E278510C08000E795556
:10A3100003E2010E786F796B1200D9CFE6FFE1CF2F
:10A32000D9FF020EE126030EE66EC2EC71F0E55293
:10A33000F3CFDEFFF4CFDDFFDECF14F0DDCF15F07D
:10A34000D890155004E6580E145C020E15581AE207
:10A35000DECF14F0DDCF15F0D890155004E6620E74
:10A36000145C020E15580AE2030EE66EC2EC71F0A0
:10A37000E552F3CFDEFFF4CFDDFFEAD7010EF36E37
:10A38000F46A03D0F36AF46A00D0020EE15C02E2E0
:10A39000E16AE552E16EE552E7CFD9FF1200D9CF6D
:10A3A000E6FFE1CFD9FF020EE126E66AC2EC71F0CA
:10A3B000E552F3CFDEFFF4CFDDFFDECF14F0DDCFCB
:10A3C00015F0D890155004E6580E145C020E15587E
:10A3D00019E2DECF14F0DDCF15F0D890155004E669
:10A3E000620E145C020E155809E2E66AC2EC71F0C6
:10A3F000E552F3CFDEFFF4CFDDFFEBD7010EF36EB6
:10A40000F46A03D0F36AF46A00D0020EE15C02E25F
:10A41000E16AE552E16EE552E7CFD9FF1200D9CFEC
:10A42000E6FFE1CFD9FF040EE126020EDE6EDD6A03
:10A43000130EC26ED9CFE9FFDACFEAFFEE50ED106E
:10A4400010E0C250E76E000EDFCF14F0010EDBCF3C
:10A4500015F0E7501416156A14C0DEFF15C0DDFFB5
:10A46000E9D7C450166E16C017F0166AC350000123
:10A470001624146E000E1720156E020E14C0DBFF9A
:10A48000030E15C0DBFF020EDBCF14F0030EDBCF93
:10A4900015F014C0F3FF15C0F4FF040EE15C03E2F5
:10A4A00000D0E16AE552E16EE552E7CFD9FF120034
:10A4B000D9CFE6FFE1CFD9FF020EE126010EE66E0D
:10A4C000C2EC71F0E552F3CFDEFFF4CFDDFFDECF5B
:10A4D00014F0DDCF15F0D890155004E6200E145C72
:10A4E000030E15581AE2DECF14F0DDCF15F0D89028
:10A4F000155004E6520E145C030E15580AE2010EC4
:10A50000E66EC2EC71F0E552F3CFDEFFF4CFDDFF73
:10A51000EAD7010EF36EF46A03D0F36AF46A00D04E
:10A52000020EE15C02E2E16AE552E16EE552E7CF3C
:10A53000D9FF1200D9CFE6FFE1CFD9FF020EE12605
:10A54000E66EC2EC71F0E552F3CFDEFFF4CFDDFF33
:10A55000DECF14F0DDCF15F0D890155004E6200EB4
:10A56000145C030E15581AE2DECF14F0DDCF15F09F
:10A57000D890155004E6520E145C030E15580AE2EA
:10A58000020EE66EC2EC71F0E552F3CFDEFFF4CFBF
:10A59000DDFFEAD7010EF36EF46A03D0F36AF46AC2
:10A5A00000D0020EE15C02E2E16AE552E16EE552A2
:10A5B000E7CFD9FF1200D9CFE6FFE1CFD9FF040ED4
:10A5C000E1260A0E146E156A9DC008F09EC009F0BF
:10A5D00014C00DF015C00EF0E3EC73F008C0DEFF00
:10A5E00009C0DDFF9DC014F09EC015F00A0E0D6E6F
:10A5F0000E6A14C008F015C009F0E3EC73F004C053
:10A6000014F005C015F0020E14C0DBFF030E15C0D8
:10A61000DBFF000EDFCF08F0010EDBCF09F0050EE7
:10A62000081801E1095046E0040E081801E109503C
:10A6300038E0030E081801E109502AE0020E08185C
:10A6400001E109501CE0010E081801E109500EE07B
:10A65000085001E1095001E036D074C0E6FF200E39
:10A66000E66EBFEC6AF0E552E5522DD074C0E6FF0D
:10A67000240EE66EBFEC6AF0E552E55224D074C0B9
:10A68000E6FF280EE66EBFEC6AF0E552E5521BD0FD
:10A6900074C0E6FF2C0EE66EBFEC6AF0E552E552A0
:10A6A00012D074C0E6FF300EE66EBFEC6AF0E552E1
:10A6B000E55209D074C0E6FF340EE66EBFEC6AF0D6
:10A6C000E552E55200D0020EDBCF08F0030EDBCFDF
:10A6D00009F0090E081801E1095001E17ED0080EC9
:10A6E000081801E1095070E0070E081801E109504F
:10A6F00062E0060E081801E1095054E0050E081842
:10A7000001E1095046E0040E081801E1095038E063
:10A71000030E081801E109502AE0020E081801E1B1
:10A7200009501CE0010E081801E109500EE0085024
:10A7300001E1095001E05AD075C0E6FF200EE66E37
:10A74000BFEC6AF0E552E55251D075C0E6FF240E29
:10A75000E66EBFEC6AF0E552E55248D075C0E6FF00
:10A76000280EE66EBFEC6AF0E552E5523FD075C0A8
:10A77000E6FF2C0EE66EBFEC6AF0E552E55236D0ED
:10A7800075C0E6FF300EE66EBFEC6AF0E552E552AA
:10A790002DD075C0E6FF340EE66EBFEC6AF0E552D0
:10A7A000E55224D075C0E6FF380EE66EBFEC6AF0C5
:10A7B000E552E5521BD075C0E6FF3C0EE66EBFECDD
:10A7C0006AF0E552E55212D075C0E6FF400EE66E23
:10A7D000BFEC6AF0E552E55209D075C0E6FF440EC1
:10A7E000E66EBFEC6AF0E552E55200D0040EE15C83
:10A7F00002E2E16AE552E16EE552E7CFD9FF1200CD
:10A80000D9CFE6FFE1CFD9FF040EE1260A0E146E80
:10A81000156A9FC008F0A0C009F014C00DF015C063
:10A820000EF0E3EC73F008C0DEFF09C0DDFF9FC04F
:10A8300014F0A0C015F00A0E0D6E0E6A14C008F0D8
:10A8400015C009F0E3EC73F004C014F005C015F076
:10A85000020E14C0DBFF030E15C0DBFF000EDFCFBE
:10A8600008F0010EDBCF09F0050E081801E10950D0
:10A8700046E0040E081801E1095038E0030E0818FC
:10A8800001E109502AE0020E081801E109501CE01C
:10A89000010E081801E109500EE0085001E10950CD
:10A8A00001E036D076C0E6FF200EE66EBFEC6AF01F
:10A8B000E552E5522DD076C0E6FF240EE66EBFECE1
:10A8C0006AF0E552E55224D076C0E6FF280EE66E27
:10A8D000BFEC6AF0E552E5521BD076C0E6FF2C0EC5
:10A8E000E66EBFEC6AF0E552E55212D076C0E6FFA4
:10A8F000300EE66EBFEC6AF0E552E55209D076C044
:10A90000E6FF340EE66EBFEC6AF0E552E55200D089
:10A91000020EDBCF08F0030EDBCF09F0090E08189A
:10A9200001E1095001E17ED0080E081801E109504B
:10A9300070E0070E081801E1095062E0060E0818E1
:10A9400001E1095054E0050E081801E1095046E004
:10A95000040E081801E1095038E0030E081801E15F
:10A9600009502AE0020E081801E109501CE0010E0E
:10A97000081801E109500EE0085001E1095001E01A
:10A980005AD077C0E6FF200EE66EBFEC6AF0E552C3
:10A99000E55251D077C0E6FF240EE66EBFEC6AF0B8
:10A9A000E552E55248D077C0E6FF280EE66EBFECD0
:10A9B0006AF0E552E5523FD077C0E6FF2C0EE66E16
:10A9C000BFEC6AF0E552E55236D077C0E6FF300EB4
:10A9D000E66EBFEC6AF0E552E5522DD077C0E6FF97
:10A9E000340EE66EBFEC6AF0E552E55224D077C033
:10A9F000E6FF380EE66EBFEC6AF0E552E5521BD07A
:10AA000077C0E6FF3C0EE66EBFEC6AF0E552E55219
:10AA100012D077C0E6FF400EE66EBFEC6AF0E5525A
:10AA2000E55209D077C0E6FF440EE66EBFEC6AF04F
:10AA3000E552E55200D0040EE15C02E2E16AE55223
:10AA4000E16EE552E7CFD9FF12000C0E00019B1911
:10AA500001E19C5101E1F8D00B0E9B1901E19C51E1
:10AA600001E1E1D00A0E9B1901E19C5101E1CAD03C
:10AA7000090E9B1901E19C5101E1B3D0080E9B190D
:10AA800001E19C5101E19CD0070E9B1901E19C5111
:10AA900001E185D0060E9B1901E19C516FE0050E86
:10AAA0009B1901E19C5159E0040E9B1901E19C5155
:10AAB00043E0030E9B1901E19C512DE0020E9B190E
:10AAC00001E19C5117E0010E9B1901E19C5101E04D
:10AAD000CCD072C0E6FF200EE66EBFEC6AF0E55205
:10AAE000E55273C0E6FF240EE66EBFEC6AF0E55255
:10AAF000E552BBD072C0E6FF200EE66EBFEC6AF0F6
:10AB0000E552E55273C0E6FF280EE66EBFEC6AF030
:10AB1000E552E552AAD072C0E6FF200EE66EBFEC09
:10AB20006AF0E552E55273C0E6FF2C0EE66EBFEC0C
:10AB30006AF0E552E55299D072C0E6FF200EE66E4B
:10AB4000BFEC6AF0E552E55273C0E6FF300EE66EE8
:10AB5000BFEC6AF0E552E55288D072C0E6FF200EE5
:10AB6000E66EBFEC6AF0E552E55273C0E6FF340EC4
:10AB7000E66EBFEC6AF0E552E55277D072C0E6FFB0
:10AB8000200EE66EBFEC6AF0E552E55273C0E6FFB8
:10AB9000380EE66EBFEC6AF0E552E55266D072C040
:10ABA000E6FF200EE66EBFEC6AF0E552E55273C098
:10ABB000E6FF3C0EE66EBFEC6AF0E552E55255D07A
:10ABC00072C0E6FF200EE66EBFEC6AF0E552E55279
:10ABD00073C0E6FF400EE66EBFEC6AF0E552E55248
:10ABE00044D072C0E6FF200EE66EBFEC6AF0E5527C
:10ABF000E55273C0E6FF440EE66EBFEC6AF0E55224
:10AC0000E55233D072C0E6FF240EE66EBFEC6AF068
:10AC1000E552E55273C0E6FF200EE66EBFEC6AF027
:10AC2000E552E55222D072C0E6FF240EE66EBFEC7C
:10AC30006AF0E552E55273C0E6FF240EE66EBFEC03
:10AC40006AF0E552E55211D072C0E6FF240EE66EBE
:10AC5000BFEC6AF0E552E55273C0E6FF280EE66EDF
:10AC6000BFEC6AF0E552E55200D0A5DCC9DD000179
:10AC700080510FE06E0EE66E070EE66E260EE66E53
:10AC8000E60EE66EF1EC69F0E552E552E552E5526A
:10AC90000ED06E0EE66E070EE66E230EE66EE60E24
:10ACA000E66EF1EC69F0E552E552E552E55212002C
:10ACB000180E00019B1901E19C5101E10CD2170E05
:10ACC0009B1901E19C5101E1F5D1160E9B1901E19F
:10ACD0009C5101E1DED1150E9B1901E19C5101E16E
:10ACE000C7D1140E9B1901E19C5101E1B0D1130EA3
:10ACF0009B1901E19C5101E199D1120E9B1901E1CF
:10AD00009C5101E182D1110E9B1901E19C5101E19D
:10AD10006BD1100E9B1901E19C5101E154D10F0E32
:10AD20009B1901E19C5101E13DD10E0E9B1901E1FE
:10AD30009C5101E126D10D0E9B1901E19C5101E1CD
:10AD40000FD10C0E9B1901E19C5101E1F8D00B0EC3
:10AD50009B1901E19C5101E1E1D00A0E9B1901E12F
:10AD60009C5101E1CAD0090E9B1901E19C5101E1FE
:10AD7000B3D0080E9B1901E19C5101E19CD0070E54
:10AD80009B1901E19C5101E185D0060E9B1901E15F
:10AD90009C516FE0050E9B1901E19C5159E0040E96
:10ADA0009B1901E19C5143E0030E9B1901E19C5169
:10ADB0002DE0020E9B1901E19C5117E0010E9B1939
:10ADC00001E19C5101E098D172C0E6FF200EE66ED1
:10ADD000BFEC6AF0E552E55273C0E6FF240EE66E62
:10ADE000BFEC6AF0E552E55287D172C0E6FF200E53
:10ADF000E66EBFEC6AF0E552E55273C0E6FF280E3E
:10AE0000E66EBFEC6AF0E552E55276D172C0E6FF1D
:10AE1000200EE66EBFEC6AF0E552E55273C0E6FF25
:10AE20002C0EE66EBFEC6AF0E552E55265D172C0B9
:10AE3000E6FF200EE66EBFEC6AF0E552E55273C005
:10AE4000E6FF300EE66EBFEC6AF0E552E55254D1F3
:10AE500072C0E6FF200EE66EBFEC6AF0E552E552E6
:10AE600073C0E6FF340EE66EBFEC6AF0E552E552C1
:10AE700043D172C0E6FF200EE66EBFEC6AF0E552E9
:10AE8000E55273C0E6FF380EE66EBFEC6AF0E5529D
:10AE9000E55232D172C0E6FF200EE66EBFEC6AF0DA
:10AEA000E552E55273C0E6FF3C0EE66EBFEC6AF079
:10AEB000E552E55221D172C0E6FF200EE66EBFECEE
:10AEC0006AF0E552E55273C0E6FF400EE66EBFEC55
:10AED0006AF0E552E55210D172C0E6FF200EE66E30
:10AEE000BFEC6AF0E552E55273C0E6FF440EE66E31
:10AEF000BFEC6AF0E552E552FFD072C0E6FF240EC7
:10AF0000E66EBFEC6AF0E552E55273C0E6FF200E34
:10AF1000E66EBFEC6AF0E552E552EED072C0E6FF95
:10AF2000240EE66EBFEC6AF0E552E55273C0E6FF10
:10AF3000240EE66EBFEC6AF0E552E552DDD072C039
:10AF4000E6FF240EE66EBFEC6AF0E552E55273C0F0
:10AF5000E6FF280EE66EBFEC6AF0E552E552CCD073
:10AF600072C0E6FF240EE66EBFEC6AF0E552E552D1
:10AF700073C0E6FF2C0EE66EBFEC6AF0E552E552B8
:10AF8000BBD072C0E6FF240EE66EBFEC6AF0E5525D
:10AF9000E55273C0E6FF300EE66EBFEC6AF0E55294
:10AFA000E552AAD072C0E6FF240EE66EBFEC6AF04E
:10AFB000E552E55273C0E6FF340EE66EBFEC6AF070
:10AFC000E552E55299D072C0E6FF240EE66EBFEC62
:10AFD0006AF0E552E55273C0E6FF380EE66EBFEC4C
:10AFE0006AF0E552E55288D072C0E6FF240EE66EA4
:10AFF000BFEC6AF0E552E55273C0E6FF3C0EE66E28
:10B00000BFEC6AF0E552E55277D072C0E6FF240E3D
:10B01000E66EBFEC6AF0E552E55273C0E6FF400E03
:10B02000E66EBFEC6AF0E552E55266D072C0E6FF0C
:10B03000240EE66EBFEC6AF0E552E55273C0E6FFFF
:10B04000440EE66EBFEC6AF0E552E55255D072C090
:10B05000E6FF280EE66EBFEC6AF0E552E55273C0DB
:10B06000E6FF200EE66EBFEC6AF0E552E55244D0F2
:10B0700072C0E6FF280EE66EBFEC6AF0E552E552BC
:10B0800073C0E6FF240EE66EBFEC6AF0E552E552AF
:10B0900033D072C0E6FF280EE66EBFEC6AF0E552D0
:10B0A000E55273C0E6FF280EE66EBFEC6AF0E5528B
:10B0B000E55222D072C0E6FF280EE66EBFEC6AF0C1
:10B0C000E552E55273C0E6FF2C0EE66EBFEC6AF067
:10B0D000E552E55211D072C0E6FF200EE66EBFECDD
:10B0E0006AF0E552E55273C0E6FF200EE66EBFEC53
:10B0F0006AF0E552E55200D0DBEC52F000EF54F07C
:10B1000000017F5102E0A1DC01D0D2DD1200D9CFD5
:10B11000E6FFE1CFD9FF0A0EE12678C0E6FF79C04D
:10B12000E6FF7AC0E6FF7BC0E6FF190E146EE60E5E
:10B13000156E166A14C0E6FF15C0E6FF16C0E6FFDE
:10B14000D9CFE6FFDACFE6FF8DEC73F0176E090E6C
:10B15000E15E1750020EE66E070EE66ED9CFE6FFEF
:10B16000DACFE6FF2BEC6AF0E552E552E552E55204
:10B170000A0EE15C02E2E16AE552E16EE552E7CFD8
:10B18000D9FF1200120000017E512FE0B9DF250E19
:10B19000E66EB30EE66E6F0EE66EC5EC69F0E55234
:10B1A000E552E552250EE66EB40EE66E6F0EE66EC3
:10B1B000C5EC69F0E552E552E552520EE66EB30E6B
:10B1C000E66E6F0EE66EC5EC69F0E552E552E552AB
:10B1D000520EE66EB40EE66E6F0EE66EC5EC69F0CA
:10B1E000E552E552E55293DF01D0CCDF1200D9CF12
:10B1F000E6FFE1CFD9FF0A0EE1269FC0E6FFA0C01F
:10B20000E6FF9DC0E6FF9EC0E6FF9BC0E6FF9CC038
:10B21000E6FF0A0E146EE60E156E166A14C0E6FFFF
:10B2200015C0E6FF16C0E6FFD9CFE6FFDACFE6FF8E
:10B230008DEC73F0176E0B0EE15E1750500EE66E3C
:10B24000070EE66ED9CFE6FFDACFE6FF2BEC6AF009
:10B25000E552E552E552E5520A0EE15C02E2E16A8E
:10B26000E552E16EE552E7CFD9FF1200D9CFE6FFF4
:10B27000E1CFD9FF040EE1261E0EE66EE66AFD0E52
:10B28000E66EE50EE66EF1EC69F0E552E552E55248
:10B29000E5521E0EE66E030EE66EF50EE66EE50E48
:10B2A000E66EF1EC69F0E552E552E552E5521E0E0C
:10B2B000E66E060EE66EEE0EE66EE50EE66EF1EC5E
:10B2C00069F0E552E552E552E5522AEC72F058EC8D
:10B2D00052F0F3CFDEFFF4CFDDFFD9CFE9FFDACFB5
:10B2E000EAFF010EEE1801E1ED5011E1E66AEFEC24
:10B2F00068F0E5520001060E621901E1635104E1B4
:10B30000030E626F636B03D0060E626F636B9AEC81
:10B3100052F0020EF3CFDBFF030EF4CFDBFFD95068
:10B32000020FE96EDACFEAFF010EEE1801E1ED50EF
:10B3300011E1E66AEFEC68F0E5520001030E6219D4
:10B3400001E1635104E1060E626F636B03D0030EEB
:10B35000626F636B160EE66E62C0E6FFEC0EE66E81
:10B36000E50EE66EF1EC69F0E552E552E552E55284
:10B370004B0EE66E62C0E6FFEC0EE66EE50EE66E84
:10B38000F1EC69F0E552E552E552E552A4EC50F0DB
:10B39000000911E00001030E621901E1635103E1AC
:10B3A000010E7E6F01D07E6B010EF36EF46A040E07
:10B3B000E15C08E205D000017C5101E018DF5CD7B8
:10B3C000E16AE552E16EE552E7CFD9FF1200D9CF2D
:10B3D000E6FFE1CFD9FF040EE1261E0EE66EE66A17
:10B3E000DE0EE66EE50EE66EF1EC69F0E552E55232
:10B3F000E552E552320EE66E030EE66EDA0EE66EAA
:10B40000E50EE66EF1EC69F0E552E552E552E552E3
:10B41000320EE66E060EE66ED60EE66EE50EE66EB1
:10B42000F1EC69F0E552E552E552E5522AEC72F092
:10B4300058EC52F0F3CFDEFFF4CFDDFFD9CFE9FFB8
:10B44000DACFEAFF010EEE1801E1ED5011E1E66AF4
:10B45000EFEC68F0E5520001060E641901E1655158
:10B4600004E1030E646F656B03D0060E646F656BB9
:10B470009AEC52F0020EF3CFDBFF030EF4CFDBFFAA
:10B48000D950020FE96EDACFEAFF010EEE1801E1A2
:10B49000ED5011E1E66AEFEC68F0E5520001030EB1
:10B4A000641901E1655104E1060E646F656B03D018
:10B4B000030E646F656B2A0EE66E64C0E6FFEC0E49
:10B4C000E66EE50EE66EF1EC69F0E552E552E55206
:10B4D000E552460EE66E64C0E6FFEC0EE66EE50E43
:10B4E000E66EF1EC69F0E552E552E552E552A4EC66
:10B4F00050F0000911E00001030E641901E16551EB
:10B5000003E1010E7F6F01D07F6B010EF36EF46AD1
:10B51000040EE15C08E205D000017C5101E067DE29
:10B520005CD7E16AE552E16EE552E7CFD9FF120040
:10B53000D9CFE6FFE1CFD9FF040EE12600017F510C
:10B5400001E19DD01E0EE66EE66ACB0EE66EE50EBC
:10B55000E66EF1EC69F0E552E552E552E552320E45
:10B56000E66E030EE66E260EE66EE60EE66EF1EC75
:10B5700069F0E552E552E552E552320EE66E060EEE
:10B58000E66E230EE66EE60EE66EF1EC69F0E5522D
:10B59000E552E552E5522AEC72F058EC52F0F3CF46
:10B5A000DEFFF4CFDDFFD9CFE9FFDACFEAFF010EEE
:10B5B000EE1801E1ED5011E1E66AEFEC68F0E552BA
:10B5C0000001060E661901E1675104E1030E666F82
:10B5D000676B03D0060E666F676B9AEC52F0020E33
:10B5E000F3CFDBFF030EF4CFDBFFD950020FE96E80
:10B5F000DACFEAFF010EEE1801E1ED5011E1E66A43
:10B60000EFEC68F0E5520001030E661901E16751A5
:10B6100004E1060E666F676B03D0030E666F676BFF
:10B620002A0EE66E66C0E6FFEC0EE66EE50EE66EEE
:10B63000F1EC69F0E552E552E552E552400EE66E56
:10B6400066C0E6FFEC0EE66EE50EE66EF1EC69F024
:10B65000E552E552E552E552A4EC50F000090EE047
:10B660000001030E661901E1675103E1010E806FCD
:10B6700001D0806B010EF36EF46A42D03CD0E66AD2
:10B68000020EE66EB90EE66EE50EE66EF1EC69F0BE
:10B69000E552E552E552E552E66A030EE66EB10E5A
:10B6A000E66EE50EE66EF1EC69F0E552E552E55224
:10B6B000E552E66A050EE66EA30EE66EE50EE66E50
:10B6C000F1EC69F0E552E552E552E552E66A060E04
:10B6D000E66E980EE66EE50EE66EF1EC69F0E55268
:10B6E000E552E552E552A4EC50F0000904E0010EE9
:10B6F000F36EF46A05D000017C5101E078DD1ED7BD
:10B70000040EE15C02E2E16AE552E16EE552E7CF48
:10B71000D9FF1200D9CFE6FFE1CFD9FF040EE12611
:10B720002AEC72F058EC52F0F3CFDEFFF4CFDDFFDD
:10B73000D9CFE9FFDACFEAFF010EEE1801E1ED50B3
:10B740001EE1E66AEFEC68F0E55200016C2B000E9A
:10B750006D237F510BE06D3504E26C510C08000E37
:10B760006D5503E2010E6C6F6D6B09D06D3504E20F
:10B770006C511708000E6D5502E26C6B6D6B9AEC04
:10B7800052F0020EF3CFDBFF030EF4CFDBFFD950F4
:10B79000020FE96EDACFEAFF010EEE1801E1ED507B
:10B7A0001DE1E66AEFEC68F0E55200016C07000E5F
:10B7B0006D5B7F510DE0010E6DAF02D0D89003D0CC
:10B7C0006C5D000E6D5903E20C0E6C6F6D6B06D054
:10B7D000800E6D1503E0170E6C6F6D6B040EE15C4F
:10B7E00002E2E16AE552E16EE552E7CFD9FF1200CD
:10B7F000D9CFE6FFE1CFD9FF040EE1262AEC72F0A3
:10B8000058EC52F0F3CFDEFFF4CFDDFFD9CFE9FFE4
:10B81000DACFEAFF010EEE1801E1ED5011E1E66A20
:10B82000EFEC68F0E55200016E2B000E6F236F35D0
:10B8300004E26E513B08000E6F5502E26E6B6F6BB7
:10B840009AEC52F0020EF3CFDBFF030EF4CFDBFFD6
:10B85000D950020FE96EDACFEAFF010EEE1801E1CE
:10B86000ED500EE1E66AEFEC68F0E55200016E077C
:10B87000000E6F5B800E6F1503E03B0E6E6F6F6BFB
:10B88000040EE15C02E2E16AE552E16EE552E7CFC7
:10B89000D9FF1200D9CFE6FFE1CFD9FF040EE12690
:10B8A0002AEC72F058EC52F0F3CFDEFFF4CFDDFF5C
:10B8B000D9CFE9FFDACFEAFF010EEE1801E1ED5032
:10B8C00011E1E66AEFEC68F0E5520001702B000E22
:10B8D0007123713504E270513B08000E715502E28C
:10B8E000706B716B9AEC52F0020EF3CFDBFF030E1C
:10B8F000F4CFDBFFD950020FE96EDACFEAFF010E79
:10B90000EE1801E1ED500EE1E66AEFEC68F0E55269
:10B9100000017007000E715B800E711503E03B0E95
:10B92000706F716B040EE15C02E2E16AE552E16E58
:10B93000E552E7CFD9FF1200D9CFE6FFE1CFD9FF1B
:10B940000E0EE126190EE66EE66A8A0EE66EE50E2A
:10B95000E66EF1EC69F0E552E552E552E55270C051
:10B96000E6FF71C0E6FF6EC0E6FF6FC0E6FF6CC089
:10B97000E6FF6DC0E6FF0A0E146EE60E156E166A3F
:10B9800014C0E6FF15C0E6FF16C0E6FFD9CFE6FFFC
:10B99000DACFE6FF8DEC73F0176E0B0EE15E1750F9
:10B9A000280EE66E040EE66ED9CFE6FFDACFE6FF8C
:10B9B0002BEC6AF0E552E552E552E5522AEC72F0C2
:10B9C000CFEC51F00C0EF3CFDBFF0D0EF4CFDBFF0D
:10B9D000D9500C0FE96EDACFEAFF010EEE1801E143
:10B9E000ED5021E1E66AEFEC68F0E5524F0E000100
:10B9F000681901E1695113E03D0E681901E16951CF
:10BA00000AE02B0E681901E1695101E00CD03D0EEE
:10BA1000686F696B08D04F0E686F696B04D02B0E8E
:10BA2000686F696B00D08DEC51F00A0EF3CFDBFF2D
:10BA30000B0EF4CFDBFFD9500A0FE96EDACFEAFF25
:10BA4000010EEE1801E1ED5021E1E66AEFEC68F03D
:10BA5000E5524F0E0001681901E1695113E03D0EF6
:10BA6000681901E169510AE02B0E681901E1695179
:10BA700001E00CD04F0E686F696B08D02B0E686F19
:10BA8000696B04D03D0E686F696B00D068C0E6FF3B
:10BA9000030EE66EEC0EE66EE50EE66EF1EC69F076
:10BAA000E552E552E552E55268C0E6FF050EE66E46
:10BAB000EC0EE66EE50EE66EF1EC69F0E552E5524D
:10BAC000E552E5524F0E0001681901E169510FE09E
:10BAD0003D0E681901E1695108E02B0E681901E17A
:10BAE000695101E006D016DE04D082DE02D0D2DE3B
:10BAF00000D0A4EC50F0000927E000019B519C11FC
:10BB000005E06CC09BF06DC09CF003D0180E9B6FDD
:10BB10009C6B6EC09DF06FC09EF070C09FF071C0B6
:10BB2000A0F09B519C1109E09D519E1106E09F5190
:10BB3000A01103E00001010E7C6F010EF36EF46AA8
:10BB40000E0EE15C09E206D000017C5102E0F7EC48
:10BB500058F0F8D6E16AE552E16EE552E7CFD9FF39
:10BB60001200D9CFE6FFE1CFD9FF040EE1262AEC7F
:10BB700072F058EC52F0F3CFDEFFF4CFDDFFD9CFF7
:10BB8000E9FFDACFEAFF010EEE1801E1ED5012E114
:10BB9000E66AEFEC68F0E5520001782B000E79239D
:10BBA000793504E278510C08000E795503E2010E54
:10BBB000786F796B9AEC52F0020EF3CFDBFF030E35
:10BBC000F4CFDBFFD950020FE96EDACFEAFF010EA6
:10BBD000EE1801E1ED5014E1E66AEFEC68F0E55291
:10BBE00000017807000E795B010E79AF02D0D89082
:10BBF00003D0785D000E795903E20C0E786F796BF3
:10BC0000040EE15C02E2E16AE552E16EE552E7CF43
:10BC1000D9FF1200D9CFE6FFE1CFD9FF040EE1260C
:10BC20002AEC72F058EC52F0F3CFDEFFF4CFDDFFD8
:10BC3000D9CFE9FFDACFEAFF010EEE1801E1ED50AE
:10BC40005FE1E66AEFEC68F0E55200017A2B000E46
:10BC50007B23010E781901E179511EE0030E78195A
:10BC600001E1795119E0050E781901E1795114E0EB
:10BC7000070E781901E179510FE0080E781901E1FA
:10BC800079510AE00A0E781901E1795105E00C0EAC
:10BC9000781901E179510BE17B3504E27A511F08F3
:10BCA000000E7B5503E2010E7A6F7B6B29D0040EE8
:10BCB000781901E179510FE0060E781901E1795107
:10BCC0000AE0090E781901E1795105E00B0E7819A7
:10BCD00001E179510BE17B3504E27A511E08000E37
:10BCE0007B5503E2010E7A6F7B6B0AD07B3504E251
:10BCF0007A511C08000E7B5503E2010E7A6F7B6BB4
:10BD00009AEC52F0020EF3CFDBFF030EF4CFDBFF11
:10BD1000D950020FE96EDACFEAFF010EEE1801E109
:10BD2000ED5065E1E66AEFEC68F0E55200017A0754
:10BD3000000E7B5B010E781901E179511EE0030EC4
:10BD4000781901E1795119E0050E781901E179516D
:10BD500014E0070E781901E179510FE0080E781907
:10BD600001E179510AE00A0E781901E1795105E003
:10BD70000C0E781901E179510DE1010E7BAF02D073
:10BD8000D89003D07A5D000E7B5903E21F0E7A6FC4
:10BD90007B6B2DD0040E781901E179510FE0060E6E
:10BDA000781901E179510AE0090E781901E1795118
:10BDB00005E00B0E781901E179510DE1010E7BAF21
:10BDC00002D0D89003D07A5D000E7B5903E21E0E9C
:10BDD0007A6F7B6B0CD0010E7BAF02D0D89003D072
:10BDE0007A5D000E7B5903E21C0E7A6F7B6B040EAA
:10BDF000E15C02E2E16AE552E16EE552E7CFD9FF8C
:10BE00001200D9CFE6FFE1CFD9FF0E0EE126190EC1
:10BE1000E66EE66A7C0EE66EE50EE66EF1EC69F023
:10BE2000E552E552E552E55278C0E6FF79C0E6FFFB
:10BE30007AC0E6FF7BC0E6FF190E146EE60E156EA3
:10BE4000166A14C0E6FF15C0E6FF16C0E6FFD9CF9C
:10BE5000E6FFDACFE6FF8DEC73F0176E090EE15EB8
:10BE600017502D0EE66E040EE66ED9CFE6FFDACF40
:10BE7000E6FF2BEC6AF0E552E552E552E5522AEC7A
:10BE800072F0CFEC51F00C0EF3CFDBFF0D0EF4CFC0
:10BE9000DBFFD9500C0FE96EDACFEAFF010EEE1886
:10BEA00001E1ED5018E1E66AEFEC68F0E552420E70
:10BEB00000016A1901E16B510AE0300E6A1901E1D3
:10BEC0006B5101E008D0420E6A6F6B6B04D0300EEC
:10BED0006A6F6B6B00D08DEC51F00A0EF3CFDBFF75
:10BEE0000B0EF4CFDBFFD9500A0FE96EDACFEAFF71
:10BEF000010EEE1801E1ED5018E1E66AEFEC68F092
:10BF0000E552420E00016A1901E16B510AE0300E60
:10BF10006A1901E16B5101E008D0420E6A6F6B6B48
:10BF200004D0300E6A6F6B6B00D06AC0E6FF030E60
:10BF3000E66EEC0EE66EE50EE66EF1EC69F0E552AB
:10BF4000E552E552E5526AC0E6FF050EE66EEC0EDC
:10BF5000E66EE50EE66EF1EC69F0E552E552E5526B
:10BF6000E552420E00016A1901E16B5108E0300E02
:10BF70006A1901E16B5101E004D04CDE02D0F1DD21
:10BF800000D0A4EC50F0000907E0010EF36EF46A53
:10BF90000E0EE15C09E206D000017C5102E0F7ECF4
:10BFA00058F035D7E16AE552E16EE552E7CFD9FFA7
:10BFB00012000A0EE66EE66A710EE66EE50EE66E99
:10BFC000F1EC69F0E552E552E552E5521200D9CFA5
:10BFD000E6FFE1CFD9FF020EE126E66AEFEC68F05A
:10BFE000E552060E0001601901E161516DE0050E98
:10BFF000601901E1615158E0040E601901E16151DD
:10C0000043E0030E601901E161512DE0020E601959
:10C0100001E1615117E0010E601901E1615101E098
:10C0200063D036EC59F0F3CF14F0F4CF15F0010ED5
:10C03000141801E1155005E1E66AEFEC68F0E552ED
:10C0400068D052D0E7EC59F0F3CF14F0F4CF15F0EC
:10C05000010E141801E1155005E1E66AEFEC68F0F5
:10C06000E55257D041D098EC5AF0F3CF14F0F4CF0A
:10C0700015F0010E141801E1155005E1E66AEFEC28
:10C0800068F0E55246D030D057DCF3CF14F0F4CF4F
:10C0900015F0010E141801E1155005E1E66AEFEC08
:10C0A00068F0E55236D020D0ACDEF3CF14F0F4CFF8
:10C0B00015F0010E141801E1155005E1E66AEFECE8
:10C0C00068F0E55226D010D074DFF3CF14F0F4CF2F
:10C0D00015F0010E141801E1155005E1E66AEFECC8
:10C0E00068F0E55216D000D08DEC51F0F3CFDEFFB2
:10C0F000F4CFDDFFD9CFE9FFDACFEAFF010EEE186A
:10C1000001E1ED5005E1E66AEFEC68F0E55201D09F
:10C1100068D7020EE15C02E2E16AE552E16EE552A7
:10C12000E7CFD9FF1200D9CFE6FFE1CFD9FF060E46
:10C13000E126060EE66E010EE66EFD0EE66EE50EDB
:10C14000E66EF1EC69F0E552E552E552E552060E75
:10C15000E66E020EE66E600EE66EE50EE66EF1EC41
:10C1600069F0E552E552E552E552060EE66E030E21
:10C17000E66E560EE66EE50EE66EF1EC69F0E552FF
:10C18000E552E552E552060EE66E040EE66E4D0EE1
:10C19000E66EE50EE66EF1EC69F0E552E552E55229
:10C1A000E552060EE66E050EE66E440EE66EE50EF0
:10C1B000E66EF1EC69F0E552E552E552E552060E05
:10C1C000E66EE66E3E0EE66EE50EE66EF1EC69F0AA
:10C1D000E552E552E552E552E66A60C0E6FFEC0E34
:10C1E000E66EE50EE66EF1EC69F0E552E552E552D9
:10C1F000E552640EE66E60C0E6FFEC0EE66EE50EFC
:10C20000E66EF1EC69F0E552E552E552E5522AECB2
:10C2100072F058EC52F0F3CFDEFFF4CFDDFFD9CF50
:10C22000E9FFDACFEAFF010EEE1801E1ED5014E16B
:10C23000E66AEFEC68F0E55200016007000E615B12
:10C24000010E61AF02D0D89003D0605D000E61593D
:10C2500003E2060E606F616B9AEC52F0020EF3CFB0
:10C26000DBFF030EF4CFDBFFD950020FE96EDACF0C
:10C27000EAFF010EEE1801E1ED5012E1E66AEFEC83
:10C2800068F0E5520001602B000E6123613504E285
:10C2900060510608000E615503E2010E606F616B8C
:10C2A000A4EC50F0000901E092DE8DEC51F0040E98
:10C2B000F3CFDBFF050EF4CFDBFFD950040FE96E9F
:10C2C000DACFEAFF010EEE1801E1ED500DE10001B9
:10C2D0007D6B010E606F616BE66AEFEC68F0E55212
:10C2E000060EE15C09E206D000017C5102E0F7ECA9
:10C2F00058F01FD7E16AE552E16EE552E7CFD9FF6A
:10C3000012009AEC50F0050ED56ED08EF184E00E3E
:10C31000F26ED58E00017C5112E07D5103E1C3EC39
:10C3200058F001D000DFA4EC50F0000907E0E66A05
:10C33000EFEC68F0E5520001010E7D6F2BD07D51CE
:10C3400028E10A0EE66E030EE66E2C0EE66EE50E92
:10C35000E66EF1EC69F0E552E552E552E552020E67
:10C36000E66E050EE66E160EE66EE50EE66EF1EC76
:10C3700069F0E552E552E552E552A4EC50F00009AF
:10C3800007E00001010E7D6FE66AEFEC68F0E55210
:08C3900001D0C9DEBFD7120085
:08C3980008EC67F0FB0EDBCF9F
:10C3A000F3FFDB06F35000090AE056EC67F0FA0EE3
:10C3B000C1EC67F0F3E1151CF1E1010E01D0000EB4
:10C3C00037EF67F008EC67F03B0EE12402E3E16829
:10C3D000E652E16E010EDB6A020EDB6AF90EDBCF7C
:10C3E000F6FFFA0EDBCFF7FFFB0EDBCFF8FF0800FE
:10C3F000F550DF6EDF5002E15BEF66F0250EDF5C8B
:10C4000002E04EEF66F0030EDB6A040EDB6A050EF7
:10C41000DB6A060EDB6A070EDB6A70EC66F02D0E37
:10C42000DF5C0CE02B0EDF5C09E0200EDF5C06E039
:10C43000230EDF5C03E0300EDF5C1AE1DF50300AD0
:10C4400014E0130A0FE0030A0AE00B0A05E0060AEB
:10C45000E4E1030EDB80E1D7030EDB82DED7030EBF
:10C46000DB84DBD7030EDB86D8D7030EDB88D5D77A
:10C470002A0EDF5C1BE16CEC66F0BAEC66F010E0B3
:10C48000030EDB8008680968130EDBCF0DF0140E75
:10C49000DBCF0EF009EC74F0040E06C0DBFF03D016
:10C4A000130EA3EC66F070EC66F00BD0090EDB6A9D
:10C4B00011EC67F003E085EC67F0FAD7090EA3EC06
:10C4C00066F0030EDBB0DB982E0EDF5C1BE170EC38
:10C4D00066F02A0EDF5C0BE16CEC66F0BAEC66F0FD
:10C4E00003E1130EF5EC66F070EC66F00BD0090E6C
:10C4F000DB6A11EC67F003E085EC67F0FAD7090E10
:10C50000F5EC66F0680EDF5C07E170EC66F0680E33
:10C51000DF5C1DE1030E18D0740EDF5C17E07A0EAD
:10C52000DF5C14E0480EDF5C06E0540EDF5C03E0E5
:10C530005A0EDF5C02E1020E07D06C0EDF5C03E0F6
:10C540006A0EDF5C04E1010E48EC67F0C9DBDF50E6
:10C550006E0A01E17FD31E0A01E192D1200A01E1B6
:10C560008FD13F0A01E149D11A0A01E146D10D0AF2
:10C5700001E143D1200A01E140D13A0A01E13DD174
:10C58000200A01E13AD1260A01E135D10D0A01E183
:10C5900032D11A0A01E1D9D0200A4AE0300A1FE05C
:10C5A000460A0EE0250A01E083D3D950F90FE96E5F
:10C5B000FF0EDA20EA6E010EEE5E000EEE5AEE5A23
:10C5C00056EC67F0250EE66E95DB03E1151C01E1E4
:10C5D00069D352EC67F001E26BD3DB2A69D3080E12
:10C5E000DB6A040EDB50010806E2040EDB041AECE1
:10C5F00067F0DB508BDB080EDB5009E0030EDB50ED
:10C60000010B05E172DB01E04DD3080EDB6A64DB50
:10C61000EFCFDFFFCAEC67F003E1151C01E142D365
:10C6200052EC67F001E3DB2A60DB01E141D33AD34E
:10C63000070EDB5002080FE196EC67F0030E5DEC8D
:10C6400067F00E0EEECFDBFF0F0EEECFDBFF100E0E
:10C65000EECFDBFF20D0F70EDBCF17F0F80EDBCFED
:10C6600018F0020E175E000E185AF70E17C0DBFF07
:10C67000F80E18C0DBFF17C0E9FF18C0EAFF4DEC49
:10C6800067F0166A0E0E14C0DBFF0F0E15C0DBFF3D
:10C69000100E16C0DBFF0E0EDBCFE6FF0F0EDBCF5A
:10C6A000E6FF100EDBCFE6FF0DEC75F0E552E5522C
:10C6B000E552130E07C0DBFF140E08C0DBFF060EA9
:10C6C000DB5005E0130E91EC67F001E26ADBB5EC9C
:10C6D00067F002E2130E37DB78EC67F006E0040E39
:10C6E00091EC67F002E2050E2EDB030EDBB005D005
:10C6F000FCDA01E0D7D2080EDB6A090EDB6A0E0E07
:10C70000DBCFF6FF0F0EDBCFF7FF100EDBCFF8FF0E
:10C710000800F550DF6EDF5014E0BBEC67F011E26B
:10C72000CAEC67F003E1151C01E1BCD2BBDB01E3FD
:10C73000DB2A090EDB2AD9500E0FE96E000ECBDB87
:10C74000E7D7D3DA01E1B4D2ADD2C6DA110EEECF1B
:10C75000DBFF120EEDCFDBFF110EDBCFE6FF120E7B
:10C76000DBCFE6FFFFEC74F0E552E552130EF3CF9A
:10C77000DBFF140EF4CFDBFF060EDB5004E0130EDC
:10C78000D0DB01E20EDBB5EC67F002E2130EDBDA80
:10C79000AFDB05E0040EC5DB02E2050ED4DA030EC2
:10C7A000DBB005D0A2DA01E07DD2080EDB6A090E0B
:10C7B000DB6A110EDBCFE9FF120EDBCFEAFFEFCF12
:10C7C000DFFFDF5014E0D7DB12E2E4DB03E1151CEE
:10C7D00001E168D267DB01E3DB2A090EDB2A110ED7
:10C7E000DB2ADBCFE9FF120EE8E3DB2AE6D77DDAAE
:10C7F00001E15ED257D2030EDB8E070EDB0410E19F
:10C8000095DB040E5ADB0A0EEECFDBFF0B0EEECFEC
:10C81000DBFF0C0EEECFDBFF0D0EEECFDBFF6CD09F
:10C82000070EDB5003082CE1030EDBAE0DD0B2DAAD
:10C83000020E76DAEFCF14F0156A166A176A14AE94
:10C8400039D01568166835D0F70EDBCF15F0F80E25
:10C85000DBCF16F0020E155E000E165AF70E15C04D
:10C86000DBFFF80E16C0DBFF15C0E9FF16C0EAFFBC
:10C87000EFCF14F00A0E14C0DBFF0B0EDB6A38D0CA
:10C88000070EDB50020809E1030EDBAE04D059DBD2
:10C8900016AE10D00ED055DB0DD0030EDBAE12D08D
:10C8A00079DA020E3DDAF9DA166A176A15AE02D0A5
:10C8B00016681768E2DA0C0E16C0DBFF0D0E17C003
:10C8C000DBFF1AD0F70EDBCF16F0F80EDBCF17F038
:10C8D000020E165E000E175AF70E16C0DBFFF80E9A
:10C8E00017C0DBFF16C0E9FF17C0EAFFD6DAC5DACA
:10C8F0000C0EDB6A0D0EDB6A060EDB5005E1010E45
:10C90000F36E050EF3CFDBFF150EDB6A160EDB6A46
:10C91000D950370F146E000EDA20156E390E14C080
:10C92000DBFF3A0E15C0DBFF380EDB6A080EDB6A50
:10C930000A0EAEDADF50780A12E0200A10E0280A68
:10C940000CE0200A0AE03F0A06E00D0A02E0200A95
:10C9500008E1020E05D0080E03D0080EDF26100EE7
:10C9600097DA030EDBBE02D0DB92DB94DB50800B48
:10C9700024E08ADAD890030EEB50000A08E6000E95
:10C98000EE5C000EEE58000EEE58000EEE5815E26A
:10C9900013DA0B680C680D680E68C7EC74F00A0EA9
:10C9A00002C0DBFF0B0E03C0DBFF0C0E04C0DBFF7D
:10C9B0000D0E05C0DBFF2D0E08D0030EDBA202D04A
:10C9C0002B0E03D0DBA408D0200EF36E170EF3CF8E
:10C9D000DBFF150EDB2A02D0170EDB6A050EDB50DB
:10C9E00003E1B7D901E189D0540E146EEB0E156E38
:10C9F000000E166E070EDBCF17F0186A196A1A6A56
:10CA000017C00BF018C00CF019C00DF01AC00EF0D2
:10CA1000D3D932EC75F014500224F36E1550032074
:10CA2000F46E16500420F86EF4CFF7FFF3CFF6FF44
:10CA30000800090EF5CFDBFF580EDF5C0FE1610E39
:10CA4000F36E090E7BD90AE3200E146E090EDBCFBC
:10CA5000E7FF1450E75E090EE7CFDBFF070EDBCFE1
:10CA600014F0156A166A176A0FDA14C00BF015C0B5
:10CA70000CF016C00DF017C00EF0EECF06F0EECFA2
:10CA800007F0EECF08F0EFCF09F032EC75F009C0F7
:10CA9000EDFF08C0EDFF07C0EDFF06C0EFFF390E48
:10CAA000DBCFE9FFDB063A0EDBCFEAFF01E2DB0674
:10CAB000090EDBCFEFFF150EDB2A4BD995E1030EF4
:10CAC000DBA61DD06F0EDF5C06E1C1D918E3150EA1
:10CAD000DB285BDA14D0780EDF5C09E0580EDF5CEF
:10CAE00006E0620EDF5C03E0420EDF5C08E1020E4E
:10CAF000F36E160EF3CFDBFF02D0150EDB6A030ECA
:10CB0000DB50100B0EE0040EDBCF14F0050EDB50F3
:10CB1000D880145406E2060EDB5003E1040EDB500D
:10CB200034DA95D90AE2050EDBCFE7FF150EDB50AC
:10CB3000E75E050EE7CFDBFF02D0050EDB6A040ED1
:10CB4000DBCF14F0160E45D9D880145414E2160E1B
:10CB5000DBCFE6FF150EDBCFE6FF040EDBCFE6FFF3
:10CB6000050EDB50E552E75CE552D880E754E5520C
:10CB7000D880E7545FD9030EDB50010B0BE1080EA0
:10CB8000DB5008E0B2D801E08DD0080EDB50BED8F3
:10CB9000080EDB6A170EDB5007E088D9170EF1D9B3
:10CBA00003E1151C01E17ED0160EDB5016E07ED9A4
:10CBB000300EE66E9FD802E1151C74E077D9DFCF06
:10CBC000E6FF85EC74F0E552E552E552F4CF15F03E
:10CBD0000001F31C02E1151C65E0050EDBCF14F02B
:10CBE000160EDB50D880145409E2050EDBCFE7FFA8
:10CBF000160EDB50E75E050EE7CFDBFF300EE66E6C
:10CC0000050ECBD94FE1390EDB2ADBCFE9FF3A0E17
:10CC100001E3DB2ADBCFEAFF090EEFCFDBFFDB50BE
:10CC20000EE044D9090EADD902E1151C3BE0390EE6
:10CC3000DB2ADBCFE9FF3A0EEDE3DB2AEBD755D851
:10CC400031E1160EDBCFE6FF080EC3D8E552E7242C
:10CC50005DD82ED0070EDB50030A1CE0010A14E059
:10CC6000030A07E07BD9DBCFEEFF020EDBCFEDFF3F
:10CC70001FD0F5D8196A17AE02D0186819682CD8D9
:10CC8000BCD819C0EEFF14D0EAD817BE186824D853
:10CC9000B4D80ED063D9DBCFEFFF0AD07BD905E142
:10CCA000151C03E1F368F46810D0FCD801E3DB2A1B
:10CCB00079D9F7EF61F0010EDBCF14F0020EDBCF74
:10CCC00015F014C0F3FF15C0F4FF3B0EE15C02E267
:10CCD000E16AE552E16ECBD029D9020E5DEF67F033
:10CCE00061D90800F550DF6E1200200EE66E080EC6
:10CCF000CDEF67F085EC74F0E552E552E552F3CFE5
:10CD000014F0F4CF15F00001F31C1200146E156A34
:10CD1000D950010F4DD91450EE261550ED221200B6
:10CD2000185E000E195AF70E18C0DBFFF80E19C076
:10CD3000DBFF18C0E9FF19C0EAFF1200DBCFF4FFE8
:10CD4000F350F45C1200DB50E76E040EE7CFDBFF1C
:10CD500012000A0EDBCF14F00B0EDBCF15F00C0E19
:10CD6000DBCF16F00D0EDBCF17F014501510161098
:10CD700017101200130EEECFDBFF140EEDCFDBFF0A
:10CD8000130EDBCF14F0140EDBCF15F00001800E74
:10CD900015141200F70EDBCF18F0F80EDBCF19F0E8
:10CDA0001200050EDB50E66ED950130F01D9E55283
:10CDB000E750EE6EED6A12000A0EDBCF06F00B0EA6
:10CDC000DBCF07F00C0EDBCF08F00D0EDBCF09F048
:10CDD0001200DBCFE6FF150EDBCFE6FF050EDB50C2
:10CDE000E552E724E552E7241200DB50CED8010ECD
:10CDF000F36E060EF3CFDBFF1200EE50EFCFEAFF2B
:10CE0000E96E16C0EEFF17C0EEFF18C0EEFF12006D
:10CE1000D9CFE6FFDACFE6FFE1CFD9FFE2CFDAFFE5
:10CE20001200DFCFE6FFE66A6CEC75F0E552E552E2
:10CE3000F3501200E76E080EE7CFDBFF1200EECFD3
:10CE400014F0EECF15F0EFCF16F0176A1200050EB2
:10CE5000DBCF14F0150EDB50D88014541200010EF5
:10CE6000DBCF16F0020EDBCF17F0186A1200E55286
:10CE7000E5CFDAFFE7CFD9FF12000A0E14C0DBFFBF
:10CE80000B0E15C0DBFF1200D9500A0FD8EF67F068
:10CE9000F36E070EF3CFDBFF1200EECF14F0EFCFEF
:10CEA00015F01200010EDB2A020E1200FC0EDBCF81
:10CEB000E6FFFD0EDBCFE6FF1200145E000E155AF2
:10CEC000F70E14C0DBFFF80E15C0DBFF14C0E9FF3E
:10CED00015C0EAFF1200DA20EA6EEF2AEECFF6FF65
:10CEE000000EEF22EECFF7FFEF22EECFF8FF120099
:10CEF000040EDBCFE6FF130EDB50E552E75C9ADF52
:10CF0000DB5004DF060EDB501200090EDB500A0D69
:10CF1000F350DF24D00FE76E090EE7CFDBFF70EF91
:10CF200066F0DB50F36E050E9EEF66F0F70EDBCF7A
:10CF300014F0F80EDBCF15F01200DFCFE6FF7AEF2A
:10CF400066F028DF030EECDE1FEF67F0CCEC61F03B
:10CF5000E552E552E552E55200091200BDDEEE5001
:10CF6000EFCFEAFFE96E010E1200130EDB50F36EF5
:10CF7000040E9EEF66F0040EDB50F36E090E9EEF7A
:10CF800066F0DBCFE6FF7AEF66F0E76E050EE7CFDF
:10CF9000DBFF12008BDF9DEF67F0DBCFE6FF86DF64
:10CFA000A6EF67F0D950F90FE96EFF0E6BEF67F04F
:0ACFB000E96E000EDA20EA6E1200AE
:06CFBA00D9CFE6FFE1CF34
:10CFC000D9FF020EE126FD0EDBCF14F0DB06FE0ECC
:10CFD000DBCF15F001E2DB061450151011E0DE6A1C
:10CFE000DD6ADECF14F0DDCF15F0E30E145C0D0E1C
:10CFF000155805E2DF2A010E01E3DB2AF2D7E3D759
:10D00000020EE15C02E2E16AE552E16EE552E7CF31
:10D01000D9FF1200D9CFE6FFE1CFD9FF060EE126F6
:10D020008D9296928D9096908D8496948A9A939AEA
:10D030008C92DE6ADE6ADE6ADD6ADD52DD52D9CFAD
:10D04000E9FFDACFEAFF640EEE5C000EEE58000E48
:10D05000EE58000EEE580AE2D9CFE9FFDACFEAFF28
:10D06000EE2A000EEE22EE22EE22E9D78C82DE6A54
:10D07000DE6ADE6ADD6ADD52DD52D9CFE9FFDACF42
:10D08000EAFF640EEE5C000EEE58000EEE58000E45
:10D09000EE580AE2D9CFE9FFDACFEAFFEE2A000E16
:10D0A000EE22EE22EE22E9D7AE0EE66E70D8E55201
:10D0B000DB0EE66E6CD8E552230EE66E68D8E552BC
:10D0C000D90EE66E64D8E552220EE66E60D8E552BF
:10D0D000A10EE66E5CD8E552C80EE66E58D8E55251
:10D0E000DA0EE66E54D8E552120EE66E50D8E552CE
:10D0F000A80EE66E4CD8E5523F0EE66E48D8E552D3
:10D10000D50EE66E44D8E552A00EE66E40D8E55244
:10D11000810EE66E3CD8E552600EE66E38D8E552D8
:10D12000D30EE66E34D8E552E66A31D8E552A60E43
:10D13000E66E2DD8E552AD0EE66E29D8E5528B0E7F
:10D14000E66E25D8E552AF0EE66E21D8E5520A0EFE
:10D15000E66EE66A32DFE552E552A40EE66E17D8B7
:10D16000E552400EE66E13D8E552020EE66E0FD879
:10D17000E552100EE66E0BD8E552060EE15C02E2B7
:10D18000E16AE552E16EE552E7CFD9FF1200D9CF4F
:10D19000E6FFE1CFD9FF956AFE0EDB508C6E8D80E5
:10D1A0008D828A9A8D948D928D828D849568E552B8
:10D1B000E7CFD9FF1200D9CFE6FFE1CFD9FF956ABB
:10D1C000FE0EDB508C6E8D808D828A8A8D948D92BE
:10D1D0008D828D849568E552E7CFD9FF1200D9CFB3
:10D1E000E6FFE1CFD9FF020EE126B00EDF6EB80EEA
:10D1F000DF5C23E2DFCFE6FFCADFE552020EE66E18
:10D20000C6DFE552100EE66EC2DFE552010EDB6AA4
:10D21000DB50146E156AD890155004E6840E145C29
:10D22000000E155808E2FE0EDBCFE6FFC4DFE55224
:10D23000010EDB2AEDD7DF2ADAD7020EE15C03E22A
:10D2400000D0E16AE552E16EE552E7CFD9FF120066
:10D25000D9CFE6FFE1CFD9FF200E146EFE0EDBCF53
:10D26000E7FF1450E75EFE0EE7CFDBFFDBCFF6FFF4
:10D27000F76AF6BEF768050EF702F3CFF7FFF6027E
:10D28000F3CFF6FFF450F726E20EF626DE0EF72275
:10D290000800F550E66E8FDFE552FE0EDBCFF6FF9D
:10D2A000F76AF6BEF768050EF702F3CFF7FFF6024E
:10D2B000F3CFF6FFF450F726E20EF626DE0EF72245
:10D2C000010EF626000EF7220800F550E66E73DF19
:10D2D000E552FE0EDBCFF6FFF76AF6BEF768050EE5
:10D2E000F702F3CFF7FFF602F3CFF6FFF450F7267D
:10D2F000E20EF626DE0EF722020EF626000EF722CA
:10D300000800F550E66E57DFE552FE0EDBCFF6FF64
:10D31000F76AF6BEF768050EF702F3CFF7FFF602DD
:10D32000F3CFF6FFF450F726E20EF626DE0EF722D4
:10D33000030EF626000EF7220800F550E66E3BDFDE
:10D34000E552FE0EDBCFF6FFF76AF6BEF768050E74
:10D35000F702F3CFF7FFF602F3CFF6FFF450F7260C
:10D36000E20EF626DE0EF722040EF626000EF72257
:10D370000800F550E66E1FDFE552E66A1CDFE55255
:10D3800000D0E552E7CFD9FF1200D9CFE6FFE1CFB9
:10D39000D9FFE652FD0EDBCFE6FFF9DEE552020EC5
:10D3A000146EFC0EDBCFE7FF1450E726FC0EE7CF30
:10D3B000DBFFDB500F0BE66EEADEE552FC0EDB38DE
:10D3C0000F0B0F0B100FE66EE2DEE552FE0EDBCF09
:10D3D000E6FF3EDFE55200D0E552E552E7CFD9FF48
:10D3E0001200D9CFE6FFE1CFD9FFFC0EDB50B00F22
:10D3F000E76EFC0EE7CFDBFFFB0EDBCFE6FFFC0E9C
:10D40000DBCFE6FFFD0EDBCFF6FFFE0EDBCFF7FF37
:10D410000800F550E66EB9DFE552E552E552FD0E23
:10D42000DB2ADBCFF6FFFE0E01E3DB2ADBCFF7FFC3
:10D430000800F5500CE0FD0EDBCFF6FFFE0EDBCF53
:10D44000F7FF0800F550E66E03DFE552E8D7E55236
:10D45000E7CFD9FF1200D9CFE6FFE1CFD9FFFC0E0D
:10D46000DB50B00FE76EFC0EE7CFDBFFFB0EDBCF30
:10D47000E6FFFC0EDBCFE6FFFD0EDBCFE9FFFE0E85
:10D48000DBCFEAFFEF50E66E80DFE552E552E55272
:10D49000FD0EDB2ADBCFE9FFFE0E01E3DB2ADBCF4B
:10D4A000EAFFEF500BE0FD0EDBCFE9FFFE0EDBCF16
:10D4B000EAFFEF50E66ECCDEE552EAD7E552E7CF61
:10D4C000D9FF1200D9CFE6FFE1CFD9FF050EE12643
:10D4D000030EDB6A040EDB6A020E146EFA0EDBCF5B
:10D4E000E7FF1450E726FA0EE7CFDBFFF90EDB501B
:10D4F000B00FDF6EFB0EDB50B00FDF5C35E2DFCF2D
:10D50000E6FF45DEE552FA0EDB500F0BE66E3FDE1E
:10D51000E552FA0EDB380F0B0F0B1009E66E37DE03
:10D52000E552010EDB6AFC0EDB50F36E010EDBCF21
:10D53000F4FFF350F45C16E2030EDB2A040E01E361
:10D54000DB2AFD0EDBCFF6FFDB2AFE0EDBCFF7FF7B
:10D5500001E3DB2A0800F550E66E2DDEE552010EF0
:10D56000DB2AE1D7DF2AC6D7050EE15C03E200D053
:10D57000E16AE552E16EE552E7CFD9FF1200D9CF5B
:10D58000E6FFE1CFD9FF070EE126B00EF36E060EDF
:10D59000F3CFDBFF020E146EFD0EDBCFE7FF14505E
:10D5A000E726FD0EE7CFDBFF200E146EFE0EDBCF6D
:10D5B000E7FF1450E75EFE0EE7CFDBFF050EF36ECC
:10D5C000040EF3CFDBFF050EDB6A040EDBCF14F095
:10D5D000050EDBCF15F0153404E214500108000EDF
:10D5E000155474E2060EDBCFE7FF040EDB50E7268E
:10D5F000060EE7CFDBFFDBCFE6FFC9DDE552FD0E10
:10D60000DB500F0BE66EC3DDE552FD0EDB380F0B72
:10D610000F0B100FE66EBBDDE552DE6ADD6ADECF72
:10D6200014F0DDCF15F0D890155004E6050E145C0B
:10D63000000E15583BE2020EDB6A030EDB6A020E97
:10D64000DBCF14F0030EDBCF15F0D890155004E6B5
:10D65000030E145C000E155824E2FE0EDBCF14F00E
:10D66000156A14BE1568050E1502F3CF15F01402E5
:10D67000F3CF14F0F4501526E80E1426DD0E152213
:10D68000DE501424F66EDD501520F76E0800F550BC
:10D69000E66E91DDE552020EDB2A030E01E3DB2A82
:10D6A000CED7DF2A010E01E3DB2AB9D7B00EF36E25
:10D6B000060EF3CFDBFFFE0EDB2AE66A7CDDE552C9
:10D6C000040EDB06050E01E2DB067FD7070EE15CE8
:10D6D00003E200D0E16AE552E16EE552E7CFD9FFFF
:02D6E000120036
:0ED6E200D9CFE6FFE1CFD9FFE65295688D80E3
:10D6F0008D828A8A8D948D900000000000000000C9
:10D700000000000000008D8000008D90000083501C
:10D71000DF6E8D808D84E552E552E7CFD9FF120090
:10D72000D9CFE6FFE1CFD9FF020EE126FD0EDBCF18
:10D73000E9FFFE0EDBCFEAFFEF50DE6EDD6AF90E89
:10D74000DBCFE9FFFA0EDBCFEAFFEF50E66EFD0E0E
:10D75000DBCFE9FFFE0EDBCFEAFFE552E750EF6ECD
:10D76000F90EDBCFE9FFFA0EDBCFEAFFDFCFEFFFE9
:10D77000FB0EDBCFE9FFFC0EDBCFEAFFEF50DE6EE6
:10D78000DD6AF70EDBCFE9FFF80EDBCFEAFFEF50E3
:10D79000E66EFB0EDBCFE9FFFC0EDBCFEAFFE552C6
:10D7A000E750EF6EF70EDBCFE9FFF80EDBCFEAFFB5
:10D7B000DFCFEFFF020EE15C02E2E16AE552E16ECB
:10D7C000E552E7CFD9FF1200D9CFE6FFE1CFD9FF6D
:10D7D000E652E00EE66EC7EC68F0E55282DFDF6EDF
:10D7E000FE0EDB50DF1ADFCFE6FFDBEC68F0E55220
:10D7F000EE0EE66EC7EC68F0E552E552E552E7CF73
:10D80000D9FF1200D9CFE6FFE1CFD9FFFE0EDB50E2
:10D81000B00FE66EC7EC68F0E552020E146EFD0E16
:10D82000DBCFE7FF1450E726FD0EE7CFDBFFDB5031
:10D830000F0BE66EC7EC68F0E552FD0EDB380F0B00
:10D840000F0B100FE66EC7EC68F0E552E552E7CF1C
:10D85000D9FF1200D9CFE6FFE1CFD9FF040EE126B0
:10D86000DF6AFD0EDB40E840E8401F0BE76E020E6A
:10D87000E7CFDBFFFD0EDB50070BE76E030EE7CFB4
:10D88000DBFF010EDB6A030EDB50070815E3FC0E1D
:10D89000DB5012E0010EF36E030EDB5004E0D89073
:10D8A000F336E806FCE1F350DF12010EDB2AFC0E32
:10D8B000DB06030EDB2AE7D7FE0EDBCFE6FF020E08
:10D8C000DBCFE6FF9FDFE552E552DFCFE6FF7CDFEF
:10D8D000E552FB0EDBCF14F0000EE76E1418E8AE35
:10D8E00002D0143403D0E750D880145419E2FE0E4D
:10D8F000DB50156E166AD890165004E6830E155C40
:10D90000000E16580DE2FE0EDB28E66E020EDBCF8F
:10D91000E6FF78DFE552E552DFCFE6FF55DFE5525F
:10D92000FB0EDBCF14F0010EE76E1418E8AE02D048
:10D93000143403D0E750D880145411E2FE0EDB50AB
:10D9400000080DE2FE0EDB04E66E020EDBCFE6FF02
:10D9500059DFE552E552DFCFE6FF36DFE552010E33
:10D96000DB50146E040EE15C03E200D0E16AE55284
:10D97000E16E1450E552E7CFD9FF1200D9CFE6FF90
:10D98000E1CFD9FF020EE126010EDF6EFC0EDBCFE8
:10D9900014F0000EE76E1418E8AE02D0143403D071
:10D9A000E750D880145407E2FD0EDB50000803E274
:10D9B000FD0EDB06DF2AFC0EDBCF14F0010EE76E56
:10D9C0001418E8AE02D0143403D0E750D8801454B1
:10D9D00008E2FD0EDB50DF24156E3F0E155C01E200
:10D9E000DF2ADF501EE0E66ADFCFE6FFFD0EDBCF69
:10D9F000E6FFFE0EDBCFE6FF2DDFE552E552E552F6
:10DA0000E552E76E010EE7CFDBFFDB50DF5EFD0E78
:10DA1000DBCFE7FF010EDB50E726FD0EE7CFDBFF94
:10DA2000E0D7020EE15C02E2E16AE552E16EE55206
:10DA3000E7CFD9FF1200D9CFE6FFE1CFD9FF160E0D
:10DA4000E126FD0EDBCF14F0FB0EDB50D880145422
:10DA50001DE2D950FB0FE66EFF0EDA20E66ED950BC
:10DA6000FC0FE66EFF0EDA20E66ED950FD0FE66E73
:10DA7000FF0EDA20E66ED950FE0FE66EFF0EDA20BA
:10DA8000E66E4EDE146E080EE15E1450FB0EDBCF28
:10DA9000E6FFFD0EDB50E552E75C010FE76E060E78
:10DAA000E7CFDBFFFE0EDB50F36EFC0EDBCFF4FFA7
:10DAB000F350F45C14E3FC0EDBCFE6FFFE0EDB500C
:10DAC000E552E75C010FE76E050EE7CFDBFF010EC5
:10DAD000F36E070EF3CFDBFF080EDB6A10D0FE0EED
:10DAE000DBCFE6FFFC0EDB50E552E75C010FE76E93
:10DAF000050EE7CFDBFF070EDB68080EDB68050EBF
:10DB0000DB50F36E060EDBCFF4FFF350F45C01E262
:10DB1000CCD0060EDB50640D0D0EF3CFDBFF0E0EE6
:10DB2000F4CFDBFF050EDB50146E156A0D0EDBCF54
:10DB300008F00E0EDBCF09F014C00DF015C00EF08A
:10DB4000E3EC73F00B0E08C0DBFF0C0E09C0DBFF2B
:10DB5000FE0EDB50DF6EFD0EDB50E76E010EE7CFF1
:10DB6000DBFF150EDB6AFC0EDB50146E156A14C069
:10DB700008F015C009F0070EDBCF0DF0080EDBCF63
:10DB80000EF009EC74F0090E06C0DBFF0A0E07C0A8
:10DB9000DBFFDF50166E176A16C008F017C009F0D9
:10DBA000070EDBCF0DF0080EDBCF0EF009EC74F0A2
:10DBB00006C014F007C015F0090EDBCF18F00A0EEE
:10DBC000DBCF19F019501518E8AE02D0153404D087
:10DBD0001450185C1550195867E3640E166E176AD6
:10DBE000150EDB50E76E0B0EDBCF14F00C0EDBCF07
:10DBF00015F0E7501426000E1522130E14C0DBFF9B
:10DC0000140E15C0DBFF14C008F015C009F016C0D3
:10DC10000DF017C00EF0E3EC73F0020E08C0DBFF4E
:10DC2000130EDBCF14F0140EDBCF15F0640E0D6E67
:10DC30000E6A14C008F015C009F0E3EC73F004C0DC
:10DC400014F005C015F0150E14C0DBFF020EDB50FA
:10DC500027E0FA0EDBCFE6FF020EDBCFE6FF010E78
:10DC6000DBCFE6FFDFCFE6FFF5DDE552E552E5521B
:10DC7000E552E76E040EE7CFDBFF020EDBCFE7FFD6
:10DC8000040EDB50E75E020EE7CFDBFF010EDBCFB9
:10DC9000E7FF040EDB50E726010EE7CFDBFFD6D708
:10DCA000070EDB50DF2675D785D0050EDB50640DDF
:10DCB000110EF3CFDBFF120EF4CFDBFF060EDB50AD
:10DCC000146E156A110EDBCF08F0120EDBCF09F0CF
:10DCD00014C00DF015C00EF0E3EC73F00F0E08C089
:10DCE000DBFF100E09C0DBFFFE0EDB50DF6EFD0E0A
:10DCF000DB50E76E010EE7CFDBFF150EDB6A010E8E
:10DD0000DBCF14F0FB0EDB50D880145453E3640EC9
:10DD1000166E176A150EDB50E76E0F0EDBCF14F090
:10DD2000100EDBCF15F0E7501426000E1522130E4F
:10DD300014C0DBFF140E15C0DBFF14C008F015C0C3
:10DD400009F016C00DF017C00EF0E3EC73F0030EEF
:10DD500008C0DBFF130EDBCF14F0140EDBCF15F081
:10DD6000640E0D6E0E6A14C008F015C009F0E3ECE5
:10DD700073F004C014F005C015F0150E14C0DBFFDD
:10DD8000030EDBCFF3FFDB06F350000910E0FA0EC1
:10DD9000DBCFE6FF010EDBCFE6FFDFCFE6FFEEDDF8
:10DDA000E552E552E552070EDB50DF26E9D7010EBA
:10DDB000DB2AA5D7150EDB5032080CE2FA0EDBCFBA
:10DDC000E6FF010EDBCFE6FFDFCFE6FFD7DDE55252
:10DDD000E552E552160EE15C02E2E16AE552E16EBF
:08DDE000E552E7CFD9FF120064
:08DDE800000F0F0F00FF0F00F8
:10DDF00000FFFF00F00FFFF00F0F0FF0000F0F0FED
:10DE0000000000FF00000000FF000000F0FF000025
:10DE10000F0F0F0F0F00F00F0000000000F00FF0C9
:10DE20000F0F0FF0000F0F0F00F0000000FF0000B9
:10DE30000FF0000F0F0FFFF00000000F000F0F0F8B
:10DE4000FFFFF00F00FF000000F0FF00000F0F0FBA
:10DE500000F0000000FF0F0F0F0FF0FF0F0F0F0F6C
:10DE6000000F0F0F00FF000000FFFFF0F0F00000B8
:10DE7000F00F0F00000F00000000FF000000000086
:10DE8000F00F000F0F0F0FFF000F0F0F00FF00002C
:10DE900000FF0FF0F0F00FF00F0F0FF0000F0F006A
:10DEA00000000000F00F0FF0F0F0FFF00F0F0FF088
:10DEB0000000000000000000000000000000000062
:10DEC0000000000000000000000000000000000052
:10DED0000000000000000000000000000000000042
:10DEE0000000000000000000004F000000070007D5
:10DEF00000147F147F14242A7F2A122313086462DB
:10DF000036495522500005030000001C2241000044
:10DF100041221C0014083E081408083E080800505E
:10DF200030000008080808080060600000201008A1
:10DF300004023E5149453E00427F40004261514942
:10DF4000462141454B311814127F1027454545396C
:10DF50003C4A4949300171090503364949493606A9
:10DF60004949291E003636000000563600000814C4
:10DF70002241001414141414004122140802015107
:10DF80000906324979413E7E1111117E7F49494986
:10DF9000363E414141227F4141221C7F494949414E
:10DFA0007F090909013E4149497A7F0808087F0035
:10DFB000417F41002040413F017F081422417F40C2
:10DFC0004040407F020C027F7F0408107F3E4141A9
:10DFD000413E7F090909063E4151215E7F09192909
:10DFE00046464949493101017F01013F4040403FD8
:10DFF0001F2040201F3F4038403F63140814630730
:10E00000087008076151494543007F4141000204FF
:10E010000810200041417F000402010204404040FA
:10E020004040000102040020545454787F48444486
:10E03000383844444420384444487F3854545418B1
:10E04000087E0901020C5252523E7F0804047800F7
:10E05000447D40002040443D007F102844000041A2
:10E060007F40007C041804787C0804047838444419
:10E0700044387C14141408081414187C7C08040414
:10E08000084854545420043F4440203C4040207CE5
:10E090001C2040201C3C4030403C44281028440CAC
:10E0A0005050503C4464544C440008364100000039
:0DE0B0007F0000004136080002010204025A
:02E0BE00D9CFB8
:10E0C000E6FFE1CFD9FF030EE12659D8736A820E2D
:10E0D000726E739C94949396958C7288728A949EB7
:10E0E000E66AD0D8E552E76E020EE7CFDBFF00000C
:10E0F000D950020FE96EDACFEAFFEF50070B0208A2
:10E1000001E00000140EE66EBDD8E552E76E020E87
:10E11000E7CFDBFF020EDB96DB88020EDB80DB92B3
:10E12000DB94020EDBCFE6FF140EE66E3AD8E55222
:10E13000E552010EE66EA6D8E552DE6EDD6A0000FD
:10E14000110EE66E9FD8E552DE6EDD6A0000E66ACB
:10E15000110EE66E26D8E552E5520000110EE66E6D
:10E1600091D8E552DE6EDD6A0000030EE15C02E24A
:10E17000E16AE552E16EE552E7CFD9FF1200550E94
:10E18000A76EAA0EA76E0E01FF91090ECC6F0A0EA4
:10E19000D36F170EFB6F550EA76EAA0EA76EFF81E9
:10E1A0001200D9CFE6FFE1CFD9FFE652DF6AFE0EBB
:10E1B000DB50140804E0FE0EDB50340806E1140EB8
:10E1C000E66E60D8E552E00BDF6E8B9EA49EFE0EDD
:10E1D000DB50756EA4AEFED700000000000000000A
:10E1E000000000000000000000000000000000002F
:10E1F000000000000000000000000000000000001F
:10E20000000000000000000000000000000000000E
:10E2100000000000000000000000000000000000FE
:10E2200000000000000000000000000000000000EE
:10E2300000000000000000000000000000000000DE
:10E2400000000000000000000000000000000000CE
:10E250000000000000000000A49EFE0EDB500A0833
:10E2600005E1FD0EDB507F0B756E04D0FD0EDB501B
:10E27000DF10756EA4AEFED78B8EE552E552E7CF68
:10E28000D9FF1200D9CFE6FFE1CFD9FF8B9EA49E24
:10E29000FE0EDB508009756EA4AEFED700000000B4
:10E2A000000000000000000000000000000000006E
:10E2B000000000000000000000000000000000005E
:10E2C000000000000000000000000000000000004E
:10E2D000000000000000000000000000000000003E
:10E2E000000000000000000000000000000000002E
:10E2F000000000000000000000000000000000001E
:10E30000000000000000000000000000000000000D
:10E31000000000000000000000000000A49E756ADC
:10E32000A4AEFED78B8E755000D0E552E7CFD9FF53
:02E330001200D9
:0EE33200030EB16EB392B390B396B288B28E62
:10E34000B290B292A494B38E12002F0E926E0F016F
:10E35000E00E486F1F0E496FC18EC19CC70EC114DD
:10E360000809C16EF80EC1140209C16E498FC29C22
:10E37000C29EC30EC2140809C26EC2801200D9DF49
:10E38000A5EF71F0D9CFE6FFE1CFD9FF020EE1266C
:10E39000FE0EDB500F0BF36EF346F346C30EC214B2
:10E3A000F310C26EFE0EDB50EA6AA70FE96E000E94
:10E3B000EA22EF503F0BF36EF346F346030EB1141F
:10E3C000F310B16EB38EB3820000000000000000B5
:10E3D000000000000000000000000000000000003D
:10E3E000000000000000000000000000000000002D
:10E3F000B392B280000000000000000000000000A6
:10E40000000000000000000000000000000000000C
:10E41000000000000000000000000000B2909E9C80
:10E42000C2829EACFED7C3CFDEFFC4CFDDFFDECFFE
:10E4300014F0DDCF15F014C0F3FF15C0F4FF00D0C9
:10E44000020EE15C02E2E16AE552E16EE552E7CFDD
:10E45000D9FF1200D9CFE6FFE1CFD9FF030EE126A5
:10E46000020EDB6A040EF36E020EDBCFF4FFF350F4
:10E47000F45C21E22AD8EF6A30D80CE226D8EF50BB
:10E480001F0803E122D8EF6A13D01FD8EF2A25D83E
:10E49000F5E30ED02CD80CE218D8EF50E10803E1D8
:10E4A00014D8EF6A05D011D8EF062BD820D8F4E3A2
:10E4B000020EDB2AD7D7030EE15C02E2E16AE552E5
:10E4C000E16EE552E7CFD9FF1200020EDB50EA6A97
:10E4D000A70FE96E000EEA22120013D8DECF14F067
:10E4E000DDCF15F0200E145C030E15581200D9CFA5
:10E4F000E9FFDACFEAFF200ED880EE54030EED5488
:10E500001200020EDBCFE6FF3DDFE552F3CFDEFF68
:06E51000F4CFDDFF120054
:0AE51600426C61636B20627574743F
:10E520006F6E20666F72206D656E7500436C6F6351
:10E530006B206973206E6F74207365742100416CC9
:10E5400061726D0053657420446174650053657495
:10E550002054696D650053657420414D2F504D0066
:10E560003132482F32344820496E74657276616CBE
:10E5700000416C61726D204D656E750053657420AD
:10E5800044617465204D656E75005365742054694F
:10E590006D65204D656E7500746F207265747572BF
:10E5A0006E2E00507265737320627574746F6E20E6
:10E5B00000746F203132482100436C6F636B206917
:10E5C00073206E6F74207365742000414D2F504D81
:10E5D000204D656E75003234480031324800496E76
:10E5E00074657276616C204D656E75002A00416E0F
:10E5F000616C6F67004469676974616C004469739A
:10E60000706C6179204D6F646500253032643A2565
:10E610003032643A2530326400253032642F2530A0
:09E62000326400504D00414D0030
:01E6290000F0
:06E62A000001ABB122D09B
:10E63000AB838B809490550EA76EAA0EA76E0E0129
:10E64000FF910E0ED16F550EA76EAA0EA76EFF8119
:10E650000F0EBA6ECF0EBA140009BA6EBB6A0F0164
:10E66000526B800ECB6E040ECA6EA496600E776E4F
:10E670007F0E766E12000001AB91AB938B8094906D
:10E6800012000001ABA109D08B50010B04E19450A2
:10E69000010B01E1010CAB91C8DF0001ABA3C5DFA9
:10E6A000A4A63AD0A496BA50300BE842E842E84219
:10E6B000E842030819E1400EBB5C10E18B90949096
:10E6C000BA6ACA6A0E01D16B0F01526BCB68766AC7
:10E6D0007768A4960001AB81AB93010CBB2ACF0EE7
:10E6E000BA140009BA6E000CBA0EE96E0F0EEA6E8B
:10E6F000EF50300BE842E842E842E842E82AE850AE
:10E70000030BF36EF46EF346F346F346F346CF0E77
:0AE71000EF14F310EF6EF450000C4C
:06E71A00D9CFE6FFDACFC3
:10E72000E6FFE1CFD9FFE2CFDAFFE652E652E6524A
:10E73000E652D950F90F146EFF0EDA20156E020E54
:10E7400014C0DBFF030E15C0DBFF020EDBCFE6FFBC
:10E75000030EDBCFE6FFF90EDBCFE6FFFA0EDBCFD1
:10E76000E6FFFB0EDBCFE6FFD950FC0FE66EFF0E97
:10E77000DA20E66EE2EC61F0146E070EE15C02E274
:10E78000E16AE552E16E1450F3CFDEFFF4CFDDFF16
:10E79000FC0EDBCFE9FFFD0EDBCFEAFFEF6ADECF39
:10E7A00014F0DDCF15F014C0F3FF15C0F4FF040E14
:10E7B000E15C02E2E16AE552E16EE552E5CFDAFFA3
:06E7C000E7CFD9FF1200B3
:0AE7C600006A0EAEECEF73F00D6C6C
:10E7D0000E1EE86A0E22001E09AEF4EF73F0086CFC
:10E7E000091EE86A0922001E56EC75F009BE04EF06
:10E7F00074F000AE000C086C091EE86A0922046C73
:10E80000051EE86A0522000C00BEFBEF73F00188CC
:10E81000FF0C09C013F008C012F008500D02F4CF2D
:10E8200007F0F3CF06F009500E02F4CF09F0F3CF52
:10E8300008F00D02F3500726F4500822E86A092276
:10E8400012500E02F3500726F4500822E86A0922FB
:10E850000EAE2FEF74F01250085E1350095A13AE2B
:0CE86000000C0D50085E0E50095A000C10
:04E86C001E0EF66E18
:10E87000A00EF76E000EF86E00010900F550966FBD
:10E880000900F550976F03E1966701D03DD009006C
:10E89000F550916F0900F550926F0900F550936F94
:10E8A00009000900F550E96E0900F550EA6E09000B
:10E8B00009000900F550946F0900F550956F0900A3
:10E8C0000900F6CF98F0F7CF99F0F8CF9AF091C001
:10E8D000F6FF92C0F7FF93C0F8FF0001945302E1E6
:10E8E000955307E00900F550EE6E9407F8E295079E
:10E8F000F9D798C0F6FF99C0F7FF9AC0F8FF00015A
:0AE900009607000E975BBFD71200C8
:06E90A00D9CFE6FFDACFD1
:10E91000E6FFE1CFD9FFE2CFDAFFFB0EDBCF14F049
:10E92000FC0EDBCF15F00001800E15141AE1FB0E72
:10E93000DBCFE9FFFC0EDBCFEAFFEECFF3FFEDCF3D
:10E94000F4FFEE2A000EEF22F3CFE9FFF4CFEAFF47
:10E95000FD0EDBCFEFFFEF50156AF36E15C0F4FF2D
:10E9600010D0FB0EDB50FE0806E1FD0EDBCFE6FF0C
:10E970009CEC75F005D0FD0EDBCFE6FF03EC50F00C
:0EE98000E552E552E5CFDAFFE7CFD9FF1200EE
:02E98E00065031
:10E990000B02F3CF02F0F4CF03F00C02F350032686
:10E9A000000EF420046E06500D02F3500426000EF3
:10E9B000F420056E06500E02F350052607500B0298
:10E9C000F3500326F4500422000E052207500C02D7
:10E9D000F3500426F450052207500D02F35005268B
:10E9E00008500B02F3500426F450052208500C0284
:0EE9F000F350052609500B02F35005261200C5
:02E9FE00FE0E0B
:10EA0000E3CFE9FFFF0EE3CFEAFFF36AF46AEE52C9
:10EA100003E0F34AF42AFBD71200FF0EE3CFF8FF1E
:10EA2000E552FF0EE3CFF7FFE552FF0EE3CFF6FF0F
:10EA3000E552E66AE66AE66A0900F55209E0FD0E6B
:10EA4000E32A05E1FE0EE32A02E1FF0EE32AF4D7F2
:10EA5000FD0EE3CF07F0FE0EE3CF08F0FF0EE3CF8D
:04EA600009F01200A7
:0CEA6400056A046A036A026A200EE76E6D
:10EA7000D89006360736083609360236033604368D
:10EA800005360B50025C0C5003580D5004580E50C4
:10EA9000055809E30B50025E0C50035A0D50045AFE
:0CEAA0000E50055A062AE72EE4D712009B
:04EAAC00056A046A89
:10EAB000100EE76ED89008360936043605360D502C
:10EAC000045C0E50055805E30D50045E0E50055AC7
:08EAD000082AE72EF0D712001E
:08EAD800F36AF46AFF0EE12469
:10EAE000E96EFF0EE220EA6EED6607D02F0EEF64AE
:0CEAF00004D03A0EEF6001D0F32A1200AF
:04EAFC00C00EF36EE7
:10EB000000EE00F00E0E01D81200EA6002D0EE6AAC
:0CEB1000FCD7F350E9601200EE6AFCD75D
:04EB1C001DEE00F0FA
:10EB20002DEE00F0F86A019C36EC74F007EC50F022
:08EB300081EC61F0FBD712003B
:08EB3800FF0EE350ADBA04D05A
:10EB4000B06AAC8EAD8A949CADA2FED7AE6EF36E69
:04EB5000F46A120051
:0CEB5400303132333435363738396162E5
:05EB600063646566001E
:0BEB650001000300030003002B003040
:10EB70000000000000000000142D3F5A6E0100014B
:0BEB8000000000010101000000000087
:01FFF800AA5E
:01FFF900F710
:01FFFA001FE7
:01FFFB00FF06
:01FFFC0063A1
:01FFFD00F80B
:01FFFE008181
:01FFFF00F110
:00000001FF
