:020000040000FA
:0600000077EF5BF0120037
:0600080004EF50F01200AD
:060018000CEF50F0120095
:06A0000077EF5BF0120097
:02A00600120046
:06A008009BEF59F012006D
:02A00E00000050
:03A010000000004D
:06A01800A4EF59F0120054
:02A01E0002003E
:10A020000EA000007B0000000500000035B300001A
:08A030008400000001000000A3
:08A03800D9CFE6FFE1CFD9FF0B
:10A04000E65295688D808D828A8A8D948D9000006D
:10A050000000000000000000000000008D800000F3
:10A060008D9000008350DF6E8D808D84E552E55227
:10A07000E7CFD9FF1200D9CFE6FFE1CFD9FF020E1B
:10A08000E126FD0EDBCFE9FFFE0EDBCFEAFFEF504E
:10A09000DE6EDD6AF90EDBCFE9FFFA0EDBCFEAFFF9
:10A0A000EF50E66EFD0EDBCFE9FFFE0EDBCFEAFFE1
:10A0B000E552E750EF6EF90EDBCFE9FFFA0EDBCF8A
:10A0C000EAFFDFCFEFFFFB0EDBCFE9FFFC0EDBCFBC
:10A0D000EAFFEF50DE6EDD6AF70EDBCFE9FFF80E28
:10A0E000DBCFEAFFEF50E66EFB0EDBCFE9FFFC0EA5
:10A0F000DBCFEAFFE552E750EF6EF70EDBCFE9FF6B
:10A10000F80EDBCFEAFFDFCFEFFF020EE15C02E2E9
:10A11000E16AE552E16EE552E7CFD9FF1200D9CFEF
:10A12000E6FFE1CFD9FFE652E00EE66E89EC54F08F
:10A13000E55282DFDF6EFE0EDB50DF1ADFCFE6FF77
:10A140009DEC54F0E552EE0EE66E89EC54F0E552CB
:10A15000E552E552E7CFD9FF1200D9CFE6FFE1CFB4
:10A16000D9FFFE0EDB50B00FE66E89EC54F0E552DD
:10A17000020E146EFD0EDBCFE7FF1450E726FD0E36
:10A18000E7CFDBFFDB500F0BE66E89EC54F0E552B6
:10A19000FD0EDB380F0B0F0B100FE66E89EC54F041
:10A1A000E552E552E7CFD9FF1200D9CFE6FFE1CF64
:10A1B000D9FF040EE126DF6AFD0EDB40E840E840EF
:10A1C0001F0BE76E020EE7CFDBFFFD0EDB50070B28
:10A1D000E76E030EE7CFDBFF010EDB6A030EDB50F9
:10A1E000070815E3FC0EDB5012E0010EF36E030EC0
:10A1F000DB5004E0D890F336E806FCE1F350DF12C0
:10A20000010EDB2AFC0EDB06030EDB2AE7D7FE0E6F
:10A21000DBCFE6FF020EDBCFE6FF9FDFE552E55224
:10A22000DFCFE6FF7CDFE552FB0EDBCF14F0000E44
:10A23000E76E1418E8AE02D0143403D0E750D8808B
:10A24000145419E2FE0EDB50156E166AD8901650A3
:10A2500004E6830E155C000E16580DE2FE0EDB2898
:10A26000E66E020EDBCFE6FF78DFE552E552DFCF88
:10A27000E6FF55DFE552FB0EDBCF14F0010EE76E73
:10A280001418E8AE02D0143403D0E750D880145428
:10A2900011E2FE0EDB5000080DE2FE0EDB04E66E5E
:10A2A000020EDBCFE6FF59DFE552E552DFCFE6FFD6
:10A2B00036DFE552010EDB50146E040EE15C03E262
:10A2C00000D0E16AE552E16E1450E552E7CFD9FFC4
:10A2D0001200D9CFE6FFE1CFD9FF020EE126010E31
:10A2E000DF6EFC0EDBCF14F0000EE76E1418E8AE44
:10A2F00002D0143403D0E750D880145407E2FD0E86
:10A30000DB50000803E2FD0EDB06DF2AFC0EDBCF8C
:10A3100014F0010EE76E1418E8AE02D0143403D026
:10A32000E750D880145408E2FD0EDB50DF24156E90
:10A330003F0E155C01E2DF2ADF501EE0E66ADFCF48
:10A34000E6FFFD0EDBCFE6FFFE0EDBCFE6FF2DDFE7
:10A35000E552E552E552E552E76E010EE7CFDBFF2D
:10A36000DB50DF5EFD0EDBCFE7FF010EDB50E726A3
:10A37000FD0EE7CFDBFFE0D7020EE15C02E2E16A0F
:10A38000E552E16EE552E7CFD9FF1200D9CFE6FFE3
:10A39000E1CFD9FF160EE126FD0EDBCF14F0FB0E48
:10A3A000DB50D88014541DE2D950FB0FE66EFF0E2F
:10A3B000DA20E66ED950FC0FE66EFF0EDA20E66E6C
:10A3C000D950FD0FE66EFF0EDA20E66ED950FE0F73
:10A3D000E66EFF0EDA20E66E4EDE146E080EE15ECB
:10A3E0001450FB0EDBCFE6FFFD0EDB50E552E75CC1
:10A3F000010FE76E060EE7CFDBFFFE0EDB50F36EBC
:10A40000FC0EDBCFF4FFF350F45C14E3FC0EDBCF67
:10A41000E6FFFE0EDB50E552E75C010FE76E050E2E
:10A42000E7CFDBFF010EF36E070EF3CFDBFF080E65
:10A43000DB6A10D0FE0EDBCFE6FFFC0EDB50E552F0
:10A44000E75C010FE76E050EE7CFDBFF070EDB6869
:10A45000080EDB68050EDB50F36E060EDBCFF4FF53
:10A46000F350F45C01E2CCD0060EDB50640D0D0E0F
:10A47000F3CFDBFF0E0EF4CFDBFF050EDB50146EC7
:10A48000156A0D0EDBCF08F00E0EDBCF09F014C0FD
:10A490000DF015C00EF09CEC5AF00B0E08C0DBFF5F
:10A4A0000C0E09C0DBFFFE0EDB50DF6EFD0EDB5035
:10A4B000E76E010EE7CFDBFF150EDB6AFC0EDB500B
:10A4C000146E156A14C008F015C009F0070EDBCF32
:10A4D0000DF0080EDBCF0EF0C2EC5AF0090E06C0EC
:10A4E000DBFF0A0E07C0DBFFDF50166E176A16C0CF
:10A4F00008F017C009F0070EDBCF0DF0080EDBCF18
:10A500000EF0C2EC5AF006C014F007C015F0090EA8
:10A51000DBCF18F00A0EDBCF19F019501518E8AE92
:10A5200002D0153404D01450185C1550195867E344
:10A53000640E166E176A150EDB50E76E0B0EDBCF3E
:10A5400014F00C0EDBCF15F0E7501426000E152288
:10A55000130E14C0DBFF140E15C0DBFF14C008F08F
:10A5600015C009F016C00DF017C00EF09CEC5AF0A3
:10A57000020E08C0DBFF130EDBCF14F0140EDBCF8E
:10A5800015F0640E0D6E0E6A14C008F015C009F0C7
:10A590009CEC5AF004C014F005C015F0150E14C060
:10A5A000DBFF020EDB5027E0FA0EDBCFE6FF020EE8
:10A5B000DBCFE6FF010EDBCFE6FFDFCFE6FFF5DD09
:10A5C000E552E552E552E552E76E040EE7CFDBFFB8
:10A5D000020EDBCFE7FF040EDB50E75E020EE7CF93
:10A5E000DBFF010EDBCFE7FF040EDB50E726010E99
:10A5F000E7CFDBFFD6D7070EDB50DF2675D785D038
:10A60000050EDB50640D110EF3CFDBFF120EF4CFFD
:10A61000DBFF060EDB50146E156A110EDBCF08F05F
:10A62000120EDBCF09F014C00DF015C00EF09CEC3B
:10A630005AF00F0E08C0DBFF100E09C0DBFFFE0E44
:10A64000DB50DF6EFD0EDB50E76E010EE7CFDBFF68
:10A65000150EDB6A010EDBCF14F0FB0EDB50D88049
:10A66000145453E3640E166E176A150EDB50E76E32
:10A670000F0EDBCF14F0100EDBCF15F0E7501426D1
:10A68000000E1522130E14C0DBFF140E15C0DBFFE5
:10A6900014C008F015C009F016C00DF017C00EF078
:10A6A0009CEC5AF0030E08C0DBFF130EDBCF14F056
:10A6B000140EDBCF15F0640E0D6E0E6A14C008F098
:10A6C00015C009F09CEC5AF004C014F005C015F058
:10A6D000150E14C0DBFF030EDBCFF3FFDB06F350D8
:10A6E000000910E0FA0EDBCFE6FF010EDBCFE6FF3C
:10A6F000DFCFE6FFEEDDE552E552E552070EDB5017
:10A70000DF26E9D7010EDB2AA5D7150EDB5032086C
:10A710000CE2FA0EDBCFE6FF010EDBCFE6FFDFCF68
:10A72000E6FFD7DDE552E552E552160EE15C02E2A6
:0EA73000E16AE552E16EE552E7CFD9FF120073
:02A73E00D9CF71
:10A74000E6FFE1CFD9FF020EE126FD0EDBCF14F0CC
:10A75000DB06FE0EDBCF15F001E2DB061450151010
:10A7600011E0DE6ADD6ADECF14F0DDCF15F0E30E16
:10A77000145C0D0E155805E2DF2A010E01E3DB2AF9
:10A78000F2D7E3D7020EE15C02E2E16AE552E16E44
:10A79000E552E7CFD9FF1200D9CFE6FFE1CFD9FFCD
:10A7A000060EE1268D9296928D9096908D849694C9
:10A7B0008A9A939A8C92DE6ADE6ADE6ADD6ADD52DC
:10A7C000DD52D9CFE9FFDACFEAFF640EEE5C000E6E
:10A7D000EE58000EEE58000EEE580AE2D9CFE9FF0F
:10A7E000DACFEAFFEE2A000EEE22EE22EE22E9D7C1
:10A7F0008C82DE6ADE6ADE6ADD6ADD52DD52D9CF26
:10A80000E9FFDACFEAFF640EEE5C000EEE58000EB0
:10A81000EE58000EEE580AE2D9CFE9FFDACFEAFF90
:10A82000EE2A000EEE22EE22EE22E9D7AE0EE66E02
:10A8300070D8E552DB0EE66E6CD8E552230EE66E5C
:10A8400068D8E552D90EE66E64D8E552220EE66E5F
:10A8500060D8E552A10EE66E5CD8E552C80EE66EF1
:10A8600058D8E552DA0EE66E54D8E552120EE66E6E
:10A8700050D8E552A80EE66E4CD8E5523F0EE66E73
:10A8800048D8E552D50EE66E44D8E552A00EE66EE5
:10A8900040D8E552810EE66E3CD8E552600EE66E79
:10A8A00038D8E552D30EE66E34D8E552E66A31D890
:10A8B000E552A60EE66E2DD8E552AD0EE66E29D80D
:10A8C000E5528B0EE66E25D8E552AF0EE66E21D826
:10A8D000E5520A0EE66EE66A32DFE552E552A40E54
:10A8E000E66E17D8E552400EE66E13D8E552020E1A
:10A8F000E66E0FD8E552100EE66E0BD8E552060E46
:10A90000E15C02E2E16AE552E16EE552E7CFD9FF90
:10A910001200D9CFE6FFE1CFD9FF956AFE0EDB50DA
:10A920008C6E8D808D828A9A8D948D928D828D848D
:10A930009568E552E7CFD9FF1200D9CFE6FFE1CF06
:10A94000D9FF956AFE0EDB508C6E8D808D828A8ACF
:10A950008D948D928D828D849568E552E7CFD9FFD5
:10A960001200D9CFE6FFE1CFD9FF020EE126B00EEB
:10A97000DF6EB80EDF5C23E2DFCFE6FFCADFE55211
:10A98000020EE66EC6DFE552100EE66EC2DFE5523D
:10A99000010EDB6ADB50146E156AD890155004E680
:10A9A000840E145C000E155808E2FE0EDBCFE6FFA5
:10A9B000C4DFE552010EDB2AEDD7DF2ADAD7020E1B
:10A9C000E15C03E200D0E16AE552E16EE552E7CFD7
:10A9D000D9FF1200D9CFE6FFE1CFD9FF200E146EC8
:10A9E000FE0EDBCFE7FF1450E75EFE0EE7CFDBFF86
:10A9F000DBCFF6FFF76AF6BEF768050EF702F3CF76
:10AA0000F7FFF602F3CFF6FFF450F7265A0EF626BC
:10AA1000B10EF7220800F550E66E8FDFE552FE0E0C
:10AA2000DBCFF6FFF76AF6BEF768050EF702F3CF45
:10AA3000F7FFF602F3CFF6FFF450F7265A0EF6268C
:10AA4000B10EF722010EF626000EF7220800F5508F
:10AA5000E66E73DFE552FE0EDBCFF6FFF76AF6BE59
:10AA6000F768050EF702F3CFF7FFF602F3CFF6FF14
:10AA7000F450F7265A0EF626B10EF722020EF626ED
:10AA8000000EF7220800F550E66E57DFE552FE0E85
:10AA9000DBCFF6FFF76AF6BEF768050EF702F3CFD5
:10AAA000F7FFF602F3CFF6FFF450F7265A0EF6261C
:10AAB000B10EF722030EF626000EF7220800F5501D
:10AAC000E66E3BDFE552FE0EDBCFF6FFF76AF6BE21
:10AAD000F768050EF702F3CFF7FFF602F3CFF6FFA4
:10AAE000F450F7265A0EF626B10EF722040EF6267B
:10AAF000000EF7220800F550E66E1FDFE552E66A09
:10AB00001CDFE55200D0E552E7CFD9FF1200D9CFC4
:10AB1000E6FFE1CFD9FFE652FD0EDBCFE6FFF9DE1F
:10AB2000E552020E146EFC0EDBCFE7FF1450E72651
:10AB3000FC0EE7CFDBFFDB500F0BE66EEADEE552E3
:10AB4000FC0EDB380F0B0F0B100FE66EE2DEE5524A
:10AB5000FE0EDBCFE6FF3EDFE55200D0E552E552C8
:10AB6000E7CFD9FF1200D9CFE6FFE1CFD9FFFC0E26
:10AB7000DB50B00FE76EFC0EE7CFDBFFFB0EDBCF49
:10AB8000E6FFFC0EDBCFE6FFFD0EDBCFF6FFFE0E91
:10AB9000DBCFF7FF0800F550E66EB9DFE552E5526E
:10ABA000E552FD0EDB2ADBCFF6FFFE0E01E3DB2ACA
:10ABB000DBCFF7FF0800F5500CE0FD0EDBCFF6FF12
:10ABC000FE0EDBCFF7FF0800F550E66E03DFE5521F
:10ABD000E8D7E552E7CFD9FF1200D9CFE6FFE1CFA2
:10ABE000D9FFFC0EDB50B00FE76EFC0EE7CFDBFFAA
:10ABF000FB0EDBCFE6FFFC0EDBCFE6FFFD0EDBCF6F
:10AC0000E9FFFE0EDBCFEAFFEF50E66E80DFE55294
:10AC1000E552E552FD0EDB2ADBCFE9FFFE0E01E334
:10AC2000DB2ADBCFEAFFEF500BE0FD0EDBCFE9FFC5
:10AC3000FE0EDBCFEAFFEF50E66ECCDEE552EAD740
:10AC4000E552E7CFD9FF1200D9CFE6FFE1CFD9FF18
:10AC5000050EE126030EDB6A040EDB6A020E146E9B
:10AC6000FA0EDBCFE7FF1450E726FA0EE7CFDBFF43
:10AC7000F90EDB50B00FDF6EFB0EDB50B00FDF5C68
:10AC800035E2DFCFE6FF45DEE552FA0EDB500F0B73
:10AC9000E66E3FDEE552FA0EDB380F0B0F0B1009A4
:10ACA000E66E37DEE552010EDB6AFC0EDB50F36E1A
:10ACB000010EDBCFF4FFF350F45C16E2030EDB2A47
:10ACC000040E01E3DB2AFD0EDBCFF6FFDB2AFE0ECE
:10ACD000DBCFF7FF01E3DB2A0800F550E66E2DDE3F
:10ACE000E552010EDB2AE1D7DF2AC6D7050EE15C6B
:10ACF00003E200D0E16AE552E16EE552E7CFD9FF09
:02AD000012003F
:0EAD0200D9CFE6FFE1CFD9FF030EE12659D8E5
:10AD1000736A820E726E739C94949396958C72886B
:10AD2000728A949EE66AD0D8E552E76E020EE7CFAB
:10AD3000DBFF0000D950020FE96EDACFEAFFEF50D7
:10AD4000070B020801E00000140EE66EBDD8E552C4
:10AD5000E76E020EE7CFDBFF020EDB96DB88020E0A
:10AD6000DB80DB92DB94020EDBCFE6FF140EE66E97
:10AD70003AD8E552E552010EE66EA6D8E552DE6EEF
:10AD8000DD6A0000110EE66E9FD8E552DE6EDD6AC8
:10AD90000000E66A110EE66E26D8E552E552000084
:10ADA000110EE66E91D8E552DE6EDD6A0000030EEC
:10ADB000E15C02E2E16AE552E16EE552E7CFD9FFDC
:10ADC0001200550EA76EAA0EA76E0E01FF91090E76
:10ADD000CC6F0A0ED36F170EFB6F550EA76EAA0E1F
:10ADE000A76EFF811200D9CFE6FFE1CFD9FFE6526F
:10ADF000DF6AFE0EDB50140804E0FE0EDB50340860
:10AE000006E1140EE66E60D8E552E00BDF6E8B9E15
:10AE1000A49EFE0EDB50756EA4AEFED700000000AF
:10AE20000000000000000000000000000000000022
:10AE30000000000000000000000000000000000012
:10AE40000000000000000000000000000000000002
:10AE500000000000000000000000000000000000F2
:10AE600000000000000000000000000000000000E2
:10AE700000000000000000000000000000000000D2
:10AE800000000000000000000000000000000000C2
:10AE9000000000000000000000000000A49EFE0E64
:10AEA000DB500A0805E1FD0EDB507F0B756E04D008
:10AEB000FD0EDB50DF10756EA4AEFED78B8EE55213
:10AEC000E552E7CFD9FF1200D9CFE6FFE1CFD9FF96
:10AED0008B9EA49EFE0EDB508009756EA4AEFED73D
:10AEE0000000000000000000000000000000000062
:10AEF0000000000000000000000000000000000052
:10AF00000000000000000000000000000000000041
:10AF10000000000000000000000000000000000031
:10AF20000000000000000000000000000000000021
:10AF30000000000000000000000000000000000011
:10AF40000000000000000000000000000000000001
:10AF500000000000000000000000000000000000F1
:10AF6000A49E756AA4AEFED78B8E755000D0E552B4
:06AF7000E7CFD9FF12003B
:0AAF7600030EB16EB392B390B396D0
:10AF8000B288B28EB290B292A494B38E12002F0EF9
:10AF9000926E0F01E00E486F1F0E496FC18EC19C6B
:10AFA000C70EC1140809C16EF80EC1140209C16EA2
:10AFB000498FC29CC29EC30EC2140809C26EC280D1
:10AFC0001200D9DFC7EF57F0D9CFE6FFE1CFD9FFA5
:10AFD000020EE126FE0EDB500F0BF36EF346F34636
:10AFE000C30EC214F310C26EFE0EDB50EA6A800F6D
:10AFF000E96E000EEA22EF503F0BF36EF346F34684
:10B00000030EB114F310B16EB38EB38200000000D2
:10B010000000000000000000000000000000000030
:10B020000000000000000000000000000000000020
:10B0300000000000B392B280000000000000000099
:10B040000000000000000000000000000000000000
:10B0500000000000000000000000000000000000F0
:10B06000B2909E9CC2829EACFED7C3CFDEFFC4CFFF
:10B07000DDFFDECF14F0DDCF15F014C0F3FF15C0F7
:10B08000F4FF00D0020EE15C02E2E16AE552E16EFB
:10B09000E552E7CFD9FF1200D9CFE6FFE1CFD9FFC4
:10B0A000030EE126020EDB6A040EF36E020EDBCF06
:10B0B000F4FFF350F45C21E22AD8EF6A30D80CE2B6
:10B0C00026D8EF501F0803E122D8EF6A13D01FD80B
:10B0D000EF2A25D8F5E30ED02CD80CE218D8EF5083
:10B0E000E10803E114D8EF6A05D011D8EF062BD898
:10B0F00020D8F4E3020EDB2AD7D7030EE15C02E28C
:10B10000E16AE552E16EE552E7CFD9FF1200020E87
:10B11000DB50EA6A800FE96E000EEA22120013D8B3
:10B12000DECF14F0DDCF15F0200E145C030E1558A1
:10B130001200D9CFE9FFDACFEAFF200ED880EE5413
:10B14000030EED541200020EDBCFE6FF3DDFE552A9
:0AB15000F3CFDEFFF4CFDDFF1200A5
:06B15A00000000000000EF
:10B16000004F00000007000700147F147F14242AFA
:10B170007F2A1223130864623649552250000503C2
:10B180000000001C2241000041221C0014083E085F
:10B190001408083E08080050300000080808080895
:10B1A000006060000020100804023E5149453E0046
:10B1B000427F400042615149462141454B311814BC
:10B1C000127F1027454545393C4A494930017109EC
:10B1D00005033649494936064949291E00363600D5
:10B1E00000005636000008142241001414141414F0
:10B1F00000412214080201510906324979413E7E7C
:10B200001111117E7F494949363E414141227F411A
:10B2100041221C7F494949417F090909013E4149B1
:10B22000497A7F0808087F00417F41002040413F64
:10B23000017F081422417F404040407F020C027F82
:10B240007F0408107F3E4141413E7F090909063EC7
:10B250004151215E7F091929464649494931010179
:10B260007F01013F4040403F1F2040201F3F4038AA
:10B27000403F63140814630708700807615149458B
:10B2800043007F41410002040810200041417F003B
:10B29000040201020440404040400001020400203A
:10B2A000545454787F484444383844444420384403
:10B2B00044487F3854545418087E0901020C5252F5
:10B2C000523E7F0804047800447D40002040443D05
:10B2D000007F1028440000417F40007C041804785F
:10B2E0007C0804047838444444387C141414080856
:10B2F0001414187C7C080404084854545420043F57
:10B300004440203C4040207C1C2040201C3C4030DD
:10B31000403C44281028440C5050503C4464544C49
:10B3200044000836410000007F000000413608005C
:05B3300002010204020D
:01B335000017
:0AB33600DACFE4FFE2CFDAFFE652BF
:10B34000E552E5CFDAFF1100D8CFE4FFE0CFE4FF0C
:10B35000E46EDACFE4FFE2CFDAFFE652E552E5CF62
:10B36000DAFFE550E5CFE0FFE5CFD8FF1000E1ECD4
:10B3700057F04CEC58F081EC56F0CCEC53F0E66A08
:10B38000B1EC54F0E552E66AE66AB70EE66EB60E28
:10B39000E66EB3EC55F0E552E552E552E552120087
:10B3A00050EC5AF0000901E1FBD70F0148694969E7
:10B3B000B7EF59F081B01FD000017CC014F07DC000
:10B3C00015F07EC016F07FC017F07C2B000E7D2399
:10B3D0007E237F23D880580E14541B0E1554000E64
:10B3E0001654000E175406E27C6B7D6B7E6B7F6BF0
:10B3F000010E7B6F11D000017B050EE17C517D11A8
:10B400007E117F1104E17B6B010E08D005D07C0713
:10B41000000E7D5B7E5B7F5B000E00D01200C0DF04
:10B42000C9DF000901E1FCD7180EE66E040EE66ED6
:10B43000A80EE66EB60EE66EB3EC55F0E552E55298
:08B44000E552E552EDD71200C0
:08B44800000184B122D08483CD
:10B450008B809490550EA76EAA0EA76E0E01FF91D9
:10B460000E0ED16F550EA76EAA0EA76EFF810F0E9E
:10B47000BA6ECF0EBA140009BA6EBB6A0F01526BD6
:10B48000800ECB6E040ECA6EA496600E776E7F0E91
:10B49000766E12000001849184938B809490120048
:10B4A000000184A109D08B50010B04E19450010BE1
:10B4B00001E1010C8491C8DF000184A3C5DFA4A6CB
:10B4C0003AD0A496BA50300BE842E842E842E8424B
:10B4D000030819E1400EBB5C10E18B909490BA6AAE
:10B4E000CA6A0E01D16B0F01526BCB68766A77681E
:10B4F000A496000184818493010CBB2ACF0EBA1458
:10B500000009BA6E000CBA0EE96E0F0EEA6EEF502B
:10B51000300BE842E842E842E842E82AE850030BF0
:10B52000F36EF46EF346F346F346F346CF0EEF1494
:08B53000F310EF6EF450000C63
:08B53800006A0EAEA5EF5AF007
:10B540000D6C0E1EE86A0E22001E09AEADEF5AF019
:10B55000086C091EE86A0922001E3EEC5BF009BE79
:10B56000BDEF5AF000AE000C086C091EE86A092213
:10B57000046C051EE86A0522000C00BEB4EF5AF008
:10B580000188FF0C09C013F008C012F008500D022A
:10B59000F4CF07F0F3CF06F009500E02F4CF09F014
:10B5A000F3CF08F00D02F3500726F4500822E86AA2
:10B5B000092212500E02F3500726F4500822E86ABE
:10B5C00009220EAEE8EF5AF01250085E1350095AE5
:0EB5D00013AE000C0D50085E0E50095A000C10
:02B5DE001E0E3F
:10B5E000F66EA00EF76E000EF86E00010900F55021
:10B5F000706F0900F550716F03E1706701D03DD0A5
:10B600000900F5506B6F0900F5506C6F0900F5509B
:10B610006D6F09000900F550E96E0900F550EA6EFA
:10B62000090009000900F5506E6F0900F5506F6FB1
:10B6300009000900F6CF72F0F7CF73F0F8CF74F07D
:10B640006BC0F6FF6CC0F7FF6DC0F8FF00016E53D2
:10B6500002E16F5307E00900F550EE6E6E07F8E265
:10B660006F07F9D772C0F6FF73C0F7FF74C0F8FF19
:0CB6700000017007000E715BBFD71200D4
:04B67C00056A046AED
:10B68000100EE76ED89008360936043605360D5090
:10B69000045C0E50055805E30D50045E0E50055A2B
:08B6A000082AE72EF0D7120082
:08B6A800427574746F6E2050AE
:10B6B00072657373656400205049433138462053E6
:0DB6C000746172746572204B697420200063
:02B6CE00C00EAC
:10B6D000F36E00EE00F00E0E01D81200EA6002D008
:0EB6E000EE6AFCD7F350E9601200EE6AFCD768
:02B6EE001DEE4F
:10B6F00000F02DEE00F0F86A019CEFEC5AF003EC3C
:0AB7000050F00FEC5AF0FBD71200D6
:01FFF800AA5E
:01FFF900F710
:01FFFA001FE7
:01FFFB00FF06
:01FFFC0063A1
:01FFFD00F80B
:01FFFE008181
:01FFFF00F110
:00000001FF
